:020000040000FA
:0600000002011A0231EDBD
:0300130002399718
:03002B000238E8B0
:0300530002326313
:03007B0002391631
:10008300023043E5C754F84401F5C7790122000063
:100093000080FB120086B90003020104E479217891
:1000A30008B800028004F709D8FCE479297802B87B
:1000B30000028004F709D8FCE490028178447917A0
:1000C3008002F0A3D8FCD9FA781A90014A7A01BACF
:1000D30000028007E493A3F608DAF97AC47B189048
:1000E300014B78D779038015E493A3AD82AE838A5D
:1000F300828B83F0A3AA82AB838D828E83D8E9D9C6
:10010300E775829F7583FF740212012C75829175C6
:100113008300740012012C75D00075813F7518811E
:10012300751902759F00020096C09FF59FE473D076
:100133009F22D083D082C09FE493C0E0740193C018
:10014300E0740293F59F220101FF0000B400002830
:10015300002800283075A000A000A000A00000081F
:100163000008E001F0001000100010001000100063
:10017300100050005000500010001000D007000085
:10018300000000000F00010005003075070010009B
:10019300010081FF00000000FFFFFF061424140C80
:1001A300144814FF02020208025000A0000000E8F5
:1001B30003028F830100007483027F830100002008
:1001C300190279830100000B03027F8301000021E0
:1001D300190256820100002103027F8301000022DD
:1001E300190287830100002303027F830100002398
:1001F30019028B830800002403027F83010000247B
:1002030019029F830100002519FF0100FF20028FBF
:10021300830100006B83027F83010000891902AD13
:10022300830000000000027B8303000052031700D9
:10023300B41AB41AB41AB41AB41AB41AB41AB41A4B
:10024300B41AB41AB41AB41AB41A721D841D6C1DEC
:10025300020202020202020202010D00000010016A
:10026300028F830100006E83027F83010000CC199B
:100273000277830100008C07027F83010000CD1900
:10028300029D830100003582027F83010000CE19A5
:1002930002A9830100002782027F83010000CF1996
:1002A30002A783010000A781027F83010000D01908
:1002B30002A5830100009581027F83010000D1190B
:1002C30002A3830100008381027F83010000D2190E
:1002D300029B83010000B981027F83010000D319CF
:1002E3000299830100000B82027F83010000D4196D
:1002F300029783010000D51901E8030577100AFF6F
:10030300FF00013075030201060000000000000039
:1003130000000000000000000000000000000000DA
:100323000000000000FFFF0600800CE8030E093008
:10033300303030303030305942424C450512500095
:100343002003020A000201060302F0FF09FF0085F1
:10035300000000000000303030303030303059427F
:10036300424C450000000000000000102200002E57
:100373002212121252656164446174610044656221
:1003830075674461746100546F6F6C4461746100FC
:100393000857726974654461746100028F830100B8
:1003A300007183027F83010000EF1A02A183010021
:1003B30000AA15027B83030000D115027D8301008F
:1003C30000031B027F83010000EE1A0285830100F4
:1003D300008A15027B83030000CF15027D83010091
:1003E30000F91A027F83010000ED1A0283830100E2
:1003F300006A15027B83030000CD15027D83010093
:1004030000F01A027F830100000C1B0289830300A2
:0E04130000D315027D830100000D1B080703B6
:1010A80098999A9B120135C7D501120135DFD501F0
:1010B8001201350ED60112013549D6011201358EBD
:1010C800D601120135DDD60112013547D7011201CB
:1010D8003579D701120135BBD70112013513D80173
:1010E800120135D9D8011201352CD9011201351058
:1010F800DB0112013554DB0112013569DB011201F4
:101108003555DC011201356EDC011201355DDD015A
:10111800120135DCDD011201354FDE011201352ADD
:10112800DF0112013593DF011201351AE0011201C6
:10113800354BE0011201356AE0011201353EE1014B
:10114800120135D6E101120135CBE4011201355700
:10115800E5011201356DE501120135B1E501120114
:1011680035D4E501120135F7E50112013574E601C0
:101178001201352DE701120135BEE701120135FCD8
:10118800A303120135ABA403120135EDA503120127
:10119800352FA703120135E1A70312013540A80333
:1011A8001201359FA80312013551AB03120135977F
:1011B8008E04120135F58E04120135268F041201B2
:1011C80035CB8F04120135EB8F041201351C9004C6
:1011D800120135629004120135E890041201352895
:1011E800FB031201353BFB031201356CFB031201B3
:1011F80035A6FB03120135FFFB0312013546FC033C
:101208001201358EFC03120135BDFC03120135ECC9
:10121800FC0312013523FD031201356AFD03120197
:101228003583FD03120135D8FD03120135F1FD03A5
:101238001201353FFE0312013579FE03120135878D
:1012480093031201358A9403120135C394031201E2
:1012580035E69403120135F89403120135369503E7
:10126800120135B295031201357A96031201359CA5
:10127800960312013533970312013585970312013E
:1012880035B69703120135C397031201352D98031C
:10129800120135849803120135879803120135C06D
:1012A8009803120135C39803120135CD9803120132
:1012B8003521990312013562990312013595990375
:1012C800120135D29903120135D49A0312013578E7
:1012D8009B03120135E19B031201351F9C03120188
:1012E8003577EF031201359FEF03120135CCEF0379
:1012F80012013504F00312013562F003120135AE14
:10130800F00312013515F10312013555F1031201ED
:101318003592F103120135C0F1031201356AF20367
:1013280012013574F20312013581F203120135B44A
:10133800F203120135C0F203120135D8F20312018B
:1013480035E2F2031201351BA20412013529A20469
:1013580012013541A20412013558A20412013500C8
:101368008002120135AA8002120135BD81021201E4
:1013780035398202120135578302120135938302EF
:101388001201352E8402120135128502120135DE52
:1013980085021201356C8702120135DD87021201C0
:1013A80035978802120135898902120135C98902E7
:1013B8001201357D8A02120135AF8A02120135A564
:1013C8008C02120135E78C02120135058D021201DB
:1013D800356B8D021201353A8E02120135FE8E02EE
:1013E8001201351D910212013594B2031201357EA6
:1013F800B30312013529B4031201357AB40312017B
:10140800352AB5031201359BB50312013580B603A1
:10141800120135B4B603120135ADB703120135EA2E
:10142800B703120135C6B80312013505B903120115
:101438003521B9031201353C9504120135C09504D4
:10144800120135EB95041201350597041201357028
:10145800F30312013586F303120135A4F3031201D5
:1014680035B5F403120135BFF403120135EAF5036B
:10147800120135E1F6031201354EF703120135A1C9
:10148800C503120135D7C6031201350EC703120171
:101498003565C7031201357AC90312013533C30113
:1014A800120135BFC30112013523C5011201352FC1
:1014B800C5011201356AC501120135D9C5011201EC
:1014C80035E2C601120135EBC701120135B2C80178
:1014D8001201350FCA011201352DCA011201354A10
:1014E800CA01120135F7CA0112013574CB01120184
:1014F800359CCB0112013566CE011201356BCE0148
:1015080012013584D001120135D2D00112013542C1
:10151800D10112013580D1011201355CD2011201CD
:10152800351CD30112013568D3011201356BD30183
:10153800120135AFD301120135F7D3011201353647
:10154800D40112013558D4011201358CD40112018D
:1015580035EFD40112013541CB031201354FCB03CE
:10156800120135A2CB03120135C1CB031201350696
:10157800CC031201354ACD03120135E5CD03120122
:101588003529CE0312013553CE03120135C2CE03DD
:1015980012013508CF031201357FCF031201353010
:1015A800D003120135103A00120135203A00120119
:1015B80035C13A001201351D3B00120135DA3B00F6
:1015C800120135F63C00120135283D00120135574D
:1015D8003D00120135043F001201357B4100120124
:1015E80035EB4300120135DD4400120135D64500C4
:1015F800120135DD4700120135D14A0012013500CC
:101608004C00120135044E00120135144F0012012E
:1016180035A35000120135945100120135E25100F2
:10162800120135515200120135755200120135C6AA
:10163800520012013567570012013568580012012F
:1016480035C95800120135F45800120135BA59004D
:1016580012013571EB031201357BEB03120135C022
:10166800EB03120135D4EB0312013564EC031201CC
:10167800359DEC03120135D8EC0312013501ED0359
:1016880012013555ED031201356AED031201358C4F
:10169800ED03120135A1ED03120135B5ED03120179
:1016A80035CAED0312013504EE0312013530EE039D
:1016B800120135B7EE03120135FAEE031201352493
:1016C800EF031201354FEF03120135E1FE0312015A
:1016D8003544E30212013527E402120135A2E4027F
:1016E800120135DDE4021201352EE602120135BC85
:1016F800E6021201354EE90212013500EA02120132
:10170800350CEB021201357FEC02120135D8EC02E0
:10171800120135DFE20312013522E303120135A677
:10172800E3031201357DE603120135258C0412010D
:1017380035D78C04120135D38D04120135128E046D
:101748001201356C8E041201353497041201359755
:10175800970412013534980412013569980412016E
:1017680035999804120135D49804120135F4980477
:1017780012013540D503120135CCD5031201358B42
:10178800D603120135A3D703120135BDD9031201BF
:1017980035B0CC02120135D5CC02120135A2CD02EA
:1017A80012013576CE02120135E3CE02120135233D
:1017B800CF02120135BFCF02120135F3D002120158
:1017C80035CED1021201352DD202120135B9D2021D
:1017D80012013527D302120135B3D302120135F9AC
:1017E800D3021201356BD402120135FDD402120165
:1017F800359ED502120135BED50212013506D60234
:101808001201354FD6021201356BD60212013591FD
:10181800D6021201350BD70212013519D70212016F
:1018280035A8D70212013511D802120135F4D903AF
:1018380012013579DA03120135BBDA031201359F3B
:10184800DB031201350CDC0312013550DC031201F5
:101858003594DC03120135C1DC03120135E9DC03E0
:1018680012013521DD031201355FDD0312013586D2
:10187800DD0312013500DE031201354ADE031201D1
:10188800352A9102120135C99202120135019502D9
:101898001201355595021201358095021201355C09
:1018A80096021201358C9602120135BB960212017E
:1018B80035CE96021201350F97021201353C970278
:1018C8001201358A9702120135C697021201350BAB
:1018D8009802120135589802120135D29802120165
:1018E80035139B02120135FD9C02120135399D0208
:1018F800120135C89E021201350D9F021201358072
:101908009F02120135D59F02120135DA9F0212019A
:101918003566A00212013585A10212013596A10291
:10192800120135E88903120135618A031201351B5A
:101938009003120135269103120135CF920312014B
:10194800355D93031201351A9B011201359B9B01EA
:10195800120135C89B01120135119C011201351283
:101968009D011201356B9D01120135E79E0112019F
:1019780035699F01120135849F01120135F59F01D8
:10198800120135B2A00112013575A101120135030A
:10199800A201120135BAA201120135CDA20112012C
:1019A8003566A301120135FDA30112013524A401F6
:1019B8001201358DA401120135D7A4011201352574
:1019C800A501120135CAA50112013568A601120147
:1019D80035F5A60112013566A701120135ADA7013B
:1019E80012013505A80112013537A801120135F198
:1019F800A801120135F8A90112013541AA01120105
:101A0800355EAA011201357DAA01120135B0AB017C
:101A180012013567AC011201358CAC01120135A1F8
:101A2800AC0112013511AD0112013552AD0112019F
:101A38003576AE01120135F7AE0112013581ED029E
:101A4800120135CCED02120135D8ED02120135AC88
:101A5800EE02120135C3EE0212013500EF02120147
:101A68003531EF0212013562EF021201359AEF02A9
:101A7800120135F0EF0212013506F002120135426B
:101A8800F00212013555F0021201357CF002120104
:101A980035B0F002120135D6F10212013520F302F9
:101AA8001201351CF40212013539F502120135EF25
:101AB8007F00120135B9A102120135F4A102120109
:101AC8003546A502120135A2A60212013561A70208
:101AD800120135C8AA02120135B2AB02120135FE55
:101AE800AB0212013518AC0212013555AC021201D5
:101AF8003560AC021201359FAC02120135A8AC0268
:101B080012013552AD0212013529AE021201357D9E
:101B1800AE02120135DAAE021201354CAF021201E3
:101B28003538E80112013597EB011201359DEB01BB
:101B3800120135CEF201120135D5F6011201350038
:101B48008004120135968004120135AC800412011C
:101B58003505810412013549810412013583810458
:101B68001201351B82041201358A82041201359351
:101B780082041201359F8204120135B982041201D0
:101B880035E38204120135F882041201355A8304C0
:101B98001201358183041201352FE7031201353C08
:101BA800E70312013556E70312013589E7031201ED
:101BB80035C7E7031201352CE80312013541E80364
:101BC8001201354CE80312013559E803120135704A
:101BD800E8031201357EE80312013589E803120192
:101BE8003595E803120135A4E803120135AFE8037F
:101BF800120135D2E80312013576E9031201358660
:101C0800E903120135A0E903120135BDE903120108
:101C180035D8E903120135FDE90312013508EA0355
:101C28001201351DEA0312013531EA03120135921A
:101C3800EA0312013598EA031201359EEA031201FC
:101C480035A4EA03120135BCEA03120135EFEA03B1
:101C58001201352DBF02120135C4BF021201355CD5
:101C6800C0021201354CC10212013583C1021201B2
:101C78003596C10212013504C2021201359FC30212
:101C8800120135C6C30212013568C4021201359D1E
:101C9800C402120135AEC40212013527C502120171
:101CA8003548C50212013560C502120135B8C602B1
:101CB800120135C1C80212013511CB0212013514C7
:101CC800CC0212013563CC021201359BB00212011D
:101CD8003598B10212013583B2021201358DB20274
:101CE800120135AFB202120135BBB2021201350D35
:101CF800B4021201353CB4021201356CB50212016E
:101D080035AEB502120135DAB602120135B0B702A6
:101D180012013502B80212013561B8021201359874
:101D2800B802120135D3B8021201356EBC02120195
:101D38003587BC0212013509BD0212013517BD02F3
:101D48001201356CBD021201357ABD02120135E768
:101D5800BD0212013559BE021201359FBE021201A1
:101D68003534D80212013556D80212013540DA024C
:101D7800120135E5DD0212013528DF0212013502B4
:101D8800E002120135029904120135279904120163
:101D98003598990412013572F7021201357BF70262
:101DA80012013584F702120135B5F802120135D453
:101DB800FA021201350AFB0212013544FB02120134
:101DC800357AFB02120135B4FB02120135E8FB0239
:101DD80012013514FC021201355DFC02120135971F
:101DE800FC02120135DFFC0212013535FD02120139
:101DF800356AFD02120135C5FD02120135FFFD02EB
:101E080012013550FE0212013586FE02120135C05C
:101E1800FE02120135EEFE0212013511FF02120117
:101E280035E8A20412013514A3041201356FA30486
:101E380012013579A30412013589A3041201354230
:101E4800D00312013569D003120135A4D003120161
:101E58003536A404120135265A00120135365D00C4
:101E6800120135CB5E00120135465F00120135F2D2
:101E78005F001201359560001201352D61001201D5
:101E8800355C6100120135F4650012013586660083
:101E9800120135C267001201352C6800120135E0C5
:101EA8006800120135966B00120135D06B001201E3
:101EB800353A6C00120135976C00120135F46C004C
:101EC800120135516D001201353C6E001201358248
:101ED8006E00120135CD6E00120135F06E00120150
:101EE800353770001201354B7000120135BA710098
:101EF800120135F971001201353972001201358C61
:101F08007200120135AD7200120135EB7200120138
:101F1800352975001201356A7500120135057600FC
:101F2800120135777600120135B877001201355A5B
:101F3800FA0112013500FB0112013545FC011201BD
:101F480035CEFC01120135BBFD01120135FAFD0148
:101F580012013564FE01120135D2FE01120135432A
:101F6800A00412013554A0041201352FA104120156
:101F780035B486041201357F890412013540A50461
:101F880012013556A5041201355BA504120135B8B6
:101F9800A504120135369F04120135469F0412012B
:101FA800355A9F041201353DA004120135AF830450
:101FB8001201355784041201359986041201355CE3
:101FC8009C04120135AB9C04120135DD9C041201FE
:101FD800356F9D04120135F87F0012013507910411
:101FE800120135D392041201353F930412013501D1
:101FF800A50412013516A504120135459C031201EA
:10200800355A9C03120135B69C03120135219D03F4
:10201800120135699D03120135DB9D031201350458
:102028009E03120135129E03120135749E0312019C
:1020380035B29E03120135CD9E03120135689F0308
:1020480012013511A00312013594A003120135CDF8
:10205800A00312013558A103120135AFA1031201E3
:10206800350DA2031201351FA20312013545A20343
:102078001201356DA203120135C8A30312013542BE
:102088009304120135A993041201356694041201D0
:1020980035E4940412013558F7031201358BF70320
:1020A800120135BDF80312013501F903120135DDBE
:1020B800F903120135EB9D04120135C99E04120182
:1020C80035259F041201358D8904120135D2890402
:1020D800120135188A04120135E18B041201353FCB
:1020E800A1041201355AA1041201356AA104120192
:1020F80035CFA10412013593A304120135008003E2
:10210800120135DC80031201352381031201356089
:102118008103120135CE8103120135288203120191
:1021280035988203120135688303120135578403F9
:10213800120135CE84031201356A8603120135F780
:1021480086031201356A8703120135E687031201F7
:1021580035FD87031201352289031201357C890375
:1021680012013582B903120135A2B903120135A84B
:10217800BA03120135F4BA0312013514BB03120174
:102188003567BB03120135D4BB031201351ABC03F2
:102198001201357EBC031201352ABF031201352D09
:1021A800AF011201355AB4011201355DB7011201B0
:1021B8003586B701120135AFB70112013561B80193
:1021C8001201354ABA0112013595BB01120135AE2B
:1021D800BB01120135E5C0011201351EC101120112
:1021E8003562C10112013573C201120135EC770065
:1021F8001201355B78001201358E7A00120135EC38
:102208007C001201350A7D001201352C7D00120177
:1022180035107E00120135387E00120135C97E0066
:10222800120135AA7F00120135BB7F001201358FDC
:10223800AB03120135A6AC03120135C3AC0312017E
:102248003594AE03120135A2AF0312013532B10342
:10225800120135ABBF03120135BABF03120135EACB
:10226800BF0312013598C00312013512C1031201D0
:10227800352BC10312013539C10312013547C1039A
:1022880012013555C103120135D5C103120135EDCF
:10229800C10312013565C203120135D5C20312010B
:1022A80035FAC20312013557C303120135ABC30314
:1022B80012013512C40312013530C4031201354E20
:1022C800C5031201355BC50312013565C50312014B
:1022D8003589C503120135B38301120135EF830136
:1022E8001201351D8401120135B98401120135F638
:1022F80084011201350A8501120135E685011201B2
:10230800351A8601120135328601120135B9860166
:102318001201350387011201355587011201357104
:102328008701120135AF8701120135D187011201EA
:10233800356D8801120135CC8801120135D3880129
:10234800120135B78901120135428A01120135712E
:102358008A01120135C48A01120135E98A01120184
:1023680035318B011201356F8C01120135BA8C01A0
:10237800120135218D011201356D8D01120135A72C
:102388008D01120135CD8D01120135DB8D01120150
:1023980035018E01120135048E01120135059001B7
:1023A8001201355D90011201358F90011201352E11
:1023B8009101120135FD91011201355E9201120160
:1023C80035FF92011201354C9401120135C2940176
:1023D800120135239501120135A89501120135F92D
:1023E80095011201353B96011201356696011201DD
:1023F800359596011201355297011201356A9701F8
:10240800120135689801120135E49A01120135B8B4
:102418009A041201350E9B04120135719B041201B6
:1024280035879B041201358A9B04120135DB9B0416
:10243800120135BBA4041201356EA5041201358AB8
:10244800DE0312013582E2031201359AA504E06623
:10245800701008A3E066700A08A3E066700408A379
:10246800E06622C3E7960809E7960809E79608098F
:10247800E79622C3E09608A3E09608A3E09608A38F
:10248800E09622C008C3E096F50808A3E096420843
:1024980008A3E096420808A3E09645087001D3D047
:1024A8000822080808EAC0E0EBC0E086F0E7A4FAD2
:1024B800180986F0E7A42AFA180986F0E7A42AFA88
:1024C800180986F0E7A42AFA1986F0E7A4FBE5F0D4
:1024D8002AFA190886F0E7A42BFBE5F03AFA19085E
:1024E80086F0E7A42BFBE5F03AFA18180986F0E71E
:1024F800A4C5F02BFBE43AFA1908E7C5F0C6A426F0
:10250800F6E5F03BFBE43AFA1886F0E7A4F6E5F0C6
:102518000826F6E43B08F6E43A08F6D0E0FBD0E0FB
:10252800FA22E4CFC0E0E4CEC0E0E4CDC0E0E4CCE1
:10253800C0E075F020E626F608E633F608E633F63E
:1025480008E633F6181818EC33FCED33FDEE33FECD
:10255800EF33FFC3EC9709ED9709EE9709EF971949
:102568001919400FFFEC97FC09ED97FD09EE97FE4E
:10257800191906D5F0BFECF709EDF709EEF709EFE1
:10258800F7191919D0E0FCD0E0FDD0E0FED0E0FF4B
:10259800226016080808C6C313C618C613C618C68C
:1025A80013C618C613C6D5E0EA227009080808221F
:1025B8006016181818C6C333C608C633C608C6330B
:1025C800C608C633C6D5E0EA22E627F60809E63784
:1025D800F60809E637F60809E637F622E026F6088F
:1025E800A3E036F608A3E036F608A3E036F622E0C4
:1025F80026F008A3E036F008A3E036F008A3E0369A
:10260800F022C3E697F60809E697F60809E697F672
:102618000809E697F622C3E096F008A3E096F008CA
:10262800A3E096F008A3E096F022E056F608A3E0AF
:1026380056F608A3E056F608A3E056F622E056F050
:1026480008A3E056F008A3E056F008A3E056F022ED
:10265800E046F008A3E046F008A3E046F008A3E04F
:1026680046F022E0F608A3E0F608A3E0F608A3E0A7
:10267800F622E6F008A3E6F008A3E6F008A3E6F0E1
:1026880022E0FAA3E0FBA3E0FCA3E0FD22EAF0A32A
:10269800EBF0A3ECF0A3EDF022E0F8A3E0F9A3E05F
:1026A800FAA3E0FB22E8F0A3E9F0A3EAF0A3EBF039
:1026B80022CAC0E0E6F0A308DAFAD0E0FA22CAC0DB
:1026C800E0E0A3C582CCC582C583CDC583F0A3C590
:1026D80082CCC582C583CDC583DAE6D0E0CA22C3E1
:1026E800E498F8E499F91227288026C3E49AFAE4D2
:1026F8009BFBE920E7E9122728E498F8E499F922F6
:10270800C3E498F8E499F9122728E498F8E499F9C9
:10271800C3E49AFAE49BFB22EB20E7CFE920E7E049
:10272800B90010BB0008E88AF084F8AAF022E4FB9C
:10273800C8FA22EB70227B10C833C8C933C933509A
:1027480007C39AC3DBF280069A50012ADBEAC83332
:10275800F4C8C933F4C9FA2275F008E4C833C8C903
:1027680033C933C99AC99B5004C92AC93BD5F0EC6F
:10277800FBC833F4C8E4C9FA22600D08C6A2E713FF
:10278800C618C613C6D5E0F322600C08C6C313C624
:1027980018C613C6D5E0F422700422600D18C6C30B
:1027A80033C608C633C6D5E0F41822251810AF087A
:1027B800F518400C15198008F51840021519D2AF04
:1027C8002200C0D0251810AF08F518500C05198044
:1027D80008F51850020519D2AFD0D0222518F58275
:1027E80010AF08F518400C15198008F518400215A7
:1027F80019D2AF851983222518F582E43519F58396
:10280800222518F8E43519F9222518FAE43519FBB8
:10281800222518FCE43519FD22E4732518C582C069
:10282800E0E51934FFC583C0E0E518C3958224F8B4
:1028380010AF0885831985821880088583198582D9
:1028480018D2AFCEF0A3E520F0A37808E608F0A3ED
:10285800DEFAEFF0A3E58124FAF8E608F0A3E6082B
:10286800F0A3E608F0A30808E608F0A3E608F0A33A
:1028780015811581D0E0FED0E0F81581158115810C
:10288800E8C0E0EEC0E0222518C582C0E0E51934B2
:10289800FFC583C0E0E518C3958224F910AF088509
:1028A80083198582188008858319858218D2AFCE4E
:1028B800F0A3E520F0A37808E608F0A3DEFAEFF02D
:1028C800A3E58124FBF8E608F0A3E608F0A30808CE
:1028D800E608F0A3E608F0A315811581D0E0FED044
:1028E800E0F815811581E8C0E0EEC0E02285198383
:1028F800851882E0A3FEE0A3F5207808E0A3F60897
:10290800DFFAE0A3FFE0A3C0E0E0A3C0E0E0A3C0DB
:10291800E0E0A3C0E0E0A3C0E010AF08858218851E
:1029280083198008858218858319D2AFD083D08215
:10293800020132851983851882E0A3FEE0A3F52001
:102948007808E0A3F608DFFAE0A3FFE0A3C0E0E020
:10295800A3C0E0E0A3C0E0E0A3C0E010AF08858218
:10296800188583198008858218858319D2AFD0838A
:10297800D08222C0D02518C582C0E0E51934FFC531
:1029880083C0E0E518C3958224F310AF0885831946
:102998008582188008858319858218D2AFC8F0A36C
:1029A800E9F0A3EAF0A3EBF0A37908E709F0A3D8CC
:1029B800FAECF0A3EDF0A3EEF0A3EFF0A3D0E0F073
:1029C800A3D0E0F0A3D0E0F0A3E520F0A3E5F0F079
:1029D800A322851983851882E0C0E0A3E0F9A3E06B
:1029E800FAA3E0FBA37808E0F608A3DFFAE0FCA36B
:1029F800E0FDA3E0FEA3E0FFA3E0C0E0A3E0C0E0A9
:102A0800A3E0F5D0A3E0F520A3E0A3F5F010AF080C
:102A18008583198582188008858319858218D2AF25
:102A2800D082D083D0E0F8D0E032740480067402FB
:102A380080027401C0E0F4041227E4D0E01226B941
:102A4800227404800474028000CCC0E0EDC0E0E58C
:102A580018C39CCCAD1950011D10AF068C188D19E8
:102A680080068C188D19D2AF1226C6D0E0FDD0E0B2
:102A7800FC22D083D082E9C0E0E493A3C386F0C5EA
:102A8800F095F0F908E493A386F0C5F095F0700B83
:102A9800E493A3C3994005E9048002A3E475F00216
:102AA800A42582F582E5F03583F583D0E0F9E49337
:102AB800A3C0E0E493C0E022D083D082ECC0E0ED74
:102AC800C0E0E493A3FCE493A3FDED4C600D122B4E
:102AD8000CEC24FFFCED34FFFD80EFE493A3FCE451
:102AE80093A3FDED4C600D122B4BEC24FFFCED3451
:102AF800FFFD80EFD0E0FDD0E0FCE493A3C0E0E46C
:102B080093C0E022C0E0C3E493960874019396183A
:102B1800400FE4936670080874019366187000709B
:102B280019A3A3C3E49396087401939618A3A3402A
:102B38000DD0E0D0E0D0E0022AFCA3A3A3A3A3A376
:102B4800D0E022C0E0C0F088F0E493667008087412
:102B5800019366187000A8F0A3A3700BD0F0D0E022
:0E2B6800D0E0D0E0022AFCA3A3D0F0D0E022FF
:102B780074F612288FEAFEEBFF8C088D09EE2434D8
:102B8800F8E43FF9E8FCE9FDEE2435122E8BFAEE65
:102B98002437122E8BF88508F0A4C885F00A850919
:102BA800F0A4250AF9EA28F8E439F97A257B001215
:102BB8002728EA8C828D83F0FA131313541FF8EE3A
:102BC80028F8E43FF9E8245DF582E439F583E0C0AC
:102BD800E074075AF8D0E0B800028004C313D8FCA8
:102BE800A2E0EE50082434F582E43F80182436121F
:102BF8002E8BF5F0EA84A8F0EE28F8E43FF9E824F3
:102C080038F582E439F583E0F97F0302293B74F74C
:102C180012288FEAFEEBFFEE2434122E8BC0E0EE72
:102C28002435F582E43FF583D0E0F08E828F83A3CC
:102C3800A3A3A3A3A3A3C082C0838E828F83A3A3CD
:102C4800A3A3A3E0F8A3E0F9D083D082E0C398F56A
:102C580008A3E099F509EE247F122E8B6401703EDB
:102C6800EE2480F582E43FF583C082C0838E828F94
:102C780083A3A3A3A3A3E0240108A3E03400F9D00D
:102C880083D082E0687003A3E06970127CFD7D0444
:102C98001219EEEE247FF582E43FF583E4F0AC08E8
:102CA800AD09EEFAEFFB122B78E9F91238DA7F0258
:102CB80002293BC082C083851882851983E0F8A366
:102CC800E0F9C3EA9CEB9D5010C3EC98ED99401BCA
:102CD800C3EA98EB995014800EC3EA98EB99400721
:102CE800C3EC98ED994004790180027900D083D033
:102CF8008222EAC39CFAEB9DFB2274EF12288F9084
:102D080003C2E064086005E06407702A9061C8E0C7
:102D180060249003F0E0F4601DE0F875F00BA4C89F
:102D2800AAF02AF974F228FE740339FF8E828F8381
:102D3800A3A3A3E07003022E10906060E0C0E0EE51
:102D48002468F582E43FF583D0E0F0750C6D750DCD
:102D580005750800750900E5D914F50AE5D9540385
:102D6800F50E60127403650E6043E50A600AEE24EE
:102D780067122E8B70028075900568E06401601FF1
:102D8800122E8860047A0480027A00E50AC39AFA4F
:102D980095E0FB1218988A088B09EA450970051214
:102DA8001C3A8064122E8870048A0C8B0DE50A6028
:102DB80012850C82850D83F50BE5D9F0A3150BE57B
:102DC8000B70F6122E88604474FC250AF50A780CFC
:102DD800122A36AC0AA90EEEFAEFFB121AAE7402EA
:102DE8001227C9E97026AA08AB0912208A793D8EF4
:102DF800828F83A3A3A3A3E0FA7B001216FAEEFA4C
:102E0800EFFB121A12121AC07900806F7403650E54
:102E18006051850A107511007810122A36AC0CAD75
:102E28000DAA08AB09121A7274021227C9EE246897
:102E3800122E8B64807004747F8001E0F50C780C8E
:102E4800122A3AE50EF50C780C122A3AA90AAC08AF
:102E5800AD099003F0E0FA7B001216D07402122735
:102E6800C980139003C2E06408600BAC0CAD0DEE92
:102E7800FAEFFB121B38121C4679017F0A02293B24
:102E8800EE2483F582E43FF583E02274F212288F62
:102E980074FC1227B3EAFEEBFF8909A2AFE433F50D
:102EA80008C2AF022F5DE0601B780C122A36AC0B0B
:102EB800A90EEEFAEFFB121AA874021227C97404BD
:102EC800250BF50B7401250BF5D9850ED9E50B609B
:102ED80018F50A850C82850D83E0F5D9A385820C47
:102EE80085830D150AE50A70EA75E195EE2463F805
:102EF800E43FF97A007B00A2AFE433F50BC2AF8858
:102F0800828983E0FCA3E0FDEC4D603A88828983E6
:102F1800E0FAA3E0FB8A828B83E0FCA3E0FD8882D1
:102F28008983ECF0A3EDF08A828B83E4F0A3F08828
:102F3800828983E0FCA3E0FDEC4D700A88828983D6
:102F4800A3A3E4F0A3F0E50BA2E092AF12208A90CD
:102F58000504E004F0EE2463122E8BF8A3E0F9E8F0
:102F6800496064EE2463122E8B2402F8A3E0340037
:102F7800F988828983E5822402F50CE43583F50D0E
:102F8800E0F50BA3E0F50EEE2462122E8B640170BF
:102F9800369061D0E0F8122E8860047C0480027CB0
:102FA800007480C398FA95E0FBE50B2CF8E4340034
:102FB800F9E82402F8500109C3EA98EB99A2D2650E
:102FC800D0334003022EAE900504E0604D90050515
:102FD800E0F8900504E0C398500C74026509703A53
:102FE800900506E060348E828F83A3A3A3A3E085B7
:102FF800188285198312303274021227FFE81230C2
:1030080032900503E028F07402122819AA18AB19A7
:103018007901121724900504E4F0E508A2E092AFC4
:1030280074041227C97F0702293BF0A3E4F0900536
:1030380004E0F8228521878522C622C0E074EB12BD
:10304800297BA2AFE433F508C2AF759B009061827B
:10305800E0A2E05030E591A2E0502A7591FE74019B
:10306800652170211231D6121B861231C4122A49E9
:1030780012368474041227C9E964017005790112B3
:103088001BCE122D02906182E0A2E5505DE591A26F
:10309800E550577591DF9003C2E064076005E0646E
:1030A80008702F1231D674016521703E121B8612EA
:1030B80031C4122A4912368474041227C9E96401FA
:1030C80070057901121BCE7901EEFAEFFB122E93EF
:1030D8008018E0640D70139003E4E004F064287035
:1030E80002E4F07A00E0F9121C4C906182E0A2E65A
:1030F8004003023199E591A2E640030231997591A6
:10310800BF9003C2E064057008121B6E121B7A8020
:1031180003121B74752100121BDAE99003C3F079BE
:1031280000121BCE12195E7A017B009003C1E0F9F0
:1031380012205A907803E06442705690056CE014AF
:10314800F0704EC2AF12315000782AD0E0F618D095
:10315800E0F6E59F5407F87005750DFF8003750DBF
:103168007FC4C0E07829E6F50A08E6550DF50B742A
:103178000B780A122791D0E0250AF8906270E0A235
:10318800E740F8E8C333906272F0906270E0D2E0F2
:10319800F0906181E0A2E35009E5E9A2E3500375EC
:1031A800E9F7A3E0A2E75009E591A2E7500375917A
:1031B8007FE508A2E092AF7F080229DA8E828F832A
:1031C800E0F8A3E0C82416F582E438F583229003DA
:1031D800F0E0F875F00BA4C8AAF02AF974F228FEFA
:1031E800740339FF22C0E0C0D0C082C083906183DD
:1031F800E0A2E05009E5BFA2E0500375BFFEE0A2DF
:10320800E15009E5BFA2E1500375BFFDE0A2E2501D
:1032180009E5BFA2E2500375BFFBE0A2E35009E550
:10322800BFA2E3500375BFF7E0A2E45009E5BFA2CF
:10323800E4500375BFEFE0A2E55009E5BFA2E550F1
:103248000375BFDFE0A2E65009E5BFA2E6500375AB
:10325800BFBFD083D082D0D0D0E032C0E074F212A9
:10326800297BE5A7A2E6500FE5A1A2E6500953A7DE
:10327800BF75A1BF1232B7E5A7A2E5500CE5A1A220
:10328800E5500653A7DF75A1DFE5A7A2E15009E5E0
:10329800A1A2E1500375A1FDE5A7A2E2500CE5A1AA
:1032A800A2E2500653A7FB75A1FB7F010229DA743D
:1032B800F712288F7521019003C2E0640670151279
:1032C8001AE48A828B83A3A3A3A3A3A3E0FAA3E0AF
:1032D800FB121B5CA2AFE433FED2AF9003C8E064DC
:1032E8000170187A207B009003C1E0F912218C7AD2
:1032F800207B009003C1E0F9122060906182E0D247
:10330800E6F0900569E0602185C62280169003C723
:10331800E064017008E5C654F84405F5C653BEFCE0
:1033280012303C7401652160E4EEA2E092AF7F02A6
:1033380002293B008E238F248582288583278518C0
:1033480082851983E0CEA3E0CF852882852783EB89
:10335800C9EAC8EDCBECCA75F010C3E833C8E93345
:10336800C9EA33CAEB33CBC3EA9EF526EB9FF525B2
:10337800B35004AB25AA26EC33CCED33CDD5F0DA27
:10338800AE23AF242274E912288F74FA1227B3EA05
:10339800FEEBFF8C0A8D0B121B92EAF8EBF9ECFAA4
:1033A800EDFB8E828F831226AD9003C2E024F7C313
:1033B800940550067514010234F4121AE48A088B35
:1033C80009EA450970030234F1EEFCEFFDAA18ABD7
:1033D80019121B8C850882850983A3A3780C1226F1
:1033E8006B90831B780C1226328518828519837896
:1033F8001012266B90831B7810122632780C7910E5
:1034080012246B501F780C791012260A9082BB7810
:103418000C12248B4047850C14850D15850E1685D6
:103428000F1780459082BB851014851115851216DB
:103438008513177814790C12260A781412248B50E5
:103448001C75140075150075160075170178147928
:103458001012260A7814790C1225D1800C751401E3
:10346800751500751600751700740978141225B2C1
:103478009082B7780C12266B7814790C12252A855D
:103488000882850983A3A3A3A3A3A3123512122735
:1034980028880C890DE4F50EF50F7814790C12259F
:1034A800D174041227FF123512122728E8FA8A0C61
:1034B800E4F50D7814790C12246B50077814790C04
:1034C80012260A9003C2E06408600AE064066005F8
:1034D800E0640570209082AF781412248B50169007
:1034E80082AB78141225E4800C75140075150075EC
:1034F8001600751700850A82850B83781412267AC0
:1035080074061227C97F1002293BE0F8A3E0F97A74
:10351800D07B032274F712288F121BA4900567E052
:1035280064017010906245E4F0A3F053F4F343FE95
:103538000C5390F3121B4AE5C654B84441F5C6E54E
:103548009E5447644170F8906185740FF09005654A
:10355800E0F47002A3E0604E900566E06008146035
:103568001B14602E8040750801750900900565E000
:1035780078081227A0E508F45280802A750801759A
:103588000900900565E078081227A0E508F4529034
:103598008014750801750900900565E07808122700
:1035A800A0E508F452A079007F0202293B74F712C3
:1035B800288FE9FEEAFF121BA474016E700C7A8052
:1035C8007B009003C1E0F912205A903A08E493F482
:1035D8006008E493F9121952800953C6B8E59E545D
:1035E8004770FA121B50900567E0640170031219C6
:1035F80070900565E0F47002A3E0604B900566E00A
:10360800600814601A14602C803D75080175090063
:10361800900565E078081227A0E5084280802875A3
:103628000801750900900565E078081227A0E508EB
:1036380042908013750801750900900565E07808C7
:103648001227A0E50842A0121AE48A088B09A808E4
:10365800A909E8496014E5E170FCE82414F582E45E
:1036680039F583E0F46003E0F5E174016F700A7ADC
:10367800019003C1E0F91220F00235B074F112286C
:103688008F8A088B098C0A8D0B90831B7808122669
:1036980032740F1227FF780C12266B90831B780C5C
:1036A8001226327808790C12246B9082BB5010785D
:1036B80008790C12260A780812248B4014800E7898
:1036C8000C790812260A780C12248B500479018090
:1036D8000279007F0802293B74ED12288F8A088B33
:1036E800098C0A8D0B90831B7808122632741312EA
:1036F80027FF780C12266B90831B780C12263278E1
:103708000C790812246B40117808790C12260AAA41
:1037180008AB09AC0AAD0B80227510007511007555
:1037280012007513017810790C12260A781079089E
:103738001225D1AA10AB11AC12AD137F0C02293B94
:1037480090831B780812266B8A828B83780812264E
:10375800457F0402293B74F512288F8C828D83786B
:103768000812266B8A828B83780812261E1237B6B7
:10377800C3E09CF0A3E09D1237A840229082CF7846
:103788000812266B8A828B8378081225F78A828B27
:1037980083A3A3A3A3E02420F0A3E0344EF080A0E9
:1037A800F088828983C3E09420A3E0944E22EA241F
:1037B80004F8E43BF98C828D83A3A3A3A3E0FCA3C4
:1037C800E0FD888289832274F512288FE9FE90052E
:1037D8001FE0FAA3E0FBEE29F8E433F974FB28F5BF
:1037E80082748139F583E02AF508A3E03BF509786E
:1037F80008122A3690830F12268912333C7402125B
:1038080027C98A088B098C0A8D0B74107808122531
:1038180099AA08AB097F0402293B74F112288F8A00
:103828000C8B0D8C0E8D0F74111227FF122A4D74FC
:10383800111227FFE02401F508A3E03400F509E49C
:10384800F50AF50B780C79081224AA9082B3780847
:1038580012266B780C79081224AAAA0CAB0DAC0EB0
:10386800AD0F12333C74021227C98B09EA4509606F
:10387800047A0180027A00EC2AFCE43DFD741312FC
:1038880027FFE0F8A3E0F9E8FEE9FFECF8EDF97AA4
:10389800717B0212272888088909E4F50AF50B8E3E
:1038A800828F83780812267AECF8EDF97A717B0218
:1038B8001227288A088B09740578081227A08E8297
:1038C8008F83A3A3A3A3E508F0A3E509F07F08026B
:1038D800293BC082C083E9906000F0D083D0822267
:1038E800C0E0C0D0E8C0E0E9C0E0A2AFE433F8D25D
:1038F800AFC2C7751A00E8F9E8A2E092AFD0E0F9C4
:10390800D0E0F8D0D0D0E032C2AF02000022C0E050
:1039180074F212297BA2AFE433FED2AFE58AA2E5A6
:10392800502490160DE0701E908317122A497A08C9
:103938007B009015F8E0F912218074041227C9E978
:1039480090160D7401F09018C0E064017030901862
:10395800BFE0702AE58AA2E6502490160EE0701E99
:10396800908317122A497A007B089015F8E0F9121B
:10397800218074041227C9E990160E7401F0758A23
:1039880000C2EBEEF8EEA2E092AF7F010229DAC0A6
:10399800E0C0D0E8C0E0E9C0E0EAC0E0EBC0E0C0C9
:1039A80082C083A2AFE433FAD2AF9018C17400F09A
:1039B8009017BF7402F0ABC1EBC0E09017C0E0F8FD
:1039C800790074C128F582741739F583D0E0F09036
:1039D80017C0E02401F09017C0E064FA7003538622
:1039E800BFC28BEAF8EAA2E092AFD083D082D0E0DF
:0F39F800FBD0E0FAD0E0F9D0E0F8D0D0D0E03248
:103A0800FFFFFFFFFFFFFFFFC082C083E990198817
:103A1800F0D083D08202013274F6122823E9900391
:103A280034F0900394E0F5087509007402780812E0
:103A380027A0AA08AB091220D89003351243D390C7
:103A480003351247C0606F900394E075F003A4FA41
:103A5800ABF01220D89003521243D390035212476E
:103A6800C0700B9003351247911220DE80489003F6
:103A7800521257257AFF7BFF121F347A0080198A69
:103A880008750900740278081227A01251CD74FF36
:103A9800123BD3E4F0A3F00A900394E0F8EAC39849
:103AA80040DD79051215C2900334E0F91214AE7A9C
:103AB8004C7B1612183802527074F41228238A08A4
:103AC8008B09EB54806047900334E0F91220428A56
:103AD8000A8B0BAE0AAF0BEE4F602A8E828F83E003
:103AE80064B0701A1215D4E960148E828F83A3A370
:103AF800A3A3E0F9EE2405FAE43FFB1215A4EEFABD
:103B0800EFFB122030AA08E5096480FB80047A00E4
:103B18007B00023D2374F212282374FB1227B3EAB8
:103B2800FEEBFFEE4F604574031227FFEEF0A3EFA4
:103B3800F0851882851983ECF0A3EDF07402122742
:103B4800FFE9F0AA18AB191214A8E9F50870757402
:103B5800131227FFE0F50AA3E0F50BE50A450B6011
:103B6800638E828F8312415CEE4F70057508028068
:103B7800537A067B001220D88A0C8B0DA80CA90D4D
:103B8800E8497005750813803B88828983E4123BF5
:103B9800D3EEF0A3EF123CEFE50AF0A3E50BF090AB
:103BA8000338123CE89003386017E0FCA3E0800378
:103BB800EAFCEBFD8C828D83123CE870F38C828DDD
:103BC80083124DE8A90874050259A5F0A3125707F6
:103BD800A32274F21228238908890C750D00740336
:103BE800780C1227A0850C0A850D0B900337F090EE
:103BF8000335124BF3123CE6602E1220DE7900806A
:103C08001D890C750D007402780C1227A0900335DD
:103C180012508C8882F583A3A3E4F0A3F0099003E3
:103C280094E0F8E9C39840D9900394E0FA850AF043
:103C3800A4CAA8F0850BF0A428FB1220D88A0C8B04
:103C48000DAE0CAF0DEE4F7003023CDC900394E018
:103C5800FC850AF0A4CCA8F0850BF0A428FD790017
:103C680012201E7C0080318D0C750D007403780CB9
:103C78001227A08A828B83123CE188828983E4F030
:103C8800123CEEA3A3F0A3F00DEDC3950840D8EEC7
:103C9800250AFEEF350BFF0C900394E0F8ECC3986F
:103CA80050288C0C750D007402780C1227A0900314
:103CB80035123CE1E82402500109FAE9FB8A828BBB
:103CC80083EEF0A3EFF07D0080BFE508900337F0A6
:103CD8007900800279130259A8125090F922A3A3FF
:103CE800124795EA4B22A3125707A3A3A32274F401
:103CF8001228237900EAA2E0501F75089F750982EF
:103D08007808122A3679107C047D007A8A7B191289
:103D180015BC74021227C9E9F980007F040228F54E
:103D2800C082C0839003381247C0601C8882898390
:103D3800A3A3E06A7003A3E06B8882898370E8A379
:103D4800A3A3A312479180047A007B00023A197456
:103D5800F212282374FD1227B3EAFEEBFF851882BE
:103D6800851983E4F0A3F074021227FF7401F0129E
:103D780047BD70141217721220D890033B1243D318
:103D88001247BD7003023EE91244D3EE2404F50A3B
:103D9800E43FF50B850A82F583E024FE603C24FCB1
:103DA800607424FE607E24FE7003023E3924FE7097
:103DB80003023E4624FE7003023E5324FE700302B3
:103DC8003E6024FE7003023E6D24FC7003023E8EAA
:103DD80024FE7003023EA6023EE212177290033DD3
:103DE800EAF0A3EB123EF51211F0E96003023EE29D
:103DF80090033D122A4D8E828F83A3A3A3A3A312FF
:103E0800572585088285098312479112158C7402FB
:103E18001227C9023EE2AC18AD19EEFAEFFB1215F3
:103E2800DA023EB1AC18AD19EEFAEFFB1215E080DC
:103E380078AC18AD19EEFAEFFB1215E6806BAC18EA
:103E4800AD19EEFAEFFB1215EC805EAC18AD19EE69
:103E5800FAEFFB1215F28051AC18AD19EEFAEFFB30
:103E68001215F880447402122809880C890D780C00
:103E7800122A367402122819EEFAEFFB1215FE7494
:103E8800021227C98023AC18AD19EEFAEFFB1216FF
:103E980004E9F8701674021227FFE4F0803CAC18AD
:103EA800AD19EEFAEFFB12160AE9F8E8602C8E82DB
:103EB8008F83A3E064146022850A82850B83E090D7
:103EC800033DF085188285198312479190033E12AD
:103ED80043D3E8A3123EF51211EAEEFAEFFB1215EE
:103EE8006274021227FFE0F974030259A5F07C3DC1
:103EF8007D038508828509831247952274E8122874
:103F08002374FA1227B374041227FFECF0A3EDF020
:103F18008A128B13EA2405F50EE43513F50FEA240B
:103F280002F510E43513F511851082F583124791D7
:103F38001212E08A0A8B0B7508007C037D00790059
:103F48007A3D7B0312201EE50E2402F516E4350F98
:103F5800F5177402122809880C890D780C122A3674
:103F6800850E82850F83A3A3A3A3E0F50C750D002E
:103F7800780C122A36E50E2405F50CE4350FF50DFC
:103F8800780C122A36851682851783124A981214DD
:103F9800C674061227C98A0C8B0DE50C450D7003F3
:103FA8000241258020851882851983E088828983CB
:103FB800F00508851882851983A3E0C0E0124166E0
:103FC800D0E0F00508E50A24FBFAE50B34FFFBC353
:103FD800E5089AE49B40030241257E007F00851294
:103FE80082851383A3A3A3A3E0F5097809122A3ACB
:103FF800E4F514F5157814122A3675143A75150374
:104008007814122A3690033B122A4D74091227FF9E
:10401800122A4DE50A24F9F9AC0CAD0D85108285FC
:10402800118312479112163474091227C9E96003E3
:104038000240C6850E82850F83A3A3A3A3A3A3A3CF
:10404800E0F890033AE0687075E0F5148E1578147E
:10405800122A36125722850E82850F83A3A3A3A3A3
:10406800A3A3A3A312479112201874021227C9E927
:10407800604C90033E1247C0703BE4F5147814126C
:104088002A367CFF7DFF79078510828511831247C8
:104098009112159E74021227C91247C67017850E11
:1040A80082850F831258BF74041227FF12518012A1
:1040B8004AC9024159850C82850D8312415CA818B2
:1040C800A919881489157814122A3674041227FF3E
:1040D800122A4D8516828517831243C91214D27489
:1040E800041227C98A0C8B0DEE4F7003023FA212EF
:1040F8004166EE124171124A7FEF124171F8A3E056
:104108003400F9E50C450D6003023FAD88828983D0
:1041180074FFF0050812416674FFF00508E50860B1
:104128001A1313543F1243D91211FCE96009900382
:104138003E12479112208A79008016850E82850FDB
:10414800831258BF74041227FF125180124DE87968
:104158000A024A52A3A3A3A3E0FEA3E0FF22A808F1
:1041680090033EE028124A7F22F005080890033E9B
:10417800E0282274E812282374FA1227B374021272
:1041880027FF1243D374041227FFECF0A3EDF07459
:10419800021227FFE02405124A68E0F50CA3E0F5B7
:1041A8000D74021227FFE02402F510A3E03400F595
:1041B80011851082F5831247911212E07508007577
:1041C8000900EA24FCFEEB34FFFF8008050CE50C2F
:1041D8007002050DA808C3EE98EF9400500302433F
:1041E80085A818A919880E890F780E122A36851401
:1041F80082851583A3A3A3A3125729122A36E5148F
:104208002405F50EE43515F50F780E122A368514B7
:10421800828515831243C71214C674061227C98AE9
:104228000E8B0FEA450F7003024385EA2404F51646
:10423800E4350FF517851682F583E0F50CA3E0F554
:104248000D8518828519831257258A828B83A3A32B
:10425800A3E0F98510828511831247911214B4E9FD
:10426800F509600302438574021227FF124A8FF58D
:10427800097809122A3AE4F512F5137812122A3647
:1042880075123A7513037812122A3690033B122AD4
:104298004D74071227FF122A4DEEF9AC0EAD0F85AB
:1042A800108285118312479112163474091227C996
:1042B800E9F5096003024385E508703FE4F50EF56A
:1042C8000F780E122A367CFF7DFF790985108285CA
:1042D800118312479112159E74021227C9124AB50A
:1042E800700D74041227FF1243BC79110243B99070
:1042F800033AE0240290033EF0801490033EE0FA73
:1043080090033AE0790024025001096A497072A8C2
:104318000890033AE0FAE82AFAE43400FBEE9AEF50
:104328009B405A851682851783E0C0E090033F12B0
:10433800416BD0E0F00508851682851783A3E0C09D
:10434800E00890033F12416BD0E0F0050890033A73
:10435800125729122A36125722A808124A5C12202C
:104368000674021227C990033AE02508F50874FF7D
:10437800650C700474FF650D60030241D4E50860A4
:104388001F90033EE0F5F0E508841243D9121202AB
:10439800E9600990033F12479112208A7900801141
:1043A800E509700375090A74041227FF1243BCA9B2
:1043B80009024A52124BF7E50CF0A3E50DF022A3CF
:1043C800A31259B4AA0CAB0D22A3A3EAF0A3EBF0F5
:1043D8002290033DF07C3D7D038510828511831278
:1043E80047952274EC12282374FC1227B3124EF856
:1043F800740212281912478B1214CC8A0C8B0DEAFE
:10440800450D70030244C31244D3A818A919881093
:1044180089117810122A367CFF7DFF790B85088276
:1044280085098312479112159E74021227C91245F5
:10443800C9700C850A82850B83124AC60244D08E45
:10444800828F83A3A3A3A3E0F5127812122A3AE479
:10445800F512F5137812122A3675123D7513037882
:1044680012122A367810122A3674091227FF122AD5
:104478004D74091227FFE0F9AC0CAD0D8508828553
:10448800098312479112163474091227C9E9FE707C
:10449800157C3D7D03850882850983124791121298
:1044A80008E97009802074166E70027E0090033E41
:1044B80012479112208AEE7004800B7E01850A82D1
:1044C800850B83124DE5EEF9024DFAEE2402F5084C
:1044D800E43FF5092274EC12282374FC1227B3EA8E
:1044E800FEEBFF8C0E8D0FEE2405F508E43FF50971
:1044F80074021228198508828509831247911214BB
:10450800CC8A0C8B0DEA450D70030245B9EE2402E6
:10451800F50AE43FF50BA818A91988108911781035
:10452800122A367CFF7DFF790D12478B12159E7477
:10453800021227C91245C9700B85088285098312A2
:104548004AC6807A8E828F83A3A3A3A3E0F512784C
:1045580012122A3A850882850983A3A3122A4D7567
:10456800123D7513037812122A367810122A3674FF
:10457800091227FF122A4D74091227FFE0F9124782
:104588008712163474091227C9E9FE700F7C3D7D25
:104598000312478B12120EE97009802074166E7090
:1045A800027E0090033E12479112208AEE7004802A
:1045B8000B7E01850882850983124DE5EEF9024DCF
:1045C800FA1247D0F510A3E0F511EA45112274E874
:1045D80012282374FE1227B38A168B178C148D1594
:1045E800EA2405F50CE43517F50DEA2402F50EE486
:1045F8003517F50F850E82F5831247911212E08A5E
:10460800088B09750B007C037D0079007A3D7B03DC
:1046180012201E750A00E50814F5100424FFF50899
:10462800E50934FFF509805490033DE0FA90033A18
:10463800E0F8EA28F8E43400F9E50898E509995023
:104648000D90033DE0F8E510C39890033AF0E0F5CB
:10465800127513007812122A3612572290033EE080
:104668002AFAA3E03400FB12200674021227C9902C
:10467800033AE0F890033DE028F0050A850C8285AE
:104688000D83A3A312509C400302476C90033DE0A6
:10469800C39508E49509400302476CAE0AEE2EFE66
:1046A800E433FF1247ABAC18AD1912573DE439FBA0
:1046B8001214CC8A128B13AC12AD13EC4D701B750F
:1046C8000B0112479B124DE990033E123CE8600330
:1046D80012208AA90B7402024A5485168285178310
:1046E800A3A3A3A3E0F50B780B122A3AE4F512F57D
:1046F800137812122A3675123A7513037812122A91
:104708003690033B122A4D74071227FF122A4DA92F
:1047180010850E82850F8312479112163474091280
:1047280027C9E9F50B709B90033E1247C06003024E
:104738004630E4F512F5137812122A367CFF7DFF15
:10474800790F850E82850F8312479112159E740288
:104758001227C91247C6600302463012479B124A05
:10476800CA0246DD7C3D7D03850E82850F83124794
:1047780091121214E960030246D079000246DDACBA
:104788000CAD0D850A82850B8312479522E0FAA3AA
:10479800E0FB221247ABE0FAA3E0F9EA8514828530
:1047A800158322850C82850D83E02EF8A3E03FF95E
:1047B800888289832290033B1258C3E84922124712
:1047C800D0F8A3E0F9E8492290033EEAF0A3EBF021
:1047D80090033EE02274E812282374FA1227B37477
:1047E800041227FF1243D38C168D1774041227FF67
:1047F800E02405F50EA3E03400F50F74041227FF3A
:10480800E02402124A681247911212E08A0A8B0BBE
:104818007F007E00A818A919880889097808122A33
:1048280036850E82850F83A3A3A3A3E0F5088E091E
:104838007808122A36E50E2405F508E4350FF5093F
:104848007808122A36850E82850F83A3A3124A9808
:104858001214C674061227C98A0C8B0D8029124AB5
:1048680089F00F124A89F00F90033A124DD4122A98
:1048780036125722EFF8124A5C12200674021227E9
:10488800C990033AE02FFFE50C450D700302491863
:10489800851882851983124F0AA3A3A3E0F985140A
:1048A800828515831247911214B4E9FEE50C24049D
:1048B800F510E4350DF511EE705074041227FF124F
:1048C8004A8FF5087808122A3AE4F508F5097808B5
:1048D800122A3675083A7509037808122A369003A1
:1048E8003B122A4D74071227FF122A4DE50A24FAB3
:1048F800F9AC0CAD0D8514828515831247911216FB
:104908003474091227C9E9FE6039124AA5124DE824
:10491800EF7003024A3F90033EE0F5F0EF84900306
:104928003DF07C3D7D0385148285158312479112E5
:10493800121AE9600990033F12479112208A790000
:10494800024A528F08EF703BE4F512F51378121201
:104958002A367CFF7DFF79118514828515831247DD
:104968009112159E74021227C9124AB57009124A8B
:10497800A5124AC9024A5290033AE0240490033E21
:10498800F0803590033AE0F890033EE0FAE824041A
:10499800FCE43400FDEC6A4D600302491EE50A247C
:1049A800FAFAE50B34FFFBE50828F8E43400F9EAE5
:1049B80098EB99500302491E851082851183E0C047
:1049C800E090033FE02FF8A3E034008882F583D01D
:1049D800E0F00F851082851183A3E0C0E0124A76CB
:1049E800D0E0F00F740212280988088909780812A3
:1049F8002A3674021227FF122A4D850E82850F83EC
:104A08001243C71214D274041227C98A0C8B0DEAF8
:104A1800450D700302486674021227FFE0C0E012D9
:104A28004A76D0E0F00F74021227FFA3E0C0E0122C
:104A38004A76D0E002486EEE70027E0A850E8285C4
:104A48000F83124AAB124DE8EEF974061227C97F9C
:104A5800100228F590033FE028FAA3E03400FB2277
:104A6800F514A3E03400F515851482F58322124A63
:104A78007A2290033FE02FFAA3E034008A82F5837C
:104A880022124A7A74FF22124BF7A3A3A3A3E022AF
:104A98001259B4850E82850F83124795228510829C
:104AA8008511831258C38516828517832290033F88
:104AB800EAF0A3EBF090033F1258C3E84922124DE5
:104AC800EEE8F0A3E9F079112274EA12282374FEC3
:104AD8001227B38A088B098C128D13EA2405FEE489
:104AE8003509FFAC18AD198E828F831247911214C5
:104AF800CC8A0C8B0DEE2406F50EE43FF50FEA4543
:104B08000D7003024BC9E5082402F50AE43509F5DE
:104B18000B8A828B83A3A3A3E0A2E5502885188281
:104B28008519831247911216288A108B11EA4511AC
:104B380060207912124787851082851183122821F7
:104B4800E9F50C707F850E82850F83E06009795244
:104B58008011750C0E806D850882850983A3A3A337
:104B6800A3E0F9E4F508F5097808122A368E828F51
:104B780083A3A3E0F5087808122A368E828F83A3D0
:104B8800A3A3122A4D8E828F8312572512478B12A8
:104B9800163A74061227C9E9F50C7011850E82853C
:104BA8000F83E0702D12478B121220802574166532
:104BB8000C7011750C0074181227FF124BF3E48067
:104BC80010750C011258BB851282851383E8F0A377
:104BD800E9F0850E82850F83E0600479008002A9E0
:104BE8000C74021227C97F0E0228F5124BF722E037
:104BF800F8A3E0F58388822274EC12282374F71254
:104C080027B38A0A8B0B8C108D11EA2405FEE43534
:104C18000BFF750C00AC18AD198E828F831247916B
:104C28001214CC8A088B09EA45097003024DBFE5C6
:104C38000A2402F50A5002050B8A828B83A3A3A3D8
:104C4800E0A2E5502F851882851983124791121624
:104C5800288A0C8B0DEA450D604F7912AC08AD0916
:104C680012478B850C82850D83122821E9F50C608B
:104C780003024DC2850A82850B83E0F508A3E0F59F
:104C880009AA08FB12161CEA4B70197AFF7BFF125F
:104C9800161CEA4B7003024DB58A828B83E508F037
:104CA800A3E509F07508008008750C0E024DC205D1
:104CB80008900337E0F8E508C3984003024DB5852E
:104CC800080E750F007403780E1227A08A828B8352
:104CD800A3A3E0250EF8A3E0350F12518970D08EFA
:104CE800828F83124DDD1243D38E828F83A3A3124A
:104CF8004DDD1243D1EE2404F508E43FF50985089B
:104D080082F583E088828983A3A3A3A3F0A3E4F0B8
:104D1800EE2405F50EE43FF50F850E82F583124D5E
:104D2800DDA3A3A3A31243D175120775130078124C
:104D3800122A36EEFCEFFD740412281112200674B4
:104D4800021227C9E4F5127812122A3685088285DC
:104D58000983E0FC7D00791712478B12159E7402B7
:104D68001227C974071227FF1243D374071227FFAB
:104D7800E0FA4B603D850882850983124DD4122ADA
:104D880036850E82850F831257251220067402126B
:104D980027C9740212281912478B121226E96026B5
:104DA80074071227FF12479112208A8019750C097F
:104DB8008008750C118003750C011258BB85108290
:104DC800851183124DE8A90C74098028E0F508754F
:104DD80009007808221247958882898322124DEEAD
:104DE800E8F0A3E9F022E0F8A3E0F9850E82850F48
:104DF800832274041227C97F0C0228F574EC122848
:104E080023124EF8751000EE2402F50CE43FF50D60
:104E1800850C82F58312479112161C8A088B09EAC1
:104E280045097003024EDC850A82850B83E0640124
:104E38006003024ED1AC08AD09AA0AAB0B121610DA
:104E4800E9606E85088285098312415EEE2406F5C5
:104E58000AE43FF50B8E828F83A3A3122A4D8E821C
:104E68008F83A3A3A3A3122A4D850A82850B8312DD
:104E78002A4D79188E828F83124F0A124791121683
:104E88003A74061227C9E9F8741668700B850A8205
:104E9800850B83E4F0A38014E860128E828F83125E
:104EA8004791850E82850F83EAF0A3EBF088108086
:104EB80018780E122A36AC08AD09EEFAEFFB121676
:104EC8001674021227C9E9F510AA08AB09121622AE
:104ED800E510700E850C82850D8312479112122CF5
:104EE8008009741665107003751000A910024DFF33
:104EF800EAFEEBFF8C0E8D0FEE2405F50AE43FF574
:104F08000B221259B4850C82850D832274EA12286B
:104F1800237508007509007E007F00750A00EC24DF
:104F280002F510E43DF5118035EC65087003ED6578
:104F3800096003024FC988828983A3A3E06A7003CA
:104F4800A3E06B707C88828983A3A3A3A31258BFB4
:104F5800EE28FEEF39FFEA28FAEB39FB050A125072
:104F680099503A850A0C750D007403780C1227A025
:104F780085108285118312508C125189601FE508B3
:104F8800450970A58C088D098882898312415C883F
:104F9800828983A3A3E02EFAA3E03F80BEE50AC37B
:104FA80094025003025087750800750900EE4F609F
:104FB80010EEFAEFFB1220848A0E8B0FEA450F7071
:104FC800057900025089750B0002505C850B0C7541
:104FD8000D007403780C1227A0851082851183E0D8
:104FE800250CF50CA3E0350DF50DE50C2406F5149C
:104FF800E4350DF515851482F58312518E6042E56E
:105008000C2404F512E4350DF513851282F583128C
:105018002A4DE50E2508FAE50F3509FB122006741E
:10502800021227C9851282851383E02508F508A393
:10503800E03509F5098514828515831247911220F8
:105048008AE50B600D7C087D007900AA0CAB0D1277
:10505800201E050BE50BC3950A5003024FD485109B
:10506800828511831258BF88828983A3A3A3A3A32F
:10507800A3E50EF0A3E50F123CEFEEF0A3EFF079F5
:1050880001024BEE12509022E0250CF8A3E0350DFA
:1050980022900337E0F8E50AC3982274F012282317
:1050A8008A0E8B0F8C0A8D0B750D00750C008050C5
:1050B8007916EE2406F508E43FF5098E828F83A35E
:1050C800A3122A4D8E828F83A3A3A3A3122A4D85F0
:1050D8000882850983122A4D850E82850F83A3A332
:1050E80012479112163A74061227C9E9F50D74167B
:1050F800650D706C850882850983E4F0A3F0050CC2
:10510800900337E0F8E50CC3985066AA0C8A087536
:105118000900740378081227A0850A82850B83A3E7
:10512800A31251D8E8FEE9FF8E828F8312518E6058
:1051380040EA2401F508E43400F509900337E065F6
:10514800087002E509601488828983A3A3A3A3A336
:10515800A3A3A31247C060030250B879180250BA3B
:10516800E9609B1258BB74101227FF125180124D30
:10517800E8A90D7F080228F5E0FAA3E0F5838A8202
:1051880022F9888289831259B4EC4D2274F61228C8
:10519800237C0080010C900394E0F8ECC398501E27
:1051A8008C08750900740278081227A01251CDE006
:1051B8006A7003A3E06B70DDE8FAE9FB80047A000B
:1051C8007B000252709003351251D888828983225D
:1051D800E02508F8A3E03509F92274F21228238A99
:1051E800088B09750A0080278E828F83A3A3A3A347
:1051F800123CE6600312208A7C087D007900EEFAF2
:10520800EFFB12201E8E828F83E4F0A3F0050A12B2
:1052180050995027850A0C750D007403780C1227D5
:10522800A0850882850983A3A3E0250CFEA3E035A9
:105238000DFF8E828F831247C070AD850882850965
:105248008374FFF0A3F00259A874F61228231215EC
:10525800CE8A828B83E582458370067A007B008044
:1052680007A3A3A3A31247917F020228F574F4129F
:10527800282389088C828D83E06402703C12585E72
:10528800FEA3E0F9EEF874026870037429697029C6
:10529800750A02750B00780A122A3674101227FF55
:1052A800122A4D74101227FF122A4DA908121F4600
:1052B80074061227C9E9F980027901023D2374E8CE
:1052C80012282374FB1227B3E9851882851983F005
:1052D8008A168B17ECFEEDFF7510008E828F83A364
:1052E800A3A3E0A2E4502D741D1227FF12479112C8
:1052F80016288A828B83E582458370030256FD79DE
:105308000AEEFCEFFDAA16AB17122821E9F510608A
:1053180003025700741F1227FFE0F508A3E0F50900
:1053280074211227FFE0F50AA3E0F50B7423122776
:10533800FFE0F50EA3E0F50F8E828F83E064026034
:105348000302569EA31258BF850882850983A38548
:105358008212858313EE2406F50CE43FF50D88824E
:10536800898312573DF514E439F5157814122AC0CB
:10537800010000280128A0530700022865540328CB
:10538800D353002994550129BF5502296055032993
:105398009455042938569E56E50E450F600302566B
:1053A80099850C82850D831258BFE8FAE9FB8A8239
:1053B8008B83E0850A82850B83125748122A368A26
:1053C800828B83A3E0FCA3E0025622E50E450F6022
:1053D80003025699850A82850B837401F0125732AD
:1053E800850882850983F07C007D008E828F83A3E7
:1053F800A3A3A3E02401FAA3E03400FB1214CCEA2F
:105408004B60408A828B83E02402F8850A82850BF0
:1054180083E028F0EA2404F8E43BF988828983E0F1
:10542800851282851383125756125748122A368AD4
:10543800828B83A3125725E5082403FAE43509FB78
:10544800025627850A82850B83E02404F07C047DBC
:10545800007900AA12AB1312201E025700E50E4570
:105468000F6003025699125732FEA3E0FF850A82A5
:10547800850B837404F0EE850882850983F0EF8537
:105488001282851383F07403122819EEFAEFFB12C7
:1054980014CC8A0C8B0DEA450D70030255438A82A1
:1054A8008B83A3A312415C7401122809880E890F0B
:1054B800780E122A3674051227FF122A4D7CFF7DBA
:1054C800FF1214D274041227C98B0FEA450F7033E8
:1054D800850C82850D83125729122A36850C828500
:1054E8000D83A3122A4D7C027D007A8D7B831212D4
:1054F800CE74041227C9E9700A74011227FF74FFD9
:10550800F0A3F08E828F83E064027039750C027507
:105518000D00780C122A368E828F83A3125725E548
:10552800082404FAE43509FB12200674021227C97C
:10553800850A82850B83E02402800974011227FF03
:10554800EEF0A3EFF074011227FF1257177401123F
:1055580027FF12570E025693E50E450F60030256B9
:1055680099850C82850D831259ADAA16AB17121FA7
:105578004C850A82850B837402F08508828509832D
:10558800EAF0851282851383EB025696E50E450FE5
:105598006003025699125732F8A3E0F9850A82850A
:1055A8000B837402F0E8850882850983F0E9851287
:1055B80082851383025696850C82850D8312479146
:1055C800122000EAFAF8C3950EE4950F405CE865EE
:1055D8000E450F70047A008021851882851983E0B2
:1055E800FCE50E2CFCE4350FFDC3EC98ED9400505F
:1055F80003E08005E50ECAC39AFAEA850A82850B9C
:1056080083F08A0A750B00780A122A36850C82857F
:105618000D83E0250EFCA3E0350FFDAA08AB0912A7
:10562800200674021227C902570075100702570096
:10563800E50E450F705B850C82850D831258BF857A
:105648000A82850B837407F08882898312570F12A8
:105658005707E0851282851383F0E82402FAE439BB
:10566800FB8A828B831257178A828B8312570EA369
:10567800A3123CEE12571CF0E82405F850010988E3
:1056880082898312571CA3125756A3A3A3A3F080A1
:105698006775100B8062741D1227FF12479112154F
:1056A800CE8A828B83E5824583604A1258BF880C74
:1056B800890DE8450D603E74251227FFE0F5107846
:1056C80010122A3A780E122A36780A122A367808E0
:1056D800122A3674071227FFE0F9EEFCEFFDAA162E
:1056E800AB17850C82850D8312282174071227C9F0
:1056F800E9F510800375100EA9107405024A54F0DC
:1057080088828983A322A3E08508828509832212DF
:10571800575DF02212575DA3A32290033B1259B4A0
:1057280022E0F50E750F00780E22850C82850D8318
:10573800124BF7E022E0FAA3E0F8E4C8F9EA2822DD
:10574800F08A828B83E0F50A750B00780A221257DB
:105758000712575D22E0850882850983A3A3227476
:10576800EE12282374FE1227B38A088B09ECFEED8B
:10577800FF890AAC18AD19EEFAEFFB1214CC8A0CAB
:105788008B0DEA450D700302584F851882851983E1
:105798001247911215CE8A828B83E5824583700366
:1057A80002584AA3A31258BF880E890FE8450F7004
:1057B8000302584A74141227FFE0F510A3E0F5110C
:1057C800E50AF50B780B122A3A74191227FF122AE8
:1057D8004D7810122A36741B1227FFE0F9AC0CAD75
:1057E8000DAA08AB09850E82850F8312282174053E
:1057F8001227C9E9F50B705274FE650A604C850CD6
:1058080082850D83E06402704112585EFAA3E0F9C4
:10581800EAF87402687003742969702E851082850D
:10582800118312573DF50CE439F50D780C122A3620
:10583800EEFCEFFDAA08AB0912165274021227C932
:105848008008750B0E8003750B01A90B74021227D3
:10585800C97F0A0228F5A31258C388828983E022E7
:1058680074F612282374FE1227B3740C1227FF1241
:1058780058BFE8851882851983F074011227FFE95B
:10588800F0E4F508F5097808122A36750802780850
:10589800122A367404122809880889097808122AF5
:1058A8003679FE12163A74061227C974021227C9ED
:1058B8000252708E828F831258C322E0F8A3E0F957
:1058C8002274F7122823EAFEEBFF8908900352128C
:1058D8005725121F4CEA5402600BA908EEFAEFFB99
:1058E8001214C0800279017F010228F574F212288F
:1058F8002374FE1227B3EAFEEBFF890A7401650AD6
:1059080060147402650A60030259A37901121856DB
:10591800E960030259A3EEFAEFFB12161CEA4B608A
:1059280003121622A818A919880889097808122AC2
:10593800367508027509007808122A3675087B75CD
:1059480009837808122A367CFF7DFF7A017B0012D2
:1059580014C674061227C98038850882850983A36E
:10596800A3A3A3A3A31259ADEEFAEFFB121F34E4CD
:10597800F50CF50D780C122A3674021227FF122A3C
:105988004D7CFF7DFFAA08AB091214D274041227BC
:10599800C98A088B09E508450970BE74021227C92F
:1059A8007F060228F5124BF71259B422E0FCA3E057
:1059B800FD2274F41228238A088B09ECFEEDFF906F
:1059C8001988E0F4604B7A097B0012202AEA4B60C0
:1059D800408A828B8374B1F0A3E4125A1CF08A8245
:1059E8008B83A3A3E508F0A3E509125A1CA3EEF0E4
:1059F800A3EFF0740C1227FF1258BF8A828B83A37F
:105A0800A3A3A3A3A3A3124DE8901988E0F9122039
:105A180036023D23F08A828B83A3A3A3A32274EECC
:105A280012282374FA1227B38A0A8B0BE9FF8C0811
:105A38008D097E00850A0C850B0D780C122A7A00D8
:105A48000410025D6E5A915AB05AD35AF65A195B2D
:105A58004A5B6D5B845BB45B635C865CA95CD75C0A
:105A6800025D025DDD5B74016F701985088285092E
:105A780083E0C39403500D850882850983E0901A5A
:105A880074F080027E18025D2A74026F7015850812
:105A980082850983E0F8A3E0F9901A75E8F0A3E994
:105AA800F080027E18025D2A74016F7019850882E1
:105AB800850983E0C39402500D850882850983E037
:105AC800900795F080027E18025D2A74016F7019A4
:105AD800850882850983E0C39405500D8508828571
:105AE8000983E0900796F080027E18025D2A74010F
:105AF8006F7019850882850983E0C39402500D856B
:105B08000882850983E0900797F080027E18025D7D
:105B18002A74106F7027750C10750D00780C122AF6
:105B280036AC08AD097A987B071220067402122752
:105B3800C98A0C8B0D850C82850D8380027E180224
:105B48005D2A74016F7019850882850983E0C39402
:105B580002500D850882850983E09007A8F080022D
:105B68007E18025D2A74016F700D8508828509838D
:105B7800E0901A78F080027E18025D2A74046F7033
:105B88002690830F780C12266B8508828509837806
:105B98000C12247B50118508828509831226A19056
:105BA80007AA1226AD80027E18025D2AEF70211224
:105BB8001466E97013121EDAE9F50D7950122162A4
:105BC800E9F50C121EC8800A90083D7401F08002A5
:105BD8007E18025D2A74076F707C750E06750F00BB
:105BE800780E122A36850882850983A3AC82AD8394
:105BF800740212281112200C74021227C98A108B01
:105C08001185100E85110F7C007D00AA18AB19852F
:105C18000882850983E0F9121E6EE9F50CE50CC3CC
:105C2800940A502E121466E97015A90C121EE0E9A8
:105C3800F50E7950122162E9F50D121EC88019A8D7
:105C48000C7900743E28F582740839F5837401F0E4
:105C580080067E0280027E18025D2A74016F701928
:105C6800850882850983E0C39402500D85088285E2
:105C78000983E09007A9F080027E18025D2A74016A
:105C88006F7019850882850983E0C3940A500D85D1
:105C98000882850983E0901A77F080027E18025DF9
:105CA8002A74016F7025850882850983E0C39407EB
:105CB8004019850882850983E0C39411500D850831
:105CC80082850983E0901A79F080577E1880537492
:105CD800016F702290083CE0F50C850882850983E5
:105CE800E090083CF0E50C703990083CE0640170E5
:105CF80031121EC8802C7E188028C3E50A9427E537
:105D08000B9400501B74026F7016850882850983F6
:105D1800E0FCA3E0FDAA0AAB0B1212E6E9FE800242
:105D28007E02EEF974061227C97F0A0228F574EC80
:105D380012282374DA1227B3890D8A128B138C0A5E
:105D48008D0B743A1227FFE0F50C90828DAC18ADDC
:105D58001974061226C6AC18AD19AA12AB13A90DF0
:105D6800121E6EE9FEEEC3940A4003025EAAEEF923
:105D7800121EAAE9FF901A74E0640270047401808C
:105D8800027400F5087808122A3AAD0CEFFCEEF917
:105D9800AA0AAB0B121F1C74011227C97C147D00C0
:105DA8007900741212281112201E8A0E8B0F850E8C
:105DB80008850F0974121228197A1075F006EEA4D6
:105DC8002424F912215CE9703C7C1079FF741212CA
:105DD800281112207EE9702D74221227FFAC82ADA3
:105DE800837A0475F006EEA42425F912215CE9F5FE
:105DF800087412122819EFA2E0E433F9AA0AAB0BCF
:105E0800121370E9F874061228197A0C74702EF9B6
:105E180012215CE970797406122811121E9E750E03
:105E280000E50EC394045067A80E7900E875F003E6
:105E3800A4C8AAF075F000A42AFA75F003E9A42A08
:105E4800F974061227FFE58228F508E58339F50974
:105E5800850882850983E0F8A3E0F9E849602C8584
:105E68000882850983A3A3E0F51075110078101244
:105E78002A36850882850983E0FCA3E0FDAA0AABDF
:105E88000B12164074021227C9E9F8050E8092EF2A
:105E9800A2E1500E900794E0F9AA0AAB0B1216463D
:105EA800E9F87404650C700F901A74E064027007C6
:105EB800AA0AAB0B121F16790074261227C97F0C89
:105EC8000228F574F7122823EAFEEBFF121466E99C
:105ED800706790083DE06401701B121EDAE9F5084E
:105EE80090083D7400F07C0A7D0079007A3E7B08BA
:105EF80012201E8039750800E508C3940A502FA89F
:105F0800087900743E28F582740839F583E0640145
:105F18007018A908121EE0E9FAA8087900743E284A
:105F2800F582740839F5837400F0050880CA795041
:105F3800122162E9F508121EC87F010228F574F2E1
:105F4800122823890BEAFEEBFF8C088D09750A0AD3
:105F5800E50B600C146009146044146064025FEB84
:105F6800EEFAEFFB121EBCE9F50AE50AC3940A50E3
:105F780072E5084509606C750C06750D00780C1201
:105F88002A36EEFCEFFDAA08AB09122006740212AD
:105F980027C98A0C8B0D850C82850D838045EEFA06
:105FA800EFFB121EB6E9F50AE50AC3940A5034E578
:105FB800084509602EAA08AB09A90A121EB0E98093
:105FC80022EEFAEFFB121EC2E9F50AE50AC3940AAB
:105FD8005011E5084509600BAA08AB09A90A121E69
:105FE800B0E9F8A90A7F060228F574F21228238A74
:105FF8000C8B0DE9FF7E1574FF650C700474FF654A
:106008000D702A750800E508C3940A5014EFFC7A4D
:10601800027B00A908121E8CE960027E0005088038
:10602800E5EF60627A047B1F12187A8059AA0CABDC
:106038000D12184A8A0A8B0B850A08850B09E50890
:10604800450960407C007D00E5082405FAE435092F
:10605800FB850882850983A3A3A3A3E0F9121E6E1A
:10606800E9F50AE50AC3940A500EEFFC7A027B00B0
:10607800A90A121E8CE97E00EF600BAA08AB091270
:106088001F0480027E14EEF97F060228F574EE12D2
:1060980028238A0E8B0F8C0A8D0B74121227FFE0AF
:1060A800F50CA3E0F50D75081574FF650E70047402
:1060B800FF650F701E7E00EEC3940A5061AC0CADF4
:1060C8000DAA0AAB0BEEF9121E92E96003750800DF
:1060D8000E80E4AA0EAB0F12184A8A108B11AE106C
:1060E800AF11EE4F60357C007D00EE2405FAE43FE9
:1060F800FB8E828F83A3A3A3A3E0F9121E6EE9F59A
:1061080009E509C3940A5016AC0CAD0DAA0AAB0BED
:10611800A909121E92E97508008003750814A908D8
:106128007F0A0228F574F7122823EAFEEBFF90078E
:10613800AEEEF0A3EFF0900794E0FC7D007A267BAA
:10614800001212E6E9F508900794E0F91215AA7F03
:10615800010228F574F012282374EC1227B38A0C74
:106168008B0D850C82850D83A3A3E024FA700302AE
:1061780065D524FD700302644A14700302624C144E
:10618800601024FD70030263F21470030264890234
:1061980065E8AE0CAF0D9007AEE0F8A3E0F9E8496A
:1061A80060669007AEE0F8A3E0F5838882E0F8A384
:1061B800E0F9E8496052EE240CF582E43FF583E00B
:1061C800F5087808122A3AEE240BF582E43FF583A5
:1061D800E0F98E828F83A3A3A3A3A3A3A3A3A3E021
:1061E800FCA3E0FDEE2403FAE43FFB9007AEE0F8E1
:1061F800A3E0F5838882E0F8A3E0F583888212287B
:106208002174011227C980398E828F83A3A3A3A387
:10621800A3A3A3A3A3122A4D9007AA122689121397
:106228008274021227C9E9601879018E828F83A3CC
:10623800A3A3A3A3A3A3A3A3E0FAA3E0FB12137C45
:10624800E90265E8AE0CAF0D7508008E828F83A356
:10625800E060030263748E828F83A3A3A3A3A3E0E9
:10626800A2E04003026374900848E0F8A3E0F9E86C
:106278004960030263747C0E7D007900AA18AB198B
:1062880012201E8A0A8B0BAA0AAB0BEE240CF5828D
:10629800E43FF583E0F8A3E0F9E8496036750A06BB
:1062A800750B00780A122A36EE240CF582E43FF5C5
:1062B80083E02410FCA3E03400FD740212281112BC
:1062C800200674021227C98A0A8B0B850A82850B5D
:1062D80083804F8E828F83A3A3A3E0FAA3E0FB12EF
:1062E800184A8A0E8B0F850E0A850F0BE50A450B97
:1062F800602D750E06750F00780E122A36E50A24F1
:1063080005FCE4350BFD74021228111220067402F4
:106318001227C98A0E8B0F850E82850F8380030290
:1063280065E88E828F83A3A3A3A3A3E0A2E250040F
:10633800D2F08002C2F0A2F0E433F87900740C12B3
:1063480027FFE048F0A3E049F0EEFCEFFDAA18AB08
:1063580019121EA4E970127A027B00900794E0F9E2
:1063680012205AE979000265EA7508159007AEE02F
:10637800F8A3E0F9E849606F9007AEE0F8A3E0F50C
:10638800838882A3A3E0F8A3E0F9E84960598E82E4
:106398008F83A3E0FC79018E828F83A3A3A3E0FA05
:1063A800A3E0FB9007AEE0F8A3E0F5838882A3A3FF
:1063B800E0F8A3E0F5838882122821E5086028AC7C
:1063C8000879038E828F83A3A3A3E0FAA3E0FB904E
:1063D80007AEE0F8A3E0F5838882A3A3E0F8A3E082
:1063E800F58388821228210265E8AE0CAF0D90076C
:1063F800AEE0F8A3E0F9E84960459007AEE0F8A3FD
:10640800E0F5838882A3A3E0F8A3E0F9E849602FC8
:10641800850C82850D83A3E0FC79028E828F83A38D
:10642800A3A3E0FAA3E0FB9007AEE0F8A3E0F583AE
:106438008882A3A3E0F8A3E0F583888212282102CA
:1064480065E8AE0CAF0D7C007D00EE2404FAE43F55
:10645800FB8E828F83A3A3A3E0F9121E6EE9F508D1
:10646800E508C3940A5017EE240AFCE43FFD7A04B9
:1064780075F006E508A42425F9122156E9F8026505
:10648800E8AE0CAF0D9007A9E06019901A77E0F913
:106498008E828F83A3A3A3E0FAA3E0FB12137CE907
:1064A800F80265E8901A74E0701679058E828F8379
:1064B800A3A3A3E0FAA3E0FB12137CE9F80265E8C2
:1064C8008E828F83A3A3A3E0FAA3E0FB12184A8A63
:1064D8000A8B0B850A08850B09E508450970030234
:1064E80065E88E828F83A3A3A3A3A3A3A3E0A2E05E
:1064F800506D850882850983A3A3A3A3E060608EFD
:10650800828F83A3A3A3A3A3A3A3A3A3E0F50AA3B2
:10651800E0F50B7409780A122791E50A5401F8E5A9
:106528000B5400F9E8A2E04036740E122819E50869
:106538002405FAE43509FB850882850983A3A3A30A
:10654800A3E0F9121E6EE9701679038E828F83A379
:10655800A3A3E0FAA3E0FB12137CE9F80265E8EED6
:106568002405FCE43FFD850882850983A3A3A3A332
:10657800E0F98E828F83A3A3A3E0FAA3E0FB121FA6
:10658800109007AEE0F8A3E0F9E84960539007AE31
:10659800E0F8A3E0F5838882A3A3E0F8A3E0F9E894
:1065A80049603D7C0079008E828F83A3A3A3E0FA23
:1065B800A3E0FB9007AEE0F8A3E0F5838882A3A3ED
:1065C800E0F8A3E0F58388821228218013AE0CAF8F
:1065D8000D8E828F83A3A3A3E0FAA3E0FB121E68AB
:1065E800790174141227C97F080228F574F5122856
:1065F8002374F21227B38909EAFEEBFF8C0AAC1860
:10660800AD197A0E75F006E509A42420F912215C6B
:10661800E9705F7C0679FFAA18AB1912207EE97031
:1066280051740C1227FFE0F8A3E0F9E8F508E50A31
:106638006005EE42088004EEF45208A80879007458
:106648000C1227FFE0687003A3E0696021A80879AD
:1066580000740C1227FFE8F0A3E9F0AC18AD197A22
:106668000E75F006E509A42420F9122156E97901EE
:1066780080027900740E1227C97F030228F574F08E
:1066880012282374E61227B3890B8A0C8B0DECFEB3
:10669800EDFF740C1228197A0E75F006E50BA42488
:1066A80020F912215CE960030267B67C0679FF7461
:1066B8000C12281112207EE960030267B6AC18ADEF
:1066C800197A0C7470250BF912215CE960030267D2
:1066D800B2750A00AA18AB19121E9EE50C450D707A
:1066E8002E7C0C7900AA18AB1912207EE9600302EF
:1066F80067987C0C7D007900AA18AB1912201E8AB5
:10670800088B09850882850983750A01026798AC98
:1067180018AD19AA0CAB0D121E988A0E8B0F850E98
:1067280008850F09E50845097030EE4F601BAC1865
:10673800AD197A007B00121E988A0E8B0FA80EA93D
:106748000F88088909E84970047900806385088200
:10675800850983E50CF0A3E50DF08508828509839A
:10676800A3A3E0F87900EE687002EF696022EEC03A
:10677800E0850882850983A3A3D0E0F0EE4F700D71
:106788008508828509837400F0A37400F0750A01F6
:10679800E50A6016AA18AB19121E9EAC18AD197A34
:1067A8000C7470250BF9122156E9790180027900E1
:1067B800741A1227C97F080228F574F61228238A4A
