:020000040000FA
:0600000002011A0224A512
:03001300022C4F6D
:03002B00022BA005
:0300530002251B68
:03007B00022BCE87
:100083000222FBE5C754F84401F5C77901220000B9
:100093000080FB120086B90003020104E479217891
:1000A30008B800028004F709D8FCE479297802B87B
:1000B30000028004F709D8FCE490028178177916CE
:1000C3008002F0A3D8FCD9FA781A90014A7A01BACF
:1000D30000028007E493A3F608DAF97A977B179076
:1000E300014B788079038015E493A3AD82AE838AB4
:1000F300828B83F0A3AA82AB838D828E83D8E9D9C6
:10010300E77582A1758389740412012C7582917538
:100113008300740012012C75D00075813F7518811E
:10012300751902759F00020096C09FF59FE473D076
:100133009F22D083D082C09FE493C0E0740193C018
:10014300E0740293F59F2201FF0000B40000280031
:100153002800283075A000A000A000A0000008001F
:1001630008E001F000100010001000100010001053
:100173000050005000500010001000D00700000095
:100183000000000F0001000500307507001000019A
:100193000081FF00000000FFFFFF0C072A07120782
:1001A3004E07FF02020208025000A0000000E8030D
:1001B300027B830100006183027783010000F21751
:1001C3000271830100000D03027783010000F3171E
:1001D3000267830100002303027783010000F41701
:1001E300026F830100002503027783010000F517E6
:1001F3000275830800002603027783010000F617C7
:10020300028183010000F717FF0100FF20027B83B7
:100213000100005B830277830100005B18029B836C
:10022300000000000002738303000054031700BAA8
:100233000DBA0DBA0DBA0DBA0DBA0DBA0DBA0DBA83
:100243000DBA0DBA0DBA0DBA0D78108A10721002DC
:100253000202020202020202010D0000001001026A
:100263007B830100005E830277830100009E1802F6
:1002730085830100008E070277830100009F180227
:1002830099830100002D82027783010000A01802E8
:1002930097830100000382027783010000A1180203
:1002A3009583010000B181027783010000A2180247
:1002B30093830100008D81027783010000A318025C
:1002C30091830100007B81027783010000A418025F
:1002D3008D830100009F81027783010000A518022E
:1002E30087830100001182027783010000A61802B0
:1002F3008383010000A71801E8030577100AFFFFB5
:100303000001307503020106000000000000000038
:1003130000000000000000000000000000000000DA
:1003230000000000FFFF0600800CE8030E093030D8
:100333003030303030305942424C450512500020A5
:1003430003020A000201060302F0FF09FF00050091
:10035300000000000030303030303030305942423D
:100363004C4500000000000000000A1500001615AF
:10037300125265616444617461000857726974655F
:100383004461746100027B8301000064830277830C
:10039300010000BF19026B83010000531502738330
:1003A3000300007415028B83010000C019027783D8
:1003B300010000C919026D830300007615028B83C7
:1003C300010000CA19010312013500800212013530
:1003D3001880021201354780021201358280021211
:1003E3000135068102120135558102120135BF81A3
:1003F30002120135F18102120135338202120135F5
:100403008B8202120135518302120135A483021239
:100413000135948502120135A88502120135BD8587
:1004230002120135A98602120135C2860212013574
:10043300B18702120135308802120135A3880212F6
:1004430001357E8902120135E789021201356E8A70
:10045300021201359E8A02120135848B0212013584
:100463001C8C02120135438E02120135CF8E02120B
:100473000135048F02120135358F02120135798F50
:1004830002120135F68F02120135B78703120135C7
:10049300668803120135A88903120135EA8A03121B
:1004A30001359C8B03120135FB8B031201355A8CEA
:1004B300031201350C8F03120135D2F503120135F6
:1004C30030F60312013561F60312013506F7031204
:1004D300013526F70312013557F7031201359DF74E
:1004E3000312013523F80312013582E303120135A8
:1004F30095E303120135C6E30312013500E4031249
:10050300013559E403120135A0E403120135E8E48F
:100513000312013517E50312013546E503120135D0
:100523007DE503120135C4E503120135DDE5031250
:10053300013532E6031201354BE60312013599E624
:1005430003120135D3E60312013543EE02120135DE
:1005530046EF021201357FEF02120135A2EF0212BC
:100563000135B4EF02120135F2EF021201356EF0DC
:100573000212013536F10212013558F1021201352A
:10058300EFF10212013541F20212013572F2021249
:1005930001357FF202120135E9F20212013540F30F
:1005A3000212013543F3021201357CF302120135C5
:1005B3007FF30212013589F302120135DDF30212D2
:1005C30001351EF40212013551F4021201358EF485
:1005D3000212013590F50212013534F6021201358B
:1005E3009DF602120135DBF602120135D1D7031253
:1005F3000135F9D70312013526D8031201355ED828
:1006030003120135BCD80312013508D90312013591
:100613006FD903120135AFD903120135ECD9031297
:1006230001351ADA03120135C4DA03120135CEDAC1
:1006330003120135DBDA031201350EDB0312013538
:100643001ADB0312013532DB031201353CDB0312E3
:1006530001352EFF021201353CFF0212013554FF12
:10066300021201356BFF0212013536D20112013538
:10067300E0D201120135F3D3011201356FD4011217
:1006830001358DD501120135C9D50112013564D665
:100693000112013548D70112013514D80112013571
:1006A300A2D90112013513DA01120135CDDA011293
:1006B3000135BFDB01120135FFDB01120135B3DC6C
:1006C30001120135E5DC01120135DBDE01120135D2
:1006D3001DDF011201353BDF01120135A1DF0112DC
:1006E300013570E00112013534E10112013553E3A4
:1006F300011201354A8F031201353490031201357B
:10070300DF9003120135309103120135E09103129A
:1007130001355192031201353693031201356A9361
:1007230003120135639403120135A09403120135BA
:100733007C9503120135BB9503120135D79503123E
:10074300013577FC03120135FBFC0312013526FD4D
:100753000312013540FE03120135CADB03120135D2
:10076300E0DB03120135FEDB031201350FDD03125B
:10077300013519DD0312013544DE031201353BDF78
:1007830003120135A8DF03120135E7AD031201356A
:100793001DAF0312013554AF03120135ABAF031282
:1007A3000135C0B10312013580AD011201350CAE24
:1007B3000112013570AF011201357CAF0112013511
:1007C300B7AF0112013526B0011201352FB1011265
:1007D300013538B201120135FFB2011201355CB4A3
:1007E300011201357AB40112013597B401120135B2
:1007F30044B501120135C1B501120135E9B5011244
:100803000135B3B801120135B8B801120135D1BAB7
:10081300011201351FBB011201358FBB01120135D6
:10082300CDBB01120135A9BC0112013569BD01120D
:100833000135B5BD01120135B8BD01120135FCBD4D
:100843000112013544BE0112013583BE0112013587
:10085300A5BE01120135D9BE011201353CBF0112FB
:10086300013587B30312013595B303120135E8B39C
:100873000312013507B4031201354CB403120135D9
:1008830090B5031201352BB6031201356FB603126F
:10089300013599B60312013508B7031201354EB776
:1008A30003120135C5B70312013576B803120135BA
:1008B300AC2C00120135BC2C001201355D2D001249
:1008C3000135B92D00120135762E00120135922F14
:1008D30000120135C42F00120135F32F0012013528
:1008E300A03100120135173400120135873600128A
:1008F3000135793700120135723800120135793A22
:10090300001201356D3D001201359C3E0012013588
:10091300A04000120135B041001201353F430012DF
:1009230001353044001201357E4400120135ED4497
:1009330000120135114500120135624500120135DF
:10094300034A00120135044B00120135654B0012B6
:100953000135904B00120135564C00120135CBD3B3
:1009630003120135D5D3031201351AD4031201350D
:100973002ED403120135BED403120135F7D403126A
:10098300013532D5031201355BD503120135AFD5DD
:1009930003120135C4D503120135E6D5031201351F
:1009A300FBD5031201350FD60312013524D60312EA
:1009B30001355ED6031201358AD60312013511D7EC
:1009C3000312013554D7031201357ED703120135C3
:1009D300A9D7031201355685041201358EC60212BA
:1009E300013571C702120135ECC70212013527C860
:1009F3000212013578C90212013506CA0212013505
:100A030098CC021201354ACD0212013556CE02129C
:100A13000135C9CF0212013522D00212013539CB7B
:100A2300031201357CCB0312013500CC03120135CF
:100A3300D7CE0312013560F30312013512F403120A
:100A430001350EF5031201354DF503120135A7F5F6
:100A530003120135D28104120135358204120135A6
:100A6300D28204120135078304120135378304123D
:100A7300013572830412013592830412013586BD58
:100A83000312013512BE03120135D1BE0312013523
:100A9300E9BF0312013503C203120135EFF301125B
:100AA300013514F401120135E1F401120135B5F5F4
:100AB3000112013522F60112013562F601120135E8
:100AC300FEF60112013532F8011201350DF901125A
:100AD30001356CF901120135F8F90112013566FA95
:100AE30001120135F2FA0112013538FB0112013509
:100AF300AAFB011201353CFC01120135DDFC011298
:100B03000135FDFC0112013545FD011201358EFD54
:100B130001120135AAFD01120135D0FD0112013583
:100B23004AFE0112013558FE01120135E7FE01129A
:100B3300013550FF011201353AC203120135BFC21C
:100B43000312013501C303120135E5C30312013555
:100B530052C40312013596C403120135DAC40312D9
:100B6300013507C5031201352FC50312013567C5CA
:100B730003120135A5C503120135CCC50312013596
:100B830046C60312013590C60312013560E3011214
:100B93000135FFE40112013537E7011201358BE717
:100BA30001120135B6E70112013592E80112013550
:100BB300C2E801120135F1E80112013504E901121D
:100BC300013545E90112013572E901120135C0E928
:100BD30001120135FCE90112013541EA0112013527
:100BE3008EEA0112013508EB0112013549ED0112BC
:100BF300013533EF011201356FEF01120135FEF0BC
:100C03000112013543F101120135B6F1011201352B
:100C13000BF20112013510F2011201359CF201129F
:100C23000135BBF301120135CCF301120135A4E404
:100C3300021201351DE502120135D7EA0212013510
:100C4300E2EB021201358BED0212013519EE0212AD
:100C53000135886A00120135096B00120135366BC4
:100C6300001201357F6B00120135806C00120135D3
:100C7300D96C00120135556E00120135D76E001282
:100C83000135F26E00120135636F001201352070D9
:100C930000120135E3700012013571710012013544
:100CA3002872001201353B7200120135D472001212
:100CB30001356B7300120135927300120135FB731A
:100CC3000012013545740012013593740012013589
:100CD300387500120135D67500120135637600129E
:100CE3000135D476001201351B7700120135737775
:100CF30000120135A577001201355F780012013526
:100D0300667900120135AF7900120135CC790012F2
:100D13000135EB79001201351E7B00120135D57BBD
:100D230000120135FA7B001201350F7C00120135E8
:100D33007F7C00120135C07C00120135E47D001276
:100D43000135657E00120135CBD00212013516D173
:100D53000212013522D102120135F6D102120135F8
:100D63000DD2021201354AD2021201357BD2021290
:100D73000135ACD202120135E4D2021201353AD365
:100D83000212013550D3021201358CD30212013500
:100D93009FD302120135C6D302120135FAD30212D0
:100DA300013520D5021201356AD60212013566D704
:100DB3000212013583D802120135F8FF0112013501
:100DC300879002120135C290021201351494021267
:100DD30001357095021201352F960212013596994D
:100DE30002120135809A02120135CC9A02120135A2
:100DF300E69A02120135239B021201352E9B021241
:100E030001356D9B02120135769B02120135209C40
:100E130002120135F79C021201354B9D0212013576
:100E2300A89D021201351A9E0212013514C0011247
:100E3300013573C30112013579C301120135AACA01
:100E430001120135B1CE011201353BE70312013521
:100E5300D1E703120135E7E70312013540E8031236
:100E6300013584E803120135BEE80312013556E962
:100E730003120135C5E903120135CEE90312013529
:100E8300DAE903120135F4E9031201351EEA03120C
:100E9300013533EA0312013595EA03120135BCEA41
:100EA3000312013589CF0312013596CF03120135A1
:100EB300B0CF03120135E3CF0312013521D0031262
:100EC300013586D0031201359BD003120135A6D01C
:100ED30003120135B3D003120135CAD00312013511
:100EE300D8D003120135E3D003120135EFD003123A
:100EF3000135FED00312013509D1031201352CD17E
:100F030003120135D0D103120135E0D103120135AB
:100F1300FAD10312013517D20312013532D203126B
:100F2300013557D20312013562D20312013577D24C
:100F3300031201358BD203120135ECD203120135B2
:100F4300F2D203120135F8D203120135FED2031295
:100F5300013516D30312013549D303120135FBAD15
:100F63000212013592AE021201352AAF0212013587
:100F73001AB00212013551B00212013564B00212E7
:100F83000135D2B0021201356DB20212013594B2AD
:100F93000212013536B3021201356BB30212013569
:100FA3007CB302120135F5B30212013516B40212F5
:100FB30001352EB40212013586B5021201358FB701
:100FC30002120135DFB902120135E2BA021201350C
:100FD30031BB02120135699F0212013566A002126C
:100FE300013551A1021201355BA1021201357DA128
:100FF3000212013589A102120135DBA20212013569
:101003000AA3021201353AA4021201357CA402128A
:101013000135A8A5021201357EA602120135D0A61C
:10102300021201352FA70212013566A702120135FC
:10103300A1A7021201353CAB0212013555AB0212D6
:101043000135D7AB02120135E5AB021201353AACDB
:101053000212013548AC02120135B5AC021201355A
:1010630027AD021201356DAD021201357EBB0212AE
:101073000135A0BB021201358ABD021201352FC111
:101083000212013572C2021201354CC3021201353C
:10109300A08304120135C58304120135368404127A
:1010A300013501F7021201350AF70212013513F770
:1010B3000212013544F80212013563FA02120135B6
:1010C30099FA02120135D3FA0212013509FB021211
:1010D300013543FB0212013577FB02120135A3FBF5
:1010E30002120135ECFB0212013526FC0212013516
:1010F3006EFC02120135C4FC02120135F9FC021226
:10110300013554FD021201358EFD02120135DFFD5A
:101113000212013515FE021201354FFE021201358E
:101123007DFE02120135A0FE02120135538804121E
:1011330001357F8804120135DA8804120135E48809
:1011430004120135F4880412013588B803120135FD
:10115300AFB803120135EAB80312013573FF011268
:101163000135C24C00120135D24F001201356751CF
:1011730000120135E251001201358E520012013581
:10118300315300120135C95300120135F8530012CF
:1011930001359058001201352259001201355E5A6B
:1011A30000120135C85A001201357C5B001201356B
:1011B300325E001201356C5E00120135D65E0012FC
:1011C3000135335F00120135905F00120135ED5F89
:1011D30000120135D860001201351E61001201357D
:1011E3006961001201358C6100120135D36200126E
:1011F3000135E7620012013556640012013595642A
:1012030000120135D564001201352865001201353D
:10121300496500120135876500120135C567001263
:101223000135066800120135A16800120135136902
:1012330000120135546A0012013546A80312013524
:10124300ECA80312013531AA03120135BAAA03121D
:101253000135A7AB03120135E6AB0312013550ACE0
:1012630003120135BEAC03120135E67F00120135CE
:10127300EFED03120135BAF003120135868A041229
:1012830001359C8A04120135A18A04120135FE8AB4
:10129300041201356A86041201357A860412013577
:1012A3008E8604120135718704120135EAEA0312AE
:1012B300013592EB03120135D4ED031201356FFEB4
:1012C30003120135BEFE03120135F0FE0312013590
:1012D30082FF03120135F87F0012013542F8031231
:1012E30001350EFA031201357AFA03120135478AE2
:1012F300041201355C8A04120135008003120135A2
:10130300158003120135718003120135DC8003124D
:101313000135248103120135968103120135BF8102
:1013230003120135CD81031201352F8203120135DA
:101333006D82031201358882031201352383031260
:101343000135CC83031201354F84031201358884A0
:10135300031201351385031201356A850312013522
:10136300C88503120135DA8503120135008603129D
:1013730001352886031201358387031201357DFA6F
:1013830003120135E4FA03120135A1FB03120135FF
:101393001FFC03120135B2DF03120135E5DF03122F
:1013A300013517E1031201355BE10312013537E221
:1013B300031201359B7E00120135797F001201353E
:1013C300D57F00120135C8F0031201350DF1031268
:1013D300013553F1031201351CF3031201357787ED
:1013E30004120135928704120135A28704120135D4
:1013F300078804120135FE8804120135BCDA021293
:10140300013598DB02120135DFDB021201351CDCEA
:10141300021201358ADC02120135E4DC02120135C5
:1014230054DD0212013524DE0212013513DF0212EC
:1014330001358ADF0212013526E102120135B3E1DB
:101443000212013526E202120135A2E2021201352F
:10145300B9E202120135DEE30212013538E4021269
:1014630001353896031201355896031201355E97FC
:1014730003120135AA9703120135CA9703120135E6
:101483001D98031201358A9803120135D09803126F
:101493000135349903120135E09B031201357A9922
:1014A30001120135A79E01120135AAA101120135CE
:1014B300D3A101120135FCA101120135AEA2011223
:1014C300013597A401120135E2A501120135FBA5EF
:1014D3000112013532AB011201356BAB011201353B
:1014E300AFAB01120135C0AC011201355CA203128E
:1014F3000135CBA203120135BFA403120135E0A6C7
:1015030003120135FEA60312013520A7031201358C
:1015130004A80312013512A803120135D0C6031221
:10152300013559C70312013576C70312013547C880
:1015330003120135DAC803120135D7C90312013585
:10154300619C03120135709C03120135A09C0312A8
:101553000135599D03120135C89D03120135EF9DD5
:1015630003120135FD9D03120135169E0312013549
:10157300249E03120135A49E031201352A9F0312F0
:1015830001358B9F03120135B09F031201350DA066
:101593000312013557A003120135BEA00312013512
:1015A300E4A00312013513A20312013520A2031292
:1015B300013544A2031201359E8301120135DA83FA
:1015C30001120135088401120135A4840112013589
:1015D300E18401120135F58401120135D18501122F
:1015E30001350586011201358C8601120135D68637
:1015F3000112013528870112013544870112013593
:101603008287011201351E88011201357D8801127E
:1016130001358488011201350F89011201353E8994
:1016230001120135918901120135B6890112013583
:10163300FE89011201353C8B01120135878B0112A2
:101643000135EE8B011201353A8C01120135748C90
:10165300011201359A8C01120135A88C0112013552
:10166300CE8C01120135598D01120135148F0112EF
:1016730001356C8F011201359E8F011201353D90AA
:10168300011201350C91011201356D9101120135E1
:10169300C09101120135C392011201353993011230
:1016A30001359A93011201351F940112013570948B
:1016B30001120135B29401120135DD940112013595
:1016C3000C9501120135C29501120135D396011211
:1016D30001354499011201350080041201356780F8
:1016E30004120135B28004120135E1800412013580
:1016F300058104120135558104120135018A041252
:101703000135B48A04120135E08A04E066701008DA
:10171300A3E066700A08A3E066700408A3E06622EB
:10172300C3E7960809E7960809E7960809E79622AA
:10173300C3E09608A3E09608A3E09608A3E09622E8
:10174300C008C3E096F50808A3E096420808A3E0A2
:1017530096420808A3E09645087001D3D0082208F2
:101763000808EAC0E0EBC0E086F0E7A4FA180986AF
:10177300F0E7A42AFA180986F0E7A42AFA180986DA
:10178300F0E7A42AFA1986F0E7A4FBE5F02AFA1990
:101793000886F0E7A42BFBE5F03AFA190886F0E790
:1017A300A42BFBE5F03AFA18180986F0E7A4C5F074
:1017B3002BFBE43AFA1908E7C5F0C6A426F6E5F0D0
:1017C3003BFBE43AFA1886F0E7A4F6E5F00826F6C0
:1017D300E43B08F6E43A08F6D0E0FBD0E0FA22E472
:1017E300CFC0E0E4CEC0E0E4CDC0E0E4CCC0E0751F
:1017F300F020E626F608E633F608E633F608E63385
:10180300F6181818EC33FCED33FDEE33FEEF33FF1F
:10181300C3EC9709ED9709EE9709EF97191919404A
:101823000FFFEC97FC09ED97FD09EE97FE191906DA
:10183300D5F0BFECF709EDF709EEF709EFF7191942
:1018430019D0E0FCD0E0FDD0E0FED0E0FF2260162E
:10185300080808C6C313C618C613C618C613C61885
:10186300C613C6D5E0EA22700908080822601618D4
:101873001818C6C333C608C633C608C633C608C657
:1018830033C6D5E0EA22E627F60809E637F6080963
:10189300E637F60809E637F622E026F608A3E0362F
:1018A300F608A3E036F608A3E036F622E026F008B1
:1018B300A3E036F008A3E036F008A3E036F022C335
:1018C300E697F60809E697F60809E697F60809E6A3
:1018D30097F622C3E096F008A3E096F008A3E096FB
:1018E300F008A3E096F022E056F608A3E056F608C7
:1018F300A3E056F608A3E056F622E056F008A3E06C
:1019030056F008A3E056F008A3E056F022E046F0B4
:1019130008A3E046F008A3E046F008A3E046F0225F
:10192300E0F608A3E0F608A3E0F608A3E0F622E653
:10193300F008A3E6F008A3E6F008A3E6F022E0FA35
:10194300A3E0FBA3E0FCA3E0FD22EAF0A3EBF0A3FA
:10195300ECF0A3EDF022E0F8A3E0F9A3E0FAA3E0B2
:10196300FB22E8F0A3E9F0A3EAF0A3EBF022CAC05C
:10197300E0E6F0A308DAFAD0E0FA22CAC0E0E0A376
:10198300C582CCC582C583CDC583F0A3C582CCC532
:1019930082C583CDC583DAE6D0E0CA22C3E498F8D2
:1019A300E499F91219E08026C3E49AFAE49BFBE96F
:1019B30020E7E91219E0E498F8E499F922C3E498DE
:1019C300F8E499F91219E0E498F8E499F9C3E49A70
:1019D300FAE49BFB22EB20E7CFE920E7E0B9001014
:1019E300BB0008E88AF084F8AAF022E4FBC8FA22D4
:1019F300EB70227B10C833C8C933C9335007C39A6D
:101A0300C3DBF280069A50012ADBEAC833F4C8C963
:101A130033F4C9FA2275F008E4C833C8C933C933AB
:101A2300C99AC99B5004C92AC93BD5F0ECFBC833FA
:101A3300F4C8E4C9FA22600D08C6A2E713C618C6A3
:101A430013C6D5E0F322600C08C6C313C618C61329
:101A5300C6D5E0F422700422600D18C6C333C6084D
:101A6300C633C6D5E0F41822251810AF08F5184080
:101A73000C15198008F51840021519D2AF2200C0C1
:101A8300D0251810AF08F518500C05198008F51863
:101A930050020519D2AFD0D0222518F58210AF0815
:101AA300F518400C15198008F51840021519D2AF26
:101AB300851983222518F582E43519F58322251823
:101AC300F8E43519F9222518FAE43519FB2225180B
:101AD300FCE43519FD22E4732518C582C0E0E5193D
:101AE30034FFC583C0E0E518C3958224F810AF081E
:101AF3008583198582188008858319858218D2AF5A
:101B0300CEF0A3E520F0A37808E608F0A3DEFAEF11
:101B1300F0A3E58124FAF8E608F0A3E608F0A3E6CB
:101B230008F0A30808E608F0A3E608F0A31581155A
:101B330081D0E0FED0E0F8158115811581E8C0E081
:101B4300EEC0E0222518C582C0E0E51934FFC58345
:101B5300C0E0E518C3958224F910AF088583198581
:101B630082188008858319858218D2AFCEF0A3E549
:101B730020F0A37808E608F0A3DEFAEFF0A3E581EE
:101B830024FBF8E608F0A3E608F0A30808E608F04B
:101B9300A3E608F0A315811581D0E0FED0E0F81587
:101BA300811581E8C0E0EEC0E022851983851882A3
:101BB300E0A3FEE0A3F5207808E0A3F608DFFAE04F
:101BC300A3FFE0A3C0E0E0A3C0E0E0A3C0E0E0A384
:101BD300C0E0E0A3C0E010AF0885821885831980B8
:101BE30008858218858319D2AFD083D0820201324F
:101BF300851983851882E0A3FEE0A3F5207808E029
:101C0300A3F608DFFAE0A3FFE0A3C0E0E0A3C0E08F
:101C1300E0A3C0E0E0A3C0E010AF0885821885838D
:101C2300198008858218858319D2AFD083D0822288
:101C3300C0D02518C582C0E0E51934FFC583C0E0D4
:101C4300E518C3958224F310AF088583198582189C
:101C53008008858319858218D2AFC8F0A3E9F0A361
:101C6300EAF0A3EBF0A37908E709F0A3D8FAECF0C4
:101C7300A3EDF0A3EEF0A3EFF0A3D0E0F0A3D0E048
:101C8300F0A3D0E0F0A3E520F0A3E5F0F0A32285D4
:101C93001983851882E0C0E0A3E0F9A3E0FAA3E08A
:101CA300FBA37808E0F608A3DFFAE0FCA3E0FDA3BA
:101CB300E0FEA3E0FFA3E0C0E0A3E0C0E0A3E0F503
:101CC300D0A3E0F520A3E0A3F5F010AF08858319B6
:101CD3008582188008858319858218D2AFD082D077
:101CE30083D0E0F8D0E0327404800674028002747A
:101CF30001C0E0F404121A9CD0E01219712274049A
:101D0300800474028000CCC0E0EDC0E0E518C39C01
:101D1300CCAD1950011D10AF068C188D1980068C9F
:101D2300188D19D2AF12197ED0E0FDD0E0FC22D07D
:101D330083D082E9C0E0E493A3C386F0C5F095F0B5
:101D4300F908E493A386F0C5F095F0700BE493A330
:101D5300C3994005E9048002A3E475F002A4258237
:101D6300F582E5F03583F583D0E0F9E493A3C0E091
:101D7300E493C0E022D083D082ECC0E0EDC0E0E485
:101D830093A3FCE493A3FDED4C600D121DC4EC245E
:101D9300FFFCED34FFFD80EFE493A3FCE493A3FD8C
:101DA300ED4C600D121E03EC24FFFCED34FFFD80AF
:101DB300EFD0E0FDD0E0FCE493A3C0E0E493C0E007
:101DC30022C0E0C3E49396087401939618400FE48D
:101DD3009366700808740193661870007019A3A3C2
:101DE300C3E49396087401939618A3A3400DD0E01F
:101DF300D0E0D0E0021DB4A3A3A3A3A3A3D0E02209
:101E0300C0E0C0F088F0E49366700808740193663C
:101E1300187000A8F0A3A3700BD0F0D0E0D0E0D0EE
:0B1E2300E0021DB4A3A3D0F0D0E02229
:101E300074F6121B47EAFEEBFF8C088D09EE243482
:101E4000F8E43FF9E8FCE9FDEE2435122143FAEE0F
:101E50002437122143F88508F0A4C885F00A8509C3
:101E6000F0A4250AF9EA28F8E439F97A257B00126A
:101E700019E0EA8C828D83F0FA131313541FF8EEE5
:101E800028F8E43FF9E8245DF582E439F583E0C001
:101E9000E074075AF8D0E0B800028004C313D8FCFD
:101EA000A2E0EE50082434F582E43F801824361274
:101EB0002143F5F0EA84A8F0EE28F8E43FF9E8249D
:101EC00038F582E439F583E0F97F03021BF374F7F8
:101ED000121B47EAFEEBFFEE2434122143C0E0EE72
:101EE0002435F582E43FF583D0E0F08E828F83A322
:101EF000A3A3A3A3A3A3C082C0838E828F83A3A323
:101F0000A3A3A3E0F8A3E0F9D083D082E0C398F5BF
:101F100008A3E099F509EE247F1221436401703E85
:101F2000EE2480F582E43FF583C082C0838E828FE9
:101F300083A3A3A3A3A3E0240108A3E03400F9D062
:101F400083D082E0687003A3E06970127CFF7D0497
:101F5000120CF4EE247FF582E43FF583E4F0AC0844
:101F6000AD09EEFAEFFB121E30E9F9122B927F0257
:101F7000021BF3C082C083851882851983E0F8A311
:101F8000E0F9C3EA9CEB9D5010C3EC98ED99401B1F
:101F9000C3EA98EB995014800EC3EA98EB99400776
:101FA000C3EC98ED994004790180027900D083D088
:101FB0008222EAC39CFAEB9DFB2274EF121B47902E
:101FC00003C4E064086005E06407702A9061C8E01B
:101FD00060249003F2E0F4601DE0F875F00BA4C8F3
:101FE000AAF02AF974F428FE740339FF8E828F83D5
:101FF000A3A3A3E070030220C8906060E0C0E0EEFD
:102000002468F582E43FF583D0E0F0750C6F750D20
:1020100005750800750900E5D914F50AE5D95403DA
:10202000F50E60127403650E6043E50A600AEE2443
:10203000671221437002807590056AE06401601F99
:1020400012214060047A0480027A00E50AC39AFAF9
:1020500095E0FB120B9E8A088B09EA450970051270
:102060000F40806412214070048A0C8B0DE50A60D9
:1020700012850C82850D83F50BE5D9F0A3150BE5D0
:102080000B70F6122140604474FC250AF50A780CA6
:10209000121CEEAC0AA90EEEFAEFFB120DB474029C
:1020A000121A81E97026AA08AB09121384793D8EB1
:1020B000828F83A3A3A3A3E0FA7B00120A00EEFAA7
:1020C000EFFB120D18120DC67900806F7403650EB8
:1020D0006051850A107511007810121CEEAC0CAD21
:1020E0000DAA08AB09120D787402121A81EE246849
:1020F00012214364807004747F8001E0F50C780C39
:10210000121CF2E50EF50C780C121CF2A90AAC08B0
:10211000AD099003F2E0FA7B001209D67402121A9C
:102120008180139003C4E06408600BAC0CAD0DEE2D
:10213000FAEFFB120E3E120F4C79017F0A021BF3DD
:10214000EE2483F582E43FF583E02274F2121B470C
:1021500074FC121A6BEAFEEBFF8909A2AFE433F5B7
:1021600008C2AF022215E0601B780C121CEEAC0B0B
:10217000A90EEEFAEFFB120DAE7402121A8174046E
:10218000250BF50B7401250BF5D9850ED9E50B60F0
:1021900018F50A850C82850D83E0F5D9A385820C9C
:1021A00085830D150AE50A70EA75E195EE2463F85A
:1021B000E43FF97A007B00A2AFE433F50BC2AF88AD
:1021C000828983E0FCA3E0FDEC4D603A888289833C
:1021D000E0FAA3E0FB8A828B83E0FCA3E0FD888227
:1021E0008983ECF0A3EDF08A828B83E4F0A3F0887E
:1021F000828983E0FCA3E0FDEC4D700A888289832C
:10220000A3A3E4F0A3F0E50BA2E092AF1213849035
:102210000506E004F0EE2463122143F8A3E0F9E898
:10222000496064EE24631221432402F8A3E03400E1
:10223000F988828983E5822402F50CE43583F50D63
:10224000E0F50BA3E0F50EEE246212214364017069
:10225000369061D0E0F812214060047C0480027C5A
:10226000007480C398FA95E0FBE50B2CF8E4340089
:10227000F9E82402F8500109C3EA98EB99A2D26563
:10228000D0334003022166900506E0604D900507BB
:10229000E0F8900506E0C398500C74026509703AA6
:1022A000900508E060348E828F83A3A3A3A3E0850A
:1022B00018828519831222EA7402121AB7E81222D0
:1022C000EA900505E028F07402121AD1AA18AB1999
:1022D0007901120A2A900506E4F0E508A2E092AF1F
:1022E0007404121A817F07021BF3F0A3E4F0900537
:1022F00006E0F8228521878522C622C0E074EB1211
:102300001C33A2AFE433F508C2AF759B0090618225
:10231000E0A2E05030E591A2E0502A7591FE7401F0
:102320006521702112248E120E8C12247C121D0144
:1023300012293C7404121A81E964017005790112B2
:102340000ED4121FBA906182E0A2E5505DE591A221
:10235000E550577591DF9003C4E064076005E064C1
:1023600008702F12248E74016521703E120E8C129B
:10237000247C121D0112293C7404121A81E96401A3
:1023800070057901120ED47901EEFAEFFB12214BA0
:102390008018E0640D70139003E6E004F064287088
:1023A00002E4F07A00E0F9120F52906182E0A2E6B6
:1023B0004003022451E591A2E640030224517591A5
:1023C000BF9003C4E064057008120E74120E808082
:1023D00003120E7A752100120EE0E99003C5F07920
:1023E00000120ED4120C647A017B009003C3E0F952
:1023F000121354907803E06442705690056EE01416
:10240000F0704EC2AF12240800782AD0E0F618D03F
:10241000E0F6E59F5407F87005750DFF8003750D14
:102420007FC4C0E07829E6F50A08E6550DF50B747F
:102430000B780A121A49D0E0250AF8906270E0A2DF
:10244000E740F8E8C333906272F0906270E0D2E047
:10245000F0906181E0A2E35009E5E9A2E350037541
:10246000E9F7A3E0A2E75009E591A2E750037591CF
:102470007FE508A2E092AF7F08021C928E828F83D4
:10248000E0F8A3E0C82416F582E438F5832290032F
:10249000F2E0F875F00BA4C8AAF02AF974F428FE4B
:1024A000740339FF22C0E0C0D0C082C08390618332
:1024B000E0A2E05009E5BFA2E0500375BFFEE0A234
:1024C000E15009E5BFA2E1500375BFFDE0A2E25073
:1024D00009E5BFA2E2500375BFFBE0A2E35009E5A6
:1024E000BFA2E3500375BFF7E0A2E45009E5BFA225
:1024F000E4500375BFEFE0A2E55009E5BFA2E55047
:102500000375BFDFE0A2E65009E5BFA2E650037500
:10251000BFBFD083D082D0D0D0E032C0E074F212FE
:102520001C33E5A7A2E6500FE5A1A2E6500953A788
:10253000BF75A1BF12256FE5A7A2E5500CE5A1A2CA
:10254000E5500653A7DF75A1DFE5A7A2E15009E535
:10255000A1A2E1500375A1FDE5A7A2E2500CE5A1FF
:10256000A2E2500653A7FB75A1FB7F01021C9274E7
:10257000F7121B477521019003C4E0640670151221
:102580000DEA8A828B83A3A3A3A3A3A3E0FAA3E00B
:10259000FB120E62A2AFE433FED2AF9003CAE06436
:1025A0000170187A207B009003C3E0F91214867A38
:1025B000207B009003C3E0F912135A906182E0D2AD
:1025C000E6F090056BE0602185C62280169003C975
:1025D000E064017008E5C654F84405F5C653BEFC36
:1025E0001222F47401652160E4EEA2E092AF7F0252
:1025F000021BF3008E238F2485822885832785186C
:1026000082851983E0CEA3E0CF852882852783EBDE
:10261000C9EAC8EDCBECCA75F010C3E833C8E9339A
:10262000C9EA33CAEB33CBC3EA9EF526EB9FF52507
:10263000B35004AB25AA26EC33CCED33CDD5F0DA7C
:10264000AE23AF242274E9121B4774FA121A6BEA04
:10265000FEEBFF8C0A8D0B120E98EAF8EBF9ECFA00
:10266000EDFB8E828F831219659003C4E024F7C3BB
:10267000940550067514010227AC120DEA8A088BE6
:1026800009EA450970030227A9EEFCEFFDAA18AB81
:1026900019120E92850882850983A3A3780C12195A
:1026A000239082D3780C1218EA85188285198378D2
:1026B000101219239082D378101218EA780C79102E
:1026C000121723501F780C79101218C29082DF78ED
:1026D0000C1217434047850C14850D15850E168581
:1026E0000F1780459082DF8510148511158512160D
:1026F0008513177814790C1218C2781412174350E6
:102700001C7514007515007516007517017814797D
:10271000101218C27814790C121889800C751401E3
:102720007515007516007517007409781412186A6B
:102730009082DB780C1219237814790C1217E28539
:102740000882850983A3A3A3A3A3A31227CA1219EE
:10275000E0880C890DE4F50EF50F7814790C121849
:10276000897404121AB71227CA1219E0E8FA8A0CFF
:10277000E4F50D7814790C12172350077814790CAE
:102780001218C29003C4E06408600AE064066005A1
:10279000E0640570209082AB7814121743501690B5
:1027A00082A7781412189C800C751400751500759A
:1027B0001600751700850A82850B8378141219326A
:1027C0007406121A817F10021BF3E0F8A3E0F97A75
:1027D000D07B032274F7121B47120EAA900569E002
:1027E00064017010906245E4F0A3F053F4F343FEEB
:1027F0000C5390F3120E50E5C654B84441F5C6E5AB
:102800009E5447644170F8906185740FF09005679D
:10281000E0F47002A3E0604E900568E06008146088
:102820001B14602E8040750801750900900567E053
:102830007808121A58E508F45280802A7508017544
:102840000900900567E07808121A58E508F45290DC
:102850008014750801750900900567E07808121A60
:1028600058E508F452A079007F02021BF374F712B6
:102870001B47E9FEEAFF120EAA74016E700C7A8003
:102880007B009003C3E0F9121354902CA4E493F45A
:102890006008E493F9120C58800953C6B8E59E54B9
:1028A0004770FA120E56900569E064017003120C2D
:1028B00076900567E0F47002A3E0604B900568E055
:1028C000600814601A14602C803D750801750900B9
:1028D000900567E07808121A58E50842808028754C
:1028E0000801750900900567E07808121A58E50894
:1028F00042908013750801750900900567E078081B
:10290000121A58E50842A0120DEA8A088B09A80895
:10291000A909E8496014E5E170FCE82414F582E4B3
:1029200039F583E0F46003E0F5E174016F700A7A31
:10293000019003C3E0F91213EA02286874F1121B34
:10294000478A088B098C0A8D0B9082D3780812185D
:10295000EA740F121AB7780C1219239082D3780CEC
:102960001218EA7808790C1217239082DF50107839
:1029700008790C1218C278081217434014800E7898
:102980000C79081218C2780C121743500479018090
:102990000279007F08021BF374ED121B478A088B33
:1029A000098C0A8D0B9082D378081218EA741312DE
:1029B0001AB7780C1219239082D3780C1218EA787F
:1029C0000C790812172340117808790C1218C2AA42
:1029D00008AB09AC0AAD0B802275100075110075AB
:1029E00012007513017810790C1218C2781079084A
:1029F000121889AA10AB11AC12AD137F0C021BF395
:102A00009082D378081219238A828B83780812184F
:102A1000FD7F04021BF374F5121B478C828D8378B3
:102A2000081219238A828B8378081218D6122A6E0C
:102A3000C3E09CF0A3E09D122A6040229082C378FC
:102A4000081219238A828B8378081218AF8A828B26
:102A500083A3A3A3A3E02420F0A3E0344EF080A03E
:102A6000F088828983C3E09420A3E0944E22EA2474
:102A700004F8E43BF98C828D83A3A3A3A3E0FCA319
:102A8000E0FD888289832274F5121B47E9FE9005D8
:102A900021E0FAA3E0FBEE29F8E433F974D328F53A
:102AA00082748139F583E02AF508A3E03BF50978C3
:102AB00008121CEE9082FF1219411225F4740212C2
:102AC0001A818A088B098C0A8D0B741078081218E9
:102AD00051AA08AB097F04021BF374F1121B478A49
:102AE0000C8B0D8C0E8D0F7411121AB7121D0574FC
:102AF00011121AB7E02401F508A3E03400F509E447
:102B0000F50AF50B780C79081217629082A3780801
:102B1000121923780C7908121762AA0CAB0DAC0EAF
:102B2000AD0F1225F47402121A818B09EA4509606F
:102B3000047A0180027A00EC2AFCE43DFD74131251
:102B40001AB7E0F8A3E0F9E8FEE9FFECF8EDF97A4E
:102B5000717B021219E088088909E4F50AF50B8EE9
:102B6000828F837808121932ECF8EDF97A717B02C2
:102B70001219E08A088B0974057808121A588E8297
:102B80008F83A3A3A3A3E508F0A3E509F07F0802C0
:102B90001BF3C082C083E9906000F0D083D0822212
:102BA000C0E0C0D0E8C0E0E9C0E0A2AFE433F8D2B2
:102BB000AFC2C7751A00E8F9E8A2E092AFD0E0F919
:102BC000D0E0F8D0D0D0E032C2AF02000022C0E0A6
:102BD00074F2121C33A2AFE433FED2AFE58AA2E551
:102BE00050249015ACE0701E908317121D017A08D6
:102BF0007B0090159BE0F912147A7404121A81E993
:102C00009015AC7401F0901795E064017030901746
:102C100094E0702AE58AA2E650249015ADE0701E7B
:102C2000908317121D017A007B0890159BE0F91222
:102C3000147A7404121A81E99015AD7401F0758A42
:102C400000C2EBEEF8EEA2E092AF7F01021C92C050
:102C5000E0C0D0E8C0E0E9C0E0C082C08390179631
:102C60007400F090175CE0F8E5C1C0E07900745D95
:102C700028F582741739F583D0E0F090175CE024D2
:102C800001F090175CE064FA70035386BF90175B05
:102C90007402F0C28BD083D082D0E0F9D0E0F8D0BB
:102CA000D0D0E032FFFFFFFFFFFFFFFFC082C083F5
:102CB000E990185AF0D083D08202013274F6121AC9
:102CC000DBE9900336F0900396E0F508750900748F
:102CD000027808121A58AA08AB091213D2900337C7
:102CE00012366F900337123A5C606F900396E0756E
:102CF000F003A4FAABF01213D290035412366F9083
:102D00000354123A5C700B900337123A2D1213D809
:102D100080489003541249C17AFF7BFF12123A7A1D
:102D20000080198A0875090074027808121A58126E
:102D3000446974FF122E6FE4F0A3F00A900396E04A
:102D4000F8EAC39840DD79051208C8900336E0F927
:102D50001207B47A527B09120B3E02450C74F4122E
:102D60001ADB8A088B09EB54806047900336E0F940
:102D700012133C8A0A8B0BAE0AAF0BEE4F602A8E01
:102D8000828F83E064B0701A1208DAE960148E82D0
:102D90008F83A3A3A3A3E0F9EE2405FAE43FFB127B
:102DA00008AAEEFAEFFB12132AAA08E5096480FBD1
:102DB00080047A007B00022FBF74F2121ADB74FBCE
:102DC000121A6BEAFEEBFFEE4F60457403121AB75E
:102DD000EEF0A3EFF0851882851983ECF0A3EDF0F7
:102DE0007402121AB7E9F0AA18AB191207AEE9F586
:102DF0000870757413121AB7E0F50AA3E0F50BE535
:102E00000A450B60638E828F831233F8EE4F700594
:102E100075080280537A067B001213D28A0C8B0D40
:102E2000A80CA90DE8497005750813803B888289B4
:102E300083E4122E6FEEF0A3EF122F8BE50AF0A3BE
:102E4000E50BF090033A122F8490033A6017E0FCF0
:102E5000A3E08003EAFCEBFD8C828D83122F84704B
:102E6000F38C828D83124084A9087405024C41F0D2
:102E7000A31249A3A32274F2121ADB8908890C75E4
:102E80000D007403780C121A58850C0A850D0B90EE
:102E90000339F0900337123E8F122F82602E1213E7
:102EA000D87900801D890C750D007402780C121AF7
:102EB000589003371243288882F583A3A3E4F0A334
:102EC000F009900396E0F8E9C39840D9900396E0A2
:102ED000FA850AF0A4CAA8F0850BF0A428FB121307
:102EE000D28A0C8B0DAE0CAF0DEE4F7003022F7813
:102EF000900396E0FC850AF0A4CCA8F0850BF0A422
:102F000028FD79001213187C0080318D0C750D009E
:102F10007403780C121A588A828B83122F7D888250
:102F20008983E4F0122F8AA3A3F0A3F00DEDC395DB
:102F30000840D8EE250AFEEF350BFF0C900396E013
:102F4000F8ECC39850288C0C750D007402780C12A4
:102F50001A58900337122F7DE82402500109FAE92C
:102F6000FB8A828B83EEF0A3EFF07D0080BFE50843
:102F7000900339F0790080027913024C4412432CFB
:102F8000F922A3A3123A31EA4B22A31249A3A3A325
:102F9000A32274F4121ADB7900EAA2E0501F75082C
:102FA000857509827808121CEE79107C047D007A00
:102FB0005C7B181208C27402121A81E9F980007F42
:102FC00004021BADC082C08390033A123A5C601CBD
:102FD00088828983A3A3E06A7003A3E06B88828957
:102FE0008370E8A3A3A3A3123A2D80047A007B0088
:102FF000022CB574F2121ADB74FD121A6BEAFEEBA6
:10300000FF851882851983E4F0A3F07402121AB7C1
:103010007401F0123A597014120A781213D2900304
:103020003D12366F123A59700302318512376FEE36
:103030002404F50AE43FF50B850A82F583E024FEBB
:10304000603C24FC607424FE607E24FE7003023029
:10305000D524FE70030230E224FE70030230EF2418
:10306000FE70030230FC24FE700302310924FC7060
:103070000302312A24FE700302314202317E120A19
:103080007890033FEAF0A3EB1231911204F6E96065
:103090000302317E90033F121D058E828F83A3A30E
:1030A000A3A3A31249C1850882850983123A2D1270
:1030B00008927402121A8102317EAC18AD19EEFA30
:1030C000EFFB1208E002314DAC18AD19EEFAEFFB40
:1030D0001208E68078AC18AD19EEFAEFFB1208EC96
:1030E000806BAC18AD19EEFAEFFB1208F2805EAC03
:1030F00018AD19EEFAEFFB1208F88051AC18AD19B3
:10310000EEFAEFFB1208FE80447402121AC1880C1A
:10311000890D780C121CEE7402121AD1EEFAEFFB34
:103120001209047402121A818023AC18AD19EEFA48
:10313000EFFB12090AE9F870167402121AB7E4F0EC
:10314000803CAC18AD19EEFAEFFB120910E9F8E873
:10315000602C8E828F83A3E064146022850A8285AE
:103160000B83E090033FF0851882851983123A2D76
:1031700090034012366FE8A31231911204F0EEFA78
:10318000EFFB1208687402121AB7E0F97403024CDC
:1031900041F07C3F7D03850882850983123A312204
:1031A00074E8121ADB74FA121A6B7404121AB7EC70
:1031B000F0A3EDF08A128B13EA2405F50EE4351323
:1031C000F50FEA2402F510E43513F511851082F5A8
:1031D00083123A2D1205E68A0A8B0B7508007C03D0
:1031E0007D0079007A3F7B03121318E50E2402F567
:1031F00016E4350FF5177402121AC1880C890D7880
:103200000C121CEE850E82850F83A3A3A3A3E0F509
:103210000C750D00780C121CEEE50E2405F50CE47F
:10322000350FF50D780C121CEE851682851783126A
:103230003D341207CC7406121A818A0C8B0DE50CF2
:10324000450D70030233C18020851882851983E003
:1032500088828983F00508851882851983A3E0C0D8
:10326000E0123402D0E0F00508E50A24FBFAE50B91
:1032700034FFFBC3E5089AE49B40030233C17E00A0
:103280007F00851282851383A3A3A3A3E0F50978A9
:1032900009121CF2E4F514F5157814121CEE7514DD
:1032A0003C7515037814121CEE90033D121D057435
:1032B00009121AB7121D05E50A24F9F9AC0CAD0D77
:1032C000851082851183123A2D12093A7409121A57
:1032D00081E96003023362850E82850F83A3A3A375
:1032E000A3A3A3A3E0F890033CE0687075E0F51495
:1032F0008E157814121CEE1249BE850E82850F833E
:10330000A3A3A3A3A3A3A3A3123A2D12131274027F
:10331000121A81E9604C900340123A5C703BE4F56C
:10332000147814121CEE7CFF7DFF790785108285CE
:103330001183123A2D1208A47402121A81123A62F1
:103340007017850E82850F83124B5B7404121AB7B7
:1033500012441C123D650233F5850C82850D8312E3
:1033600033F8A818A919881489157814121CEE745A
:1033700004121AB7121D0585168285178312366549
:103380001207D87404121A818A0C8B0DEE4F700349
:1033900002323E123402EE12340D123D1BEF123493
:1033A0000DF8A3E03400F9E50C450D600302324945
:1033B0008882898374FFF0050812340274FFF005D7
:1033C00008E508601A1313543F123675120502E916
:1033D0006009900340123A2D1213847900801685FB
:1033E0000E82850F83124B5B7404121AB712441CB1
:1033F000124084790A023CEEA3A3A3A3E0FEA3E05B
:10340000FF22A808900340E028123D1B22F0050887
:1034100008900340E0282274E8121ADB74FA121AAA
:103420006B7402121AB712366F7404121AB7ECF0EA
:10343000A3EDF07402121AB7E02405123D04E0F582
:103440000CA3E0F50D7402121AB7E02402F510A3E4
:10345000E03400F511851082F583123A2D1205E64D
:10346000750800750900EA24FCFEEB34FFFF8008B4
:10347000050CE50C7002050DA808C3EE98EF94004A
:103480005003023621A818A919880E890F780E1248
:103490001CEE851482851583A3A3A3A31249C5122C
:1034A0001CEEE5142405F50EE43515F50F780E1223
:1034B0001CEE8514828515831236631207CC7406C0
:1034C000121A818A0E8B0FEA450F7003023621EA29
:1034D0002404F516E4350FF517851682F583E0F51B
:1034E0000CA3E0F50D8518828519831249C18A82E3
:1034F0008B83A3A3A3E0F9851082851183123A2D53
:103500001207BAE9F50960030236217402121AB7EC
:10351000123D2BF5097809121CF2E4F512F5137827
:1035200012121CEE75123C7513037812121CEE90E9
:10353000033D121D057407121AB7121D05EEF9ACF2
:103540000EAD0F851082851183123A2D12093A743F
:1035500009121A81E9F5096003023621E508703F76
:10356000E4F50EF50F780E121CEE7CFF7DFF790955
:10357000851082851183123A2D1208A47402121A42
:1035800081123D51700D7404121AB7123658791118
:1035900002365590033CE02402900340F0801490E2
:1035A0000340E0FA90033CE0790024025001096AEC
:1035B000497072A80890033CE0FAE82AFAE4340063
:1035C000FBEE9AEF9B405A851682851783E0C0E098
:1035D000900341123407D0E0F00508851682851764
:1035E00083A3E0C0E008900341123407D0E0F00567
:1035F0000890033C1249C5121CEE1249BEA80812DD
:103600003CF81213007402121A8190033CE0250862
:10361000F50874FF650C700474FF650D60030234D7
:1036200070E508601F900340E0F5F0E5088412366D
:1036300075120508E96009900341123A2D121384AE
:1036400079008011E509700375090A7404121AB72C
:10365000123658A909023CEE123E93E50CF0A3E5A0
:103660000DF022A3A3124C50AA0CAB0D22A3A3EA87
:10367000F0A3EBF02290033FF07C3F7D03851082A6
:10368000851183123A312274EC121ADB74FC121A7F
:103690006B1241947402121AD1123A271207D28A7D
:1036A0000C8B0DEA450D700302375F12376FA818B7
:1036B000A919881089117810121CEE7CFF7DFF7902
:1036C0000B850882850983123A2D1208A474021210
:1036D0001A81123865700C850A82850B83123D624F
:1036E00002376C8E828F83A3A3A3A3E0F512781216
:1036F000121CF2E4F512F5137812121CEE75123F4B
:103700007513037812121CEE7810121CEE74091255
:103710001AB7121D057409121AB7E0F9AC0CAD0DF9
:10372000850882850983123A2D12093A7409121A02
:1037300081E9FE70157C3F7D03850882850983122F
:103740003A2D12050EE97009802074166E70027E03
:1037500000900340123A2D121384EE7004800B7E09
:1037600001850A82850B83124081EEF9024096EEB4
:103770002402F508E43FF5092274EC121ADB74FC0C
:10378000121A6BEAFEEBFF8C0E8D0FEE2405F50886
:10379000E43FF5097402121AD18508828509831263
:1037A0003A2D1207D28A0C8B0DEA450D70030238B0
:1037B00055EE2402F50AE43FF50BA818A919881064
:1037C00089117810121CEE7CFF7DFF790D123A27CB
:1037D0001208A47402121A81123865700B850882CF
:1037E000850983123D62807A8E828F83A3A3A3A36F
:1037F000E0F5127812121CF2850882850983A3A3D2
:10380000121D0575123F7513037812121CEE781005
:10381000121CEE7409121AB7121D057409121AB798
:10382000E0F9123A2312093A7409121A81E9FE707A
:103830000F7C3F7D03123A27120514E9700980209E
:1038400074166E70027E00900340123A2D1213849B
:10385000EE7004800B7E0185088285098312408109
:10386000EEF9024096123A6CF510A3E0F511EA4524
:10387000112274E8121ADB74FE121A6B8A168B1767
:103880008C148D15EA2405F50CE43517F50DEA24A2
:1038900002F50EE43517F50F850E82F583123A2DE9
:1038A0001205E68A088B09750B007C037D00790000
:1038B0007A3F7B03121318750A00E50814F510040B
:1038C00024FFF508E50934FFF509805490033FE033
:1038D000FA90033CE0F8EA28F8E43400F9E50898A7
:1038E000E50999500D90033FE0F8E510C398900367
:1038F0003CF0E0F5127513007812121CEE1249BE6E
:10390000900340E02AFAA3E03400FB121300740293
:10391000121A8190033CE0F890033FE028F0050A7A
:10392000850C82850D83A3A31243384003023A0815
:1039300090033FE0C39508E495094003023A08AEBE
:103940000AEE2EFEE433FF123A47AC18AD191249C5
:10395000D9E439FB1207D28A128B13AC12AD13ECE7
:103960004D701B750B01123A3712408590034012BF
:103970002F846003121384A90B7402023CF0851695
:1039800082851783A3A3A3A3E0F50B780B121CF287
:10399000E4F512F5137812121CEE75123C75130340
:1039A0007812121CEE90033D121D057407121AB70F
:1039B000121D05A910850E82850F83123A2D12095A
:1039C0003A7409121A81E9F50B709B900340123A80
:1039D0005C60030238CCE4F512F5137812121CEE89
:1039E0007CFF7DFF790F850E82850F83123A2D12A1
:1039F00008A47402121A81123A6260030238CC12CF
:103A00003A37123D660239797C3F7D03850E828507
:103A10000F83123A2D12051AE9600302396C7900FE
:103A2000023979AC0CAD0D850A82850B83123A31CF
:103A300022E0FAA3E0FB22123A47E0FAA3E0F9EA17
:103A400085148285158322850C82850D83E02EF8EE
:103A5000A3E03FF9888289832290033D124B5FE8FF
:103A60004922123A6CF8A3E0F9E84922900340EAAF
:103A7000F0A3EBF0900340E02274E8121ADB74FA32
:103A8000121A6B7404121AB712366F8C168D1774D3
:103A900004121AB7E02405F50EA3E03400F50F7404
:103AA00004121AB7E02402123D04123A2D1205E660
:103AB0008A0A8B0B7F007E00A818A919880889093B
:103AC0007808121CEE850E82850F83A3A3A3A3E0C2
:103AD000F5088E097808121CEEE50E2405F508E4B9
:103AE000350FF5097808121CEE850E82850F83A329
:103AF000A3123D341207CC7406121A818A0C8B0D66
:103B00008029123D25F00F123D25F00F90033C1245
:103B10004070121CEE1249BEEFF8123CF81213006E
:103B20007402121A8190033CE02FFFE50C450D70E2
:103B300003023BB48518828519831241A6A3A3A36F
:103B4000E0F9851482851583123A2D1207BAE9FE31
:103B5000E50C2404F510E4350DF511EE70507404F5
:103B6000121AB7123D2BF5087808121CF2E4F5087A
:103B7000F5097808121CEE75083C750903780812DF
:103B80001CEE90033D121D057407121AB7121D0595
:103B9000E50A24FAF9AC0CAD0D8514828515831263
:103BA0003A2D12093A7409121A81E9FE6039123D60
:103BB00041124084EF7003023CDB900340E0F5F0DB
:103BC000EF8490033FF07C3F7D038514828515834D
:103BD000123A2D120520E96009900341123A2D1284
:103BE00013847900023CEE8F08EF703BE4F512F588
:103BF000137812121CEE7CFF7DFF791185148285EB
:103C00001583123A2D1208A47402121A81123D5122
:103C10007009123D41123D65023CEE90033CE024E8
:103C200004900340F0803590033CE0F8900340E0BE
:103C3000FAE82404FCE43400FDEC6A4D6003023B26
:103C4000BAE50A24FAFAE50B34FFFBE50828F8E4A4
:103C50003400F9EA98EB995003023BBA851082854B
:103C60001183E0C0E0900341E02FF8A3E034008826
:103C700082F583D0E0F00F851082851183A3E0C028
:103C8000E0123D12D0E0F00F7402121AC1880889C8
:103C9000097808121CEE7402121AB7121D05850E5F
:103CA00082850F831236631207D87404121A818A30
:103CB0000C8B0DEA450D7003023B027402121AB719
:103CC000E0C0E0123D12D0E0F00F7402121AB7A368
:103CD000E0C0E0123D12D0E0023B0AEE70027E0A24
:103CE000850E82850F83123D47124084EEF97406DB
:103CF000121A817F10021BAD900341E028FAA3E065
:103D00003400FB22F514A3E03400F515851482F588
:103D10008322123D1622900341E02FFAA3E03400E3
:103D20008A82F58322123D1674FF22123E93A3A3CA
:103D3000A3A3E022124C50850E82850F83123A31E4
:103D400022851082851183124B5F85168285178329
:103D500022900341EAF0A3EBF0900341124B5FE89D
:103D6000492212408AE8F0A3E9F079112274EA129C
:103D70001ADB74FE121A6B8A088B098C128D13EAF7
:103D80002405FEE43509FFAC18AD198E828F83122D
:103D90003A2D1207D28A0C8B0DEE2406F50EE43F65
:103DA000F50FEA450D7003023E65E5082402F50AA9
:103DB000E43509F50B8A828B83A3A3A3E0A2E55027
:103DC00028851882851983123A2D12092E8A108BA4
:103DD00011EA451160207912123A2385108285116B
:103DE00083121AD9E9F50C707F850E82850F83E066
:103DF000600979528011750C0E806D8508828509E5
:103E000083A3A3A3A3E0F9E4F508F5097808121C3D
:103E1000EE8E828F83A3A3E0F5087808121CEE8E45
:103E2000828F83A3A3A3121D058E828F831249C1A3
:103E3000123A271209407406121A81E9F50C701122
:103E4000850E82850F83E0702D123A271205268099
:103E5000257416650C7011750C007418121AB712BF
:103E60003E8FE48010750C01124B5785128285132A
:103E700083E8F0A3E9F0850E82850F83E060047982
:103E8000008002A90C7402121A817F0E021BAD126F
:103E90003E9322E0F8A3E0F58388822274EC121AA4
:103EA000DB74F7121A6B8A0A8B0B8C108D11EA24C3
:103EB00005FEE4350BFF750C00AC18AD198E828F32
:103EC00083123A2D1207D28A088B09EA450970033A
:103ED00002405BE50A2402F50A5002050B8A828B38
:103EE00083A3A3A3E0A2E5502F851882851983122E
:103EF0003A2D12092E8A0C8B0DEA450D604F79126E
:103F0000AC08AD09123A27850C82850D83121AD9A7
:103F1000E9F50C600302405E850A82850B83E0F5BB
:103F200008A3E0F509AA08FB120922EA4B70197AE6
:103F3000FF7BFF120922EA4B70030240518A828BF9
:103F400083E508F0A3E509F07508008008750C0EFC
:103F500002405E0508900339E0F8E508C398400385
:103F600002405185080E750F007403780E121A581E
:103F70008A828B83A3A3E0250EF8A3E0350F1244B9
:103F80002570D08E828F8312407912366F8E828F89
:103F900083A3A312407912366DEE2404F508E43FA2
:103FA000F509850882F583E088828983A3A3A3A30A
:103FB000F0A3E4F0EE2405F50EE43FF50F850E8244
:103FC000F583124079A3A3A3A312366D751207756A
:103FD00013007812121CEEEEFCEFFD7404121AC9E5
:103FE0001213007402121A81E4F5127812121CEEF8
:103FF000850882850983E0FC7D007917123A271233
:1040000008A47402121A817407121AB712366F7458
:1040100007121AB7E0FA4B603D85088285098312C2
:104020004070121CEE850E82850F831249C1121357
:10403000007402121A817402121AD1123A27120560
:104040002CE960267407121AB7123A2D12138480D5
:1040500019750C098008750C118003750C01124B41
:1040600057851082851183124084A90C7409802819
:10407000E0F508750900780822123A3188828983B0
:104080002212408AE8F0A3E9F022E0F8A3E0F985E3
:104090000E82850F83227404121A817F0C021BADDD
:1040A00074EC121ADB124194751000EE2402F50C28
:1040B000E43FF50D850C82F583123A2D1209228A10
:1040C000088B09EA45097003024178850A82850B4D
:1040D00083E06401600302416DAC08AD09AA0AAB3C
:1040E0000B120916E9606E8508828509831233FA7E
:1040F000EE2406F50AE43FF50B8E828F83A3A3120C
:104100001D058E828F83A3A3A3A3121D05850A829A
:10411000850B83121D0579188E828F831241A6129A
:104120003A2D1209407406121A81E9F87416687063
:104130000B850A82850B83E4F0A38014E860128E5D
:10414000828F83123A2D850E82850F83EAF0A3EBCE
:10415000F088108018780E121CEEAC08AD09EEFA4B
:10416000EFFB12091C7402121A81E9F510AA08ABC0
:1041700009120928E510700E850C82850D83123A0C
:104180002D1205328009741665107003751000A990
:104190001002409BEAFEEBFF8C0E8D0FEE2405F51E
:1041A0000AE43FF50B22124C50850C82850D8322C8
:1041B00074EA121ADB7508007509007E007F00752D
:1041C0000A00EC2402F510E43DF5118035EC650899
:1041D0007003ED6509600302426588828983A3A3A9
:1041E000E06A7003A3E06B707C88828983A3A3A339
:1041F000A3124B5BEE28FEEF39FFEA28FAEB39FBFE
:10420000050A124335503A850A0C750D007403787F
:104210000C121A58851082851183124328124425E6
:10422000601FE508450970A58C088D09888289837F
:104230001233F888828983A3A3E02EFAA3E03F809B
:10424000BEE50AC3940250030243237508007509B2
:1042500000EE4F6010EEFAEFFB12137E8A0E8B0F0A
:10426000EA450F70057900024325750B000242F8FC
:10427000850B0C750D007403780C121A588510828A
:10428000851183E0250CF50CA3E0350DF50DE50C4B
:104290002406F514E4350DF515851482F5831244D2
:1042A0002A6042E50C2404F512E4350DF51385125D
:1042B00082F583121D05E50E2508FAE50F3509FB89
:1042C0001213007402121A81851282851383E0256D
:1042D00008F508A3E03509F50985148285158312D0
:1042E0003A2D121384E50B600D7C087D007900AA3D
:1042F0000CAB0D121318050BE50BC3950A50030206
:104300004270851082851183124B5B88828983A35A
:10431000A3A3A3A3A3E50EF0A3E50F122F8BEEF04A
:10432000A3EFF07901023E8A12432C22E0250CF81B
:10433000A3E0350D22900339E0F8E50AC398227412
:10434000F0121ADB8A0E8B0F8C0A8D0B750D00751F
:104350000C0080507916EE2406F508E43FF5098E2E
:10436000828F83A3A3121D058E828F83A3A3A3A391
:10437000121D05850882850983121D05850E82851B
:104380000F83A3A3123A2D1209407406121A81E971
:10439000F50D7416650D706C850882850983E4F04F
:1043A000A3F0050C900339E0F8E50CC3985066AA19
:1043B0000C8A0875090074037808121A58850A8255
:1043C000850B83A3A3124474E8FEE9FF8E828F83DA
:1043D00012442A6040EA2401F508E43400F509900B
:1043E0000339E065087002E509601488828983A3B7
:1043F000A3A3A3A3A3A3A3123A5C6003024354792B
:1044000018024356E9609B124B577410121AB712E8
:10441000441C124084A90D7F08021BADE0FAA3E002
:10442000F5838A8222F988828983124C50EC4D22CE
:1044300074F6121ADB7C0080010C900396E0F8EC15
:10444000C398501E8C0875090074027808121A5817
:10445000124469E06A7003A3E06B70DDE8FAE9FBDF
:1044600080047A007B0002450C9003371244748864
:1044700082898322E02508F8A3E03509F92274F245
:10448000121ADB8A088B09750A0080278E828F83B7
:10449000A3A3A3A3122F8260031213847C087D00C0
:1044A0007900EEFAEFFB1213188E828F83E4F0A3EB
:1044B000F0050A1243355027850A0C750D00740368
:1044C000780C121A58850882850983A3A3E0250C6D
:1044D000FEA3E0350DFF8E828F83123A5C70AD85AE
:1044E000088285098374FFF0A3F0024C4474F6122D
:1044F0001ADB1208D48A828B83E582458370067AA0
:10450000007B008007A3A3A3A3123A2D7F02021B06
:10451000AD74F4121ADB89088C828D83E06402701A
:104520003C124AFAFEA3E0F9EEF8740268700374D4
:1045300029697029750A02750B00780A121CEE743D
:1045400010121AB7121D057410121AB7121D05A900
:104550000812124C7406121A81E9F98002790102DC
:104560002FBF74E8121ADB74FB121A6BE9851882EC
:10457000851983F08A168B17ECFEEDFF7510008EFF
:10458000828F83A3A3A3E0A2E4502D741D121AB757
:10459000123A2D12092E8A828B83E582458370039D
:1045A000024999790AEEFCEFFDAA16AB17121AD947
:1045B000E9F510600302499C741F121AB7E0F50870
:1045C000A3E0F5097421121AB7E0F50AA3E0F50B90
:1045D0007423121AB7E0F50EA3E0F50F8E828F83D5
:1045E000E06402600302493AA3124B5B85088285AE
:1045F0000983A3858212858313EE2406F50CE43F1C
:10460000F50D888289831249D9F514E439F51578B6
:1046100014121D780100002801283C4607000228DA
:10462000014703286F460029304801295B480229C9
:10463000FC47032930480429D4483A49E50E450F80
:104640006003024935850C82850D83124B5BE8FAC5
:10465000E9FB8A828B83E0850A82850B831249E419
:10466000121CEE8A828B83A3E0FCA3E00248BEE525
:104670000E450F6003024935850A82850B8374015C
:10468000F01249CE850882850983F07C007D008E7A
:10469000828F83A3A3A3A3E02401FAA3E03400FB49
:1046A0001207D2EA4B60408A828B83E02402F885AD
:1046B0000A82850B83E028F0EA2404F8E43BF988B9
:1046C000828983E08512828513831249F21249E4BC
:1046D000121CEE8A828B83A31249C1E5082403FAD7
:1046E000E43509FB0248C3850A82850B83E0240474
:1046F000F07C047D007900AA12AB13121318024952
:104700009CE50E450F60030249351249CEFEA3E039
:10471000FF850A82850B837404F0EE850882850983
:1047200083F0EF851282851383F07403121AD1EEA1
:10473000FAEFFB1207D28A0C8B0DEA450D700302CB
:1047400047DF8A828B83A3A31233F87401121AC144
:10475000880E890F780E121CEE7405121AB7121DFE
:10476000057CFF7DFF1207D87404121A818B0FEAB3
:10477000450F7033850C82850D831249C5121CEEDE
:10478000850C82850D83A3121D057C027D007A793C
:104790007B831205D47404121A81E9700A74011221
:1047A0001AB774FFF0A3F08E828F83E06402703931
:1047B000750C02750D00780C121CEE8E828F83A38F
:1047C0001249C1E5082404FAE43509FB1213007408
:1047D00002121A81850A82850B83E0240280097403
:1047E00001121AB7EEF0A3EFF07401121AB71249D2
:1047F000B37401121AB71249AA02492FE50E450FE8
:104800006003024935850C82850D83124C49AA1636
:10481000AB17121252850A82850B837402F0850849
:1048200082850983EAF0851282851383EB0249327F
:10483000E50E450F60030249351249CEF8A3E0F9B1
:10484000850A82850B837402F0E8850882850983D6
:10485000F0E9851282851383024932850C82850D29
:1048600083123A2D1212FAEAFAF8C3950EE4950F64
:10487000405CE8650E450F70047A0080218518823F
:10488000851983E0FCE50E2CFCE4350FFDC3EC98A4
:10489000ED94005003E08005E50ECAC39AFAEA855C
:1048A0000A82850B83F08A0A750B00780A121CEEC7
:1048B000850C82850D83E0250EFCA3E0350FFDAA53
:1048C00008AB091213007402121A8102499C751078
:1048D0000702499CE50E450F705B850C82850D83B0
:1048E000124B5B850A82850B837407F0888289836B
:1048F0001249AB1249A3E0851282851383F0E824A4
:1049000002FAE439FB8A828B831249B38A828B8351
:104910001249AAA3A3122F8A1249B8F0E82405F875
:10492000500109888289831249B8A31249F2A3A3CE
:10493000A3A3F0806775100B8062741D121AB71262
:104940003A2D1208D48A828B83E5824583604A120D
:104950004B5B880C890DE8450D603E7425121AB733
:10496000E0F5107810121CF2780E121CEE780A1284
:104970001CEE7808121CEE7407121AB7E0F9EEFC70
:10498000EFFDAA16AB17850C82850D83121AD97418
:1049900007121A81E9F510800375100EA91074052D
:1049A000023CF0F088828983A322A3E085088285F7
:1049B0000983221249F9F0221249F9A3A322900394
:1049C0003D124C5022E0F50E750F00780E22850C3A
:1049D00082850D83123E93E022E0FAA3E0F8E4C85A
:1049E000F9EA2822F08A828B83E0F50A750B0078B9
:1049F0000A221249A31249F922E085088285098317
:104A0000A3A32274EE121ADB74FE121A6B8A088BAF
:104A100009ECFEEDFF890AAC18AD19EEFAEFFB12B6
:104A200007D28A0C8B0DEA450D7003024AEB8518FC
:104A300082851983123A2D1208D48A828B83E582EB
:104A400045837003024AE6A3A3124B5B880E890FCD
:104A5000E8450F7003024AE67414121AB7E0F51025
:104A6000A3E0F511E50AF50B780B121CF27419128C
:104A70001AB7121D057810121CEE741B121AB7E03B
:104A8000F9AC0CAD0DAA08AB09850E82850F831217
:104A90001AD97405121A81E9F50B705274FE650A71
:104AA000604C850C82850D83E064027041124AFAE5
:104AB000FAA3E0F9EAF87402687003742969702EA9
:104AC0008510828511831249D9F50CE439F50D78EA
:104AD0000C121CEEEEFCEFFDAA08AB09120958748B
:104AE00002121A818008750B0E8003750B01A90B49
:104AF0007402121A817F0A021BADA3124B5F8882D7
:104B00008983E02274F6121ADB74FE121A6B740C9D
:104B1000121AB7124B5BE8851882851983F074016D
:104B2000121AB7E9F0E4F508F5097808121CEE75D9
:104B300008027808121CEE7404121AC18808890948
:104B40007808121CEE79FE1209407406121A81745C
:104B500002121A8102450C8E828F83124B5F22E073
:104B6000F8A3E0F92274F7121ADBEAFEEBFF8908DA
:104B70009003541249C1121252EA5402600BA90860
:104B8000EEFAEFFB1207C6800279017F01021BAD2E
:104B900074F2121ADB74FE121A6BEAFEEBFF890A3A
:104BA0007401650A60147402650A6003024C3F795F
:104BB00001120B5CE96003024C3FEEFAEFFB1209B5
:104BC00022EA4B6003120928A818A9198808890944
:104BD0007808121CEE7508027509007808121CEEA0
:104BE0007508737509837808121CEE7CFF7DFF7AC7
:104BF000017B001207CC7406121A81803885088266
:104C0000850983A3A3A3A3A3A3124C49EEFAEFFB48
:104C100012123AE4F50CF50D780C121CEE74021227
:104C20001AB7121D057CFF7DFFAA08AB091207D831
:104C30007404121A818A088B09E508450970BE744C
:104C400002121A817F06021BAD123E93124C5022B3
:104C5000E0FCA3E0FD2274F4121ADB8A088B09EC55
:104C6000FEEDFF90185AE0F4604B7A097B001213B6
:104C700024EA4B60408A828B8374B1F0A3E4124C27
:104C8000B8F08A828B83A3A3E508F0A3E509124C50
:104C9000B8A3EEF0A3EFF0740C121AB7124B5B8AB4
:104CA000828B83A3A3A3A3A3A3A312408490185A27
:104CB000E0F9121330022FBFF08A828B83A3A3A3E3
:104CC000A32274EE121ADB74FA121A6B8A0A8B0B87
:104CD000E9FF8C088D097E00850A0C850B0D780C88
:104CE000121D320004109E4F0A4D2D4D4C4D6F4D3C
:104CF000924DB54DE64D094E204E504EFF4E224F7F
:104D0000454F734F9E4F9E4F794E74016F701985BA
:104D10000882850983E0C39403500D8508828509C4
:104D200083E0901946F080027E18024FC674026F2D
:104D30007015850882850983E0F8A3E0F99019478A
:104D4000E8F0A3E9F080027E18024FC674016F708C
:104D500019850882850983E0C39402500D85088275
:104D6000850983E0900797F080027E18024FC67491
:104D7000016F7019850882850983E0C39405500D81
:104D8000850882850983E0900798F080027E1802EA
:104D90004FC674016F7019850882850983E0C3943A
:104DA00002500D850882850983E0900799F0800202
:104DB0007E18024FC674106F7027750C10750D00A9
:104DC000780C121CEEAC08AD097A9A7B071213001E
:104DD0007402121A818A0C8B0D850C82850D8380DA
:104DE000027E18024FC674016F701985088285090A
:104DF00083E0C39402500D850882850983E0900703
:104E0000AAF080027E18024FC674016F700D8508EB
:104E100082850983E090194AF080027E18024FC60D
:104E200074046F70269082FF780C12192385088213
:104E3000850983780C121733501185088285098300
:104E40001219599007AC12196580027E18024FC6DC
:104E5000EF702112076CE970131211E0E9F50D797A
:104E60005012145CE9F50C1211CE800A90083F74C0
:104E700001F080027E18024FC674076F707C750EB9
:104E800006750F00780E121CEE850882850983A333
:104E9000AC82AD837402121AC91213067402121A7C
:104EA000818A108B1185100E85110F7C007D00AA60
:104EB00018AB19850882850983E0F9121174E9F5A8
:104EC0000CE50CC3940A502E12076CE97015A90C5E
:104ED0001211E6E9F50E795012145CE9F50D121184
:104EE000CE8019A80C7900744028F582740839F531
:104EF000837401F080067E0280027E18024FC67421
:104F0000016F7019850882850983E0C39402500DF2
:104F1000850882850983E09007ABF080027E180245
:104F20004FC674016F7019850882850983E0C394A8
:104F30000A500D850882850983E0901949F08002A6
:104F40007E18024FC674016F70258508828509831B
:104F5000E0C394074019850882850983E0C3941152
:104F6000500D850882850983E090194BF080577EAB
:104F700018805374016F702290083EE0F50C85088C
:104F800082850983E090083EF0E50C703990083E78
:104F9000E0640170311211CE802C7E188028C3E5A8
:104FA0000A9427E50B9400501B74026F7016850855
:104FB00082850983E0FCA3E0FDAA0AAB0B1205EC95
:104FC000E9FE80027E02EEF97406121A817F0A025F
:104FD0001BAD74EC121ADB74DA121A6B890D8A128B
:104FE0008B138C0A8D0B743A121AB7E0F50C908271
:104FF00097AC18AD19740612197EAC18AD19AA1227
:10500000AB13A90D121174E9FEEEC3940A4003021A
:105010005146EEF91211B0E9FF901946E0640270B2
:1050200004740180027400F5087808121CF2AD0CBB
:10503000EFFCEEF9AA0AAB0B1212227401121A81CC
:105040007C147D0079007412121AC91213188A0E8A
:105050008B0F850E08850F097412121AD17A1075FC
:10506000F006EEA42424F9121456E9703C7C107961
:10507000FF7412121AC9121378E9702D7422121AD1
:10508000B7AC82AD837A0475F006EEA42425F9123C
:105090001456E9F5087412121AD1EFA2E0E433F9BC
:1050A000AA0AAB0B120676E9F87406121AD17A0C2A
:1050B00074702EF9121456E970797406121AC91216
:1050C00011A4750E00E50EC394045067A80E790074
:1050D000E875F003A4C8AAF075F000A42AFA75F0E8
:1050E00003E9A42AF97406121AB7E58228F508E53F
:1050F0008339F509850882850983E0F8A3E0F9E89A
:1051000049602C850882850983A3A3E0F5107511F9
:10511000007810121CEE850882850983E0FCA3E06C
:10512000FDAA0AAB0B1209467402121A81E9F805AE
:105130000E8092EFA2E1500E900796E0F9AA0AAB1A
:105140000B12094CE9F87404650C700F901946E0D5
:1051500064027007AA0AAB0B12121C7900742612A3
:105160001A817F0C021BAD74F7121ADBEAFEEBFF0B
:1051700012076CE9706790083FE06401701B121120
:10518000E0E9F50890083F7400F07C0A7D007900A2
:105190007A407B081213188039750800E508C3941B
:1051A0000A502FA8087900744028F582740839F550
:1051B00083E064017018A9081211E6E9FAA80879D9
:1051C00000744028F582740839F5837400F00508EE
:1051D00080CA795012145CE9F5081211CE7F0102E1
:1051E0001BAD74F2121ADB890BEAFEEBFF8C088D03
:1051F00009750A0AE50B600C146009146044146018
:1052000064025287EEFAEFFB1211C2E9F50AE50AD1
:10521000C3940A5072E5084509606C750C06750D5B
:1052200000780C121CEEEEFCEFFDAA08AB0912137D
:10523000007402121A818A0C8B0D850C82850D83F5
:105240008045EEFAEFFB1211BCE9F50AE50AC394BA
:105250000A5034E5084509602EAA08AB09A90A12CC
:1052600011B6E98022EEFAEFFB1211C8E9F50AE562
:105270000AC3940A5011E5084509600BAA08AB0956
:10528000A90A1211B6E9F8A90A7F06021BAD74F249
:10529000121ADB8A0C8B0DE9FF7E1574FF650C700A
:1052A0000474FF650D702A750800E508C3940A5060
:1052B00014EFFC7A027B00A908121192E960027EC9
:1052C00000050880E5EF60627A0A7B12120B80808D
:1052D00059AA0CAB0D120B508A0A8B0B850A088554
:1052E0000B09E508450960407C007D00E5082405C0
:1052F000FAE43509FB850882850983A3A3A3A3E00B
:10530000F9121174E9F50AE50AC3940A500EEFFC8C
:105310007A027B00A90A121192E97E00EF600BAAC3
:1053200008AB0912120A80027E14EEF97F06021BF6
:10533000AD74EE121ADB8A0E8B0F8C0A8D0B741271
:10534000121AB7E0F50CA3E0F50D75081574FF65AA
:105350000E700474FF650F701E7E00EEC3940A5039
:1053600061AC0CAD0DAA0AAB0BEEF9121198E96015
:10537000037508000E80E4AA0EAB0F120B508A10C2
:105380008B11AE10AF11EE4F60357C007D00EE2426
:1053900005FAE43FFB8E828F83A3A3A3A3E0F91257
:1053A0001174E9F509E509C3940A5016AC0CAD0D6A
:1053B000AA0AAB0BA909121198E9750800800375B8
:1053C0000814A9087F0A021BAD74F7121ADBEAFE63
:1053D000EBFF9007B0EEF0A3EFF0900796E0FC7DB6
:1053E000007A267B001205ECE9F508900796E0F9B3
:1053F0001208B07F01021BAD74F0121ADB74EC12BC
:105400001A6B8A0C8B0D850C82850D83A3A3E02477
:10541000FA700302587124FD70030256E6147003FB
:105420000254E814601024FD700302568E147003B9
:10543000025725025884AE0CAF0D9007B0E0F8A3D8
:10544000E0F9E84960669007B0E0F8A3E0F58388EA
:1054500082E0F8A3E0F9E8496052EE240CF582E41A
:105460003FF583E0F5087808121CF2EE240BF58274
:10547000E43FF583E0F98E828F83A3A3A3A3A3A3C4
:10548000A3A3A3E0FCA3E0FDEE2403FAE43FFB901A
:1054900007B0E0F8A3E0F5838882E0F8A3E0F583A5
:1054A0008882121AD97401121A8180398E828F83F0
:1054B000A3A3A3A3A3A3A3A3A3121D059007AC12A8
:1054C00019411206887402121A81E9601879018E56
:1054D000828F83A3A3A3A3A3A3A3A3A3E0FAA3E020
:1054E000FB120682E9025884AE0CAF0D7508008EDF
:1054F000828F83A3E060030256108E828F83A3A362
:10550000A3A3A3E0A2E0400302561090084AE0F8EB
:10551000A3E0F9E84960030256107C0E7D00790093
:10552000AA18AB191213188A0A8B0BAA0AAB0BEE36
:10553000240CF582E43FF583E0F8A3E0F9E8496044
:1055400036750A06750B00780A121CEEEE240CF56F
:1055500082E43FF583E02410FCA3E03400FD7402F4
:10556000121AC91213007402121A818A0A8B0B854F
:105570000A82850B83804F8E828F83A3A3A3E0FAD8
:10558000A3E0FB120B508A0E8B0F850E0A850F0BC2
:10559000E50A450B602D750E06750F00780E121C7E
:1055A000EEE50A2405FCE4350BFD7402121AC9125B
:1055B00013007402121A818A0E8B0F850E82850FDA
:1055C0008380030258848E828F83A3A3A3A3A3E0C6
:1055D000A2E25004D2F08002C2F0A2F0E433F879E3
:1055E00000740C121AB7E048F0A3E049F0EEFCEFAB
:1055F000FDAA18AB191211AAE970127A027B009069
:105600000796E0F9121354E97900025886750815D7
:105610009007B0E0F8A3E0F9E849606F9007B0E0C8
:10562000F8A3E0F5838882A3A3E0F8A3E0F9E849B2
:1056300060598E828F83A3E0FC79018E828F83A3D1
:10564000A3A3E0FAA3E0FB9007B0E0F8A3E0F583A2
:105650008882A3A3E0F8A3E0F5838882121AD9E533
:10566000086028AC0879038E828F83A3A3A3E0FA95
:10567000A3E0FB9007B0E0F8A3E0F5838882A3A342
:10568000E0F8A3E0F5838882121AD9025884AE0CA0
:10569000AF0D9007B0E0F8A3E0F9E8496045900746
:1056A000B0E0F8A3E0F5838882A3A3E0F8A3E0F9D3
:1056B000E849602F850C82850D83A3E0FC79028E7A
:1056C000828F83A3A3A3E0FAA3E0FB9007B0E0F8E6
:1056D000A3E0F5838882A3A3E0F8A3E0F5838882A2
:1056E000121AD9025884AE0CAF0D7C007D00EE2456
:1056F00004FAE43FFB8E828F83A3A3A3E0F9121187
:1057000074E9F508E508C3940A5017EE240AFCE48E
:105710003FFD7A0475F006E508A42425F91214501B
:10572000E9F8025884AE0CAF0D9007ABE060199019
:105730001949E0F98E828F83A3A3A3E0FAA3E0FBCB
:10574000120682E9F8025884901946E0701679052D
:105750008E828F83A3A3A3E0FAA3E0FB120682E963
:10576000F80258848E828F83A3A3A3E0FAA3E0FB00
:10577000120B508A0A8B0B850A08850B09E5084530
:105780000970030258848E828F83A3A3A3A3A3A3CB
:10579000A3E0A2E0506D850882850983A3A3A3A39B
:1057A000E060608E828F83A3A3A3A3A3A3A3A3A37C
:1057B000E0F50AA3E0F50B7409780A121A49E50A24
:1057C0005401F8E50B5400F9E8A2E04036740E12DB
:1057D0001AD1E5082405FAE43509FB850882850914
:1057E00083A3A3A3A3E0F9121174E9701679038EC1
:1057F000828F83A3A3A3E0FAA3E0FB120682E9F859
:10580000025884EE2405FCE43FFD85088285098367
:10581000A3A3A3A3E0F98E828F83A3A3A3E0FAA39B
:10582000E0FB1212169007B0E0F8A3E0F9E8496037
:10583000539007B0E0F8A3E0F5838882A3A3E0F8D3
:10584000A3E0F9E849603D7C0079008E828F83A354
:10585000A3A3E0FAA3E0FB9007B0E0F8A3E0F58390
:105860008882A3A3E0F8A3E0F5838882121AD98086
:1058700013AE0CAF0D8E828F83A3A3A3E0FAA3E037
:10588000FB12116E79017414121A817F08021BAD8C
:1058900074F5121ADB74F2121A6B8909EAFEEBFF37
:1058A0008C0AAC18AD197A0E75F006E509A424200F
:1058B000F9121456E9705F7C0679FFAA18AB191229
:1058C0001378E97051740C121AB7E0F8A3E0F9E804
:1058D000F508E50A6005EE42088004EEF45208A8D7
:1058E000087900740C121AB7E0687003A3E06960CD
:1058F00021A8087900740C121AB7E8F0A3E9F0ACFB
:1059000018AD197A0E75F006E509A42420F91214D1
:1059100050E9790180027900740E121A817F030226
:105920001BAD74F0121ADB74E6121A6B890B8A0C29
:105930008B0DECFEEDFF740C121AD17A0E75F00689
:10594000E50BA42420F9121456E96003025A527C94
:105950000679FF740C121AC9121378E96003025A0F
:1059600052AC18AD197A0C7470250BF9121456E963
:105970006003025A4E750A00AA18AB191211A4E569
:105980000C450D702E7C0C7900AA18AB19121378F7
:10599000E96003025A347C0C7D007900AA18AB1927
:1059A0001213188A088B09850882850983750A01F4
:1059B000025A34AC18AD19AA0CAB0D12119E8A0E06
:1059C0008B0F850E08850F09E50845097030EE4FED
:1059D000601BAC18AD197A007B0012119E8A0E8BE9
:1059E0000FA80EA90F88088909E84970047900807A
:1059F00063850882850983E50CF0A3E50DF0850831
:105A000082850983A3A3E0F87900EE687002EF694C
:105A10006022EEC0E0850882850983A3A3D0E0F070
:105A2000EE4F700D8508828509837400F0A3740021
:105A3000F0750A01E50A6016AA18AB191211A4AC98
:105A400018AD197A0C7470250BF9121450E979010C
:105A500080027900741A121A817F08021BAD74F655
:105A6000121ADB8A088B097E00EEC394045050EEB4
:105A7000F87900E875F003A4C8AAF075F000A42A2C
:105A8000FA75F003E9A42AF9EC28F582ED39F583DB
:105A9000E065087004A3E065097021EEF87900E87C
:105AA00075F003A4C8AAF075F000A42AFA75F003F3
:105AB000E9A42AF9EC28FAED39FB80070E80AA7ACE
:105AC000007B007F02021BAD74F7121ADB7C00EC36
:105AD000C394044003025B77ECF87900E875F003A7
:105AE000A4C8ADF075F000A42DFD75F003E9A42D58
:105AF000F9EA28F582EB39F583E0F4FEA3E0F4FF40
:105B0000ECF87900E875F003A4C8ADF075F000A4D6
:105B10002DFD75F003E9A42DF9EA28F582EB39F59E
:105B200083EEF0A3EFF0ECF87900E875F003A4C879
:105B3000ADF075F000A42DFD75F003E9A42DF9EA90
