:020000040000FA
:0600000002011A0231E5C5
:0300130002398F20
:03002B000238E0B8
:0300530002325B1B
:03007B0002390E39
:1000830002303BE5C754F84401F5C779012200006B
:100093000080FB120086B90003020104E479217891
:1000A30008B800028004F709D8FCE479297802B87B
:1000B30000028004F709D8FCE4900281784579179F
:1000C3008002F0A3D8FCD9FA781A90014A7A01BACF
:1000D30000028007E493A3F608DAF97AC57B189047
:1000E300014B78D779038015E493A3AD82AE838A5D
:1000F300828B83F0A3AA82AB838D828E83D8E9D9C6
:10010300E775829F7583FF740212012C75829175C6
:100113008300740012012C75D00075813F7518811E
:10012300751902759F00020096C09FF59FE473D076
:100133009F22D083D082C09FE493C0E0740193C018
:10014300E0740293F59F220101FF0000B400002830
:10015300002800283075A000A000A000A00000081F
:100163000008E001F0001000100010001000100063
:10017300100050005000500010001000D007000085
:10018300000000000F00010005003075070010009B
:10019300010081FF00000000FFFFFF061424140C80
:1001A300144814FF02020208025000A0000000E8F5
:1001B3000302928301000075830282830100002100
:1001C30019027C830100000C0302828301000022D8
:1001D30019027883010000220302828301000023B5
:1001E30019028A8301000024030282830100002490
:1001F30019028E8308000025030282830100002573
:100203001902A2830100002619FF0100FF200292B8
:100213008301000059820282830100008A1902B01F
:10022300830000000000027E8303000053031700D5
:10023300B41AB41AB41AB41AB41AB41AB41AB41A4B
:10024300B41AB41AB41AB41AB41A721D841D6C1DEC
:10025300020202020202020202010D00000010016A
:100263000292830100006F83028283010000CD1993
:10027300027A830100008D07028283010000CE19F8
:1002830002A0830100003882028283010000CF199B
:1002930002AC830100002A82028283010000D0198C
:1002A30002AA83010000AA81028283010000D119FE
:1002B30002A8830100009881028283010000D21901
:1002C30002A6830100008681028283010000D31904
:1002D300029E83010000BC81028283010000D419C5
:1002E300029C830100000E82028283010000D51963
:1002F300029A83010000D61901E8030577100AFF6B
:10030300FF00013075030201060000000000000039
:1003130000000000000000000000000000000000DA
:100323000000000000FFFF0600800CE8030E093008
:10033300303030303030305942424C450512500095
:100343002003020A000201060302F0FF09FF0095E1
:10035300000000000000303030303030303059427F
:10036300424C450000000000000000102200002E57
:100373002212121252656164446174610044656221
:1003830075674461746100546F6F6C4461746100FC
:1003930008577269746544617461000292830100B5
:1003A300007283028283010000F01A02A483010019
:1003B30000AB15027E83030000D215028083010087
:1003C30000041B028283010000EF1A0288830100EC
:1003D300008B15027E83030000D015028083010089
:1003E30000FA1A028283010000EE1A0286830100DA
:1003F300006B15027E83030000CE1502808301008B
:1004030000F11A0282830100000D1B028C8303009A
:0E04130000D4150280830100000E1B080703B1
:1010A80098999A9B120135B9D501120135D1D5010C
:1010B80012013500D6011201353BD60112013580E7
:1010C800D601120135CFD60112013539D7011201E7
:1010D800356BD701120135ADD70112013505D8019D
:1010E800120135CBD8011201351ED9011201350282
:1010F800DB0112013546DB011201355BDB01120110
:101108003547DC0112013560DC011201354FDD0184
:10111800120135CEDD0112013541DE011201351C07
:10112800DF0112013585DF011201350CE0011201E2
:10113800353DE0011201355CE00112013530E10175
:10114800120135C8E101120135C5E401120135511A
:10115800E50112013567E501120135ABE501120120
:1011680035CEE501120135F1E5011201356EE601D2
:1011780012013527E701120135B8E7011201355D83
:10118800A4031201350CA5031201354EA603120162
:101198003590A70312013542A803120135A1A8030F
:1011A80012013500A903120135B2AB0312013597BC
:1011B8008E04120135F58E04120135268F041201B2
:1011C80035CB8F04120135EB8F041201351C9004C6
:1011D800120135629004120135E890041201358F2E
:1011E800FB03120135A2FB03120135D3FB031201E5
:1011F800350DFC0312013566FC03120135ADFC0305
:10120800120135F5FC0312013524FD031201355393
:10121800FD031201358AFD03120135D1FD031201C8
:1012280035EAFD031201353FFE0312013558FE036E
:10123800120135A6FE03120135E0FE0312013587BF
:1012480093031201358A9403120135C394031201E2
:1012580035E69403120135F89403120135369503E7
:10126800120135B295031201357A96031201359CA5
:10127800960312013533970312013585970312013E
:1012880035B69703120135C397031201352D98031C
:10129800120135849803120135879803120135C06D
:1012A8009803120135C39803120135CD9803120132
:1012B8003521990312013562990312013595990375
:1012C800120135D29903120135D49A0312013578E7
:1012D8009B03120135E19B031201351F9C03120188
:1012E80035DEEF0312013506F00312013533F00342
:1012F8001201356BF003120135C9F00312013515DF
:10130800F1031201357CF103120135BCF10312011E
:1013180035F9F10312013527F203120135D1F20331
:10132800120135DBF203120135E8F2031201351B15
:10133800F30312013527F3031201353FF3031201BA
:101348003549F3031201352FA3041201353DA304D7
:1013580012013555A3041201356CA304120135009E
:101368008002120135AA8002120135BD81021201E4
:1013780035398202120135578302120135938302EF
:101388001201352E8402120135128502120135DE52
:1013980085021201356C8702120135DD87021201C0
:1013A80035978802120135898902120135C98902E7
:1013B8001201357D8A02120135AF8A02120135A564
:1013C8008C02120135E78C02120135058D021201DB
:1013D800356B8D021201353A8E02120135FE8E02EE
:1013E8001201351D9102120135F5B203120135DFE4
:1013F800B3031201358AB403120135DBB4031201B9
:10140800358BB503120135FCB503120135E1B6037E
:1014180012013515B7031201350EB8031201354B09
:10142800B80312013527B90312013566B903120151
:101438003582B9031201353C9504120135C0950473
:10144800120135EB9504120135059704120135D7C1
:10145800F303120135EDF3031201350BF403120106
:10146800351CF50312013526F50312013551F60333
:1014780012013548F703120135B5F7031201350893
:10148800C6031201353EC70312013575C7031201A1
:1014980035CCC703120135E1C90312013525C30153
:1014A800120135B1C30112013515C50112013521EB
:1014B800C5011201355CC501120135CBC501120108
:1014C80035D4C601120135DDC701120135A4C801A2
:1014D80012013501CA011201351FCA011201353C3A
:1014E800CA01120135E9CA0112013566CB011201A0
:1014F800358ECB0112013558CE011201355DCE0172
:1015080012013576D001120135C4D00112013534EB
:10151800D10112013572D1011201354ED2011201E9
:10152800350ED3011201355AD3011201355DD301AD
:10153800120135A1D301120135E9D3011201352871
:10154800D4011201354AD4011201357ED4011201A9
:1015580035E1D401120135A8CB03120135B6CB030E
:1015680012013509CC0312013528CC031201356D5F
:10157800CC03120135B1CD031201354CCE03120153
:101588003590CE03120135BACE0312013529CF03A7
:101598001201356FCF03120135E6CF0312013597DB
:1015A800D003120135083A00120135183A00120129
:1015B80035B93A00120135153B00120135D23B000E
:1015C800120135EE3C00120135203D001201354F65
:1015D8003D00120135FC3E00120135734100120135
:1015E80035E34300120135D54400120135CE4500DC
:1015F800120135D54700120135C94A00120135F8E4
:101608004B00120135FC4D001201350C4F00120140
:10161800359B50001201358C5100120135DA51000A
:101628001201354952001201356D5200120135BEC2
:1016380052001201355F570012013560580012013F
:1016480035C15800120135EC5800120135B2590065
:10165800120135D8EB03120135E2EB0312013527ED
:10166800EC031201353BEC03120135CBEC031201FC
:101678003504ED031201353FED0312013568ED0322
:10168800120135BCED03120135D1ED03120135F31A
:10169800ED0312013508EE031201351CEE031201A9
:1016A8003531EE031201356BEE0312013597EE0367
:1016B8001201351EEF0312013561EF031201358B5C
:1016C800EF03120135B6EF03120135369F041201FC
:1016D8003544E30212013527E402120135A2E4027F
:1016E800120135DDE4021201352EE602120135BC85
:1016F800E6021201354EE90212013500EA02120132
:10170800350CEB021201357FEC02120135D8EC02E0
:1017180012013546E30312013589E3031201350D41
:10172800E403120135E4E603120135258C041201A5
:1017380035D78C04120135D38D04120135128E046D
:101748001201356C8E041201353497041201359755
:10175800970412013534980412013569980412016E
:1017680035999804120135D49804120135F4980477
:10177800120135A7D50312013533D603120135F20C
:10178800D6031201350AD80312013524DA031201EF
:1017980035B0CC02120135D5CC02120135A2CD02EA
:1017A80012013576CE02120135E3CE02120135233D
:1017B800CF02120135BFCF02120135F3D002120158
:1017C80035CED1021201352DD202120135B9D2021D
:1017D80012013527D302120135B3D302120135F9AC
:1017E800D3021201356BD402120135FDD402120165
:1017F800359ED502120135BED50212013506D60234
:101808001201354FD6021201356BD60212013591FD
:10181800D6021201350BD70212013519D70212016F
:1018280035A8D70212013511D8021201355BDA0347
:10183800120135E0DA0312013522DB031201350605
:10184800DC0312013573DC03120135B7DC03120126
:1018580035FBDC0312013528DD0312013550DD03A9
:1018680012013588DD03120135C6DD03120135ED9D
:10187800DD0312013567DE03120135B1DE03120103
:10188800352A9102120135C99202120135019502D9
:101898001201355595021201358095021201355C09
:1018A80096021201358C9602120135BB960212017E
:1018B80035CE96021201350F97021201353C970278
:1018C8001201358A9702120135C697021201350BAB
:1018D8009802120135589802120135D29802120165
:1018E80035139B02120135FD9C02120135399D0208
:1018F800120135C89E021201350D9F021201358072
:101908009F02120135D59F02120135DA9F0212019A
:101918003566A00212013585A10212013596A10291
:10192800120135E88903120135618A031201351B5A
:101938009003120135269103120135CF920312014B
:10194800355D93031201350C9B011201358D9B0106
:10195800120135BA9B01120135039C0112013504AD
:101968009D011201355D9D01120135D99E011201BB
:10197800355B9F01120135769F01120135E79F0102
:10198800120135A4A00112013567A101120135F534
:10199800A101120135ACA201120135BFA201120149
:1019A8003558A301120135EFA30112013516A40120
:1019B8001201357FA401120135C9A401120135179E
:1019C800A501120135BCA5011201355AA601120163
:1019D80035E7A60112013558A7011201359FA70165
:1019E800120135F7A70112013529A801120135E3C3
:1019F800A801120135EAA90112013533AA01120121
:101A08003550AA011201356FAA01120135A2AB01A6
:101A180012013559AC011201357EAC011201359322
:101A2800AC0112013503AD0112013544AD011201BB
:101A38003568AE01120135E9AE0112013581ED02BA
:101A4800120135CCED02120135D8ED02120135AC88
:101A5800EE02120135C3EE0212013500EF02120147
:101A68003531EF0212013562EF021201359AEF02A9
:101A7800120135F0EF0212013506F002120135426B
:101A8800F00212013555F0021201357CF002120104
:101A980035B0F002120135D6F10212013520F302F9
:101AA8001201351CF40212013539F502120135E133
:101AB8007F00120135B9A102120135F4A102120109
:101AC8003546A502120135A2A60212013561A70208
:101AD800120135C8AA02120135B2AB02120135FE55
:101AE800AB0212013518AC0212013555AC021201D5
:101AF8003560AC021201359FAC02120135A8AC0268
:101B080012013552AD0212013529AE021201357D9E
:101B1800AE02120135DAAE021201354CAF021201E3
:101B28003532E80112013591EB0112013597EB01CD
:101B3800120135C8F201120135CFF6011201350044
:101B48008004120135968004120135AC800412011C
:101B58003505810412013549810412013583810458
:101B68001201351B82041201358A82041201359351
:101B780082041201359F8204120135B982041201D0
:101B880035E38204120135F882041201355A8304C0
:101B980012013581830412013596E703120135A33A
:101BA800E703120135BDE703120135F0E70312011F
:101BB800352EE80312013593E803120135A8E8032E
:101BC800120135B3E803120135C0E803120135D715
:101BD800E803120135E5E803120135F0E8031201C4
:101BE80035FCE8031201350BE90312013516E90348
:101BF80012013539E903120135DDE903120135ED2A
:101C0800E90312013507EA0312013524EA03120138
:101C1800353FEA0312013564EA031201356FEA031E
:101C280012013584EA0312013598EA03120135F9E5
:101C3800EA03120135FFEA0312013505EB0312012D
:101C4800350BEB0312013523EB0312013556EB0379
:101C58001201352DBF02120135C4BF021201355CD5
:101C6800C0021201354CC10212013583C1021201B2
:101C78003596C10212013504C2021201359FC30212
:101C8800120135C6C30212013568C4021201359D1E
:101C9800C402120135AEC40212013527C502120171
:101CA8003548C50212013560C502120135B8C602B1
:101CB800120135C1C80212013511CB0212013514C7
:101CC800CC0212013563CC021201359BB00212011D
:101CD8003598B10212013583B2021201358DB20274
:101CE800120135AFB202120135BBB2021201350D35
:101CF800B4021201353CB4021201356CB50212016E
:101D080035AEB502120135DAB602120135B0B702A6
:101D180012013502B80212013561B8021201359874
:101D2800B802120135D3B8021201356EBC02120195
:101D38003587BC0212013509BD0212013517BD02F3
:101D48001201356CBD021201357ABD02120135E768
:101D5800BD0212013559BE021201359FBE021201A1
:101D68003534D80212013556D80212013540DA024C
:101D7800120135E5DD0212013528DF0212013502B4
:101D8800E002120135029904120135279904120163
:101D98003598990412013572F7021201357BF70262
:101DA80012013584F702120135B5F802120135D453
:101DB800FA021201350AFB0212013544FB02120134
:101DC800357AFB02120135B4FB02120135E8FB0239
:101DD80012013514FC021201355DFC02120135971F
:101DE800FC02120135DFFC0212013535FD02120139
:101DF800356AFD02120135C5FD02120135FFFD02EB
:101E080012013550FE0212013586FE02120135C05C
:101E1800FE02120135EEFE0212013511FF02120117
:101E28003548FF0312013574FF03120135CFFF0354
:101E3800120135D9FF03120135E9FF03120135A953
:101E4800D003120135D0D0031201350BD103120192
:101E5800359FA4041201351E5A001201352E5D006B
:101E6800120135C35E001201353E5F00120135EAEA
:101E78005F001201358D60001201352561001201E5
:101E880035546100120135EC65001201357E66009B
:101E9800120135BA6700120135246800120135D8DD
:101EA80068001201358E6B00120135C86B001201F3
:101EB80035326C001201358F6C00120135EC6C0064
:101EC800120135496D00120135346E001201357A60
:101ED8006E00120135C56E00120135E86E00120160
:101EE800352F7000120135437000120135B27100B0
:101EF800120135F171001201353172001201358479
:101F08007200120135A57200120135E37200120148
:101F180035217500120135627500120135FD750015
:101F28001201356F7600120135B077001201355471
:101F3800FA01120135FAFA011201353FFC011201CA
:101F480035C8FC01120135B5FD01120135F4FD015A
:101F58001201355EFE01120135CCFE011201355722
:101F6800A10412013568A10412013543A20412012B
:101F780035B486041201357F890412013563A5043E
:101F880012013579A5041201357EA504120135DB4D
:101F9800A5041201354AA0041201355AA004120101
:101FA800356EA00412013551A104120135AF830426
:101FB8001201355784041201359986041201355CE3
:101FC8009C04120135AB9C04120135DD9C041201FE
:101FD800356F9D04120135F87F0012013507910411
:101FE800120135D392041201353F930412013524AE
:101FF800A50412013539A504120135E47700120150
:1020080035F97700120135557800120135C078008E
:102018001201350879001201357A7900120135A3C9
:102028007900120135B17900120135137A001201D5
:1020380035517A001201356C7A00120135077B00A0
:10204800120135B07B00120135337C001201356C6A
:102058007C00120135F77C001201354E7D0012011B
:1020680035AC7D00120135BE7D00120135E47D00DE
:102078001201350C7E00120135677F0012013542CE
:102088009304120135A993041201356694041201D0
:1020980035E49404120135BFF703120135F2F70352
:1020A80012013524F90312013568F9031201354488
:1020B800FA03120135EB9D04120135C99E04120181
:1020C80035259F041201358D8904120135D2890402
:1020D800120135188A04120135E18B0412013553B7
:1020E800A2041201356EA2041201357EA204120167
:1020F80035E3A204120135FCA30412013500800364
:10210800120135DC80031201352381031201356089
:102118008103120135CE8103120135288203120191
:1021280035988203120135688303120135578403F9
:10213800120135CE84031201356A8603120135F780
:1021480086031201356A8703120135E687031201F7
:1021580035FD87031201352289031201357C890375
:10216800120135E3B90312013503BA031201350927
:10217800BB0312013555BB0312013575BB031201B0
:1021880035C8BB0312013535BC031201357BBC03CE
:10219800120135DFBC031201358BBF031201351F55
:1021A800AF011201354CB4011201354FB7011201CC
:1021B8003578B701120135A1B70112013553B801BD
:1021C8001201353CBA0112013587BB01120135A055
:1021D800BB01120135D7C00112013510C10112012E
:1021E8003554C10112013565C201120135459C0300
:1021F800120135B49C03120135FC9E031201355AB5
:10220800A10312013578A1031201359AA103120125
:10221800357EA203120135A6A20312013537A303A6
:1022280012013518A40312013529A403120135F04F
:10223800AB0312013507AD0312013524AD031201BA
:1022480035F5AE0312013503B00312013593B1031E
:102258001201350CC0031201351BC0031201354BA6
:10226800C003120135FFC00312013579C103120101
:102278003592C103120135A0C103120135AEC10365
:10228800120135BCC1031201353CC2031201355499
:10229800C203120135CCC2031201353CC30312013B
:1022A8003561C303120135BEC30312013512C403DD
:1022B80012013579C4031201359DC403120135BFDB
:1022C800C503120135CCC503120135F0C50312014F
:1022D80035B68301120135F28301120135208401DC
:1022E800120135BC8401120135F984011201350D42
:1022F8008501120135E985011201351D860112019A
:1023080035358601120135BC860112013506870173
:10231800120135588701120135748701120135B24F
:102328008701120135D48701120135708801120125
:1023380035CF8801120135D68801120135BA8901D5
:10234800120135458A01120135748A01120135C717
:102358008A01120135EC8A01120135348B01120110
:1023680035728C01120135BD8C01120135248D01A5
:10237800120135708D01120135AA8D01120135D077
:102388008D01120135DE8D01120135048E01120115
:1023980035078E0112013508900112013560900150
:1023A8001201359290011201353191011201350067
:1023B8009201120135619201120135029301120155
:1023C800353E9401120135B4940112013515950179
:1023D8001201359A9501120135EB95011201352D3F
:1023E800960112013558960112013587960112019E
:1023F800354497011201355C97011201355A98014D
:10240800120135D69A01120135B89A041201350E17
:102418009B04120135719B04120135879B0412013C
:10242800358A9B04120135DB9B041201359B7F0022
:1024380012013591A504120135F1DE03120135E9C7
:10244800E203120135BDA504E066701008A3E0663A
:10245800700A08A3E066700408A3E06622C3E79642
:102468000809E7960809E7960809E79622C3E0965F
:1024780008A3E09608A3E09608A3E09622C008C344
:10248800E096F50808A3E096420808A3E0964208FB
:1024980008A3E09645087001D3D00822080808EA86
:1024A800C0E0EBC0E086F0E7A4FA180986F0E7A4DC
:1024B8002AFA180986F0E7A42AFA180986F0E7A488
:1024C8002AFA1986F0E7A4FBE5F02AFA190886F03B
:1024D800E7A42BFBE5F03AFA190886F0E7A42BFBF2
:1024E800E5F03AFA18180986F0E7A4C5F02BFBE4E2
:1024F8003AFA1908E7C5F0C6A426F6E5F03BFBE46E
:102508003AFA1886F0E7A4F6E5F00826F6E43B0860
:10251800F6E43A08F6D0E0FBD0E0FA22E4CFC0E0D7
:10252800E4CEC0E0E4CDC0E0E4CCC0E075F020E645
:1025380026F608E633F608E633F608E633F6181802
:1025480018EC33FCED33FDEE33FEEF33FFC3EC97AD
:1025580009ED9709EE9709EF97191919400FFFEC44
:1025680097FC09ED97FD09EE97FE191906D5F0BFFE
:10257800ECF709EDF709EEF709EFF7191919D0E0AB
:10258800FCD0E0FDD0E0FED0E0FF2260160808088D
:10259800C6C313C618C613C618C613C618C613C6AC
:1025A800D5E0EA227009080808226016181818C62B
:1025B800C333C608C633C608C633C608C633C6D52D
:1025C800E0EA22E627F60809E637F60809E637F6CC
:1025D8000809E637F622E026F608A3E036F608A34F
:1025E800E036F608A3E036F622E026F008A3E03647
:1025F800F008A3E036F008A3E036F022C3E697F629
:102608000809E697F60809E697F60809E697F62214
:10261800C3E096F008A3E096F008A3E096F008A3BC
:10262800E096F022E056F608A3E056F608A3E05636
:10263800F608A3E056F622E056F008A3E056F008A4
:10264800A3E056F008A3E056F022E046F008A3E025
:1026580046F008A3E046F008A3E046F022E0F608BA
:10266800A3E0F608A3E0F608A3E0F622E6F008A344
:10267800E6F008A3E6F008A3E6F022E0FAA3E0FB00
:10268800A3E0FCA3E0FD22EAF0A3EBF0A3ECF0A3A7
:10269800EDF022E0F8A3E0F9A3E0FAA3E0FB22E8DA
:1026A800F0A3E9F0A3EAF0A3EBF022CAC0E0E6F059
:1026B800A308DAFAD0E0FA22CAC0E0E0A3C582CCC7
:1026C800C582C583CDC583F0A3C582CCC582C58329
:1026D800CDC583DAE6D0E0CA22C3E498F8E499F9D4
:1026E8001227228026C3E49AFAE49BFBE920E7E953
:1026F800122722E498F8E499F922C3E498F8E499B7
:10270800F9122722E498F8E499F9C3E49AFAE49BC9
:10271800FB22EB20E7CFE920E7E0B90010BB000877
:10272800E88AF084F8AAF022E4FBC8FA22EB7022C7
:102738007B10C833C8C933C9335007C39AC3DBF207
:1027480080069A50012ADBEAC833F4C8C933F4C9B1
:10275800FA2275F008E4C833C8C933C933C99AC91D
:102768009B5004C92AC93BD5F0ECFBC833F4C8E434
:10277800C9FA22600D08C6A2E713C618C613C6D543
:10278800E0F322600C08C6C313C618C613C6D5E00A
:10279800F422700422600D18C6C333C608C633C6B7
:1027A800D5E0F41822251810AF08F518400C1519B3
:1027B8008008F51840021519D2AF2200C0D025189C
:1027C80010AF08F518500C05198008F518500205C7
:1027D80019D2AFD0D0222518F58210AF08F51840CD
:1027E8000C15198008F51840021519D2AF85198300
:1027F800222518F582E43519F583222518F8E435E1
:1028080019F9222518FAE43519FB222518FCE435B4
:1028180019FD22E4732518C582C0E0E51934FFC507
:1028280083C0E0E518C3958224F810AF08858319A2
:102838008582188008858319858218D2AFCEF0A3C7
:10284800E520F0A37808E608F0A3DEFAEFF0A3E5A8
:102858008124FAF8E608F0A3E608F0A3E608F0A356
:102868000808E608F0A3E608F0A315811581D0E072
:10287800FED0E0F8158115811581E8C0E0EEC0E0D2
:10288800222518C582C0E0E51934FFC583C0E0E5FC
:1028980018C3958224F910AF08858319858218809A
:1028A80008858319858218D2AFCEF0A3E520F0A35E
:1028B8007808E608F0A3DEFAEFF0A3E58124FBF838
:1028C800E608F0A3E608F0A30808E608F0A3E6087F
:1028D800F0A315811581D0E0FED0E0F815811581AF
:1028E800E8C0E0EEC0E022851983851882E0A3FEE7
:1028F800E0A3F5207808E0A3F608DFFAE0A3FFE0FC
:10290800A3C0E0E0A3C0E0E0A3C0E0E0A3C0E0E033
:10291800A3C0E010AF0885821885831980088582D6
:1029280018858319D2AFD083D082020132851983EA
:10293800851882E0A3FEE0A3F5207808E0A3F60856
:10294800DFFAE0A3FFE0A3C0E0E0A3C0E0E0A3C09B
:10295800E0E0A3C0E010AF088582188583198008DD
:10296800858218858319D2AFD083D08222C0D02522
:1029780018C582C0E0E51934FFC583C0E0E518C377
:10298800958224F310AF08858319858218800885FD
:102998008319858218D2AFC8F0A3E9F0A3EAF0A39F
:1029A800EBF0A37908E709F0A3D8FAECF0A3EDF06F
:1029B800A3EEF0A3EFF0A3D0E0F0A3D0E0F0A3D013
:1029C800E0F0A3E520F0A3E5F0F0A32285198385C4
:1029D8001882E0C0E0A3E0F9A3E0FAA3E0FBA37843
:1029E80008E0F608A3DFFAE0FCA3E0FDA3E0FEA3FD
:1029F800E0FFA3E0C0E0A3E0C0E0A3E0F5D0A3E0DF
:102A0800F520A3E0A3F5F010AF0885831985821897
:102A18008008858319858218D2AFD082D083D0E010
:102A2800F8D0E03274048006740280027401C0E0B9
:102A3800F4041227DED0E01226B322740480047452
:102A4800028000CCC0E0EDC0E0E518C39CCCAD1915
:102A580050011D10AF068C188D1980068C188D1921
:102A6800D2AF1226C0D0E0FDD0E0FC22D083D082C5
:102A7800E9C0E0E493A3C386F0C5F095F0F908E453
:102A880093A386F0C5F095F0700BE493A3C3994027
:102A980005E9048002A3E475F002A42582F582E525
:102AA800F03583F583D0E0F9E493A3C0E0E493C064
:102AB800E022D083D082ECC0E0EDC0E0E493A3FC38
:102AC800E493A3FDED4C600D122B06EC24FFFCED06
:102AD80034FFFD80EFE493A3FCE493A3FDED4C6089
:102AE8000D122B45EC24FFFCED34FFFD80EFD0E008
:102AF800FDD0E0FCE493A3C0E0E493C0E022C0E092
:102B0800C3E49396087401939618400FE493667093
:102B18000808740193661870007019A3A3C3E4939E
:102B280096087401939618A3A3400DD0E0D0E0D086
:102B3800E0022AF6A3A3A3A3A3A3D0E022C0E0C087
:102B4800F088F0E4936670080874019366187000C2
:102B5800A8F0A3A3700BD0F0D0E0D0E0D0E0022A18
:102B6800F6A3A3D0F0D0E02274F6122889EAFEEB8F
:102B7800FF8C088D09EE2434F8E43FF9E8FCE9FD00
:102B8800EE2435122E83FAEE2437122E83F88508A8
:102B9800F0A4C885F00A8509F0A4250AF9EA28F8FE
:102BA800E439F97A257B00122722EA8C828D83F09A
:102BB800FA131313541FF8EE28F8E43FF9E8245DDC
:102BC800F582E439F583E0C0E074075AF8D0E0B83C
:102BD80000028004C313D8FCA2E0EE50082434F5A8
:102BE80082E43F80182436122E83F5F0EA84A8F098
:102BF800EE28F8E43FF9E82438F582E439F583E073
:102C0800F97F0302293574F7122889EAFEEBFFEEF3
:102C18002434122E83C0E0EE2435F582E43FF58398
:102C2800D0E0F08E828F83A3A3A3A3A3A3A3C08223
:102C3800C0838E828F83A3A3A3A3A3E0F8A3E0F9A4
:102C4800D083D082E0C398F508A3E099F509EE2473
:102C58007F122E836401703EEE2480F582E43FF5F6
:102C680083C082C0838E828F83A3A3A3A3A3E024FF
:102C78000108A3E03400F9D083D082E0687003A390
:102C8800E06970127CFE7D041219EEEE247FF58255
:102C9800E43FF583E4F0AC08AD09EEFAEFFB122B44
:102CA80070E9F91238D27F02022935C082C08385C3
:102CB8001882851983E0F8A3E0F9C3EA9CEB9D50DC
:102CC80010C3EC98ED99401BC3EA98EB9950148017
:102CD8000EC3EA98EB994007C3EC98ED9940047944
:102CE8000180027900D083D08222EAC39CFAEB9D4E
:102CF800FB2274EF1228899003C3E064086005E0A2
:102D08006407702A9061C8E060249003F1E0F460E1
:102D18001DE0F875F00BA4C8AAF02AF974F328FE90
:102D2800740339FF8E828F83A3A3A3E07003022E5E
:102D380008906060E0C0E0EE2468F582E43FF58327
:102D4800D0E0F0750C6E750D05750800750900E585
:102D5800D914F50AE5D95403F50E60127403650E0B
:102D68006043E50A600AEE2467122E8370028075BC
:102D7800900569E06401601F122E8060047A048067
:102D8800027A00E50AC39AFA95E0FB1218988A08B5
:102D98008B09EA45097005121C3A8064122E80706E
:102DA800048A0C8B0DE50A6012850C82850D83F56B
:102DB8000BE5D9F0A3150BE50B70F6122E806044D5
:102DC80074FC250AF50A780C122A30AC0AA90EEE12
:102DD800FAEFFB121AAE74021227C3E97026AA088A
:102DE800AB0912208A793D8E828F83A3A3A3A3E027
:102DF800FA7B001216FAEEFAEFFB121A12121AC038
:102E08007900806F7403650E6051850A1075110092
:102E18007810122A30AC0CAD0DAA08AB09121A7240
:102E280074021227C3EE2468122E8364807004741F
:102E38007F8001E0F50C780C122A34E50EF50C7849
:102E48000C122A34A90AAC08AD099003F1E0FA7B08
:102E5800001216D074021227C380139003C3E064D3
:102E680008600BAC0CAD0DEEFAEFFB121B38121C10
:102E78004679017F0A022935EE2483F582E43FF57D
:102E880083E02274F212288974FC1227ADEAFEEB63
:102E9800FF8909A2AFE433F508C2AF022F55E060FD
:102EA8001B780C122A30AC0BA90EEEFAEFFB121AA3
:102EB800A874021227C37404250BF50B7401250BA3
:102EC800F5D9850ED9E50B6018F50A850C82850DB4
:102ED80083E0F5D9A385820C85830D150AE50A7070
:102EE800EA75E195EE2463F8E43FF97A007B00A2E5
:102EF800AFE433F50BC2AF88828983E0FCA3E0FD21
:102F0800EC4D603A88828983E0FAA3E0FB8A828BE1
:102F180083E0FCA3E0FD88828983ECF0A3EDF08ACE
:102F2800828B83E4F0A3F088828983E0FCA3E0FD30
:102F3800EC4D700A88828983A3A3E4F0A3F0E50B23
:102F4800A2E092AF12208A900505E004F0EE246317
:102F5800122E83F8A3E0F9E8496064EE2463122E88
:102F6800832402F8A3E03400F988828983E5822467
:102F780002F50CE43583F50DE0F50BA3E0F50EEE54
:102F88002462122E83640170369061D0E0F8122E0C
:102F98008060047C0480027C007480C398FA95E009
:102FA800FBE50B2CF8E43400F9E82402F850010999
:102FB800C3EA98EB99A2D265D0334003022EA690BB
:102FC8000505E0604D900506E0F8900505E0C3981A
:102FD800500C74026509703A900507E060348E82DF
:102FE8008F83A3A3A3A3E085188285198312302AAF
:102FF80074021227F9E812302A900504E028F074C8
:1030080002122813AA18AB19790112172490050582
:10301800E4F0E508A2E092AF74041227C37F070228
:103028002935F0A3E4F0900505E0F822852187858D
:1030380022C622C0E074EB122975A2AFE433F5086A
:10304800C2AF759B00906182E0A2E05030E591A28A
:10305800E0502A7591FE7401652170211231CE125B
:103068001B861231BC122A4312367C74041227C301
:10307800E9640170057901121BCE122CFA90618265
:10308800E0A2E5505DE591A2E550577591DF900308
:10309800C3E064076005E06408702F1231CE740144
:1030A8006521703E121B861231BC122A4312367CEF
:1030B80074041227C3E9640170057901121BCE79E3
:1030C80001EEFAEFFB122E8B8018E0640D7013905E
:1030D80003E5E004F064287002E4F07A00E0F912F5
:1030E8001C4C906182E0A2E64003023191E591A276
:1030F800E640030231917591BF9003C3E064057007
:1031080008121B6E121B7A8003121B7475210012A1
:103118001BDAE99003C4F07900121BCE12195E7A0B
:10312800017B009003C2E0F912205A907803E06412
:1031380042705690056DE014F0704EC2AF123148DF
:1031480000782AD0E0F618D0E0F6E59F5407F8702A
:1031580005750DFF8003750D7FC4C0E07829E6F57D
:103168000A08E6550DF50B740B780A12278BD0E088
:10317800250AF8906270E0A2E740F8E8C33390624D
:1031880072F0906270E0D2E0F0906181E0A2E350CA
:1031980009E5E9A2E3500375E9F7A3E0A2E75009BE
:1031A800E591A2E7500375917FE508A2E092AF7F11
:1031B800080229D48E828F83E0F8A3E0C82416F58C
:1031C80082E438F583229003F1E0F875F00BA4C887
:1031D800AAF02AF974F328FE740339FF22C0E0C06C
:1031E800D0C082C083906183E0A2E05009E5BFA20D
:1031F800E0500375BFFEE0A2E15009E5BFA2E1502F
:103208000375BFFDE0A2E25009E5BFA2E2500375D5
:10321800BFFBE0A2E35009E5BFA2E3500375BFF787
:10322800E0A2E45009E5BFA2E4500375BFEFE0A2B5
:10323800E55009E5BFA2E5500375BFDFE0A2E650FF
:1032480009E5BFA2E6500375BFBFD083D082D0D0B6
:10325800D0E032C0E074F2122975E5A7A2E6500F5B
:10326800E5A1A2E6500953A7BF75A1BF1232AFE589
:10327800A7A2E5500CE5A1A2E5500653A7DF75A16A
:10328800DFE5A7A2E15009E5A1A2E1500375A1FD80
:10329800E5A7A2E2500CE5A1A2E2500653A7FB75F0
:1032A800A1FB7F010229D474F712288975210190A6
:1032B80003C3E064067015121AE48A828B83A3A301
:1032C800A3A3A3A3E0FAA3E0FB121B5CA2AFE43321
:1032D800FED2AF9003C9E0640170187A207B009099
:1032E80003C2E0F912218C7A207B009003C2E0F936
:1032F800122060906182E0D2E6F090056AE06021D9
:1033080085C62280169003C8E064017008E5C6549B
:10331800F84405F5C653BEFC1230347401652160CB
:10332800E4EEA2E092AF7F02022935008E238F24BB
:10333800858228858327851882851983E0CEA3E0B6
:10334800CF852882852783EBC9EAC8EDCBECCA75FF
:10335800F010C3E833C8E933C9EA33CAEB33CBC347
:10336800EA9EF526EB9FF525B35004AB25AA26EC7B
:1033780033CCED33CDD5F0DAAE23AF242274E91285
:10338800288974FA1227ADEAFEEBFF8C0A8D0B121E
:103398001B92EAF8EBF9ECFAEDFB8E828F8312268A
:1033A800A79003C3E024F7C39405500675140102DF
:1033B80034EC121AE48A088B09EA450970030234CE
:1033C800E9EEFCEFFDAA18AB19121B8C8508828563
:1033D8000983A3A3780C12266590831F780C122604
:1033E8002C851882851983781012266590831F789A
:1033F8001012262C780C7910122465501F780C793D
:10340800101226049082BF780C1224854047850C40
:1034180014850D15850E16850F1780459082BF857A
:1034280010148511158512168513177814790C1246
:1034380026047814122485501C751400751500751F
:103448001600751701781479101226047814790C6F
:103458001225CB800C7514017515007516007517AB
:1034680000740978141225AC9082BB780C1226657A
:103478007814790C122524850882850983A3A3A3CF
:10348800A3A3A312350A122722880C890DE4F50E8E
:10349800F50F7814790C1225CB74041227F912351C
:1034A8000A122722E8FA8A0CE4F50D7814790C122E
:1034B800246550077814790C1226049003C3E0643D
:1034C80008600AE064066005E0640570209082B335
:1034D800781412248550169082AF78141225DE8055
:1034E8000C751400751500751600751700850A828D
:1034F800850B83781412267474061227C37F100272
:103508002935E0F8A3E0F97AD07B032274F7122872
:1035180089121BA4900568E064017010906245E46C
:10352800F0A3F053F4F343FE0C5390F3121B4AE557
:10353800C654B84441F5C6E59E5447644170F890B6
:103548006185740FF0900566E0F47002A3E0604EA8
:10355800900567E0600814601B14602E80407508B1
:1035680001750900900566E0780812279AE508F4C5
:103578005280802A750801750900900566E0780870
:1035880012279AE508F4529080147508017509000D
:10359800900566E0780812279AE508F452A07900A9
:1035A8007F0202293574F7122889E9FEEAFF121B07
:1035B800A474016E700C7A807B009003C2E0F9124B
:1035C800205A903A00E493F46008E493F9121952EF
:1035D800800953C6B8E59E544770FA121B509005EF
:1035E80068E064017003121970900566E0F47002D7
:1035F800A3E0604B900567E0600814601A14602C23
:10360800803D750801750900900566E07808122765
:103618009AE50842808028750801750900900566BA
:10362800E0780812279AE50842908013750801751A
:103638000900900566E0780812279AE50842A0126A
:103648001AE48A088B09A808A909E8496014E5E181
:1036580070FCE82414F582E439F583E0F46003E0B3
:10366800F5E174016F700A7A019003C2E0F9122043
:10367800F00235A874F11228898A088B098C0A8D02
:103688000B90831F780812262C740F1227F9780CD8
:1036980012266590831F780C12262C7808790C1254
:1036A80024659082BF50107808790C122604780897
:1036B8001224854014800E780C7908122604780CA0
:1036C80012248550047901800279007F0802293587
:1036D80074ED1228898A088B098C0A8D0B90831F38
:1036E800780812262C74131227F9780C1226659084
:1036F800831F780C12262C780C7908122465401147
:103708007808790C122604AA08AB09AC0AAD0B801C
:103718002275100075110075120075130178107963
:103728000C122604781079081225CBAA10AB11AC1C
:1037380012AD137F0C02293590831F780812266575
:103748008A828B83780812263F7F0402293574F514
:103758001228898C828D8378081226658A828B8349
:1037680078081226181237AEC3E09CF0A3E09D1229
:1037780037A040229082D378081226658A828B83EC
:1037880078081225F18A828B83A3A3A3A3E02420BF
:10379800F0A3E0344EF080A0F088828983C3E094DF
:1037A80020A3E0944E22EA2404F8E43BF98C828DAD
:1037B80083A3A3A3A3E0FCA3E0FD888289832274EA
:1037C800F5122889E9FE900520E0FAA3E0FBEE292E
:1037D800F8E433F974FE28F582748139F583E02A18
:1037E800F508A3E03BF5097808122A3090831312F4
:1037F800268312333474021227C38A088B098C0A71
:103808008D0B74107808122593AA08AB097F04025F
:10381800293574F11228898A0C8B0D8C0E8D0F7442
:10382800111227F9122A4774111227F9E02401F519
:1038380008A3E03400F509E4F50AF50B780C7908DB
:103848001224A49082B77808122665780C79081299
:1038580024A4AA0CAB0DAC0EAD0F123334740212B3
:1038680027C38B09EA450960047A0180027A00ECD3
:103878002AFCE43DFD74131227F9E0F8A3E0F9E807
:10388800FEE9FFECF8EDF97A717B0212272288082D
:103898008909E4F50AF50B8E828F8378081226745D
:1038A800ECF8EDF97A717B021227228A088B0974E9
:1038B80005780812279A8E828F83A3A3A3A3E5080D
:1038C800F0A3E509F07F08022935C082C083E9909A
:1038D8006000F0D083D08222C0E0C0D0E8C0E0E928
:1038E800C0E0A2AFE433F8D2AFC2C7751A00E8F956
:1038F800E8A2E092AFD0E0F9D0E0F8D0D0D0E03242
:10390800C2AF02000022C0E074F2122975A2AFE42F
:1039180033FED2AFE58AA2E5502490160EE0701E61
:1039280090831B122A437A087B009015F9E0F9125C
:10393800218074041227C3E990160E7401F09018C0
:10394800C1E0640170309018C0E0702AE58AA2E6F0
:10395800502490160FE0701E90831B122A437A00A1
:103968007B089015F9E0F912218074041227C3E945
:1039780090160F7401F0758A00C2EBEEF8EEA2E023
:1039880092AF7F010229D4C0E0C0D0E8C0E0E9C00E
:10399800E0EAC0E0EBC0E0C082C083A2AFE433FA43
:1039A800D2AF9018C27400F09017C07402F0ABC187
:1039B800EBC0E09017C1E0F8790074C228F5827472
:1039C8001739F583D0E0F09017C1E02401F0901783
:1039D800C1E064FA70035386BFC28BEAF8EAA2E03A
:1039E80092AFD083D082D0E0FBD0E0FAD0E0F9D01B
:0739F800E0F8D0D0D0E0326E
:103A0000FFFFFFFFFFFFFFFFC082C083E99019891E
:103A1000F0D083D08202013274F612281DE990039F
:103A200035F0900395E0F5087509007402780812E6
:103A3000279AAA08AB091220D89003361243CB90DC
:103A400003361247B8606F900395E075F003A4FA4F
:103A5000ABF01220D89003531243CB90035312477C
:103A6000B8700B9003361247891220DE804890030D
:103A70005312571D7AFF7BFF121F347A0080198A78
:103A8000087509007402780812279A1251C574FF4C
:103A9000123BCBE4F0A3F00A900395E0F8EAC39858
:103AA00040DD79051215C2900335E0F91214AE7AA3
:103AB0004C7B1612183802526874F412281D8A08BA
:103AC0008B09EB54806047900335E0F91220428A5D
:103AD0000A8B0BAE0AAF0BEE4F602A8E828F83E00B
:103AE00064B0701A1215D4E960148E828F83A3A378
:103AF000A3A3E0F9EE2405FAE43FFB1215A4EEFAC5
:103B0000EFFB122030AA08E5096480FB80047A00EC
:103B10007B00023D1B74F212281D74FB1227ADEAD4
:103B2000FEEBFFEE4F604574031227F9EEF0A3EFB2
:103B3000F0851882851983ECF0A3EDF0740212274A
:103B4000F9E9F0AA18AB191214A8E9F50870757410
:103B5000131227F9E0F50AA3E0F50BE50A450B601F
:103B6000638E828F83124154EE4F70057508028078
:103B7000537A067B001220D88A0C8B0DA80CA90D55
:103B8000E8497005750813803B88828983E4123BFD
:103B9000CBEEF0A3EF123CE7E50AF0A3E50BF090C3
:103BA0000339123CE09003396017E0FCA3E0800386
:103BB000EAFCEBFD8C828D83123CE070F38C828DED
:103BC00083124DE0A908740502599DF0A31256FF17
:103BD000A32274F212281D8908890C750D00740344
:103BE000780C12279A850C0A850D0B900338F090FB
:103BF0000336124BEB123CDE602E1220DE79008081
:103C00001D890C750D007402780C12279A900336EA
:103C10001250848882F583A3A3E4F0A3F0099003F3
:103C200095E0F8E9C39840D9900395E0FA850AF049
:103C3000A4CAA8F0850BF0A428FB1220D88A0C8B0C
:103C40000DAE0CAF0DEE4F7003023CD4900395E027
:103C5000FC850AF0A4CCA8F0850BF0A428FD79001F
:103C600012201E7C0080318D0C750D007403780CC1
:103C700012279A8A828B83123CD988828983E4F046
:103C8000123CE6A3A3F0A3F00DEDC3950840D8EED7
:103C9000250AFEEF350BFF0C900395E0F8ECC39876
:103CA00050288C0C750D007402780C12279A900322
:103CB00036123CD9E82402500109FAE9FB8A828BCA
:103CC00083EEF0A3EFF07D0080BFE508900338F0AD
:103CD0007900800279130259A0125088F922A3A317
:103CE00012478DEA4B22A31256FFA3A3A32274F41A
:103CF00012281D7900EAA2E0501F7508A3750982F9
:103D00007808122A3079107C047D007A8B7B191296
:103D100015BC74021227C3E9F980007F040228EF62
:103D2000C082C0839003391247B8601C888289839F
:103D3000A3A3E06A7003A3E06B8882898370E8A381
:103D4000A3A3A312478980047A007B00023A11746E
:103D5000F212281D74FD1227ADEAFEEBFF851882D2
:103D6000851983E4F0A3F074021227F97401F012AC
:103D700047B570141217721220D890033C1243CB2F
:103D80001247B57003023EE11244CBEE2404F50A5B
:103D9000E43FF50B850A82F583E024FE603C24FCB9
:103DA000607424FE607E24FE7003023E3124FE70A7
:103DB00003023E3E24FE7003023E4B24FE700302CB
:103DC0003E5824FE7003023E6524FC7003023E86CA
:103DD00024FE7003023E9E023EDA12177290033EEA
:103DE000EAF0A3EB123EED1211F0E96003023EDAB5
:103DF00090033E122A478E828F83A3A3A3A3A3120C
:103E0000571D85088285098312478912158C740213
:103E10001227C3023EDAAC18AD19EEFAEFFB121509
:103E2000DA023EA9AC18AD19EEFAEFFB1215E080EC
:103E300078AC18AD19EEFAEFFB1215E6806BAC18F2
:103E4000AD19EEFAEFFB1215EC805EAC18AD19EE71
:103E5000FAEFFB1215F28051AC18AD19EEFAEFFB38
:103E60001215F880447402122803880C890D780C0E
:103E7000122A307402122813EEFAEFFB1215FE74A8
:103E8000021227C38023AC18AD19EEFAEFFB12160D
:103E900004E9F8701674021227F9E4F0803CAC18BB
:103EA000AD19EEFAEFFB12160AE9F8E8602C8E82E3
:103EB0008F83A3E064146022850A82850B83E090DF
:103EC000033EF085188285198312478990033F12BB
:103ED00043CBE8A3123EED1211EAEEFAEFFB121506
:103EE0006274021227F9E0F9740302599DF07C3ED6
:103EF0007D0385088285098312478D2274E8122884
:103F00001D74FA1227AD74041227F9ECF0A3EDF03A
:103F10008A128B13EA2405F50EE43513F50FEA2413
:103F200002F510E43513F511851082F583124789E7
:103F30001212E08A0A8B0B7508007C037D00790061
:103F40007A3E7B0312201EE50E2402F516E4350F9F
:103F5000F5177402122803880C890D780C122A3088
:103F6000850E82850F83A3A3A3A3E0F50C750D0036
:103F7000780C122A30E50E2405F50CE4350FF50D0A
:103F8000780C122A30851682851783124A901214F3
:103F9000C674061227C38A0C8B0DE50C450D700301
:103FA00002411D8020851882851983E088828983DB
:103FB000F00508851882851983A3E0C0E012415EF0
:103FC000D0E0F00508E50A24FBFAE50B34FFFBC35B
:103FD000E5089AE49B400302411D7E007F008512A4
:103FE00082851383A3A3A3A3E0F5097809122A34D9
:103FF000E4F514F5157814122A3075143B75150381
:104000007814122A3090033C122A4774091227F9B7
:10401000122A47E50A24F9F9AC0CAD0D851082850A
:10402000118312478912163474091227C3E96003F9
:104030000240BE850E82850F83A3A3A3A3A3A3A3DF
:10404000E0F890033BE0687075E0F5148E15781485
:10405000122A3012571A850E82850F83A3A3A3A3B9
:10406000A3A3A3A312478912201874021227C3E93D
:10407000604C90033F1247B8703BE4F5147814127B
:104080002A307CFF7DFF79078510828511831247D6
:104090008912159E74021227C31247BE7017850E2F
:1040A00082850F831258B774041227F912517812BF
:1040B0004AC1024151850C82850D83124154A818D2
:1040C000A919881489157814122A3074041227F952
:1040D000122A478516828517831243C11214D2749F
:1040E000041227C38A0C8B0DEE4F7003023F9A1205
:1040F000415EEE124169124A77EF124169F8A3E07E
:104100003400F9E50C450D6003023FA588828983E0
:1041100074FFF0050812415E74FFF00508E50860C1
:104120001A1313543F1243D11211FCE96009900392
:104130003F12478912208A79008016850E82850FEA
:10414000831258B774041227F9125178124DE0798E
:104150000A024A4AA3A3A3A3E0FEA3E0FF22A80801
:1041600090033FE028124A7722F005080890033FA9
:10417000E0282274E812281D74FA1227AD74021286
:1041800027F91243CB74041227F9ECF0A3EDF07475
:10419000021227F9E02405124A60E0F50CA3E0F5CD
:1041A0000D74021227F9E02402F510A3E03400F5A3
:1041B00011851082F5831247891212E07508007587
:1041C0000900EA24FCFEEB34FFFF8008050CE50C37
:1041D0007002050DA808C3EE98EF94005003024347
:1041E0007DA818A919880E890F780E122A30851417
:1041F00082851583A3A3A3A3125721122A30E514A5
:104200002405F50EE43515F50F780E122A308514C5
:10421000828515831243BF1214C674061227C38AFF
:104220000E8B0FEA450F700302437DEA2404F51656
:10423000E4350FF517851682F583E0F50CA3E0F55C
:104240000D85188285198312571D8A828B83A3A33B
:10425000A3E0F98510828511831247891214B4E90D
:10426000F509600302437D74021227F9124A87F5AB
:10427000097809122A34E4F512F5137812122A305B
:1042800075123B7513037812122A3090033C122AE0
:104290004774071227F9122A47EEF9AC0EAD0F85C5
:1042A000108285118312478912163474091227C3AC
:1042B000E9F509600302437DE508703FE4F50EF57A
:1042C0000F780E122A307CFF7DFF790985108285D8
:1042D000118312478912159E74021227C3124AAD28
:1042E000700D74041227F91243B479110243B1908E
:1042F000033BE0240290033FF0801490033FE0FA78
:1043000090033BE0790024025001096A497072A8C9
:104310000890033BE0FAE82AFAE43400FBEE9AEF57
:104320009B405A851682851783E0C0E090034012B7
:104330004163D0E0F00508851682851783A3E0C0AD
:10434000E008900340124163D0E0F0050890033B81
:10435000125721122A3012571AA808124A54122052
:104360000674021227C390033BE02508F50874FF8A
:10437000650C700474FF650D60030241CCE50860B4
:104380001F90033FE0F5F0E508841243D1121202BA
:10439000E9600990034012478912208A7900801150
:1043A000E509700375090A74041227F91243B4A9C8
:1043B00009024A4A124BEFE50CF0A3E50DF022A3E7
:1043C000A31259ACAA0CAB0D22A3A3EAF0A3EBF005
:1043D0002290033EF07C3E7D03851082851183127E
:1043E000478D2274EC12281D74FC1227AD124EF07A
:1043F00074021228131247831214CC8A0C8B0DEA14
:10440000450D70030244BB1244CBA818A9198810AB
:1044100089117810122A307CFF7DFF790B85088284
:1044200085098312478912159E74021227C312450B
:10443000C1700C850A82850B83124ABE0244C88E65
:10444000828F83A3A3A3A3E0F5127812122A34E487
:10445000F512F5137812122A3075123E751303788F
:1044600012122A307810122A3074091227F9122AEF
:104470004774091227F9E0F9AC0CAD0D8508828567
:10448000098312478912163474091227C3E9FE7092
:10449000157C3E7D038508828509831247891212A7
:1044A00008E97009802074166E70027E0090033F48
:1044B00012478912208AEE7004800B7E01850A82E1
:1044C000850B83124DDDEEF9024DF2EE2402F50864
:1044D000E43FF5092274EC12281D74FC1227ADEAA2
:1044E000FEEBFF8C0E8D0FEE2405F508E43FF50979
:1044F00074021228138508828509831247891214D1
:10450000CC8A0C8B0DEA450D70030245B1EE2402F6
:10451000F50AE43FF50BA818A9198810891178103D
:10452000122A307CFF7DFF790D12478312159E748D
:10453000021227C31245C1700B85088285098312B8
:104540004ABE807A8E828F83A3A3A3A3E0F512785C
:1045500012122A34850882850983A3A3122A47757B
:10456000123E7513037812122A307810122A307412
:10457000091227F9122A4774091227F9E0F912479C
:104580007F12163474091227C3E9FE700F7C3E7D3A
:104590000312478312120EE97009802074166E70A0
:1045A000027E0090033F12478912208AEE70048039
:1045B0000B7E01850882850983124DDDEEF9024DDF
:1045C000F21247C8F510A3E0F511EA45112274E88C
:1045D00012281D74FE1227AD8A168B178C148D15A8
:1045E000EA2405F50CE43517F50DEA2402F50EE48E
:1045F0003517F50F850E82F5831247891212E08A6E
:10460000088B09750B007C037D0079007A3E7B03E3
:1046100012201E750A00E50814F5100424FFF508A1
:10462000E50934FFF509805490033EE0FA90033B1E
:10463000E0F8EA28F8E43400F9E50898E50999502B
:104640000D90033EE0F8E510C39890033BF0E0F5D1
:10465000127513007812122A3012571A90033FE095
:104660002AFAA3E03400FB12200674021227C3903A
:10467000033BE0F890033EE028F0050A850C8285B4
:104680000D83A3A3125094400302476490033EE0BD
:10469000C39508E495094003024764AE0AEE2EFE76
:1046A000E433FF1247A3AC18AD19125735E439FBB8
:1046B0001214CC8A128B13AC12AD13EC4D701B7517
:1046C0000B01124793124DE190033F123CE060034F
:1046D00012208AA90B7402024A4C85168285178320
:1046E000A3A3A3A3E0F50B780B122A34E4F512F58B
:1046F000137812122A3075123B7513037812122A9E
:104700003090033C122A4774071227F9122A47A94E
:1047100010850E82850F8312478912163474091290
:1047200027C3E9F50B709B90033F1247B860030263
:104730004628E4F512F5137812122A307CFF7DFF2B
:10474000790F850E82850F8312478912159E740298
:104750001227C31247BE6003024628124793124A2B
:10476000C20246D57C3E7D03850E82850F831247AB
:1047700089121214E960030246C879000246D5ACDA
:104780000CAD0D850A82850B8312478D22E0FAA3BA
:10479000E0FB221247A3E0FAA3E0F9EA8514828540
:1047A000158322850C82850D83E02EF8A3E03FF966
:1047B000888289832290033C1258BBE84922124721
:1047C000C8F8A3E0F9E8492290033FEAF0A3EBF030
:1047D00090033FE02274E812281D74FA1227AD748A
:1047E000041227F91243CB8C168D1774041227F983
:1047F000E02405F50EA3E03400F50F74041227F948
:10480000E02402124A601247891212E08A0A8B0BD6
:104810007F007E00A818A919880889097808122A3B
:1048200030850E82850F83A3A3A3A3E0F5088E092C
:104830007808122A30E50E2405F508E4350FF5094D
:104840007808122A30850E82850F83A3A3124A901E
:104850001214C674061227C38A0C8B0D8029124AC3
:1048600081F00F124A81F00F90033B124DCC122AB7
:104870003012571AEFF8124A541220067402122707
:10488000C390033BE02FFFE50C450D700302491078
:10489000851882851983124F02A3A3A3E0F985141A
:1048A000828515831247891214B4E9FEE50C2404AD
:1048B000F510E4350DF511EE705074041227F9125D
:1048C0004A87F5087808122A34E4F508F5097808CB
:1048D000122A3075083B7509037808122A309003B4
:1048E0003C122A4774071227F9122A47E50A24FACC
:1048F000F9AC0CAD0D85148285158312478912160B
:104900003474091227C3E9FE6039124A9D124DE042
:10491000EF7003024A3790033FE0F5F0EF84900315
:104920003EF07C3E7D0385148285158312478912F3
:10493000121AE9600990034012478912208A79000F
:10494000024A4A8F08EF703BE4F512F51378121211
:104950002A307CFF7DFF79118514828515831247EB
:104960008912159E74021227C3124AAD7009124AA9
:104970009D124AC1024A4A90033BE0240490033F3F
:10498000F0803590033BE0F890033FE0FAE8240420
:10499000FCE43400FDEC6A4D6003024916E50A248C
:1049A000FAFAE50B34FFFBE50828F8E43400F9EAED
:1049B00098EB995003024916851082851183E0C057
:1049C000E0900340E02FF8A3E034008882F583D024
:1049D000E0F00F851082851183A3E0C0E0124A6EDB
:1049E000D0E0F00F740212280388088909780812B1
:1049F0002A3074021227F9122A47850E82850F8306
:104A00001243BF1214D274041227C38A0C8B0DEA0E
:104A1000450D700302485E74021227F9E0C0E012EF
:104A20004A6ED0E0F00F74021227F9A3E0C0E01242
:104A30004A6ED0E0024866EE70027E0A850E8285DC
:104A40000F83124AA3124DE0EEF974061227C37FBA
:104A5000100228EF900340E028FAA3E03400FB2284
:104A6000F514A3E03400F515851482F58322124A6B
:104A70007222900340E02FFAA3E034008A82F5838B
:104A800022124A7274FF22124BEFA3A3A3A3E022C7
:104A90001259AC850E82850F8312478D22851082B4
:104AA0008511831258BB8516828517832290034097
:104AB000EAF0A3EBF09003401258BBE84922124DF4
:104AC000E6E8F0A3E9F079112274EA12281D74FED9
:104AD0001227AD8A088B098C128D13EA2405FEE497
:104AE0003509FFAC18AD198E828F831247891214D5
:104AF000CC8A0C8B0DEE2406F50EE43FF50FEA454B
:104B00000D7003024BC1E5082402F50AE43509F5EE
:104B10000B8A828B83A3A3A3E0A2E5502885188289
:104B20008519831247891216288A108B11EA4511BC
:104B30006020791212477F85108285118312281B0D
:104B4000E9F50C707F850E82850F83E0600979524C
:104B50008011750C0E806D850882850983A3A3A33F
:104B6000A3E0F9E4F508F5097808122A308E828F5F
:104B700083A3A3E0F5087808122A308E828F83A3DE
:104B8000A3A3122A478E828F8312571D12478312C6
:104B9000163A74061227C3E9F50C7011850E82854A
:104BA0000F83E0702D124783121220802574166542
:104BB0000C7011750C0074181227F9124BEBE4807D
:104BC00010750C011258B3851282851383E8F0A387
:104BD000E9F0850E82850F83E0600479008002A9E8
:104BE0000C74021227C37F0E0228EF124BEF22E053
:104BF000F8A3E0F58388822274EC12281D74F71262
:104C000027AD8A0A8B0B8C108D11EA2405FEE43542
:104C10000BFF750C00AC18AD198E828F831247897B
:104C20001214CC8A088B09EA45097003024DB7E5D6
:104C30000A2402F50A5002050B8A828B83A3A3A3E0
:104C4000E0A2E5502F851882851983124789121634
:104C5000288A0C8B0DEA450D604F7912AC08AD091E
:104C6000124783850C82850D8312281BE9F50C60A1
:104C700003024DBA850A82850B83E0F508A3E0F5AF
:104C800009AA08FB12161CEA4B70197AFF7BFF1267
:104C9000161CEA4B7003024DAD8A828B83E508F047
:104CA000A3E509F07508008008750C0E024DBA05E1
:104CB00008900338E0F8E508C3984003024DAD853D
:104CC000080E750F007403780E12279A8A828B8360
:104CD000A3A3E0250EF8A3E0350F12518170D08E0A
:104CE000828F83124DD51243CB8E828F83A3A31262
:104CF0004DD51243C9EE2404F508E43FF5098508B3
:104D000082F583E088828983A3A3A3A3F0A3E4F0C0
:104D1000EE2405F50EE43FF50F850E82F583124D66
:104D2000D5A3A3A3A31243C9751207751300781264
:104D3000122A30EEFCEFFD740412280B12200674C8
:104D4000021227C3E4F5127812122A3085088285F0
:104D50000983E0FC7D00791712478312159E7402C7
:104D60001227C374071227F91243CB74071227F9CD
:104D7000E0FA4B603D850882850983124DCC122AEA
:104D800030850E82850F8312571D12200674021281
:104D900027C37402122813124783121226E96026D1
:104DA00074071227F912478912208A8019750C0995
:104DB0008008750C118003750C011258B3851082A0
:104DC000851183124DE0A90C74098028E0F508755F
:104DD000090078082212478D8882898322124DE6C5
:104DE000E8F0A3E9F022E0F8A3E0F9850E82850F50
:104DF000832274041227C37F0C0228EF74EC12285C
:104E00001D124EF0751000EE2402F50CE43FF50D76
:104E1000850C82F58312478912161C8A088B09EAD1
:104E200045097003024ED4850A82850B83E0640134
:104E30006003024EC9AC08AD09AA0AAB0B121610EA
:104E4000E9606E850882850983124156EE2406F5D5
:104E50000AE43FF50B8E828F83A3A3122A478E822A
:104E60008F83A3A3A3A3122A47850A82850B8312EB
:104E70002A4779188E828F83124F021247891216A1
:104E80003A74061227C3E9F8741668700B850A8213
:104E9000850B83E4F0A38014E860128E828F831266
:104EA0004789850E82850F83EAF0A3EBF088108096
:104EB00018780E122A30AC08AD09EEFAEFFB121684
:104EC0001674021227C3E9F510AA08AB09121622BC
:104ED000E510700E850C82850D8312478912122C05
:104EE0008009741665107003751000A910024DF743
:104EF000EAFEEBFF8C0E8D0FEE2405F50AE43FF57C
:104F00000B221259AC850C82850D832274EA12287B
:104F10001D7508007509007E007F00750A00EC24ED
:104F200002F510E43DF5118035EC65087003ED6580
:104F3000096003024FC188828983A3A3E06A7003DA
:104F4000A3E06B707C88828983A3A3A3A31258B7C4
:104F5000EE28FEEF39FFEA28FAEB39FB050A12507A
:104F600091503A850A0C750D007403780C12279A3B
:104F7000851082851183125084125181601FE508CB
:104F8000450970A58C088D0988828983124154884F
:104F9000828983A3A3E02EFAA3E03F80BEE50AC383
:104FA0009402500302507F750800750900EE4F60AF
:104FB00010EEFAEFFB1220848A0E8B0FEA450F7079
:104FC000057900025081750B00025054850B0C7559
:104FD0000D007403780C12279A851082851183E0E6
:104FE000250CF50CA3E0350DF50DE50C2406F514A4
:104FF000E4350DF515851482F5831251866042E57E
:105000000C2404F512E4350DF513851282F5831294
:105010002A47E50E2508FAE50F3509FB122006742C
:10502000021227C3851282851383E02508F508A3A1
:10503000E03509F509851482851583124789122008
:105040008AE50B600D7C087D007900AA0CAB0D127F
:10505000201E050BE50BC3950A5003024FCC8510AB
:10506000828511831258B788828983A3A3A3A3A33F
:10507000A3E50EF0A3E50F123CE7EEF0A3EFF07905
:1050800001024BE612508822E0250CF8A3E0350D12
:1050900022900338E0F8E50AC3982274F012281D24
:1050A0008A0E8B0F8C0A8D0B750D00750C008050CD
:1050B0007916EE2406F508E43FF5098E828F83A366
:1050C000A3122A478E828F83A3A3A3A3122A478504
:1050D0000882850983122A47850E82850F83A3A340
:1050E00012478912163A74061227C3E9F50D741691
:1050F000650D706C850882850983E4F0A3F0050CCA
:10510000900338E0F8E50CC3985066AA0C8A08753D
:1051100009007403780812279A850A82850B83A3F5
:10512000A31251D0E8FEE9FF8E828F831251866070
:1051300040EA2401F508E43400F509900338E065FD
:10514000087002E509601488828983A3A3A3A3A33E
:10515000A3A3A31247B860030250B079180250B25B
:10516000E9609B1258B374101227F9125178124D4E
:10517000E0A90D7F080228EFE0FAA3E0F5838A8218
:1051800022F9888289831259ACEC4D2274F61228D8
:105190001D7C0080010C900395E0F8ECC398501E34
:1051A0008C087509007402780812279A1251C5E01C
:1051B0006A7003A3E06B70DDE8FAE9FB80047A0013
:1051C0007B000252689003361251D0888289832274
:1051D000E02508F8A3E03509F92274F212281D8AA7
:1051E000088B09750A0080278E828F83A3A3A3A34F
:1051F000123CDE600312208A7C087D007900EEFA02
:10520000EFFB12201E8E828F83E4F0A3F0050A12BA
:1052100050915027850A0C750D007403780C1227E5
:105220009A850882850983A3A3E0250CFEA3E035B7
:105230000DFF8E828F831247B870AD850882850975
:105240008374FFF0A3F00259A074F612281D121502
:10525000CE8A828B83E582458370067A007B00804C
:1052600007A3A3A3A31247897F020228EF74F412B5
:10527000281D89088C828D83E06402703C12585688
:10528000FEA3E0F9EEF874026870037429697029CE
:10529000750A02750B00780A122A3074101227F969
:1052A000122A4774101227F9122A47A908121F461A
:1052B00074061227C3E9F980027901023D1B74E8E4
:1052C00012281D74FB1227ADE9851882851983F019
:1052D0008A168B17ECFEEDFF7510008E828F83A36C
:1052E000A3A3E0A2E4502D741D1227F912478912DE
:1052F00016288A828B83E582458370030256F579EE
:105300000AEEFCEFFDAA16AB1712281BE9F5106098
:10531000030256F8741F1227F9E0F508A3E0F50917
:1053200074211227F9E0F50AA3E0F50B7423122784
:10533000F9E0F50EA3E0F50F8E828F83E064026042
:1053400003025696A31258B7850882850983A38560
:105350008212858313EE2406F50CE43FF50D888256
:105360008983125735F514E439F5157814122ABAE1
:105370000100002801289853070002285D540328E3
:10538000CB5300298C550129B755022958550329BB
:105390008C55042930569656E50E450F600302568B
:1053A00091850C82850D831258B7E8FAE9FB8A8251
:1053B0008B83E0850A82850B83125740122A308A3C
:1053C000828B83A3E0FCA3E002561AE50E450F6032
:1053D00003025691850A82850B837401F012572AC5
:1053E000850882850983F07C007D008E828F83A3EF
:1053F000A3A3A3E02401FAA3E03400FB1214CCEA37
:105400004B60408A828B83E02402F8850A82850BF8
:1054100083E028F0EA2404F8E43BF988828983E0F9
:1054200085128285138312574E125740122A308AF2
:10543000828B83A312571DE5082403FAE43509FB88
:1054400002561F850A82850B83E02404F07C047DCC
:10545000007900AA12AB1312201E0256F8E50E4581
:105460000F600302569112572AFEA3E0FF850A82BD
:10547000850B837404F0EE850882850983F0EF853F
:105480001282851383F07403122813EEFAEFFB12D5
:1054900014CC8A0C8B0DEA450D700302553B8A82B1
:1054A0008B83A3A31241547401122803880E890F21
:1054B000780E122A3074051227F9122A477CFF7DD4
:1054C000FF1214D274041227C38B0FEA450F7033F6
:1054D000850C82850D83125721122A30850C828516
:1054E0000D83A3122A477C027D007A907B831212DF
:1054F000CE74041227C3E9700A74011227F974FFED
:10550000F0A3F08E828F83E064027039750C02750F
:105510000D00780C122A308E828F83A312571DE55E
:10552000082404FAE43509FB12200674021227C38A
:10553000850A82850B83E02402800974011227F911
:10554000EEF0A3EFF074011227F912570F74011255
:1055500027F912570602568BE50E450F60030256D7
:1055600091850C82850D831259A5AA16AB17121FBF
:105570004C850A82850B837402F085088285098335
:10558000EAF0851282851383EB02568EE50E450FF5
:10559000600302569112572AF8A3E0F9850A828522
:1055A0000B837402F0E8850882850983F0E985128F
:1055B0008285138302568E850C82850D831247895E
:1055C000122000EAFAF8C3950EE4950F405CE865F6
:1055D0000E450F70047A008021851882851983E0BA
:1055E000FCE50E2CFCE4350FFDC3EC98ED94005067
:1055F00003E08005E50ECAC39AFAEA850A82850BA4
:1056000083F08A0A750B00780A122A30850C82858D
:105610000D83E0250EFCA3E0350FFDAA08AB0912AF
:10562000200674021227C30256F87510070256F8B6
:10563000E50E450F705B850C82850D831258B7858A
:105640000A82850B837407F08882898312570712B8
:1056500056FFE0851282851383F0E82402FAE439CC
:10566000FB8A828B8312570F8A828B83125706A381
:10567000A3123CE6125714F0E82405F850010988FB
:10568000828983125714A312574EA3A3A3A3F080B9
:105690006775100B8062741D1227F9124789121565
:1056A000CE8A828B83E5824583604A1258B7880C84
:1056B000890DE8450D603E74251227F9E0F5107854
:1056C00010122A34780E122A30780A122A307808FA
:1056D000122A3074071227F9E0F9EEFCEFFDAA1642
:1056E000AB17850C82850D8312281B74071227C304
:1056F000E9F510800375100EA9107405024A4CF0EC
:1057000088828983A322A3E08508828509832212E7
:105710005755F022125755A3A32290033C1259ACBF
:1057200022E0F50E750F00780E22850C82850D8320
:10573000124BEFE022E0FAA3E0F8E4C8F9EA2822ED
:10574000F08A828B83E0F50A750B00780A221256E4
:10575000FF12575522E0850882850983A3A322748E
:10576000EE12281D74FE1227AD8A088B09ECFEED9F
:10577000FF890AAC18AD19EEFAEFFB1214CC8A0CB3
:105780008B0DEA450D7003025847851882851983F1
:105790001247891215CE8A828B83E5824583700376
:1057A000025842A3A31258B7880E890FE8450F701C
:1057B0000302584274141227F9E0F510A3E0F51122
:1057C000E50AF50B780B122A3474191227F9122AFC
:1057D000477810122A30741B1227F9E0F9AC0CAD8F
:1057E0000DAA08AB09850E82850F8312281B74054C
:1057F0001227C3E9F50B705274FE650A604C850CE4
:1058000082850D83E064027041125856FAA3E0F9D4
:10581000EAF87402687003742969702E8510828515
:105820001183125735F50CE439F50D780C122A3036
:10583000EEFCEFFDAA08AB0912165274021227C340
:105840008008750B0E8003750B01A90B74021227DB
:10585000C37F0A0228EFA31258BB88828983E02203
:1058600074F612281D74FE1227AD740C1227F9125B
:1058700058B7E8851882851983F074011227F9E971
:10588000F0E4F508F5097808122A3075080278085E
:10589000122A307404122803880889097808122A09
:1058A0003079FE12163A74061227C374021227C307
:1058B0000252688E828F831258BB22E0F8A3E0F96F
:1058C0002274F712281DEAFEEBFF89089003531299
:1058D000571D121F4CEA5402600BA908EEFAEFFBA9
:1058E0001214C0800279017F010228EF74F212289D
:1058F0001D74FE1227ADEAFEEBFF890A7401650AEA
:1059000060147402650A600302599B7901121856EB
:10591000E9600302599BEEFAEFFB12161CEA4B609A
:1059200003121622A818A919880889097808122ACA
:10593000307508027509007808122A3075087E75DE
:1059400009837808122A307CFF7DFF7A017B0012E0
:1059500014C674061227C38038850882850983A37C
:10596000A3A3A3A3A31259A5EEFAEFFB121F34E4DD
:10597000F50CF50D780C122A3074021227F9122A50
:10598000477CFF7DFFAA08AB091214D274041227CA
:10599000C38A088B09E508450970BE74021227C343
:1059A0007F060228EF124BEF1259AC22E0FCA3E075
:1059B000FD2274F412281D8A088B09ECFEEDFF907D
:1059C0001989E0F4604B7A097B0012202AEA4B60C7
:1059D000408A828B8374B1F0A3E4125A14F08A8255
:1059E0008B83A3A3E508F0A3E509125A14A3EEF0F4
:1059F000A3EFF0740C1227F91258B78A828B83A395
:105A0000A3A3A3A3A3A3124DE0901989E0F9122048
:105A100036023D1BF08A828B83A3A3A3A32274EEDC
:105A200012281D74FA1227AD8A0A8B0BE9FF8C0825
:105A30008D097E00850A0C850B0D780C122A7400E6
:105A40000410FA5C665A895AA85ACB5AEE5A115B6E
:105A5000425B655B7C5BAC5B5B5C7E5CA15CCF5C52
:105A6000FA5CFA5CD55B74016F7019850882850950
:105A700083E0C39403500D850882850983E0901A62
:105A800075F080027E18025D2274026F7015850821
:105A900082850983E0F8A3E0F9901A76E8F0A3E99B
:105AA000F080027E18025D2274016F7019850882F1
:105AB000850983E0C39402500D850882850983E03F
:105AC000900796F080027E18025D2274016F7019B3
:105AD000850882850983E0C39405500D8508828579
:105AE0000983E0900797F080027E18025D2274011E
:105AF0006F7019850882850983E0C39402500D8573
:105B00000882850983E0900798F080027E18025D84
:105B10002274106F7027750C10750D00780C122A06
:105B200030AC08AD097A997B07122006740212275F
:105B3000C38A0C8B0D850C82850D8380027E180232
:105B40005D2274016F7019850882850983E0C39412
:105B500002500D850882850983E09007A9F0800234
:105B60007E18025D2274016F700D8508828509839D
:105B7000E0901A79F080027E18025D2274046F7042
:105B800026908313780C1226658508828509837810
:105B90000C122475501185088285098312269B906A
:105BA00007AB1226A780027E18025D22EF70211239
:105BB0001466E97013121EDAE9F50D7950122162AC
:105BC000E9F50C121EC8800A90083E7401F08002AC
:105BD0007E18025D2274076F707C750E06750F00CB
:105BE000780E122A30850882850983A3AC82AD83A2
:105BF000740212280B12200C74021227C38A108B15
:105C00001185100E85110F7C007D00AA18AB198537
:105C10000882850983E0F9121E6EE9F50CE50CC3D4
:105C2000940A502E121466E97015A90C121EE0E9B0
:105C3000F50E7950122162E9F50D121EC88019A8DF
:105C40000C7900743F28F582740839F5837401F0EB
:105C500080067E0280027E18025D2274016F701938
:105C6000850882850983E0C39402500D85088285EA
:105C70000983E09007AAF080027E18025D22740179
:105C80006F7019850882850983E0C3940A500D85D9
:105C90000882850983E0901A78F080027E18025D00
:105CA0002274016F7025850882850983E0C39407FB
:105CB0004019850882850983E0C39411500D850839
:105CC00082850983E0901A7AF080577E1880537499
:105CD000016F702290083DE0F50C850882850983EC
:105CE000E090083DF0E50C703990083DE0640170EB
:105CF00031121EC8802C7E188028C3E50A9427E53F
:105D00000B9400501B74026F7016850882850983FE
:105D1000E0FCA3E0FDAA0AAB0B1212E6E9FE80024A
:105D20007E02EEF974061227C37F0A0228EF74EC94
:105D300012281D74DA1227AD890D8A128B138C0A72
:105D40008D0B743A1227F9E0F50C908291AC18ADE6
:105D50001974061226C0AC18AD19AA12AB13A90DFE
:105D6000121E6EE9FEEEC3940A4003025EA2EEF933
:105D7000121EAAE9FF901A75E06402700474018093
:105D8000027400F5087808122A34AD0CEFFCEEF925
:105D9000AA0AAB0B121F1C74011227C37C147D00CE
:105DA0007900741212280B12201E8A0E8B0F850E9A
:105DB00008850F0974121228137A1075F006EEA4E4
:105DC0002424F912215CE9703C7C1079FF741212D2
:105DD000280B12207EE9702D74221227F9AC82ADB7
:105DE000837A0475F006EEA42425F912215CE9F506
:105DF000087412122813EFA2E0E433F9AA0AAB0BDD
:105E0000121370E9F874061228137A0C74702EF9C4
:105E100012215CE97079740612280B121E9E750E11
:105E200000E50EC394045067A80E7900E875F003EE
:105E3000A4C8AAF075F000A42AFA75F003E9A42A10
:105E4000F974061227F9E58228F508E58339F50982
:105E5000850882850983E0F8A3E0F9E849602C858C
:105E60000882850983A3A3E0F5107511007810124C
:105E70002A30850882850983E0FCA3E0FDAA0AABED
:105E80000B12164074021227C3E9F8050E8092EF38
:105E9000A2E1500E900795E0F9AA0AAB0B12164644
:105EA000E9F87404650C700F901A75E064027007CD
:105EB000AA0AAB0B121F16790074261227C37F0C97
:105EC0000228EF74F712281DEAFEEBFF121466E9B0
:105ED000706790083EE06401701B121EDAE9F50855
:105EE00090083E7400F07C0A7D0079007A3F7B08C0
:105EF00012201E8039750800E508C3940A502FA8A7
:105F0000087900743F28F582740839F583E064014C
:105F10007018A908121EE0E9FAA8087900743F2851
:105F2000F582740839F5837400F0050880CA795049
:105F3000122162E9F508121EC87F010228EF74F2EF
:105F400012281D890BEAFEEBFF8C088D09750A0AE1
:105F5000E50B600C146009146044146064025FE394
:105F6000EEFAEFFB121EBCE9F50AE50AC3940A50EB
:105F700072E5084509606C750C06750D00780C1209
:105F80002A30EEFCEFFDAA08AB09122006740212BB
:105F900027C38A0C8B0D850C82850D838045EEFA14
:105FA000EFFB121EB6E9F50AE50AC3940A5034E580
:105FB000084509602EAA08AB09A90A121EB0E9809B
:105FC00022EEFAEFFB121EC2E9F50AE50AC3940AB3
:105FD0005011E5084509600BAA08AB09A90A121E71
:105FE000B0E9F8A90A7F060228EF74F212281D8A88
:105FF0000C8B0DE9FF7E1574FF650C700474FF6552
:106000000D702A750800E508C3940A5014EFFC7A55
:10601000027B00A908121E8CE960027E0005088040
:10602000E5EF60627A047B1F12187A8059AA0CABE4
:106030000D12184A8A0A8B0B850A08850B09E50898
:10604000450960407C007D00E5082405FAE4350937
:10605000FB850882850983A3A3A3A3E0F9121E6E22
:10606000E9F50AE50AC3940A500EEFFC7A027B00B8
:10607000A90A121E8CE97E00EF600BAA08AB091278
:106080001F0480027E14EEF97F060228EF74EE12E0
:10609000281D8A0E8B0F8C0A8D0B74121227F9E0C3
:1060A000F50CA3E0F50D75081574FF650E7004740A
:1060B000FF650F701E7E00EEC3940A5061AC0CADFC
:1060C0000DAA0AAB0BEEF9121E92E96003750800E7
:1060D0000E80E4AA0EAB0F12184A8A108B11AE1074
:1060E000AF11EE4F60357C007D00EE2405FAE43FF1
:1060F000FB8E828F83A3A3A3A3E0F9121E6EE9F5A2
:1061000009E509C3940A5016AC0CAD0DAA0AAB0BF5
:10611000A909121E92E97508008003750814A908E0
:106120007F0A0228EF74F712281DEAFEEBFF9007A2
:10613000AFEEF0A3EFF0900795E0FC7D007A267BB0
:10614000001212E6E9F508900795E0F91215AA7F0A
:10615000010228EF74F012281D74EC1227AD8A0C8E
:106160008B0D850C82850D83A3A3E024FA700302B6
:1061700065CD24FD7003026442147003026244146E
:10618000601024FD70030263EA147003026481024C
:1061900065E0AE0CAF0D9007AFE0F8A3E0F9E84979
:1061A00060669007AFE0F8A3E0F5838882E0F8A38B
:1061B000E0F9E8496052EE240CF582E43FF583E013
:1061C000F5087808122A34EE240BF582E43FF583B3
:1061D000E0F98E828F83A3A3A3A3A3A3A3A3A3E029
:1061E000FCA3E0FDEE2403FAE43FFB9007AFE0F8E8
:1061F000A3E0F5838882E0F8A3E0F5838882122883
:106200001B74011227C380398E828F83A3A3A3A39B
:10621000A3A3A3A3A3122A479007AB1226831213AA
:106220008274021227C3E9601879018E828F83A3DA
:10623000A3A3A3A3A3A3A3A3E0FAA3E0FB12137C4D
:10624000E90265E0AE0CAF0D7508008E828F83A366
:10625000E0600302636C8E828F83A3A3A3A3A3E0F9
:10626000A2E0400302636C900849E0F8A3E0F9E87B
:1062700049600302636C7C0E7D007900AA18AB199B
:1062800012201E8A0A8B0BAA0AAB0BEE240CF58295
:10629000E43FF583E0F8A3E0F9E8496036750A06C3
:1062A000750B00780A122A30EE240CF582E43FF5D3
:1062B00083E02410FCA3E03400FD740212280B12CA
:1062C000200674021227C38A0A8B0B850A82850B6B
:1062D00083804F8E828F83A3A3A3E0FAA3E0FB12F7
:1062E000184A8A0E8B0F850E0A850F0BE50A450B9F
:1062F000602D750E06750F00780E122A30E50A24FF
:1063000005FCE4350BFD740212280B122006740202
:106310001227C38A0E8B0F850E82850F838003029E
:1063200065E08E828F83A3A3A3A3A3E0A2E250041F
:10633000D2F08002C2F0A2F0E433F87900740C12BB
:1063400027F9E048F0A3E049F0EEFCEFFDAA18AB16
:1063500019121EA4E970127A027B00900795E0F9E9
:1063600012205AE979000265E27508159007AFE03E
:10637000F8A3E0F9E849606F9007AFE0F8A3E0F513
:10638000838882A3A3E0F8A3E0F9E84960598E82EC
:106390008F83A3E0FC79018E828F83A3A3A3E0FA0D
:1063A000A3E0FB9007AFE0F8A3E0F5838882A3A306
:1063B000E0F8A3E0F583888212281BE5086028AC8A
:1063C0000879038E828F83A3A3A3E0FAA3E0FB9056
:1063D00007AFE0F8A3E0F5838882A3A3E0F8A3E089
:1063E000F583888212281B0265E0AE0CAF0D900782
:1063F000AFE0F8A3E0F9E84960459007AFE0F8A303
:10640000E0F5838882A3A3E0F8A3E0F9E849602FD0
:10641000850C82850D83A3E0FC79028E828F83A395
:10642000A3A3E0FAA3E0FB9007AFE0F8A3E0F583B5
:106430008882A3A3E0F8A3E0F583888212281B02D8
:1064400065E0AE0CAF0D7C007D00EE2404FAE43F65
:10645000FB8E828F83A3A3A3E0F9121E6EE9F508D9
:10646000E508C3940A5017EE240AFCE43FFD7A04C1
:1064700075F006E508A42425F9122156E9F802650D
:10648000E0AE0CAF0D9007AAE06019901A78E0F921
:106490008E828F83A3A3A3E0FAA3E0FB12137CE90F
:1064A000F80265E0901A75E0701679058E828F8388
:1064B000A3A3A3E0FAA3E0FB12137CE9F80265E0D2
:1064C0008E828F83A3A3A3E0FAA3E0FB12184A8A6B
:1064D0000A8B0B850A08850B09E50845097003023C
:1064E00065E08E828F83A3A3A3A3A3A3A3E0A2E06E
:1064F000506D850882850983A3A3A3A3E060608E05
:10650000828F83A3A3A3A3A3A3A3A3A3E0F50AA3BA
:10651000E0F50B7409780A12278BE50A5401F8E5B7
:106520000B5400F9E8A2E04036740E122813E50877
:106530002405FAE43509FB850882850983A3A3A312
:10654000A3E0F9121E6EE9701679038E828F83A381
:10655000A3A3E0FAA3E0FB12137CE9F80265E0EEE6
:106560002405FCE43FFD850882850983A3A3A3A33A
:10657000E0F98E828F83A3A3A3E0FAA3E0FB121FAE
:10658000109007AFE0F8A3E0F9E84960539007AF37
:10659000E0F8A3E0F5838882A3A3E0F8A3E0F9E89C
:1065A00049603D7C0079008E828F83A3A3A3E0FA2B
:1065B000A3E0FB9007AFE0F8A3E0F5838882A3A3F4
:1065C000E0F8A3E0F583888212281B8013AE0CAF9D
:1065D0000D8E828F83A3A3A3E0FAA3E0FB121E68B3
:1065E000790174141227C37F080228EF74F512286A
:1065F0001D74F21227AD8909EAFEEBFF8C0AAC1874
:10660000AD197A0E75F006E509A42420F912215C73
:10661000E9705F7C0679FFAA18AB1912207EE97039
:1066200051740C1227F9E0F8A3E0F9E8F508E50A3F
:106630006005EE42088004EEF45208A80879007460
:106640000C1227F9E0687003A3E0696021A80879BB
:1066500000740C1227F9E8F0A3E9F0AC18AD197A30
:106660000E75F006E509A42420F9122156E97901F6
:1066700080027900740E1227C37F030228EF74F0A2
:1066800012281D74E61227AD890B8A0C8B0DECFEC7
:10669000EDFF740C1228137A0E75F006E50BA42496
:1066A00020F912215CE960030267AE7C0679FF7471
:1066B0000C12280B12207EE960030267AEAC18AD05
:1066C000197A0C7470250BF912215CE960030267DA
:1066D000AA750A00AA18AB19121E9EE50C450D708A
:1066E0002E7C0C7900AA18AB1912207EE9600302F7
:1066F00067907C0C7D007900AA18AB1912201E8AC5
:10670000088B09850882850983750A01026790ACA8
:1067100018AD19AA0CAB0D121E988A0E8B0F850EA0
:1067200008850F09E50845097030EE4F601BAC186D
:10673000AD197A007B00121E988A0E8B0FA80EA945
:106740000F88088909E84970047900806385088208
:10675000850983E50CF0A3E50DF0850882850983A2
:10676000A3A3E0F87900EE687002EF696022EEC042
:10677000E0850882850983A3A3D0E0F0EE4F700D79
:106780008508828509837400F0A37400F0750A01FE
:10679000E50A6016AA18AB19121E9EAC18AD197A3C
:1067A0000C7470250BF9122156E9790180027900E9
:1067B000741A1227C37F080228EF74F612281D8A64
