:020000040000FA
:0600000002011A0225694D
:03001300022D13A8
:03002B00022C6440
:030053000225DFA4
:03007B00022C92C2
:100083000223BFE5C754F84401F5C77901220000F4
:100093000080FB120086B90003020104E479217891
:1000A30008B800028004F709D8FCE479297802B87B
:1000B30000028004F709D8FCE4900281784679179E
:1000C3008002F0A3D8FCD9FA781A90014A7A01BACF
:1000D30000028007E493A3F608DAF97AC67B189046
:1000E300014B78D479038015E493A3AD82AE838A60
:1000F300828B83F0A3AA82AB838D828E83D8E9D9C6
:10010300E77582BF75839A740412012C7582917509
:100113008300740012012C75D00075813F7518811E
:10012300751902759F00020096C09FF59FE473D076
:100133009F22D083D082C09FE493C0E0740193C018
:10014300E0740293F59F2201FF0000B40000280031
:100153002800283075A000A000A000A0000008001F
:1001630008E001F000100010001000100010001053
:100173000050005000500010001000D00700000095
:100183000000000F0001000500307507001000019A
:100193000081FF00000000FFFFFF72079007780750
:1001A300B407FF02020208025000A0000000E803A7
:1001B30002FD83010000BB8302E1830100002119DA
:1001C30002DB830100000B0302E18301000022191B
:1001D30002D983010000210302E1830100002319F6
:1001E30002D783010000230302E1830100002419E5
:1001F30002D383080000240302E1830100002519D0
:1002030002D1830100002619FF0100FF2002FD83B4
:10021300010000BE8302E1830100008A1902CF833B
:10022300000000000002DD830300005203170020DA
:100233000E200E200E200E200E200E200E200E204B
:100243000E200E200E200E200EDE10F010D810020D
:100253000202020202020202010D0000001001026A
:10026300FD83010000C18302E183010000CD190277
:10027300EB830100008C0702E183010000CE190229
:10028300E383010000798202E183010000CF1902B8
:10029300FB830100004F8202E183010000D01902B9
:1002A300F983010000DA8102E183010000D1190220
:1002B300F783010000EC8102E183010000D21902FF
:1002C300F583010000B68102E183010000D3190226
:1002D300F183010000C88102E183010000D4190207
:1002E300EF830100006B8202E183010000D5190254
:1002F300ED83010000D61901E8030577100AFFFF1B
:100303000001307503020106000000000000000038
:1003130000000000000000000000000000000000DA
:1003230000000000FFFF0600800CE8030E093030D8
:100333003030303030305942424C4505125000BC09
:1003430002020A000201060302F0FF09FF007D001A
:10035300000000000030303030303030305942423D
:100363004C4500000000000000007C1500009A15B9
:1003730012121252656164446174610044656275CE
:10038300674461746100546F6F6C44617461000869
:100393005772697465446174610002FD8301000052
:1003A300C48302E183010000F01A02CB8301000041
:1003B300AA1502DD83030000D11502DF83010000CB
:1003C300041B02E183010000EF1A02C9830100004C
:1003D3008A1502DD83030000CF1502DF83010000CD
:1003E300FA1A02E183010000EE1A02C7830100003A
:1003F3006A1502DD83030000CD1502DF83010000CF
:10040300F11A02E1830100000D1B02CD83030000FA
:10041300D31502DF830100000E1B0312013580D6C2
:100423000112013598D601120135C7D601120135E3
:1004330002D70112013547D70112013596D70112B0
:10044300013500D80112013532D80112013574D8B3
:1004530001120135CCD80112013592D901120135AF
:10046300E5D901120135C9DB01120135DDDB0112CA
:100473000135F2DB01120135DEDC01120135F7DC57
:1004830001120135E6DD0112013565DE0112013588
:10049300D8DE01120135B3DF011201351CE0011270
:1004A300013594E001120135B8E001120135D7E0BE
:1004B30001120135ABE10112013543E201120135AD
:1004C300FEE4011201358AE501120135BBE5011293
:1004D3000135FFE50112013522E60112013545E63A
:1004E30001120135C2E6011201357BE70112013524
:1004F300D1A00312013580A103120135C2A2031258
:10050300013504A403120135B6A40312013515A560
:100513000312013574A50312013526A80312013510
:100523000A85041201356885041201359985041280
:1005330001353E86041201355E86041201358F862D
:1005430004120135D586041201355B870412013587
:100553007FF10312013592F103120135C3F1031246
:100563000135FDF10312013556F2031201359DF2F7
:1005730003120135E5F20312013514F303120135B9
:1005830043F3031201357AF303120135C1F3031266
:100593000135DAF3031201352FF40312013548F460
:1005A3000312013596F403120135D0F40312013519
:1005B3000080031201350381031201353C810312CC
:1005C30001355F8103120135718103120135AF815A
:1005D300031201352B8203120135F3820312013515
:1005E300158303120135AC8303120135FE83031215
:1005F30001352F84031201353C8403120135A6848F
:1006030003120135FD840312013500850312013500
:100613003985031201353C850312013546850312E2
:1006230001359A8503120135DB85031201350E86E8
:10063300031201354B86031201354D870312013531
:10064300F187031201355A88031201359888031282
:100653000135CEE503120135F6E50312013523E634
:10066300031201355BE603120135B9E603120135C6
:1006730005E7031201356CE703120135ACE70312FA
:100683000135E9E70312013517E803120135C1E823
:1006930003120135CBE803120135D8E80312013503
:1006A3000BE90312013517E9031201352FE9031290
:1006B300013539E903120135A49804120135B298C2
:1006C30004120135CA9804120135E1980412013568
:1006D3000CE801120135B6E801120135C9E901122E
:1006E300013545EA0112013563EB011201359FEB38
:1006F300011201353AEC011201351EED01120135EB
:10070300EAED0112013578EF01120135E9EF01122B
:100713000135A3F00112013595F101120135D5F12F
:100723000112013589F201120135BBF201120135C3
:10073300B1F401120135F3F40112013511F501127F
:10074300013577F50112013546F6011201350AF735
:100753000112013529F90112013569AF031201357F
:1007630053B003120135FEB0031201354FB103122A
:100773000135FFB10312013570B20312013555B3D0
:100783000312013589B30312013582B40312013513
:10079300BFB4031201359BB503120135DAB5031259
:1007A3000135F6B503120135AF8B04120135338CD5
:1007B300041201355E8C04120135788D0412013563
:1007C300C7E903120135DDE903120135FBE9031221
:1007D30001350CEB0312013516EB0312013541EC25
:1007E3000312013538ED03120135A5ED031201356E
:1007F300F8BB031201352EBD0312013565BD03128B
:100803000135BCBD03120135D1BF03120135CAB195
:100813000112013556B201120135BAB30112013585
:10082300C6B30112013501B40112013570B40112CE
:10083300013579B50112013582B60112013549B787
:1008430001120135A6B801120135C4B801120135F0
:10085300E1B8011201358EB9011201350BBA01124B
:10086300013533BA01120135FDBC0112013502BD58
:10087300011201351BBF0112013569BF0112013598
:10088300D9BF0112013517C001120135F3C001129E
:100893000135B3C101120135FFC10112013502C295
:1008A3000112013546C2011201358EC20112013512
:1008B300CDC201120135EFC20112013523C301126A
:1008C300013586C30112013598C103120135A6C152
:1008D30003120135F9C10312013518C203120135A0
:1008E3005DC203120135A1C3031201353CC40312D7
:1008F300013580C403120135AAC40312013519C599
:10090300031201355FC503120135D6C50312013544
:1009130087C603120135782D00120135882D001288
:100923000135292E00120135852E00120135422F83
:10093300001201355E30001201359030001201358E
:10094300BF30001201356C3200120135E33400125E
:1009530001355337001201354538001201353E3950
:1009630000120135453B00120135393E00120135B5
:10097300683F001201356C41001201357C420012C0
:1009830001350B4400120135FC44001201354A4580
:1009930000120135B94500120135DD45001201355C
:1009A3002E4600120135CF4A00120135D04B0012FA
:1009B3000135314C001201355C4C00120135224DDA
:1009C30000120135C8E103120135D2E103120135EA
:1009D30017E2031201352BE203120135BBE20312C6
:1009E3000135F4E2031201352FE30312013558E315
:1009F30003120135ACE303120135C1E303120135E0
:100A0300E3E303120135F8E3031201350CE40312A7
:100A1300013521E4031201355BE40312013587E458
:100A2300031201350EE50312013551E503120135B9
:100A33007BE503120135A6E503120135C5FE03125A
:100A430001351AD202120135FDD20212013578D3D3
:100A530002120135B3D30212013504D50212013556
:100A630092D50212013524D802120135D6D80212CA
:100A73000135E2D90212013555DB02120135AEDB35
:100A83000212013536D90312013579D90312013522
:100A9300FDD903120135D4DC031201359882041207
:100AA30001354A83041201354684041201358584D5
:100AB30004120135DF8404120135A78D04120135B8
:100AC3000A8E04120135A78E04120135DC8E04123E
:100AD30001350C8F04120135478F04120135678FDE
:100AE3000412013597CB0312013523CC03120135D0
:100AF300E2CC03120135FACD0312013514D00312EF
:100B0300013586BB02120135ABBB0212013578BC3D
:100B1300021201354CBD02120135B9BD0212013575
:100B2300F9BD0212013595BE02120135C9BF021289
:100B33000135A4C00212013503C1021201358FC170
:100B430002120135FDC10212013589C202120135BB
:100B5300CFC20212013541C302120135D3C30212BF
:100B6300013574C40212013594C402120135DCC488
:100B73000212013525C50212013541C502120135A4
:100B830067C502120135E1C502120135EFC5021234
:100B930001357EC602120135E7C6021201354BD07C
:100BA30003120135D0D00312013512D103120135DE
:100BB300F6D10312013563D203120135A7D2031212
:100BC3000135EBD20312013518D30312013540D39B
:100BD3000312013578D303120135B6D3031201355D
:100BE300DDD30312013557D403120135A1D4031207
:100BF30001350080021201359F8102120135D7832E
:100C0300021201352B84021201355684021201357A
:100C13003285021201356285021201359185021275
:100C23000135A48502120135E585021201351286CC
:100C3300021201356086021201359C8602120135CB
:100C4300E186021201352E8702120135A8870212AE
:100C53000135E98902120135D38B021201350F8C5C
:100C6300021201359E8D02120135E38D0212013508
:100C7300568E02120135AB8E02120135B08E02126E
:100C830001353C8F021201355B90021201356C90E5
:100C93000212013530F002120135A9F002120135BA
:100CA30063F6021201356EF70212013517F90212CB
:100CB3000135A5F902120135546B00120135D56BCC
:100CC30000120135026C001201354B6C0012013524
:100CD3004C6D00120135A56D00120135216F001214
:100CE3000135A36F00120135BE6F001201352F705D
:100CF30000120135EC7000120135AF71001201359D
:100D03003D7200120135F4720012013507730012AF
:100D13000135A073001201353774001201355E747A
:100D230000120135C7740012013511750012013527
:100D33005F7500120135047600120135A2760012A8
:100D430001352F7700120135A07700120135E777BF
:100D5300001201353F780012013571780012013518
:100D63002B7900120135327A001201357B7A001299
:100D73000135987A00120135B77A00120135EA7B02
:100D830000120135A17C00120135C67C0012013529
:100D9300DB7C001201354B7D001201358C7D001286
:100DA3000135B07E00120135317F0012013557DC69
:100DB30002120135A2DC02120135AEDC021201354A
:100DC30082DD0212013599DD02120135D6DD0212F0
:100DD300013507DE0212013538DE0212013570DEFD
:100DE30002120135C6DE02120135DCDE02120135C4
:100DF30018DF021201352BDF0212013552DF021216
:100E0300013586DF02120135ACE002120135F6E14D
:100E130002120135F2E2021201350FE4021201352A
:100E2300EC7F001201358F9002120135CA90021235
:100E330001351C940212013578950212013537965B
:100E4300021201359E9902120135889A0212013568
:100E5300D49A02120135EE9A021201352B9B02122B
:100E63000135369B02120135759B021201357E9BBB
:100E730002120135289C02120135FF9C0212013532
:100E8300539D02120135B09D02120135229E0212BA
:100E930001355EC401120135BDC701120135C3C757
:100EA30001120135F4CE01120135FBD201120135D5
:100EB30038F503120135CEF503120135E4F50312BB
:100EC30001353DF60312013581F603120135BBF6F8
:100ED3000312013553F703120135C2F7031201352B
:100EE300CBF703120135D7F703120135F1F70312DC
:100EF30001351BF80312013530F80312013592F85E
:100F030003120135B9F80312013586DD03120135E9
:100F130093DD03120135ADDD03120135E0DD03126C
:100F230001351EDE0312013583DE0312013598DE1F
:100F330003120135A3DE03120135B0DE03120135BE
:100F4300C7DE03120135D5DE03120135E0DE0312DD
:100F53000135ECDE03120135FBDE0312013506DF3A
:100F63000312013529DF03120135CDDF03120135E9
:100F7300DDDF03120135F7DF0312013514E003123D
:100F830001352FE00312013554E0031201355FE010
:100F93000312013574E00312013588E003120135B1
:100FA300E9E003120135EFE003120135F5E0031226
:100FB3000135FBE00312013513E10312013546E16C
:100FC3000312013503AE021201359AAE0212013546
:100FD30032AF0212013522B00212013559B00212AA
:100FE30001356CB002120135DAB00212013575B267
:100FF300021201359CB2021201353EB302120135D1
:1010030073B30212013584B302120135FDB3021228
:1010130001351EB40212013536B4021201358EB504
:101023000212013597B702120135E7B902120135F1
:10103300EABA0212013539BB02120135719F02125D
:1010430001356EA00212013559A10212013563A1C7
:101053000212013585A10212013591A10212013557
:10106300E3A20212013512A30212013542A40212B5
:10107300013584A402120135B0A50212013586A6FA
:1010830002120135D8A60212013537A70212013523
:101093006EA702120135A9A70212013544AB021251
:1010A30001355DAB02120135DFAB02120135EDAB49
:1010B3000212013542AC0212013550AC0212013565
:1010C300BDAC021201352FAD0212013575AD02120E
:1010D30001350AC7021201352CC70212013516C9A0
:1010E30002120135BBCC02120135FECD02120135CD
:1010F300D8CE021201352F910412013554910412F6
:101103000135C59104120135ED9003120135F690B6
:1011130003120135FF90031201353092031201359A
:101123004F9403120135859403120135BF940312C2
:101133000135F594031201352F950312013563959B
:10114300031201358F9503120135D895031201352A
:101153001296031201355A9603120135B096031203
:101163000135E596031201354097031201357A974D
:1011730003120135CB970312013501980312013590
:101183003B98031201356998031201358C980312B9
:1011930001357199041201359D9904120135F899AD
:1011A30004120135029A04120135129A0412013510
:1011B30099C603120135C0C603120135FBC60312DB
:1011C3000135677F001201358E4D001201359E50A7
:1011D30000120135335200120135AE5200120135AF
:1011E3005A5300120135FD53001201359554001274
:1011F3000135C454001201355C5900120135EE5912
:10120300001201352A5B00120135945B001201358F
:10121300485C00120135FE5E00120135385F001292
:101223000135A25F00120135FF5F001201355C60DA
:1012330000120135B96000120135A46100120135B5
:10124300EA6100120135356200120135586200125D
:1012530001359F6300120135B36300120135226526
:1012630000120135616500120135A16500120135D7
:10127300F46500120135156600120135536600123C
:101283000135916800120135D268001201356D698C
:1012930000120135DF6900120135206B00120135A0
:1012A30057B603120135FDB60312013542B80312D6
:1012B3000135CBB803120135B8B903120135F7B9BB
:1012C3000312013561BA03120135CFBA0312013596
:1012D300CC9604120135DD9604120135B897041239
:1012E3000135ECFB03120135B7FE03120135CAFFCA
:1012F30001120135E0FF01120135E5FF011201354D
:10130300D09B04120135BF9504120135CF95041209
:101313000135E39504120135C69604120135E7F849
:10132300031201358FF903120135D1FB0312013585
:10133300E5920412013534930412013566930412C5
:101343000135F89304120135F87F001201357A87CD
:1013530004120135468904120135B289041201359C
:10136300659B041201357A9B041201351A99031205
:1013730001352F99031201358B9903120135F69923
:10138300031201353E9A03120135B09A0312013557
:10139300D99A03120135E79A03120135499B0312C7
:1013A3000135879B03120135A29B031201353D9C36
:1013B30003120135E69C03120135699D03120135C1
:1013C300A29D031201352D9E03120135849E031243
:1013D3000135E29E03120135F49E031201351A9F73
:1013E30003120135429F031201359DA003120135FB
:1013F300B589041201351C8A04120135D98A0412F5
:101403000135578B04120135AFED03120135E2EDBF
:101413000312013514EF0312013558EF031201359E
:1014230034F00312013574940412013552950412F9
:101433000135AE9504120135008004120135458053
:10144300041201358B8004120135548204120135D4
:10145300C89704120135E39704120135F397041278
:1014630001355898041201351C9A0412013548E6D7
:101473000212013524E7021201356BE7021201352E
:10148300A8E70212013516E80212013570E80212CC
:101493000135E0E802120135B0E9021201359FEA95
:1014A3000212013516EB02120135B2EC02120135BC
:1014B3003FED02120135B2ED021201352EEE02129A
:1014C300013545EE021201356AEF02120135C4EF10
:1014D30002120135CFF902120135EFF9021201357B
:1014E300F5FA0212013541FB0212013561FB0212CA
:1014F3000135B4FB0212013521FC0212013567FCF0
:1015030002120135CBFC0212013577FF02120135BD
:10151300C49D01120135F1A201120135F4A5011296
:1015230001351DA60112013546A601120135F8A6A3
:1015330001120135E1A8011201352CAA011201356E
:1015430045AA011201357CAF01120135B5AF011275
:101553000135F9AF011201350AB101120135BE8817
:10156300031201353489031201358C8B03120135C3
:10157300EA8D03120135088E031201352A8E0312F8
:1015830001350E8F03120135368F03120135C78FD4
:1015930003120135A89003120135B99003120135E6
:1015A30064A8031201357BA90312013598A903121C
:1015B300013569AB0312013577AC0312013507AE70
:1015C3000312013536F9011201356FF901120135A4
:1015D3009FF90112013544FA011201357DFA011216
:1015E3000135A4FA01120135B2FA01120135C0FA2C
:1015F30001120135CEFA01120135DCFA011201356F
:101603005CFB0112013574FB01120135F0FB011281
:10161300013570FC0112013595FC0112013539FDCC
:10162300011201358DFD01120135F4FD0112013561
:1016330018FE0112013580FF011201358DFF0112E1
:101643000135B1FF011201350584011201354184D1
:10165300011201356F84011201350B850112013529
:101663004885011201355C85011201353886011266
:1016730001356C86011201358486011201359C8681
:1016830001120135B486011201353B870112013580
:10169300858701120135D78701120135F3870112BE
:1016A30001353188011201355388011201357588DE
:1016B300011201351E89011201357D89011201359F
:1016C300848901120135048B011201358F8B0112BC
:1016D3000135BE8B01120135118C01120135368C97
:1016E300011201357E8C01120135C78D01120135BE
:1016F300128E01120135798E01120135C58E011248
:101703000135FF8E01120135258F01120135338F0B
:1017130001120135598F01120135E48F0112013590
:101723001A9201120135729201120135A49201122B
:10173300013543930112013512940112013573945B
:1017430001120135149501120135F9960112013583
:101753006F9701120135D097011201355598011287
:101763000135A69801120135E89801120135139944
:1017730001120135429901120135F899011201351F
:10178300109A011201350D9B011201358E9D011234
:101793000135758F04120135CB8F041201352E905C
:1017A300041201354490041201356290041201358C
:1017B300B290041201351F9B04120135A49B04123D
:1017C3000135E1D403120135D9D803120135D9FF0C
:1017D30003E066701008A3E066700A08A3E0667071
:1017E3000408A3E06622C3E7960809E7960809E719
:1017F300960809E79622C3E09608A3E09608A3E0BB
:101803009608A3E09622C008C3E096F50808A3E073
:1018130096420808A3E096420808A3E0964508709C
:1018230001D3D00822080808EAC0E0EBC0E086F044
:10183300E7A4FA180986F0E7A42AFA180986F0E75C
:10184300A42AFA180986F0E7A42AFA1986F0E7A46D
:10185300FBE5F02AFA190886F0E7A42BFBE5F03A3A
:10186300FA190886F0E7A42BFBE5F03AFA181809F1
:1018730086F0E7A4C5F02BFBE43AFA1908E7C5F0B4
:10188300C6A426F6E5F03BFBE43AFA1886F0E7A493
:10189300F6E5F00826F6E43B08F6E43A08F6D0E06D
:1018A300FBD0E0FA22E4CFC0E0E4CEC0E0E4CDC058
:1018B300E0E4CCC0E075F020E626F608E633F6084F
:1018C300E633F608E633F6181818EC33FCED33FD6F
:1018D300EE33FEEF33FFC3EC9709ED9709EE97095B
:1018E300EF97191919400FFFEC97FC09ED97FD09C4
:1018F300EE97FE191906D5F0BFECF709EDF709EEDF
:10190300F709EFF7191919D0E0FCD0E0FDD0E0FE9C
:10191300D0E0FF226016080808C6C313C618C61312
:10192300C618C613C618C613C6D5E0EA227009083E
:101933000808226016181818C6C333C608C633C66B
:1019430008C633C608C633C6D5E0EA22E627F6083A
:1019530009E637F60809E637F60809E637F622E01E
:1019630026F608A3E036F608A3E036F608A3E03629
:10197300F622E026F008A3E036F008A3E036F008EC
:10198300A3E036F022C3E697F60809E697F60809BE
:10199300E697F60809E697F622C3E096F008A3E077
:1019A30096F008A3E096F008A3E096F022E056F63E
:1019B30008A3E056F608A3E056F608A3E056F6227D
:1019C300E056F008A3E056F008A3E056F008A3E0C1
:1019D30056F022E046F008A3E046F008A3E046F004
:1019E30008A3E046F022E0F608A3E0F608A3E0F639
:1019F30008A3E0F622E6F008A3E6F008A3E6F00861
:101A0300A3E6F022E0FAA3E0FBA3E0FCA3E0FD22BF
:101A1300EAF0A3EBF0A3ECF0A3EDF022E0F8A3E0EF
:101A2300F9A3E0FAA3E0FB22E8F0A3E9F0A3EAF0CC
:101A3300A3EBF022CAC0E0E6F0A308DAFAD0E0FA9A
:101A430022CAC0E0E0A3C582CCC582C583CDC583CD
:101A5300F0A3C582CCC582C583CDC583DAE6D0E0C9
:101A6300CA22C3E498F8E499F9121AA68026C3E4BB
:101A73009AFAE49BFBE920E7E9121AA6E498F8E452
:101A830099F922C3E498F8E499F9121AA6E498F8AC
:101A9300E499F9C3E49AFAE49BFB22EB20E7CFE94C
:101AA30020E7E0B90010BB0008E88AF084F8AAF048
:101AB30022E4FBC8FA22EB70227B10C833C8C93377
:101AC300C9335007C39AC3DBF280069A50012ADB5D
:101AD300EAC833F4C8C933F4C9FA2275F008E4C874
:101AE30033C8C933C933C99AC99B5004C92AC93BEE
:101AF300D5F0ECFBC833F4C8E4C9FA22600D08C67C
:101B0300A2E713C618C613C6D5E0F322600C08C6B5
:101B1300C313C618C613C6D5E0F422700422600DA1
:101B230018C6C333C608C633C6D5E0F41822251831
:101B330010AF08F518400C15198008F51840021568
:101B430019D2AF2200C0D0251810AF08F518500CD9
:101B530005198008F51850020519D2AFD0D02225F7
:101B630018F58210AF08F518400C15198008F51800
:101B730040021519D2AF851983222518F582E43561
:101B830019F583222518F8E43519F9222518FAE402
:101B93003519FB222518FCE43519FD22E4732518B9
:101BA300C582C0E0E51934FFC583C0E0E518C395DD
:101BB3008224F810AF0885831985821880088583ED
:101BC30019858218D2AFCEF0A3E520F0A37808E6FA
:101BD30008F0A3DEFAEFF0A3E58124FAF8E608F0B3
:101BE300A3E608F0A3E608F0A30808E608F0A3E6D6
:101BF30008F0A315811581D0E0FED0E0F81581151A
:101C0300811581E8C0E0EEC0E0222518C582C0E05E
:101C1300E51934FFC583C0E0E518C3958224F910A4
:101C2300AF088583198582188008858319858218F2
:101C3300D2AFCEF0A3E520F0A37808E608F0A3DE48
:101C4300FAEFF0A3E58124FBF8E608F0A3E608F039
:101C5300A30808E608F0A3E608F0A315811581D0D0
:101C6300E0FED0E0F815811581E8C0E0EEC0E02287
:101C7300851983851882E0A3FEE0A3F5207808E0A8
:101C8300A3F608DFFAE0A3FFE0A3C0E0E0A3C0E00F
:101C9300E0A3C0E0E0A3C0E0E0A3C0E010AF08858C
:101CA30082188583198008858218858319D2AFD05D
:101CB30083D082020132851983851882E0A3FEE076
:101CC300A3F5207808E0A3F608DFFAE0A3FFE0A37A
:101CD300C0E0E0A3C0E0E0A3C0E0E0A3C0E010AF39
:101CE300088582188583198008858218858319D20F
:101CF300AFD083D08222C0D02518C582C0E0E519B9
:101D030034FFC583C0E0E518C3958224F310AF0800
:101D13008583198582188008858319858218D2AF37
:101D2300C8F0A3E9F0A3EAF0A3EBF0A37908E7096D
:101D3300F0A3D8FAECF0A3EDF0A3EEF0A3EFF0A339
:101D4300D0E0F0A3D0E0F0A3D0E0F0A3E520F0A32F
:101D5300E5F0F0A322851983851882E0C0E0A3E0B3
:101D6300F9A3E0FAA3E0FBA37808E0F608A3DFFAFF
:101D7300E0FCA3E0FDA3E0FEA3E0FFA3E0C0E0A33B
:101D8300E0C0E0A3E0F5D0A3E0F520A3E0A3F5F0E5
:101D930010AF088583198582188008858319858289
:101DA30018D2AFD082D083D0E0F8D0E03274048070
:101DB30006740280027401C0E0F404121B62D0E0D6
:101DC300121A37227404800474028000CCC0E0ED40
:101DD300C0E0E518C39CCCAD1950011D10AF068CB3
:101DE300188D1980068C188D19D2AF121A44D0E0C1
:101DF300FDD0E0FC22D083D082E9C0E0E493A3C30A
:101E030086F0C5F095F0F908E493A386F0C5F09544
:101E1300F0700BE493A3C3994005E9048002A3E4A3
:101E230075F002A42582F582E5F03583F583D0E0D1
:101E3300F9E493A3C0E0E493C0E022D083D082EC22
:101E4300C0E0EDC0E0E493A3FCE493A3FDED4C609C
:101E53000D121E8AEC24FFFCED34FFFD80EFE493AA
:101E6300A3FCE493A3FDED4C600D121EC9EC24FF0B
:101E7300FCED34FFFD80EFD0E0FDD0E0FCE493A364
:101E8300C0E0E493C0E022C0E0C3E4939608740189
:101E9300939618400FE493667008087401936618CC
:101EA30070007019A3A3C3E4939608740193961862
:101EB300A3A3400DD0E0D0E0D0E0021E7AA3A3A3F9
:101EC300A3A3A3D0E022C0E0C0F088F0E49366703F
:101ED300080874019366187000A8F0A3A3700BD0D0
:101EE300F0D0E0D0E0D0E0021E7AA3A3D0F0D0E09F
:101EF3002274F6121C0DEAFEEBFF8C088D09EE240A
:101F030034F8E43FF9E8FCE9FDEE2435122207FA40
:101F1300EE2437122207F88508F0A4C885F00A8555
:101F230009F0A4250AF9EA28F8E439F97A257B00AF
:101F3300121AA6EA8C828D83F0FA131313541FF836
:101F4300EE28F8E43FF9E8245DF582E439F583E00F
:101F5300C0E074075AF8D0E0B800028004C313D875
:101F6300FCA2E0EE50082434F582E43F80182436C6
:101F7300122207F5F0EA84A8F0EE28F8E43FF9E826
:101F83002438F582E439F583E0F97F03021CB97440
:101F9300F7121C0DEAFEEBFFEE2434122207C0E019
:101FA300EE2435F582E43FF583D0E0F08E828F8313
:101FB300A3A3A3A3A3A3A3C082C0838E828F83A35F
:101FC300A3A3A3A3E0F8A3E0F9D083D082E0C3984E
:101FD300F508A3E099F509EE247F12220764017046
:101FE3003EEE2480F582E43FF583C082C0838E8277
:101FF3008F83A3A3A3A3A3E0240108A3E03400F9E0
:10200300D083D082E0687003A3E06970127CFD7D09
:1020130004120D5AEE247FF582E43FF583E4F0AC1D
:1020230008AD09EEFAEFFB121EF4E9F9122C567F04
:1020330002021CB9C082C083851882851983E0F827
:10204300A3E0F9C3EA9CEB9D5010C3EC98ED9940D3
:102053001BC3EA98EB995014800EC3EA98EB99409E
:1020630007C3EC98ED994004790180027900D0838D
:10207300D08222EAC39CFAEB9DFB2274EF121C0D63
:102083009003C2E064086005E06407702A9061C8A9
:10209300E060249003F0E0F4601DE0F875F00BA419
:1020A300C8AAF02AF974F228FE740339FF8E828FCE
:1020B30083A3A3A3E0700302218C906060E0C0E0DF
:1020C300EE2468F582E43FF583D0E0F0750C6D757E
:1020D3000D05750800750900E5D914F50AE5D9540D
:1020E30003F50E60127403650E6043E50A600AEEA1
:1020F300246712220770028075900568E06401600E
:102103001F12220460047A0480027A00E50AC39A4B
:10211300FA95E0FB120C048A088B09EA450970055D
:10212300120FA6806412220470048A0C8B0DE50A38
:102133006012850C82850D83F50BE5D9F0A3150B91
:10214300E50B70F6122204604474FC250AF50A7844
:102153000C121DB4AC0AA90EEEFAEFFB120E1A74A0
:1021630002121B47E97026AA08AB091213F6793D40
:102173008E828F83A3A3A3A3E0FA7B00120A66EEE9
:10218300FAEFFB120D7E120E2C7900806F7403653B
:102193000E6051850A107511007810121DB4AC0C35
:1021A300AD0DAA08AB09120DDE7402121B47EE2413
:1021B3006812220764807004747F8001E0F50C7854
:1021C3000C121DB8E50EF50C780C121DB8A90AAC5B
:1021D30008AD099003F0E0FA7B00120A3C74021286
:1021E3001B4780139003C2E06408600BAC0CAD0D79
:1021F300EEFAEFFB120EA4120FB279017F0A021C52
:10220300B9EE2483F582E43FF583E02274F2121CD5
:102213000D74FC121B31EAFEEBFF8909A2AFE43314
:10222300F508C2AF0222D9E0601B780C121DB4ACD2
:102233000BA90EEEFAEFFB120E147402121B477475
:1022430004250BF50B7401250BF5D9850ED9E50B88
:102253006018F50A850C82850D83E0F5D9A3858284
:102263000C85830D150AE50A70EA75E195EE246382
:10227300F8E43FF97A007B00A2AFE433F50BC2AF79
:1022830088828983E0FCA3E0FDEC4D603A88828973
:1022930083E0FAA3E0FB8A828B83E0FCA3E0FD8862
:1022A300828983ECF0A3EDF08A828B83E4F0A3F0C0
:1022B30088828983E0FCA3E0FDEC4D700A88828963
:1022C30083A3A3E4F0A3F0E50BA2E092AF1213F60D
:1022D300900504E004F0EE2463122207F8A3E0F96A
:1022E300E8496064EE24631222072402F8A3E03471
:1022F30000F988828983E5822402F50CE43583F5AD
:102303000DE0F50BA3E0F50EEE2462122207640143
:1023130070369061D0E0F812220460047C048002DD
:102323007C007480C398FA95E0FBE50B2CF8E43449
:1023330000F9E82402F8500109C3EA98EB99A2D204
:1023430065D033400302222A900504E0604D9005D6
:1023530005E0F8900504E0C398500C740265097019
:102363003A900506E060348E828F83A3A3A3A3E093
:102373008518828519831223AE7402121B7DE8121D
:1023830023AE900503E028F07402121B97AA18AB42
:10239300197901120A90900504E4F0E508A2E0928D
:1023A300AF7404121B477F07021CB9F0A3E4F0903B
:1023B3000504E0F8228521878522C622C0E074EB5C
:1023C300121CF9A2AFE433F508C2AF759B0090610C
:1023D30082E0A2E05030E591A2E0502A7591FE74AC
:1023E3000165217021122552120EF2122540121D91
:1023F300C7122A007404121B47E9640170057901AE
:10240300120F3A12207E906182E0A2E5505DE591C1
:10241300A2E550577591DF9003C2E064076005E0C1
:102423006408702F12255274016521703E120EF25A
:10243300122540121DC7122A007404121B47E964B7
:102443000170057901120F3A7901EEFAEFFB1222BE
:102453000F8018E0640D70139003E4E004F0642827
:102463007002E4F07A00E0F9120FB8906182E0A202
:10247300E64003022515E591A2E640030225157502
:1024830091BF9003C2E064057008120EDA120EE6E3
:102493008003120EE0752100120F46E99003C3F08A
:1024A3007900120F3A120CCA7A017B009003C1E043
:1024B300F91213C6907803E06442705690056CE0FD
:1024C30014F0704EC2AF1224CC00782AD0E0F61874
:1024D300D0E0F6E59F5407F87005750DFF8003758E
:1024E3000D7FC4C0E07829E6F50A08E6550DF50B23
:1024F300740B780A121B0FD0E0250AF8906270E083
:10250300A2E740F8E8C333906272F0906270E0D2C1
:10251300E0F0906181E0A2E35009E5E9A2E3500312
:1025230075E9F7A3E0A2E75009E591A2E750037527
:10253300917FE508A2E092AF7F08021D588E828F3B
:1025430083E0F8A3E0C82416F582E438F5832290EB
:1025530003F0E0F875F00BA4C8AAF02AF974F22886
:10256300FE740339FF22C0E0C0D0C082C0839061F3
:1025730083E0A2E05009E5BFA2E0500375BFFEE08F
:10258300A2E15009E5BFA2E1500375BFFDE0A2E25D
:102593005009E5BFA2E2500375BFFBE0A2E3500977
:1025A300E5BFA2E3500375BFF7E0A2E45009E5BF1E
:1025B300A2E4500375BFEFE0A2E55009E5BFA2E531
:1025C300500375BFDFE0A2E65009E5BFA2E6500362
:1025D30075BFBFD083D082D0D0D0E032C0E074F2D8
:1025E300121CF9E5A7A2E6500FE5A1A2E650095394
:1025F300A7BF75A1BF122633E5A7A2E5500CE5A13D
:10260300A2E5500653A7DF75A1DFE5A7A2E15009B4
:10261300E5A1A2E1500375A1FDE5A7A2E2500CE5F7
:10262300A1A2E2500653A7FB75A1FB7F01021D582F
:1026330074F7121C0D7521019003C2E06406701536
:10264300120E508A828B83A3A3A3A3A3A3E0FAA3AE
:10265300E0FB120EC8A2AFE433FED2AF9003C8E092
:10266300640170187A207B009003C1E0F91214F81A
:102673007A207B009003C1E0F91213CC906182E0D1
:10268300D2E6F0900569E0602185C62280169003AA
:10269300C7E064017008E5C654F84405F5C653BEA7
:1026A300FC1223B87401652160E4EEA2E092AF7FCF
:1026B30002021CB9008E238F2485822885832785F7
:1026C3001882851983E0CEA3E0CF852882852783EE
:1026D300EBC9EAC8EDCBECCA75F010C3E833C8E91F
:1026E30033C9EA33CAEB33CBC3EA9EF526EB9FF536
:1026F30025B35004AB25AA26EC33CCED33CDD5F06E
:10270300DAAE23AF242274E9121C0D74FA121B31C2
:10271300EAFEEBFF8C0A8D0B120EFEEAF8EBF9ECE6
:10272300FAEDFB8E828F83121A2B9003C2E024F7FB
:10273300C394055006751401022870120E508A08BE
:102743008B09EA4509700302286DEEFCEFFDAA1818
:10275300AB19120EF8850882850983A3A3780C129E
:1027630019E9908323780C1219B08518828519838F
:1027730078101219E990832378101219B0780C7924
:10278300101217E9501F780C7910121988908333AF
:10279300780C1218094047850C14850D15850E1603
:1027A300850F178045908333851014851115851285
:1027B300168513177814790C1219887814121809CE
:1027C300501C7514007515007516007517017814E3
:1027D30079101219887814790C12194F800C75141A
:1027E3000175150075160075170074097814121910
:1027F30030908377780C1219E97814790C1218A8A1
:10280300850882850983A3A3A3A3A3A312288E12F9
:102813001AA6880C890DE4F50EF50F7814790C12BD
:10282300194F7404121B7D12288E121AA6E8FA8A15
:102833000CE4F50D7814790C1217E9500778147924
:102843000C1219889003C2E06408600AE064066011
:1028530005E064057020908343781412180950161C
:1028630090833F7814121962800C7514007515005B
:10287300751600751700850A82850B837814121963
:10288300F87406121B477F10021CB9E0F8A3E0F9A5
:102893007AD07B032274F7121C0D120F1090056778
:1028A300E064017010906245E4F0A3F053F4F34345
:1028B300FE0C5390F3120EB6E5C654B84441F5C668
:1028C300E59E5447644170F8906185740FF090055C
:1028D30065E0F47002A3E0604E900566E0600814C2
:1028E300601B14602E804075080175090090056512
:1028F300E07808121B1EE508F45280802A7508014F
:10290300750900900565E07808121B1EE508F4526E
:10291300908014750801750900900565E078081228
:102923001B1EE508F452A079007F02021CB974F75C
:10293300121C0DE9FEEAFF120F1074016E700C7A7F
:10294300807B009003C1E0F91213C6902D70E493CD
:10295300F46008E493F9120CBE800953C6B8E59EEF
:10296300544770FA120EBC900567E06401700312BD
:102973000CDC900565E0F47002A3E0604B90056603
:10298300E0600814601A14602C803D750801750915
:1029930000900565E07808121B1EE5084280802838
:1029A300750801750900900565E07808121B1EE59E
:1029B3000842908013750801750900900565E07859
:1029C30008121B1EE50842A0120E508A088B09A8A4
:1029D30008A909E8496014E5E170FCE82414F582CC
:1029E300E439F583E0F46003E0F5E174016F700A04
:1029F3007A019003C1E0F912145C02292C74F112DC
:102A03001C0D8A088B098C0A8D0B9083237808127E
:102A130019B0740F121B7D780C1219E99083237877
:102A23000C1219B07808790C1217E99083335010FF
:102A33007808790C12198878081218094014800E46
:102A4300780C7908121988780C1218095004790146
:102A5300800279007F08021CB974ED121C0D8A08EC
:102A63008B098C0A8D0B90832378081219B0741389
:102A7300121B7D780C1219E9908323780C1219B07C
:102A8300780C79081217E940117808790C12198823
:102A9300AA08AB09AC0AAD0B8022751000751100B2
:102AA3007512007513017810790C12198878107952
:102AB3000812194FAA10AB11AC12AD137F0C021CF4
:102AC300B990832378081219E98A828B83780812D4
:102AD30019C37F04021CB974F5121C0D8C828D83FB
:102AE30078081219E98A828B83780812199C122BB1
:102AF30032C3E09CF0A3E09D122B24402290834F2D
:102B030078081219E98A828B8378081219758A82E8
:102B13008B83A3A3A3A3E02420F0A3E0344EF0808F
:102B2300A0F088828983C3E09420A3E0944E22EA34
:102B33002404F8E43BF98C828D83A3A3A3A3E0FCD4
:102B4300A3E0FD888289832274F5121C0DE9FE90AF
:102B5300051FE0FAA3E0FBEE29F8E433F9743F28FC
:102B6300F582748239F583E02AF508A3E03BF50981
:102B73007808121DB4908347121A071226B87402FC
:102B8300121B478A088B098C0A8D0B741078081264
:102B93001917AA08AB097F04021CB974F1121C0DA2
:102BA3008A0C8B0D8C0E8D0F7411121B7D121DCB95
:102BB3007411121B7DE02401F508A3E03400F5092C
:102BC300E4F50AF50B780C79081218289083277816
:102BD300081219E9780C7908121828AA0CAB0DAC65
:102BE3000EAD0F1226B87402121B478B09EA450972
:102BF30060047A0180027A00EC2AFCE43DFD741340
:102C0300121B7DE0F8A3E0F9E8FEE9FFECF8EDF92B
:102C13007A717B02121AA688088909E4F50AF50B72
:102C23008E828F8378081219F8ECF8EDF97A717BAC
:102C330002121AA68A088B0974057808121B1E8EC5
:102C4300828F83A3A3A3A3E508F0A3E509F07F087C
:102C5300021CB9C082C083E9906000F0D083D082A7
:102C630022C0E0C0D0E8C0E0E9C0E0A2AFE433F89E
:102C7300D2AFC2C7751A00E8F9E8A2E092AFD0E07C
:102C8300F9D0E0F8D0D0D0E032C2AF02000022C0C9
:102C9300E074F2121CF9A2AFE433FED2AFE58AA2CC
:102CA300E55024901609E0701E90836F121DC77AB9
:102CB300087B009015F8E0F91214EC7404121B471A
:102CC300E99016097401F09018C2E0640170309025
:102CD30018C1E0702AE58AA2E6502490160AE07033
:102CE3001E90836F121DC77A007B089015F8E0F9D8
:102CF3001214EC7404121B47E990160A7401F07560
:102D03008A00C2EBEEF8EEA2E092AF7F01021D58FB
:102D1300C0E0C0D0E8C0E0E9C0E0EAC0E0C082C0E3
:102D2300839018C37400F0AAC1EAC0E09017C2E010
:102D3300F8790074C328F582741739F583D0E0F06D
:102D43009017C2E02401F09017C2E064FA700353B5
:102D530086BF9017C17402F0C28BD083D082D0E0BB
:0C2D6300FAD0E0F9D0E0F8D0D0D0E03297
:102D7000FFFFFFFFFFFFFFFFC082C083E9901989BB
:102D8000F0D083D08202013274F6121BA1E99003C5
:102D900034F0900394E0F508750900740278081285
:102DA0001B1EAA08AB0912144490033512373B903E
:102DB0000335123B28606F900394E075F003A4FA8A
:102DC000ABF012144490035212373B900352123B63
:102DD00028700B900335123AF912144A8048900378
:102DE00052124A8D7AFF7BFF1212A07A0080198A54
:102DF0000875090074027808121B1E12453574FF0D
:102E0000122F3BE4F0A3F00A900394E0F8EAC39891
:102E100040DD790512092E900334E0F912081A7A80
:102E2000B87B09120BA40245D874F4121BA18A08BE
:102E30008B09EB54806047900334E0F91213AE8A9B
:102E40000A8B0BAE0AAF0BEE4F602A8E828F83E0A7
:102E500064B0701A120940E960148E828F83A3A3B4
:102E6000A3A3E0F9EE2405FAE43FFB120910EEFA01
:102E7000EFFB12139CAA08E5096480FB80047A002A
:102E80007B0002308B74F2121BA174FB121B31EA1F
:102E9000FEEBFFEE4F60457403121B7DEEF0A3EFD7
:102EA000F0851882851983ECF0A3EDF07402121BF3
:102EB0007DE9F0AA18AB19120814E9F508707574C9
:102EC00013121B7DE0F50AA3E0F50BE50A450B6044
:102ED000638E828F831234C4EE4F700575080280B2
:102EE000537A067B001214448A0C8B0DA80CA90D92
:102EF000E8497005750813803B88828983E4122FA6
:102F00003BEEF0A3EF123057E50AF0A3E50BF0908B
:102F100003381230509003386017E0FCA3E08003C0
:102F2000EAFCEBFD8C828D8312305070F38C828D25
:102F300083124150A9087405024D0DF0A3124A6F87
:102F4000A32274F2121BA18908890C750D00740369
:102F5000780C121B1E850C0A850D0B900337F09020
:102F60000335123F5B12304E602E12144A790080F6
:102F70001D890C750D007402780C121B1E90033510
:102F80001243F48882F583A3A3E4F0A3F00990032D
:102F900094E0F8E9C39840D9900394E0FA850AF0E8
:102FA000A4CAA8F0850BF0A428FB1214448A0C8B49
:102FB0000DAE0CAF0DEE4F7003023044900394E061
:102FC000FC850AF0A4CCA8F0850BF0A428FD7900BC
:102FD00012138A7C0080318D0C750D007403780CFF
:102FE000121B1E8A828B8312304988828983E4F007
:102FF000123056A3A3F0A3F00DEDC3950840D8EE10
:10300000250AFEEF350BFF0C900394E0F8ECC39813
:1030100050288C0C750D007402780C121B1E900346
:1030200035123049E82402500109FAE9FB8A828B03
:1030300083EEF0A3EFF07D0080BFE508900337F04A
:10304000790080027913024D101243F8F922A3A3EC
:10305000123AFDEA4B22A3124A6FA3A3A32274F4EF
:10306000121BA17900EAA2E0501F7508E3750982DE
:103070007808121DB479107C047D007A8B7B1912BC
:1030800009287402121B47E9F980007F04021C73AF
:10309000C082C083900338123B28601C88828983D9
:1030A000A3A3E06A7003A3E06B8882898370E8A31E
:1030B000A3A3A3123AF980047A007B00022D817445
:1030C000F2121BA174FD121B31EAFEEBFF85188280
:1030D000851983E4F0A3F07402121B7D7401F012D1
:1030E0003B257014120ADE12144490033B12373B46
:1030F000123B25700302325112383BEE2404F50ACC
:10310000E43FF50B850A82F583E024FE603C24FC55
:10311000607424FE607E24FE70030231A124FE70E0
:10312000030231AE24FE70030231BB24FE700302A1
:1031300031C824FE70030231D524FC70030231F63D
:1031400024FE700302320E02324A120ADE90033D60
:10315000EAF0A3EB12325D12055CE9600302324A29
:1031600090033D121DCB8E828F83A3A3A3A3A31232
:103170004A8D850882850983123AF91208F874028B
:10318000121B4702324AAC18AD19EEFAEFFB1209D6
:1031900046023219AC18AD19EEFAEFFB12094C8059
:1031A00078AC18AD19EEFAEFFB120952806BAC182F
:1031B000AD19EEFAEFFB120958805EAC18AD19EEAE
:1031C000FAEFFB12095E8051AC18AD19EEFAEFFB75
:1031D00012096480447402121B87880C890D780CD4
:1031E000121DB47402121B97EEFAEFFB12096A74F7
:1031F00002121B478023AC18AD19EEFAEFFB12093F
:1032000070E9F870167402121B7DE4F0803CAC1873
:10321000AD19EEFAEFFB120976E9F8E8602C8E8220
:103220008F83A3E064146022850A82850B83E0907B
:10323000033DF0851882851983123AF990033E12F6
:10324000373BE8A312325D120556EEFAEFFB120887
:10325000CE7402121B7DE0F97403024D0DF07C3D2B
:103260007D03850882850983123AFD2274E8121BCA
:10327000A174FA121B317404121B7DECF0A3EDF063
:103280008A128B13EA2405F50EE43513F50FEA24B0
:1032900002F510E43513F511851082F583123AF921
:1032A00012064C8A0A8B0B7508007C037D0079009E
:1032B0007A3D7B0312138AE50E2402F516E4350FDE
:1032C000F5177402121B87880C890D780C121DB437
:1032D000850E82850F83A3A3A3A3E0F50C750D00D3
:1032E000780C121DB4E50E2405F50CE4350FF50D30
:1032F000780C121DB4851682851783123E001208C1
:10330000327406121B478A0C8B0DE50C450D7003B9
:1033100002348D8020851882851983E08882898314
:10332000F00508851882851983A3E0C0E01234CE29
:10333000D0E0F00508E50A24FBFAE50B34FFFBC3F7
:10334000E5089AE49B400302348D7E007F008512DD
:1033500082851383A3A3A3A3E0F5097809121DB8FE
:10336000E4F514F5157814121DB475143A751503A7
:103370007814121DB490033B121DCB7409121B7DEF
:10338000121DCBE50A24F9F9AC0CAD0D8510828530
:103390001183123AF91209A07409121B47E960035C
:1033A00002342E850E82850F83A3A3A3A3A3A3A318
:1033B000E0F890033AE0687075E0F5148E15781423
:1033C000121DB4124A8A850E82850F83A3A3A3A37C
:1033D000A3A3A3A3123AF91213847402121B47E9A0
:1033E000604C90033E123B28703BE4F514781412B5
:1033F0001DB47CFF7DFF7907851082851183123A09
:10340000F912090A7402121B47123B2E7017850E1F
:1034100082850F83124C277404121B7D1244E8121C
:103420003E310234C1850C82850D831234C4A81844
:10343000A919881489157814121DB47404121B7DFF
:10344000121DCB85168285178312373112083E7400
:1034500004121B478A0C8B0DEE4F700302330A12C5
:1034600034CEEE1234D9123DE7EF1234D9F8A3E08E
:103470003400F9E50C450D60030233158882898319
:1034800074FFF005081234CE74FFF00508E50860FB
:103490001A1313543F123741120568E9600990036B
:1034A0003E123AF91213F679008016850E82850FC6
:1034B00083124C277404121B7D1244E81241507988
:1034C0000A023DBAA3A3A3A3E0FEA3E0FF22A8083B
:1034D00090033EE028123DE722F005080890033EE5
:1034E000E0282274E8121BA174FA121B3174021234
:1034F0001B7D12373B7404121B7DECF0A3EDF074BE
:1035000002121B7DE02405123DD0E0F50CA3E0F58E
:103510000D7402121B7DE02402F510A3E03400F5C7
:1035200011851082F583123AF912064C7508007560
:103530000900EA24FCFEEB34FFFF8008050CE50CD3
:103540007002050DA808C3EE98EF940050030236F0
:10355000EDA818A919880E890F780E121DB48514CC
:1035600082851583A3A3A3A3124A91121DB4E51467
:103570002405F50EE43515F50F780E121DB48514EB
:103580008285158312372F1208327406121B478A60
:103590000E8B0FEA450F70030236EDEA2404F51690
:1035A000E4350FF517851682F583E0F50CA3E0F5F9
:1035B0000D851882851983124A8D8A828B83A3A375
:1035C000A3E0F9851082851183123AF9120820E9E7
:1035D000F50960030236ED7402121B7D123DF7F50A
:1035E000097809121DB8E4F512F5137812121DB40A
:1035F00075123A7513037812121DB490033B121D15
:10360000CB7407121B7D121DCBEEF9AC0EAD0F85EE
:103610001082851183123AF91209A07409121B470E
:10362000E9F50960030236EDE508703FE4F50EF5B3
:103630000F780E121DB47CFF7DFF790985108285FD
:103640001183123AF912090A7402121B47123E1D25
:10365000700D7404121B7D123724791102372190EA
:10366000033AE0240290033EF0801490033EE0FA17
:1036700090033AE0790024025001096A497072A867
:103680000890033AE0FAE82AFAE43400FBEE9AEFF5
:103690009B405A851682851783E0C0E090033F1255
:1036A00034D3D0E0F00508851682851783A3E0C0E7
:1036B000E00890033F1234D3D0E0F0050890033ABD
:1036C000124A91121DB4124A8AA808123DC412135C
:1036D000727402121B4790033AE02508F50874FF44
:1036E000650C700474FF650D600302353CE50860ED
:1036F0001F90033EE0F5F0E5088412374112056E95
:10370000E9600990033F123AF91213F6790080112B
:10371000E509700375090A7404121B7D123724A988
:1037200009023DBA123F5FE50CF0A3E50DF022A3BC
:10373000A3124D1CAA0CAB0D22A3A3EAF0A3EBF03D
:103740002290033DF07C3D7D03851082851183121C
:103750003AFD2274EC121BA174FC121B3112426060
:103760007402121B97123AF31208388A0C8B0DEA76
:10377000450D700302382B12383BA818A919881080
:1037800089117810121DB47CFF7DFF790B850882AA
:10379000850983123AF912090A7402121B47123979
:1037A00031700C850A82850B83123E2E0238388ECA
:1037B000828F83A3A3A3A3E0F5127812121DB8E4AD
:1037C000F512F5137812121DB475123D75130378B6
:1037D00012121DB47810121DB47409121B7D121D33
:1037E000CB7409121B7DE0F9AC0CAD0D8508828508
:1037F0000983123AF91209A07409121B47E9FE70F5
:10380000157C3D7D03850882850983123AF91205EE
:1038100074E97009802074166E70027E0090033E79
:10382000123AF91213F6EE7004800B7E01850A82BB
:10383000850B8312414DEEF9024162EE2402F50838
:10384000E43FF5092274EC121BA174FC121B31EA4F
:10385000FEEBFF8C0E8D0FEE2405F508E43FF50915
:103860007402121B97850882850983123AF912089F
:10387000388A0C8B0DEA450D7003023921EE2402C3
:10388000F50AE43FF50BA818A919881089117810DA
:10389000121DB47CFF7DFF790D123AF312090A74F0
:1038A00002121B47123931700B8508828509831279
:1038B0003E2E807A8E828F83A3A3A3A3E0F5127895
:1038C00012121DB8850882850983A3A3121DCB752A
:1038D000123D7513037812121DB47810121DB474C2
:1038E00009121B7D121DCB7409121B7DE0F9123ADF
:1038F000EF1209A07409121B47E9FE700F7C3D7D91
:1039000003123AF312057AE97009802074166E707A
:10391000027E0090033E123AF91213F6EE70048014
:103920000B7E0185088285098312414DEEF9024123
:1039300062123B38F510A3E0F511EA45112274E854
:10394000121BA174FE121B318A168B178C148D1555
:10395000EA2405F50CE43517F50DEA2402F50EE42A
:103960003517F50F850E82F583123AF912064C8A47
:10397000088B09750B007C037D0079007A3D7B0381
:1039800012138A750A00E50814F5100424FFF508DF
:10399000E50934FFF509805490033DE0FA90033ABD
:1039A000E0F8EA28F8E43400F9E50898E5099950C8
:1039B0000D90033DE0F8E510C39890033AF0E0F570
:1039C000127513007812121DB4124A8A90033EE059
:1039D0002AFAA3E03400FB1213727402121B479000
:1039E000033AE0F890033DE028F0050A850C828553
:1039F0000D83A3A31244044003023AD490033DE094
:103A0000C39508E495094003023AD4AE0AEE2EFEAF
:103A1000E433FF123B13AC18AD19124AA5E439FB8D
:103A20001208388A128B13AC12AD13EC4D701B7553
:103A30000B01123B0312415190033E1230506003C0
:103A40001213F6A90B7402023DBC851682851783FA
:103A5000A3A3A3A3E0F50B780B121DB8E4F512F5B0
:103A6000137812121DB475123A7513037812121DD1
:103A7000B490033B121DCB7407121B7D121DCBA902
:103A800010850E82850F83123AF91209A07409126B
:103A90001B47E9F50B709B90033E123B2860030225
:103AA0003998E4F512F5137812121DB47CFF7DFFEE
:103AB000790F850E82850F83123AF912090A740272
:103AC000121B47123B2E6003023998123B03123E31
:103AD00032023A457C3D7D03850E82850F83123A82
:103AE000F9120580E96003023A387900023A45ACE0
:103AF0000CAD0D850A82850B83123AFD22E0FAA3F4
:103B0000E0FB22123B13E0FAA3E0F9EA8514828578
:103B1000158322850C82850D83E02EF8A3E03FF902
:103B2000888289832290033B124C2BE84922123B66
:103B300038F8A3E0F9E8492290033EEAF0A3EBF05D
:103B400090033EE02274E8121BA174FA121B317438
:103B500004121B7D12373B8C168D177404121B7DCB
:103B6000E02405F50EA3E03400F50F7404121B7D6C
:103B7000E02402123DD0123AF912064C8A0A8B0B4D
:103B80007F007E00A818A919880889097808121DE5
:103B9000B4850E82850F83A3A3A3A3E0F5088E0945
:103BA0007808121DB4E50E2405F508E4350FF50973
:103BB0007808121DB4850E82850F83A3A3123E00E0
:103BC0001208327406121B478A0C8B0D8029123D95
:103BD000F1F00F123DF1F00F90033A12413C121D2B
:103BE000B4124A8AEFF8123DC41213727402121B07
:103BF0004790033AE02FFFE50C450D7003023C802F
:103C0000851882851983124272A3A3A3E0F9851453
:103C100082851583123AF9120820E9FEE50C240486
:103C2000F510E4350DF511EE70507404121B7D1281
:103C30003DF7F5087808121DB8E4F508F50978088D
:103C4000121DB475083A7509037808121DB4900363
:103C50003B121DCB7407121B7D121DCBE50A24FA03
:103C6000F9AC0CAD0D851482851583123AF9120951
:103C7000A07409121B47E9FE6039123E0D12415033
:103C8000EF7003023DA790033EE0F5F0EF84900350
:103C90003DF07C3D7D03851482851583123AF9122F
:103CA0000586E9600990033F123AF91213F679008C
:103CB000023DBA8F08EF703BE4F512F5137812124B
:103CC0001DB47CFF7DFF7911851482851583123A1E
:103CD000F912090A7402121B47123E1D7009123EA6
:103CE0000D123E31023DBA90033AE0240490033EA7
:103CF000F0803590033AE0F890033EE0FAE82404BF
:103D0000FCE43400FDEC6A4D6003023C86E50A24C5
:103D1000FAFAE50B34FFFBE50828F8E43400F9EA89
:103D200098EB995003023C86851082851183E0C090
:103D3000E090033FE02FF8A3E034008882F583D0C1
:103D4000E0F00F851082851183A3E0C0E0123DDE14
:103D5000D0E0F00F7402121B8788088909780812D6
:103D60001DB47402121B7D121DCB850E82850F833C
:103D700012372F12083E7404121B478A0C8B0DEA6F
:103D8000450D7003023BCE7402121B7DE0C0E012B1
:103D90003DDED0E0F00F7402121B7DA3E0C0E01204
:103DA0003DDED0E0023BD6EE70027E0A850E8285B3
:103DB0000F83123E13124150EEF97406121B477F17
:103DC00010021C7390033FE028FAA3E03400FB22AA
:103DD000F514A3E03400F515851482F58322123D15
:103DE000E22290033FE02FFAA3E034008A82F583B9
:103DF00022123DE274FF22123F5FA3A3A3A3E0229D
:103E0000124D1C850E82850F83123AFD2285108289
:103E1000851183124C2B8516828517832290033FD0
:103E2000EAF0A3EBF090033F124C2BE84922124139
:103E300056E8F0A3E9F079112274EA121BA174FE8E
:103E4000121B318A088B098C128D13EA2405FEE4BB
:103E50003509FFAC18AD198E828F83123AF912081A
:103E6000388A0C8B0DEE2406F50EE43FF50FEA457B
:103E70000D7003023F31E5082402F50AE43509F527
:103E80000B8A828B83A3A3A3E0A2E5502885188226
:103E9000851983123AF91209948A108B11EA451197
:103EA00060207912123AEF851082851183121B9FD0
:103EB000E9F50C707F850E82850F83E060097952E9
:103EC0008011750C0E806D850882850983A3A3A3DC
:103ED000A3E0F9E4F508F5097808121DB48E828F85
:103EE00083A3A3E0F5087808121DB48E828F83A304
:103EF000A3A3121DCB8E828F83124A8D123AF31226
:103F000009A67406121B47E9F50C7011850E82850F
:103F10000F83E0702D123AF312058C80257416651C
:103F20000C7011750C007418121B7D123F5BE4803D
:103F300010750C01124C23851282851383E8F0A3BF
:103F4000E9F0850E82850F83E0600479008002A984
:103F50000C7402121B477F0E021C73123F5F22E09B
:103F6000F8A3E0F58388822274EC121BA174F71287
:103F70001B318A0A8B0B8C108D11EA2405FEE43567
:103F80000BFF750C00AC18AD198E828F83123AF9B5
:103F90001208388A088B09EA45097003024127E5AF
:103FA0000A2402F50A5002050B8A828B83A3A3A37D
:103FB000E0A2E5502F851882851983123AF912097B
:103FC000948A0C8B0DEA450D604F7912AC08AD094F
:103FD000123AF3850C82850D83121B9FE9F50C6064
:103FE0000302412A850A82850B83E0F508A3E0F5E8
:103FF00009AA08FB120988EA4B70197AFF7BFF12A5
:104000000988EA4B700302411D8A828B83E508F020
:10401000A3E509F07508008008750C0E02412A0519
:1040200008900337E0F8E508C398400302411D8576
:10403000080E750F007403780E121B1E8A828B8384
:10404000A3A3E0250EF8A3E0350F1244F170D08E43
:10405000828F8312414512373B8E828F83A3A31236
:104060004145123739EE2404F508E43FF509850887
:1040700082F583E088828983A3A3A3A3F0A3E4F05D
:10408000EE2405F50EE43FF50F850E82F58312410F
:1040900045A3A3A3A312373975120775130078122D
:1040A000121DB4EEFCEFFD7404121B8F1213727418
:1040B00002121B47E4F5127812121DB4850882859E
:1040C0000983E0FC7D007917123AF312090A7402A1
:1040D000121B477407121B7D12373B7407121B7D9E
:1040E000E0FA4B603D85088285098312413C121D30
:1040F000B4850E82850F83124A8D121372740212D8
:104100001B477402121B97123AF3120592E96026BC
:104110007407121B7D123AF91213F68019750C09F7
:104120008008750C118003750C01124C23851082D8
:10413000851183124150A90C74098028E0F5087597
:104140000900780822123AFD88828983221241569A
:10415000E8F0A3E9F022E0F8A3E0F9850E82850FEC
:1041600083227404121B477F0C021C7374EC121B15
:10417000A1124260751000EE2402F50CE43FF50D2B
:10418000850C82F583123AF91209888A088B09EAAC
:1041900045097003024244850A82850B83E064016D
:1041A0006003024239AC08AD09AA0AAB0B12097CC4
:1041B000E9606E8508828509831234C6EE2406F50F
:1041C0000AE43FF50B8E828F83A3A3121DCB8E8250
:1041D0008F83A3A3A3A3121DCB850A82850B831211
:1041E0001DCB79188E828F83124272123AF912090E
:1041F000A67406121B47E9F8741668700B850A82CC
:10420000850B83E4F0A38014E860128E828F831202
:104210003AF9850E82850F83EAF0A3EBF0881080CF
:1042200018780E121DB4AC08AD09EEFAEFFB1209B6
:10423000827402121B47E9F510AA08AB0912098E15
:10424000E510700E850C82850D83123AF9120598DF
:104250008009741665107003751000A9100241677B
:10426000EAFEEBFF8C0E8D0FEE2405F50AE43FF518
:104270000B22124D1C850C82850D832274EA121BC1
:10428000A17508007509007E007F00750A00EC2406
:1042900002F510E43DF5118035EC65087003ED651D
:1042A00009600302433188828983A3A3E06A700313
:1042B000A3E06B707C88828983A3A3A3A3124C27FD
:1042C000EE28FEEF39FFEA28FAEB39FB050A124423
:1042D00001503A850A0C750D007403780C121B1EF0
:1042E0008510828511831243F41244F1601FE508A2
:1042F000450970A58C088D09888289831234C48889
:10430000828983A3A3E02EFAA3E03F80BEE50AC31F
:10431000940250030243EF750800750900EE4F60E8
:1043200010EEFAEFFB1213F08A0E8B0FEA450F70B6
:104330000579000243F1750B000243C4850B0C752F
:104340000D007403780C121B1E851082851183E00A
:10435000250CF50CA3E0350DF50DE50C2406F51440
:10436000E4350DF515851482F5831244F66042E5B7
:104370000C2404F512E4350DF513851282F5831231
:104380001DCBE50E2508FAE50F3509FB12137274F3
:1043900002121B47851282851383E02508F508A3C6
:1043A000E03509F509851482851583123AF912134F
:1043B000F6E50B600D7C087D007900AA0CAB0D12B0
:1043C000138A050BE50BC3950A500302433C851085
:1043D00082851183124C2788828983A3A3A3A3A378
:1043E000A3E50EF0A3E50F123057EEF0A3EFF0793E
:1043F00001023F561243F822E0250CF8A3E0350DE8
:1044000022900337E0F8E50AC3982274F0121BA14A
:104410008A0E8B0F8C0A8D0B750D00750C00805069
:104420007916EE2406F508E43FF5098E828F83A302
:10443000A3121DCB8E828F83A3A3A3A3121DCB85B2
:104440000882850983121DCB850E82850F83A3A365
:10445000123AF91209A67406121B47E9F50D7416F3
:10446000650D706C850882850983E4F0A3F0050C66
:10447000900337E0F8E50CC3985066AA0C8A0875DB
:10448000090074037808121B1E850A82850B83A31A
:10449000A3124540E8FEE9FF8E828F831244F66046
:1044A00040EA2401F508E43400F509900337E0659B
:1044B000087002E509601488828983A3A3A3A3A3DB
:1044C000A3A3A3123B2860030244207918024422CC
:1044D000E9609B124C237410121B7D1244E81241B8
:1044E00050A90D7F08021C73E0FAA3E0F5838A82CD
:1044F00022F988828983124D1CEC4D2274F6121B1E
:10450000A17C0080010C900394E0F8ECC398501E4D
:104510008C0875090074027808121B1E124535E0DC
:104520006A7003A3E06B70DDE8FAE9FB80047A00AF
:104530007B000245D890033512454088828983224A
:10454000E02508F8A3E03509F92274F2121BA18ACC
:10455000088B09750A0080278E828F83A3A3A3A3EB
:1045600012304E60031213F67C087D007900EEFADB
:10457000EFFB12138A8E828F83E4F0A3F0050A12F8
:1045800044015027850A0C750D007403780C121B2A
:104590001E850882850983A3A3E0250CFEA3E035D0
:1045A0000DFF8E828F83123B2870AD8508828509AE
:1045B0008374FFF0A3F0024D1074F6121BA11209D0
:1045C0003A8A828B83E582458370067A007B00807D
:1045D00007A3A3A3A3123AF97F02021C7374F41277
:1045E0001BA189088C828D83E06402703C124BC64B
:1045F000FEA3E0F9EEF8740268700374296970296B
:10460000750A02750B00780A121DB47410121B7D16
:10461000121DCB7410121B7D121DCBA9081212B2F1
:104620007406121B47E9F98002790102308B74E8A5
:10463000121BA174FB121B31E9851882851983F0C6
:104640008A168B17ECFEEDFF7510008E828F83A308
:10465000A3A3E0A2E4502D741D121B7D123AF9129F
:1046600009948A828B83E58245837003024A6579C7
:104670000AEEFCEFFDAA16AB17121B9FE9F51060BE
:1046800003024A68741F121B7DE0F508A3E0F509D8
:104690007421121B7DE0F50AA3E0F50B7423121BB5
:1046A0007DE0F50EA3E0F50F8E828F83E06402605B
:1046B00003024A06A3124C27850882850983A38535
:1046C0008212858313EE2406F50CE43FF50D8882F3
:1046D0008983124AA5F514E439F5157814121E3EA3
:1046E000010000280128084707000228CD470328B9
:1046F0003B470029FC48012927490229C8480329CA
:10470000FC480429A049064AE50E450F6003024A09
:1047100001850C82850D83124C27E8FAE9FB8A8219
:104720008B83E0850A82850B83124AB0121DB48AFE
:10473000828B83A3E0FCA3E002498AE50E450F606B
:1047400003024A01850A82850B837401F0124A9A9A
:10475000850882850983F07C007D008E828F83A38B
:10476000A3A3A3E02401FAA3E03400FB120838EA73
:104770004B60408A828B83E02402F8850A82850B95
:1047800083E028F0EA2404F8E43BF988828983E096
:10479000851282851383124ABE124AB0121DB48A52
:1047A000828B83A3124A8DE5082403FAE43509FBC2
:1047B00002498F850A82850B83E02404F07C047D06
:1047C000007900AA12AB1312138A024A68E50E455B
:1047D0000F6003024A01124A9AFEA3E0FF850A8293
:1047E000850B837404F0EE850882850983F0EF85DC
:1047F0001282851383F07403121B97EEFAEFFB12FB
:1048000008388A0C8B0DEA450D70030248AB8A828A
:104810008B83A3A31234C47401121B87880E890FE3
:10482000780E121DB47405121B7D121DCB7CFF7D0A
:10483000FF12083E7404121B478B0FEA450F7033BA
:10484000850C82850D83124A91121DB4850C8285D8
:104850000D83A3121DCB7C027D007AE57B831206BB
:104860003A7404121B47E9700A7401121B7D74FF2D
:10487000F0A3F08E828F83E064027039750C0275AC
:104880000D00780C121DB48E828F83A3124A8DE521
:10489000082404FAE43509FB1213727402121B4750
:1048A000850A82850B83E0240280097401121B7D36
:1048B000EEF0A3EFF07401121B7D124A7F74011217
:1048C0001B7D124A760249FBE50E450F6003024A42
:1048D00001850C82850D83124D15AA16AB17121295
:1048E000B8850A82850B837402F085088285098366
:1048F000EAF0851282851383EB0249FEE50E450F2F
:104900006003024A01124A9AF8A3E0F9850A8285F7
:104910000B837402F0E8850882850983F0E985122B
:10492000828513830249FE850C82850D83123AF934
:1049300012136CEAFAF8C3950EE4950F405CE86533
:104940000E450F70047A008021851882851983E056
:10495000FCE50E2CFCE4350FFDC3EC98ED94005003
:1049600003E08005E50ECAC39AFAEA850A82850B40
:1049700083F08A0A750B00780A121DB4850C8285B3
:104980000D83E0250EFCA3E0350FFDAA08AB09124C
:1049900013727402121B47024A68751007024A68B4
:1049A000E50E450F705B850C82850D83124C2785C3
:1049B0000A82850B837407F088828983124A7712F2
:1049C0004A6FE0851282851383F0E82402FAE43905
:1049D000FB8A828B83124A7F8A828B83124A76A358
:1049E000A3123056124A84F0E82405F850010988D1
:1049F000828983124A84A3124ABEA3A3A3A3F08090
:104A00006775100B8062741D121B7D123AF9120932
:104A10003A8A828B83E5824583604A124C27880C50
:104A2000890DE8450D603E7425121B7DE0F5107878
:104A300010121DB8780E121DB4780A121DB4780831
:104A4000121DB47407121B7DE0F9EEFCEFFDAA16EF
:104A5000AB17850C82850D83121B9F7407121B47B1
:104A6000E9F510800375100EA9107405023DBCF025
:104A700088828983A322A3E0850882850983221284
:104A80004AC5F022124AC5A3A32290033B124D1C33
:104A900022E0F50E750F00780E22850C82850D83BD
:104AA000123F5FE022E0FAA3E0F8E4C8F9EA282226
:104AB000F08A828B83E0F50A750B00780A22124A8D
:104AC0006F124AC522E0850882850983A3A3227458
:104AD000EE121BA174FE121B318A088B09ECFEED4D
:104AE000FF890AAC18AD19EEFAEFFB1208388A0CF0
:104AF0008B0DEA450D7003024BB78518828519832B
:104B0000123AF912093A8A828B83E582458370034F
:104B1000024BB2A3A3124C27880E890FE8450F70F1
:104B200003024BB27414121B7DE0F510A3E0F511E3
:104B3000E50AF50B780B121DB87419121B7D121DB6
:104B4000CB7810121DB4741B121B7DE0F9AC0CADB8
:104B50000DAA08AB09850E82850F83121B9F740571
:104B6000121B47E9F50B705274FE650A604C850C08
:104B700082850D83E064027041124BC6FAA3E0F90E
:104B8000EAF87402687003742969702E85108285B2
:104B90001183124AA5F50CE439F50D780C121DB4F9
:104BA000EEFCEFFDAA08AB091209BE7402121B4706
:104BB0008008750B0E8003750B01A90B7402121B84
:104BC000477F0A021C73A3124C2B88828983E02240
:104BD00074F6121BA174FE121B31740C121B7D1291
:104BE0004C27E8851882851983F07401121B7DE932
:104BF000F0E4F508F5097808121DB4750802780884
:104C0000121DB47404121B87880889097808121DC4
:104C1000B479FE1209A67406121B477402121B47D0
:104C20000245D88E828F83124C2B22E0F8A3E0F944
:104C30002274F7121BA1EAFEEBFF890890035212BF
:104C40004A8D1212B8EA5402600BA908EEFAEFFB83
:104C500012082C800279017F01021C7374F2121B6E
:104C6000A174FE121B31EAFEEBFF890A7401650A8A
:104C700060147402650A6003024D0B7901120BC2C5
:104C8000E96003024D0BEEFAEFFB120988EA4B6074
:104C90000312098EA818A919880889097808121D15
:104CA000B47508027509007808121DB47508DD7521
:104CB00009837808121DB47CFF7DFF7A017B001206
:104CC00008327406121B478038850882850983A341
:104CD000A3A3A3A3A3124D15EEFAEFFB1212A0E4B7
:104CE000F50CF50D780C121DB47402121B7D121D0B
:104CF000CB7CFF7DFFAA08AB0912083E7404121B8F
:104D0000478A088B09E508450970BE7402121B47E3
:104D10007F06021C73123F5F124D1C22E0FCA3E0D1
:104D2000FD2274F4121BA18A088B09ECFEEDFF90A2
:104D30001989E0F4604B7A097B00121396EA4B6004
:104D4000408A828B8374B1F0A3E4124D84F08A828E
:104D50008B83A3A3E508F0A3E509124D84A3EEF02D
:104D6000A3EFF0740C121B7D124C278A828B83A355
:104D7000A3A3A3A3A3A3124150901989E0F912138E
:104D8000A202308BF08A828B83A3A3A3A32274EEAA
:104D9000121BA174FA121B318A0A8B0BE9FF8C08D3
:104DA0008D097E00850A0C850B0D780C121DF8000C
:104DB00004106A50D64DF94D184E3B4E5E4E814E52
:104DC000B24ED54EEC4E1C4FCB4FEE4F11503F50D4
:104DD0006A506A50454F74016F70198508828509C1
:104DE00083E0C39403500D850882850983E0901AFF
:104DF00075F080027E1802509274026F701585085B
:104E000082850983E0F8A3E0F9901A76E8F0A3E937
:104E1000F080027E1802509274016F70198508822A
:104E2000850983E0C39402500D850882850983E0DB
:104E3000900795F080027E1802509274016F7019ED
:104E4000850882850983E0C39405500D8508828515
:104E50000983E0900796F080027E18025092740158
:104E60006F7019850882850983E0C39402500D850F
:104E70000882850983E0900797F080027E1802502F
:104E80009274106F7027750C10750D00780C121D40
:104E9000B4AC08AD097A987B071213727402121B26
:104EA000478A0C8B0D850C82850D8380027E18024B
:104EB000509274016F7019850882850983E0C3944C
:104EC00002500D850882850983E09007A8F08002D2
:104ED0007E1802509274016F700D850882850983D7
:104EE000E0901A79F080027E1802509274046F707C
:104EF00026908347780C1219E98508828509837802
:104F00000C1217F95011850882850983121A1F9017
:104F100007AA121A2B80027E18025092EF702112FB
:104F200007D2E97013121246E9F50D79501214CE2A
:104F3000E9F50C121234800A90083D7401F08002E9
:104F40007E1802509274076F707C750E06750F0004
:104F5000780E121DB4850882850983A3AC82AD83C7
:104F60007402121B8F1213787402121B478A108B63
:104F70001185100E85110F7C007D00AA18AB1985D4
:104F80000882850983E0F91211DAE9F50CE50CC312
:104F9000940A502E1207D2E97015A90C12124CE98E
:104FA000F50E79501214CEE9F50D1212348019A8BD
:104FB0000C7900743E28F582740839F5837401F089
:104FC00080067E0280027E1802509274016F701972
:104FD000850882850983E0C39402500D8508828587
:104FE0000983E09007A9F080027E180250927401B4
:104FF0006F7019850882850983E0C3940A500D8576
:105000000882850983E0901A78F080027E180250A9
:105010009274016F7025850882850983E0C3940727
:105020004019850882850983E0C39411500D8508D5
:1050300082850983E0901A7AF080577E1880537435
:10504000016F702290083CE0F50C85088285098389
:10505000E090083CF0E50C703990083CE064017089
:1050600031121234802C7E188028C3E50A9427E57B
:105070000B9400501B74026F70168508828509839B
:10508000E0FCA3E0FDAA0AAB0B120652E9FE800287
:105090007E02EEF97406121B477F0A021C7374EC41
:1050A000121BA174DA121B31890D8A128B138C0A20
:1050B0008D0B743A121B7DE0F50C9082D1AC18ADCB
:1050C000197406121A44AC18AD19AA12AB13A90D23
:1050D0001211DAE9FEEEC3940A4003025212EEF90D
:1050E000121216E9FF901A75E064027004740180D0
:1050F000027400F5087808121DB8AD0CEFFCEEF94B
:10510000AA0AAB0B1212887401121B477C147D0093
:1051100079007412121B8F12138A8A0E8B0F850E60
:1051200008850F097412121B977A1075F006EEA409
:105130002424F91214C8E9703C7C1079FF7412120F
:105140001B8F1213EAE9702D7422121B7DAC82AD05
:10515000837A0475F006EEA42425F91214C8E9F543
:10516000087412121B97EFA2E0E433F9AA0AAB0B02
:105170001206DCE9F87406121B977A0C74702EF98B
:105180001214C8E970797406121B8F12120A750E78
:1051900000E50EC394045067A80E7900E875F0038B
:1051A000A4C8AAF075F000A42AFA75F003E9A42AAD
:1051B000F97406121B7DE58228F508E58339F509A7
:1051C000850882850983E0F8A3E0F9E849602C8529
:1051D0000882850983A3A3E0F510751100781012E9
:1051E0001DB4850882850983E0FCA3E0FDAA0AAB13
:1051F0000B1209AC7402121B47E9F8050E8092EFFE
:10520000A2E1500E900794E0F9AA0AAB0B1209B282
:10521000E9F87404650C700F901A75E06402700769
:10522000AA0AAB0B12128279007426121B477F0C5C
:10523000021C7374F7121BA1EAFEEBFF1207D2E9FE
:10524000706790083DE06401701B121246E9F50892
:1052500090083D7400F07C0A7D0079007A3E7B085E
:1052600012138A8039750800E508C3940A502FA8E4
:10527000087900743E28F582740839F583E06401EA
:105280007018A90812124CE9FAA8087900743E288F
:10529000F582740839F5837400F0050880CA7950E6
:1052A0001214CEE9F5081212347F01021C7374F255
:1052B000121BA1890BEAFEEBFF8C088D09750A0A07
:1052C000E50B600C146009146044146064025353CD
:1052D000EEFAEFFB121228E9F50AE50AC3940A5028
:1052E00072E5084509606C750C06750D00780C12A6
:1052F0001DB4EEFCEFFDAA08AB0912137274021282
:105300001B478A0C8B0D850C82850D838045EEFA38
:10531000EFFB121222E9F50AE50AC3940A5034E5BC
:10532000084509602EAA08AB09A90A12121CE980D7
:1053300022EEFAEFFB12122EE9F50AE50AC3940AEF
:105340005011E5084509600BAA08AB09A90A121219
:105350001CE9F8A90A7F06021C7374F2121BA18AC9
:105360000C8B0DE9FF7E1574FF650C700474FF65EE
:105370000D702A750800E508C3940A5014EFFC7AF2
:10538000027B00A9081211F8E960027E000508807E
:10539000E5EF60627A707B12120BE68059AA0CABC3
:1053A0000D120BB68A0A8B0B850A08850B09E508D6
:1053B000450960407C007D00E5082405FAE43509D4
:1053C000FB850882850983A3A3A3A3E0F91211DA60
:1053D000E9F50AE50AC3940A500EEFFC7A027B0055
:1053E000A90A1211F8E97E00EF600BAA08AB0912B6
:1053F000127080027E14EEF97F06021C7374EE12A6
:105400001BA18A0E8B0F8C0A8D0B7412121B7DE070
:10541000F50CA3E0F50D75081574FF650E700474A6
:10542000FF650F701E7E00EEC3940A5061AC0CAD98
:105430000DAA0AAB0BEEF91211FEE9600375080024
:105440000E80E4AA0EAB0F120BB68A108B11AE10B1
:10545000AF11EE4F60357C007D00EE2405FAE43F8D
:10546000FB8E828F83A3A3A3A3E0F91211DAE9F5DF
:1054700009E509C3940A5016AC0CAD0DAA0AAB0B92
:10548000A9091211FEE97508008003750814A9081E
:105490007F0A021C7374F7121BA1EAFEEBFF900750
:1054A000AEEEF0A3EFF0900794E0FC7D007A267B4F
:1054B00000120652E9F508900794E0F91209167FE8
:1054C00001021C7374F0121BA174EC121B318A0CC4
:1054D0008B0D850C82850D83A3A3E024FA70030253
:1054E000593D24FD70030257B21470030255B414E1
:1054F000601024FD700302575A1470030257F10222
:105500005950AE0CAF0D9007AEE0F8A3E0F9E849B2
:1055100060669007AEE0F8A3E0F5838882E0F8A328
:10552000E0F9E8496052EE240CF582E43FF583E0AF
:10553000F5087808121DB8EE240BF582E43FF583D8
:10554000E0F98E828F83A3A3A3A3A3A3A3A3A3E0C5
:10555000FCA3E0FDEE2403FAE43FFB9007AEE0F885
:10556000A3E0F5838882E0F8A3E0F5838882121B2C
:105570009F7401121B4780398E828F83A3A3A3A33C
:10558000A3A3A3A3A3121DCB9007AA121A07120666
:10559000EE7402121B47E9601879018E828F83A393
:1055A000A3A3A3A3A3A3A3A3E0FAA3E0FB1206E88B
:1055B000E9025950AE0CAF0D7508008E828F83A39F
:1055C000E060030256DC8E828F83A3A3A3A3A3E033
:1055D000A2E040030256DC900848E0F8A3E0F9E8B6
:1055E0004960030256DC7C0E7D007900AA18AB19D5
:1055F00012138A8A0A8B0BAA0AAB0BEE240CF582D3
:10560000E43FF583E0F8A3E0F9E8496036750A065F
:10561000750B00780A121DB4EE240CF582E43FF5F8
:1056200083E02410FCA3E03400FD7402121B8F12EF
:1056300013727402121B478A0A8B0B850A82850B30
:1056400083804F8E828F83A3A3A3E0FAA3E0FB1293
:105650000BB68A0E8B0F850E0A850F0BE50A450BDC
:10566000602D750E06750F00780E121DB4E50A2424
:1056700005FCE4350BFD7402121B8F1213727402C9
:10568000121B478A0E8B0F850E82850F83800302C3
:1056900059508E828F83A3A3A3A3A3E0A2E2500458
:1056A000D2F08002C2F0A2F0E433F87900740C1258
:1056B0001B7DE048F0A3E049F0EEFCEFFDAA18AB3B
:1056C00019121210E970127A027B00900794E0F927
:1056D0001213C6E979000259527508159007AEE019
:1056E000F8A3E0F9E849606F9007AEE0F8A3E0F5B1
:1056F000838882A3A3E0F8A3E0F9E84960598E8289
:105700008F83A3E0FC79018E828F83A3A3A3E0FAA9
:10571000A3E0FB9007AEE0F8A3E0F5838882A3A3A3
:10572000E0F8A3E0F5838882121B9FE5086028ACAF
:105730000879038E828F83A3A3A3E0FAA3E0FB90F2
:1057400007AEE0F8A3E0F5838882A3A3E0F8A3E026
:10575000F5838882121B9F025950AE0CAF0D900743
:10576000AEE0F8A3E0F9E84960459007AEE0F8A3A1
:10577000E0F5838882A3A3E0F8A3E0F9E849602F6D
:10578000850C82850D83A3E0FC79028E828F83A332
:10579000A3A3E0FAA3E0FB9007AEE0F8A3E0F58353
:1057A0008882A3A3E0F8A3E0F5838882121B9F02FE
:1057B0005950AE0CAF0D7C007D00EE2404FAE43F9E
:1057C000FB8E828F83A3A3A3E0F91211DAE9F50817
:1057D000E508C3940A5017EE240AFCE43FFD7A045E
:1057E00075F006E508A42425F91214C2E9F8025957
:1057F00050AE0CAF0D9007A9E06019901A78E0F94F
:105800008E828F83A3A3A3E0FAA3E0FB1206E8E94C
:10581000F8025950901A75E0701679058E828F83C0
:10582000A3A3A3E0FAA3E0FB1206E8E9F8025950AB
:105830008E828F83A3A3A3E0FAA3E0FB120BB68AA8
:105840000A8B0B850A08850B09E5084509700302D8
:1058500059508E828F83A3A3A3A3A3A3A3E0A2E0A6
:10586000506D850882850983A3A3A3A3E060608EA1
:10587000828F83A3A3A3A3A3A3A3A3A3E0F50AA357
:10588000E0F50B7409780A121B0FE50A5401F8E5DC
:105890000B5400F9E8A2E04036740E121B97E5089D
:1058A0002405FAE43509FB850882850983A3A3A3AF
:1058B000A3E0F91211DAE9701679038E828F83A3BF
:1058C000A3A3E0FAA3E0FB1206E8E9F8025950EEC0
:1058D0002405FCE43FFD850882850983A3A3A3A3D7
:1058E000E0F98E828F83A3A3A3E0FAA3E0FB121258
:1058F0007C9007AEE0F8A3E0F9E84960539007AE6A
:10590000E0F8A3E0F5838882A3A3E0F8A3E0F9E838
:1059100049603D7C0079008E828F83A3A3A3E0FAC7
:10592000A3E0FB9007AEE0F8A3E0F5838882A3A391
:10593000E0F8A3E0F5838882121B9F8013AE0CAFC2
:105940000D8E828F83A3A3A3E0FAA3E0FB1211D4F0
:1059500079017414121B477F08021C7374F5121B23
:10596000A174F2121B318909EAFEEBFF8C0AAC1814
:10597000AD197A0E75F006E509A42420F91214C8B1
:10598000E9705F7C0679FFAA18AB191213EAE97077
:1059900051740C121B7DE0F8A3E0F9E8F508E50A64
:1059A0006005EE42088004EEF45208A808790074FD
:1059B0000C121B7DE0687003A3E0696021A80879E0
:1059C00000740C121B7DE8F0A3E9F0AC18AD197A55
:1059D0000E75F006E509A42420F91214C2E9790134
:1059E00080027900740E121B477F03021C7374F04F
:1059F000121BA174E6121B31890B8A0C8B0DECFE75
:105A0000EDFF740C121B977A0E75F006E50BA424BB
:105A100020F91214C8E96003025B1E7C0679FF744A
:105A20000C121B8F1213EAE96003025B1EAC18AD67
:105A3000197A0C7470250BF91214C8E96003025B23
:105A40001A750A00AA18AB1912120AE50C450D7056
:105A50002E7C0C7900AA18AB191213EAE960030234
:105A60005B007C0C7D007900AA18AB1912138A8A9E
:105A7000088B09850882850983750A01025B00ACE1
:105A800018AD19AA0CAB0D1212048A0E8B0F850EDD
:105A900008850F09E50845097030EE4F601BAC180A
:105AA000AD197A007B001212048A0E8B0FA80EA982
:105AB0000F88088909E849700479008063850882A5
:105AC000850983E50CF0A3E50DF08508828509833F
:105AD000A3A3E0F87900EE687002EF696022EEC0DF
:105AE000E0850882850983A3A3D0E0F0EE4F700D16
:105AF0008508828509837400F0A37400F0750A019B
:105B0000E50A6016AA18AB1912120AAC18AD197A78
:105B10000C7470250BF91214C2E979018002790026
:105B2000741A121B477F08021C7374F6121BA18A99
:105B3000088B097E00EEC394045050EEF87900E81B
