:020000040000FA
:0600000002011A02255D59
:03001300022D07B4
:03002B00022C584C
:030053000225D3B0
:03007B00022C86CE
:100083000223B3E5C754F84401F5C7790122000000
:100093000080FB120086B90003020104E479217891
:1000A30008B800028004F709D8FCE479297802B87B
:1000B30000028004F709D8FCE490028178427917A2
:1000C3008002F0A3D8FCD9FA781A90014A7A01BACF
:1000D30000028007E493A3F608DAF97AC27B18904A
:1000E300014B78D479038015E493A3AD82AE838A60
:1000F300828B83F0A3AA82AB838D828E83D8E9D9C6
:10010300E775823B758399740412012C758291758E
:100113008300740012012C75D00075813F7518811E
:10012300751902759F00020096C09FF59FE473D076
:100133009F22D083D082C09FE493C0E0740193C018
:10014300E0740293F59F2201FF0000B40000280031
:100153002800283075A000A000A000A0000008001F
:1001630008E001F000100010001000100010001053
:100173000050005000500010001000D00700000095
:100183000000000F0001000500307507001000019A
:100193000081FF00000000FFFFFF72079007780750
:1001A300B407FF02020208025000A0000000E803A7
:1001B30002DD83010000B28302D7830100001D1911
:1001C30002D1830100000B0302D7830100001E1933
:1001D30002CF83010000210302D7830100001F190E
:1001E30002CB83010000230302D7830100002019FF
:1001F30002C983080000240302D7830100002119E8
:1002030002C7830100002219FF0100FF2002DD83E2
:10021300010000B58302D783010000861902BB8366
:10022300000000000002D3830300005203170020E4
:100233000E200E200E200E200E200E200E200E204B
:100243000E200E200E200E200EDE10F010D810020D
:100253000202020202020202010D0000001001026A
:10026300DD83010000AF8302D783010000C91902B7
:10027300DB830100008C0702D783010000CA190247
:10028300F383010000688202D783010000CB1902C7
:10029300F1830100004C8202D783010000CC1902D4
:1002A300EF83010000DA8102D783010000CD190238
:1002B300ED83010000B68102D783010000CE19024D
:1002C300E983010000C88102D783010000CF19022E
:1002D300E783010000EC8102D783010000D01902FB
:1002E300E5830100005A8202D783010000D119027D
:1002F300E383010000D21901E8030577100AFFFF29
:100303000001307503020106000000000000000038
:1003130000000000000000000000000000000000DA
:1003230000000000FFFF0600800CE8030E093030D8
:100333003030303030305942424C450512500020A5
:1003430003020A000201060302F0FF09FF00450051
:10035300000000000030303030303030305942423D
:100363004C4500000000000000007C1500009A15B9
:1003730012121252656164446174610044656275CE
:10038300674461746100546F6F6C44617461000869
:100393005772697465446174610002DD8301000072
:1003A300B88302D783010000EC1A02C18301000065
:1003B300AA1502D383030000D11502D583010000DF
:1003C300001B02D783010000EB1A02BF8301000068
:1003D3008A1502D383030000CF1502D583010000E1
:1003E300F61A02D783010000EA1A02BD8301000056
:1003F3006A1502D383030000CD1502D583010000E3
:10040300ED1A02D783010000091B02C38303000016
:10041300D31502D5830100000A1B03120135A4D5AD
:1004230001120135BCD501120135EBD5011201359D
:1004330026D6011201356BD601120135BAD6011247
:10044300013524D70112013556D70112013598D74A
:1004530001120135F0D701120135B6D80112013569
:1004630009D901120135EDDA0112013501DB01125F
:10047300013516DB0112013502DC011201351BDCEB
:10048300011201350ADD0112013589DD0112013541
:10049300FCDD01120135D7DE0112013540DF011207
:1004A3000135C7DF01120135EBDF011201350AE027
:1004B30001120135DEE00112013576E10112013549
:1004C3002CE401120135B8E401120135E9E401120B
:1004D30001352DE50112013550E50112013573E5B2
:1004E30001120135F0E501120135A9E601120135CA
:1004F30064F80112013513F90112013555FA01129D
:10050300013597FB0112013549FC01120135A8FCA5
:100513000112013507FD01120135B9FF0112013541
:10052300728204120135D082041201350183041250
:100533000135A68304120135C68304120135F783FE
:10054300041201353D8404120135C38404120135BC
:10055300D9EF03120135ECEF031201351DF003123D
:10056300013557F003120135B0F003120135F7F0EE
:10057300031201353FF1031201356EF10312013508
:100583009DF103120135D4F1031201351BF203125D
:10059300013534F20312013589F203120135A2F257
:1005A30003120135F0F2031201352AF30312013568
:1005B3000080031201350381031201353C810312CC
:1005C30001355F8103120135718103120135AF815A
:1005D300031201352B8203120135F3820312013515
:1005E300158303120135AC8303120135FE83031215
:1005F30001352F84031201353C8403120135A6848F
:1006030003120135FD840312013500850312013500
:100613003985031201353C850312013546850312E2
:1006230001359A8503120135DB85031201350E86E8
:10063300031201354B86031201354D870312013531
:10064300F187031201355A88031201359888031282
:10065300013528E40312013550E4031201357DE42A
:1006630003120135B5E40312013513E50312013515
:100673005FE503120135C6E50312013506E60312F1
:10068300013543E60312013571E6031201351BE719
:100693000312013525E70312013532E70312013551
:1006A30065E70312013571E70312013589E7031288
:1006B300013593E7031201352097041201352E9774
:1006C300041201354697041201355D970412013572
:1006D3003AE701120135E4E701120135F7E80112A7
:1006E300013573E90112013591EA01120135CDEAB1
:1006F3000112013568EB011201354CEC0112013591
:1007030018ED01120135A6EE0112013517EF0112A2
:100713000135D1EF01120135C3F00112013503F1A7
:1007230001120135B7F101120135E9F10112013569
:10073300DFF30112013521F4011201353FF40112F7
:100743000135A5F40112013574F50112013538F6AE
:100753000112013557F801120135C7A703120135FC
:10076300B1A8031201355CA903120135ADA9031227
:1007730001355DAA03120135CEAA03120135B3ABCD
:1007830003120135E7AB03120135E0AC0312013567
:100793001DAD03120135F9AD0312013538AE031255
:1007A300013554AE031201351789041201359B89B3
:1007B30004120135C68904120135E08A0412013599
:1007C30021E80312013537E80312013555E8031216
:1007D300013566E90312013570E9031201359BEA1D
:1007E3000312013592EB03120135FFEB03120135BE
:1007F30052BA0312013588BB03120135BFBB031282
:10080300013516BC031201352BBE03120135EEB0C0
:10081300011201357AB101120135DEB2011201353F
:10082300EAB20112013525B30112013594B3011265
:1008330001359DB401120135A6B5011201356DB61E
:1008430001120135CAB701120135E8B701120135AA
:1008530005B801120135B2B8011201352FB90112E1
:10086300013557B90112013521BC0112013526BCEE
:10087300011201353FBE011201358DBE0112013552
:10088300FDBE011201353BBF0112013517C0011234
:100893000135D7C00112013523C10112013526C12B
:1008A300011201356AC101120135B2C101120135CC
:1008B300F1C10112013513C20112013547C2011200
:1008C3000135AAC201120135F2BF0312013500C07E
:1008D3000312013553C00312013572C003120135EF
:1008E300B7C003120135FBC10312013596C20312CF
:1008F3000135DAC20312013504C30312013573C390
:1009030003120135B9C30312013530C40312013593
:10091300E1C4031201356C2D001201357C2D001248
:1009230001351D2E00120135792E00120135362FA7
:1009330000120135523000120135843000120135A6
:10094300B33000120135603200120135D734001282
:100953000135473700120135393800120135323974
:1009630000120135393B001201352D3E00120135CD
:100973005C3F0012013560410012013570420012E4
:100983000135FF4300120135F044001201353E45A5
:1009930000120135AD4500120135D1450012013574
:1009A300224600120135C34A00120135C44B00121E
:1009B3000135254C00120135504C00120135164DFE
:1009C3000012013522E0031201352CE00312013538
:1009D30071E00312013585E00312013515E10312BD
:1009E30001354EE10312013589E103120135B2E10C
:1009F3000312013506E2031201351BE2031201352E
:100A03003DE20312013552E20312013566E203129D
:100A130001357BE203120135B5E203120135E1E250
:100A23000312013568E303120135ABE30312013509
:100A3300D5E30312013500E40312013527930412B1
:100A430001351AD202120135FDD20212013578D3D3
:100A530002120135B3D30212013504D50212013556
:100A630092D50212013524D802120135D6D80212CA
:100A73000135E2D90212013555DB02120135AEDB35
:100A83000212013590D703120135D3D70312013572
:100A930057D8031201352EDB0312013500800412EF
:100AA3000135B28004120135AE8104120135ED81A6
:100AB300041201354782041201350F8B04120135EC
:100AC300728B041201350F8C04120135448C04120D
:100AD3000135748C04120135AF8C04120135CF8CAF
:100AE30004120135F1C9031201357DCA0312013520
:100AF3003CCB0312013554CC031201356ECE0312E5
:100B0300013586BB02120135ABBB0212013578BC3D
:100B1300021201354CBD02120135B9BD0212013575
:100B2300F9BD0212013595BE02120135C9BF021289
:100B33000135A4C00212013503C1021201358FC170
:100B430002120135FDC10212013589C202120135BB
:100B5300CFC20212013541C302120135D3C30212BF
:100B6300013574C40212013594C402120135DCC488
:100B73000212013525C50212013541C502120135A4
:100B830067C502120135E1C502120135EFC5021234
:100B930001357EC602120135E7C602120135A5CE24
:100BA300031201352ACF031201356CCF031201352D
:100BB30050D003120135BDD00312013501D1031208
:100BC300013545D10312013572D1031201359AD192
:100BD30003120135D2D10312013510D203120135AC
:100BE30037D203120135B1D203120135FBD20312FE
:100BF30001350080021201359F8102120135D7832E
:100C0300021201352B84021201355684021201357A
:100C13003285021201356285021201359185021275
:100C23000135A48502120135E585021201351286CC
:100C3300021201356086021201359C8602120135CB
:100C4300E186021201352E8702120135A8870212AE
:100C53000135E98902120135D38B021201350F8C5C
:100C6300021201359E8D02120135E38D0212013508
:100C7300568E02120135AB8E02120135B08E02126E
:100C830001353C8F021201355B90021201356C90E5
:100C93000212013530F002120135A9F002120135BA
:100CA30063F6021201356EF70212013517F90212CB
:100CB3000135A5F902120135486B00120135C96BE4
:100CC30000120135F66B001201353F6C001201353D
:100CD300406D00120135996D00120135156F001238
:100CE3000135976F00120135B26F00120135237081
:100CF30000120135E07000120135A37100120135B5
:100D0300317200120135E87200120135FB720012D4
:100D130001359473001201352B740012013552749E
:100D230000120135BB74001201350575001201353F
:100D3300537500120135F8750012013596760012CD
:100D43000135237700120135947700120135DB77E3
:100D53000012013533780012013565780012013530
:100D63001F7900120135267A001201356F7A0012BD
:100D730001358C7A00120135AB7A00120135DE7B26
:100D830000120135957C00120135BA7C0012013541
:100D9300CF7C001201353F7D00120135807D0012AA
:100DA3000135A47E00120135257F0012013557DC81
:100DB30002120135A2DC02120135AEDC021201354A
:100DC30082DD0212013599DD02120135D6DD0212F0
:100DD300013507DE0212013538DE0212013570DEFD
:100DE30002120135C6DE02120135DCDE02120135C4
:100DF30018DF021201352BDF0212013552DF021216
:100E0300013586DF02120135ACE002120135F6E14D
:100E130002120135F2E2021201350FE4021201352A
:100E2300E07F001201358F9002120135CA90021241
:100E330001351C940212013578950212013537965B
:100E4300021201359E9902120135889A0212013568
:100E5300D49A02120135EE9A021201352B9B02122B
:100E63000135369B02120135759B021201357E9BBB
:100E730002120135289C02120135FF9C0212013532
:100E8300539D02120135B09D02120135229E0212BA
:100E9300013582C301120135E1C601120135E7C6EE
:100EA3000112013518CE011201351FD2011201358D
:100EB30092F30312013528F4031201353EF40312B1
:100EC300013597F403120135DBF40312013515F5EF
:100ED30003120135ADF5031201351CF6031201357A
:100EE30025F60312013531F6031201354BF60312D1
:100EF300013575F6031201358AF603120135ECF656
:100F03000312013513F703120135E0DB0312013538
:100F1300EDDB0312013507DC031201353ADC031262
:100F2300013578DC03120135DDDC03120135F2DC17
:100F330003120135FDDC031201350ADD031201350D
:100F430021DD031201352FDD031201353ADD0312D2
:100F5300013546DD0312013555DD0312013560DD30
:100F63000312013583DD0312013527DE0312013538
:100F730037DE0312013551DE031201356EDE031233
:100F8300013589DE03120135AEDE03120135B9DE08
:100F930003120135CEDE03120135E2DE0312013501
:100FA30043DF0312013549DF031201354FDF03121B
:100FB300013555DF031201356DDF03120135A0DF63
:100FC3000312013503AE021201359AAE0212013546
:100FD30032AF0212013522B00212013559B00212AA
:100FE30001356CB002120135DAB00212013575B267
:100FF300021201359CB2021201353EB302120135D1
:1010030073B30212013584B302120135FDB3021228
:1010130001351EB40212013536B4021201358EB504
:101023000212013597B702120135E7B902120135F1
:10103300EABA0212013539BB02120135719F02125D
:1010430001356EA00212013559A10212013563A1C7
:101053000212013585A10212013591A10212013557
:10106300E3A20212013512A30212013542A40212B5
:10107300013584A402120135B0A50212013586A6FA
:1010830002120135D8A60212013537A70212013523
:101093006EA702120135A9A70212013544AB021251
:1010A30001355DAB02120135DFAB02120135EDAB49
:1010B3000212013542AC0212013550AC0212013565
:1010C300BDAC021201352FAD0212013575AD02120E
:1010D30001350AC7021201352CC70212013516C9A0
:1010E30002120135BBCC02120135FECD02120135CD
:1010F300D8CE02120135978E04120135BC8E04122C
:1011030001352D8F04120135BE8803120135C788BE
:1011130003120135D08803120135018A0312013508
:10112300208C03120135568C03120135908C031267
:101133000135C68C03120135008D03120135348D40
:1011430003120135608D03120135A98D0312013598
:10115300E38D031201352B8E03120135818E0312A9
:101163000135B68E03120135118F031201354B8FF2
:10117300031201359C8F03120135D28F03120135FF
:101183000C90031201353A90031201355D9003125E
:101193000135ED970412013519980412013574983D
:1011A300041201357E98041201358E98041201351C
:1011B300F3C4031201351AC50312013555C50312D1
:1011C30001355B7F00120135824D001201359250CB
:1011D30000120135275200120135A25200120135C7
:1011E3004E5300120135F153001201358954001298
:1011F3000135B85400120135505900120135E25936
:10120300001201351E5B00120135885B00120135A7
:101213003C5C00120135F25E001201352C5F0012B6
:101223000135965F00120135F35F001201355060FE
:1012330000120135AD6000120135986100120135CD
:10124300DE61001201352962001201354C62001281
:101253000135936300120135A7630012013516654A
:1012630000120135556500120135956500120135EF
:10127300E865001201350966001201354766001260
:101283000135856800120135C668001201356169B0
:1012930000120135D36900120135146B00120135B8
:1012A300B1B40312013557B5031201359CB60312CD
:1012B300013525B70312013512B80312013551B8B0
:1012C30003120135BBB80312013529B903120135E5
:1012D30048950412013559950412013534960412C8
:1012E300013546FA0312013511FD03120135DA996E
:1012F30004120135F09904120135F59904120135F0
:10130300529A041201353B94041201354B94041292
:1013130001355F940412013542950412013541F7FA
:1013230003120135E9F7031201352BFA03120135D4
:101333004D90041201359C9004120135CE90041295
:101343000135609104120135F87F00120135E28402
:1013530004120135AE86041201351A8704120135D1
:101363009B9904120135B099041201350B990312AC
:1013730001352099031201357C9903120135E79950
:10138300031201352F9A03120135A19A0312013575
:10139300CA9A03120135D89A031201353A9B0312F4
:1013A3000135789B03120135939B031201352E9C63
:1013B30003120135D79C031201355A9D03120135DF
:1013C300939D031201351E9E03120135759E031270
:1013D3000135D39E03120135E59E031201350B9FA0
:1013E30003120135339F031201358EA00312013519
:1013F3001D870412013584870412013541880412C4
:101403000135BF880412013509EC031201353CECA8
:10141300031201356EED03120135B2ED03120135EE
:101423008EEE03120135DC9104120135BA920412D7
:1014330001351693041201351FFD0312013564FDB6
:1014430003120135AAFD0312013573FF031201359F
:101453004496041201355F96041201356F96041207
:101463000135D4960412013598980412013548E6E3
:101473000212013524E7021201356BE7021201352E
:10148300A8E70212013516E80212013570E80212CC
:101493000135E0E802120135B0E9021201359FEA95
:1014A3000212013516EB02120135B2EC02120135BC
:1014B3003FED02120135B2ED021201352EEE02129A
:1014C300013545EE021201356AEF02120135C4EF10
:1014D30002120135CFF902120135EFF9021201357B
:1014E300F5FA0212013541FB0212013561FB0212CA
:1014F3000135B4FB0212013521FC0212013567FCF0
:1015030002120135CBFC0212013577FF02120135BD
:10151300E89C0112013515A20112013518A501122B
:10152300013541A5011201356AA5011201351CA639
:101533000112013505A80112013550A90112013527
:1015430069A901120135A0AE01120135D9AE01120C
:1015530001351DAF011201352EB001120135EB909B
:10156300031201355A9103120135AA93031201356F
:101573000896031201352696031201354896031285
:1015830001352C9703120135549703120135E59762
:1015930003120135C69803120135D798031201359A
:1015A300C2A003120135D9A103120135F6A103121A
:1015B3000135C7A303120135D5A40312013565A66E
:1015C30003120135B5AE03120135E5AE0312013541
:1015D30015AF03120135BAAF03120135F3AF03128E
:1015E30001351AB00312013528B00312013536B0A4
:1015F3000312013544B00312013552B00312013511
:10160300D2B003120135EAB00312013566B10312F9
:101613000135E6B1031201350BB20312013568B28D
:1016230003120135BCB20312013523B30312013592
:1016330047B30312013568B40312013575B40312BD
:10164300013599B403120135FB8301120135378447
:10165300011201356584011201350185011201353D
:101663003E85011201355285011201352E86011284
:1016730001356286011201357A860112013501872F
:10168300011201354B87011201359D870112013586
:10169300B98701120135F787011201351988011243
:1016A30001353B8801120135D7880112013536898E
:1016B300011201353D8901120135BD8A011201353F
:1016C300488B01120135778B01120135CA8B011248
:1016D3000135EF8B01120135378C01120135758D00
:1016E30001120135C08D01120135278E011201351A
:1016F300738E01120135AD8E01120135D38E0112A5
:101703000135E18E01120135078F01120135928FE8
:1017130001120135AB91011201350392011201351A
:10172300359201120135D49201120135A3930112AE
:101733000135049401120135A59401120135109667
:1017430001120135869601120135E7960112013522
:101753006C9701120135BD9701120135FF970112F4
:1017630001352A98011201355998011201350F9953
:1017730001120135279901120135389A01120135F9
:10178300B29C01120135DD8C04120135338D041234
:101793000135968D04120135AC8D04120135CA8DC5
:1017A300041201351A8E04120135B7FF03120135F5
:1017B300089A041201353BD30312013533D70312C0
:1017C3000135349A04E066701008A3E066700A08D5
:1017D300A3E066700408A3E06622C3E7960809E75E
:1017E300960809E7960809E79622C3E09608A3E05E
:1017F3009608A3E09608A3E09622C008C3E096F5F6
:101803000808A3E096420808A3E096420808A3E06C
:101813009645087001D3D00822080808EAC0E0EB17
:10182300C0E086F0E7A4FA180986F0E7A42AFA18BC
:101833000986F0E7A42AFA180986F0E7A42AFA1918
:1018430086F0E7A4FBE5F02AFA190886F0E7A42B53
:10185300FBE5F03AFA190886F0E7A42BFBE5F03A2A
:10186300FA18180986F0E7A4C5F02BFBE43AFA1935
:1018730008E7C5F0C6A426F6E5F03BFBE43AFA1800
:1018830086F0E7A4F6E5F00826F6E43B08F6E43A2A
:1018930008F6D0E0FBD0E0FA22E4CFC0E0E4CEC00B
:1018A300E0E4CDC0E0E4CCC0E075F020E626F60825
:1018B300E633F608E633F608E633F6181818EC3381
:1018C300FCED33FDEE33FEEF33FFC3EC9709ED97E9
:1018D30009EE9709EF97191919400FFFEC97FC09C7
:1018E300ED97FD09EE97FE191906D5F0BFECF70940
:1018F300EDF709EEF709EFF7191919D0E0FCD0E07D
:10190300FDD0E0FED0E0FF226016080808C6C3132E
:10191300C618C613C618C613C618C613C6D5E0EA3A
:10192300227009080808226016181818C6C333C69F
:1019330008C633C608C633C608C633C6D5E0EA228E
:10194300E627F60809E637F60809E637F60809E652
:1019530037F622E026F608A3E036F608A3E036F6CB
:1019630008A3E036F622E026F008A3E036F008A349
:10197300E036F008A3E036F022C3E697F60809E65E
:1019830097F60809E697F60809E697F622C3E09664
:10199300F008A3E096F008A3E096F008A3E096F021
:1019A30022E056F608A3E056F608A3E056F608A38D
:1019B300E056F622E056F008A3E056F008A3E056FE
:1019C300F008A3E056F022E046F008A3E046F00852
:1019D300A3E046F008A3E046F022E0F608A3E0F611
:1019E30008A3E0F608A3E0F622E6F008A3E6F00871
:1019F300A3E6F008A3E6F022E0FAA3E0FBA3E0FCF1
:101A0300A3E0FD22EAF0A3EBF0A3ECF0A3EDF022B8
:101A1300E0F8A3E0F9A3E0FAA3E0FB22E8F0A3E9EE
:101A2300F0A3EAF0A3EBF022CAC0E0E6F0A308DAE1
:101A3300FAD0E0FA22CAC0E0E0A3C582CCC582C5D1
:101A430083CDC583F0A3C582CCC582C583CDC583B1
:101A5300DAE6D0E0CA22C3E498F8E499F9121A9AB4
:101A63008026C3E49AFAE49BFBE920E7E9121A9A79
:101A7300E498F8E499F922C3E498F8E499F9121A7E
:101A83009AE498F8E499F9C3E49AFAE49BFB22EB0D
:101A930020E7CFE920E7E0B90010BB0008E88AF0AF
:101AA30084F8AAF022E4FBC8FA22EB70227B10C868
:101AB30033C8C933C9335007C39AC3DBF280069ACC
:101AC30050012ADBEAC833F4C8C933F4C9FA2275D2
:101AD300F008E4C833C8C933C933C99AC99B500451
:101AE300C92AC93BD5F0ECFBC833F4C8E4C9FA22D0
:101AF300600D08C6A2E713C618C613C6D5E0F322C5
:101B0300600C08C6C313C618C613C6D5E0F422700A
:101B13000422600D18C6C333C608C633C6D5E0F425
:101B23001822251810AF08F518400C15198008F570
:101B33001840021519D2AF2200C0D0251810AF08E3
:101B4300F518500C05198008F51850020519D2AF85
:101B5300D0D0222518F58210AF08F518400C1519BE
:101B63008008F51840021519D2AF8519832225186C
:101B7300F582E43519F583222518F8E43519F9229D
:101B83002518FAE43519FB222518FCE43519FD2242
:101B9300E4732518C582C0E0E51934FFC583C0E0AE
:101BA300E518C3958224F810AF0885831985821838
:101BB3008008858319858218D2AFCEF0A3E520F083
:101BC300A37808E608F0A3DEFAEFF0A3E58124FA90
:101BD300F8E608F0A3E608F0A3E608F0A30808E691
:101BE30008F0A3E608F0A315811581D0E0FED0E04C
:101BF300F8158115811581E8C0E0EEC0E0222518B3
:101C0300C582C0E0E51934FFC583C0E0E518C3957C
:101C13008224F910AF08858319858218800885838B
:101C230019858218D2AFCEF0A3E520F0A37808E699
:101C330008F0A3DEFAEFF0A3E58124FBF8E608F051
:101C4300A3E608F0A30808E608F0A3E608F0A31546
:101C5300811581D0E0FED0E0F815811581E8C0E060
:101C6300EEC0E022851983851882E0A3FEE0A3F588
:101C7300207808E0A3F608DFFAE0A3FFE0A3C0E0C2
:101C8300E0A3C0E0E0A3C0E0E0A3C0E0E0A3C0E0C5
:101C930010AF08858218858319800885821885838B
:101CA30019D2AFD083D0820201328519838518827D
:101CB300E0A3FEE0A3F5207808E0A3F608DFFAE04E
:101CC300A3FFE0A3C0E0E0A3C0E0E0A3C0E0E0A383
:101CD300C0E010AF088582188583198008858218B3
:101CE300858319D2AFD083D08222C0D02518C58274
:101CF300C0E0E51934FFC583C0E0E518C39582242D
:101D0300F310AF08858319858218800885831985A8
:101D13008218D2AFC8F0A3E9F0A3EAF0A3EBF0A3D3
:101D23007908E709F0A3D8FAECF0A3EDF0A3EEF0FD
:101D3300A3EFF0A3D0E0F0A3D0E0F0A3D0E0F0A3B2
:101D4300E520F0A3E5F0F0A322851983851882E04E
:101D5300C0E0A3E0F9A3E0FAA3E0FBA37808E0F670
:101D630008A3DFFAE0FCA3E0FDA3E0FEA3E0FFA3EA
:101D7300E0C0E0A3E0C0E0A3E0F5D0A3E0F520A33A
:101D8300E0A3F5F010AF08858319858218800885D4
:101D93008319858218D2AFD082D083D0E0F8D0E007
:101DA3003274048006740280027401C0E0F40412E9
:101DB3001B56D0E0121A2B22740480047402800094
:101DC300CCC0E0EDC0E0E518C39CCCAD1950011DBB
:101DD30010AF068C188D1980068C188D19D2AF128E
:101DE3001A38D0E0FDD0E0FC22D083D082E9C0E0F5
:101DF300E493A3C386F0C5F095F0F908E493A386B2
:101E0300F0C5F095F0700BE493A3C3994005E90482
:101E13008002A3E475F002A42582F582E5F0358300
:101E2300F583D0E0F9E493A3C0E0E493C0E022D0CB
:101E330083D082ECC0E0EDC0E0E493A3FCE493A381
:101E4300FDED4C600D121E7EEC24FFFCED34FFFD16
:101E530080EFE493A3FCE493A3FDED4C600D121E0D
:101E6300BDEC24FFFCED34FFFD80EFD0E0FDD0E0BE
:101E7300FCE493A3C0E0E493C0E022C0E0C3E49396
:101E830096087401939618400FE4936670080874DB
:101E93000193661870007019A3A3C3E493960874A2
:101EA30001939618A3A3400DD0E0D0E0D0E0021E2A
:101EB3006EA3A3A3A3A3A3D0E022C0E0C0F088F045
:101EC300E4936670080874019366187000A8F0A381
:101ED300A3700BD0F0D0E0D0E0D0E0021E6EA3A33D
:101EE300D0F0D0E02274F6121C01EAFEEBFF8C085E
:101EF3008D09EE2434F8E43FF9E8FCE9FDEE2435DE
:101F03001221FBFAEE24371221FBF88508F0A4C84E
:101F130085F00A8509F0A4250AF9EA28F8E439F9D5
:101F23007A257B00121A9AEA8C828D83F0FA1313B6
:101F330013541FF8EE28F8E43FF9E8245DF582E432
:101F430039F583E0C0E074075AF8D0E0B8000280A6
:101F530004C313D8FCA2E0EE50082434F582E43F16
:101F6300801824361221FBF5F0EA84A8F0EE28F855
:101F7300E43FF9E82438F582E439F583E0F97F0397
:101F8300021CAD74F7121C01EAFEEBFFEE243412BF
:101F930021FBC0E0EE2435F582E43FF583D0E0F089
:101FA3008E828F83A3A3A3A3A3A3A3C082C0838E84
:101FB300828F83A3A3A3A3A3E0F8A3E0F9D083D0E4
:101FC30082E0C398F508A3E099F509EE247F122176
:101FD300FB6401703EEE2480F582E43FF583C0820A
:101FE300C0838E828F83A3A3A3A3A3E0240108A3AA
:101FF300E03400F9D083D082E0687003A3E0697015
:10200300127CFD7D04120D5AEE247FF582E43FF528
:1020130083E4F0AC08AD09EEFAEFFB121EE8E9F930
:10202300122C4A7F02021CADC082C08385188285B0
:102033001983E0F8A3E0F9C3EA9CEB9D5010C3ECCD
:1020430098ED99401BC3EA98EB995014800EC3EAAC
:1020530098EB994007C3EC98ED994004790180020D
:102063007900D083D08222EAC39CFAEB9DFB2274D1
:10207300EF121C019003C2E064086005E06407707E
:102083002A9061C8E060249003F0E0F4601DE0F85A
:1020930075F00BA4C8AAF02AF974F228FE74033968
:1020A300FF8E828F83A3A3A3E0700302218090603D
:1020B30060E0C0E0EE2468F582E43FF583D0E0F011
:1020C300750C6D750D05750800750900E5D914F5D6
:1020D3000AE5D95403F50E60127403650E6043E5F7
:1020E3000A600AEE24671221FB700280759005686E
:1020F300E06401601F1221F860047A0480027A0010
:10210300E50AC39AFA95E0FB120C048A088B09EAE4
:1021130045097005120FA680641221F870048A0C19
:102123008B0DE50A6012850C82850D83F50BE5D9CD
:10213300F0A3150BE50B70F61221F8604474FC252F
:102143000AF50A780C121DA8AC0AA90EEEFAEFFBE9
:10215300120E1A7402121B3BE97026AA08AB09126D
:1021630013F6793D8E828F83A3A3A3A3E0FA7B00AA
:10217300120A66EEFAEFFB120D7E120E2C79008026
:102183006F7403650E6051850A1075110078101283
:102193001DA8AC0CAD0DAA08AB09120DDE7402121A
:1021A3001B3BEE24681221FB64807004747F800162
:1021B300E0F50C780C121DACE50EF50C780C121D35
:1021C300ACA90AAC08AD099003F0E0FA7B00120A4F
:1021D3003C7402121B3B80139003C2E06408600B43
:1021E300AC0CAD0DEEFAEFFB120EA4120FB2790197
:1021F3007F0A021CADEE2483F582E43FF583E022DF
:1022030074F2121C0174FC121B25EAFEEBFF890910
:10221300A2AFE433F508C2AF0222CDE0601B780C15
:10222300121DA8AC0BA90EEEFAEFFB120E147402EA
:10223300121B3B7404250BF50B7401250BF5D98593
:102243000ED9E50B6018F50A850C82850D83E0F540
:10225300D9A385820C85830D150AE50A70EA75E119
:1022630095EE2463F8E43FF97A007B00A2AFE433F0
:10227300F50BC2AF88828983E0FCA3E0FDEC4D60DF
:102283003A88828983E0FAA3E0FB8A828B83E0FCAD
:10229300A3E0FD88828983ECF0A3EDF08A828B832F
:1022A300E4F0A3F088828983E0FCA3E0FDEC4D70A9
:1022B3000A88828983A3A3E4F0A3F0E50BA2E0924A
:1022C300AF1213F6900504E004F0EE24631221FB31
:1022D300F8A3E0F9E8496064EE24631221FB2402C9
:1022E300F8A3E03400F988828983E5822402F50C9F
:1022F300E43583F50DE0F50BA3E0F50EEE24621251
:1023030021FB640170369061D0E0F81221F860047B
:102313007C0480027C007480C398FA95E0FBE50B93
:102323002CF8E43400F9E82402F8500109C3EA98D0
:10233300EB99A2D265D033400302221E900504E03C
:10234300604D900505E0F8900504E0C398500C74C7
:10235300026509703A900506E060348E828F83A38C
:10236300A3A3A3E08518828519831223A274021202
:102373001B71E81223A2900503E028F07402121BDC
:102383008BAA18AB197901120A90900504E4F0E5C1
:1023930008A2E092AF7404121B3B7F07021CADF04E
:1023A300A3E4F0900504E0F8228521878522C62264
:1023B300C0E074EB121CEDA2AFE433F508C2AF75B5
:1023C3009B00906182E0A2E05030E591A2E0502AA8
:1023D3007591FE740165217021122546120EF212C9
:1023E3002534121DBB1229F47404121B3BE964014A
:1023F30070057901120F3A122072906182E0A2E512
:10240300505DE591A2E550577591DF9003C2E064FA
:10241300076005E06408702F12254674016521707A
:102423003E120EF2122534121DBB1229F47404124B
:102433001B3BE9640170057901120F3A7901EEFA49
:10244300EFFB1222038018E0640D70139003E4E0A5
:1024530004F064287002E4F07A00E0F9120FB890F7
:102463006182E0A2E64003022509E591A2E640036A
:102473000225097591BF9003C2E064057008120E2E
:10248300DA120EE68003120EE0752100120F46E900
:102493009003C3F07900120F3A120CCA7A017B0041
:1024A3009003C1E0F91213C6907803E064427056BA
:1024B30090056CE014F0704EC2AF1224C000782A6D
:1024C300D0E0F618D0E0F6E59F5407F87005750DD7
:1024D300FF8003750D7FC4C0E07829E6F50A08E69E
:1024E300550DF50B740B780A121B03D0E0250AF87F
:1024F300906270E0A2E740F8E8C333906272F09014
:102503006270E0D2E0F0906181E0A2E35009E5E976
:10251300A2E3500375E9F7A3E0A2E75009E591A20E
:10252300E7500375917FE508A2E092AF7F08021D93
:102533004C8E828F83E0F8A3E0C82416F582E4383A
:10254300F583229003F0E0F875F00BA4C8AAF02AF3
:10255300F974F228FE740339FF22C0E0C0D0C082B0
:10256300C083906183E0A2E05009E5BFA2E050037D
:1025730075BFFEE0A2E15009E5BFA2E1500375BFBC
:10258300FDE0A2E25009E5BFA2E2500375BFFBE004
:10259300A2E35009E5BFA2E3500375BFF7E0A2E44D
:1025A3005009E5BFA2E4500375BFEFE0A2E550096F
:1025B300E5BFA2E5500375BFDFE0A2E65009E5BF22
:1025C300A2E6500375BFBFD083D082D0D0D0E03213
:1025D300C0E074F2121CEDE5A7A2E6500FE5A1A23C
:1025E300E6500953A7BF75A1BF122627E5A7A2E5A9
:1025F300500CE5A1A2E5500653A7DF75A1DFE5A7BF
:10260300A2E15009E5A1A2E1500375A1FDE5A7A24E
:10261300E2500CE5A1A2E2500653A7FB75A1FB7F94
:1026230001021D4C74F7121C017521019003C2E0D5
:1026330064067015120E508A828B83A3A3A3A3A3EF
:10264300A3E0FAA3E0FB120EC8A2AFE433FED2AFBD
:102653009003C8E0640170187A207B009003C1E006
:10266300F91214F87A207B009003C1E0F91213CC1D
:10267300906182E0D2E6F0900569E0602185C62290
:1026830080169003C7E064017008E5C654F844055A
:10269300F5C653BEFC1223AC7401652160E4EEA2BF
:1026A300E092AF7F02021CAD008E238F2485822827
:1026B300858327851882851983E0CEA3E0CF8528FB
:1026C30082852783EBC9EAC8EDCBECCA75F010C34A
:1026D300E833C8E933C9EA33CAEB33CBC3EA9EF51F
:1026E30026EB9FF525B35004AB25AA26EC33CCED9E
:1026F30033CDD5F0DAAE23AF242274E9121C017472
:10270300FA121B25EAFEEBFF8C0A8D0B120EFEEA72
:10271300F8EBF9ECFAEDFB8E828F83121A1F90030C
:10272300C2E024F7C394055006751401022864120D
:102733000E508A088B09EA45097003022861EEFCF2
:10274300EFFDAA18AB19120EF8850882850983A339
:10275300A3780C1219DD908317780C1219A485182D
:102763008285198378101219DD9083177810121956
:10277300A4780C79101217DD501F780C79101219F8
:102783007C908337780C1217FD4047850C14850D18
:1027930015850E16850F1780459083378510148590
:1027A30011158512168513177814790C12197C7874
:1027B300141217FD501C751400751500751600755D
:1027C30017017814791012197C7814790C121943B3
:1027D300800C7514017515007516007517007409C2
:1027E300781412192490836B780C1219DD781479FC
:1027F3000C12189C850882850983A3A3A3A3A3A312
:10280300122882121A9A880C890DE4F50EF50F78B6
:1028130014790C1219437404121B71122882121AB0
:102823009AE8FA8A0CE4F50D7814790C1217DD5046
:10283300077814790C12197C9003C2E06408600ACB
:10284300E064066005E064057020908367781412E5
:1028530017FD501690833B7814121956800C75148B
:1028630000751500751600751700850A82850B83A0
:1028730078141219EC7406121B3B7F10021CADE096
:10288300F8A3E0F97AD07B032274F7121C01120F2C
:1028930010900567E064017010906245E4F0A3F0C6
:1028A30053F4F343FE0C5390F3120EB6E5C654B83B
:1028B3004441F5C6E59E5447644170F890618574C0
:1028C3000FF0900565E0F47002A3E0604E9005669A
:1028D300E0600814601B14602E80407508017509C0
:1028E30000900565E07808121B12E508F452808019
:1028F3002A750801750900900565E07808121B1216
:10290300E508F45290801475080175090090056577
:10291300E07808121B12E508F452A079007F020246
:102923001CAD74F7121C01E9FEEAFF120F107401CB
:102933006E700C7A807B009003C1E0F91213C6908D
:102943002D64E493F46008E493F9120CBE800953F8
:10295300C6B8E59E544770FA120EBC900567E06452
:10296300017003120CDC900565E0F47002A3E060D3
:102973004B900566E0600814601A14602C803D7566
:102983000801750900900565E07808121B12E50837
:1029930042808028750801750900900565E0780874
:1029A300121B12E508429080137508017509009007
:1029B3000565E07808121B12E50842A0120E508A42
:1029C300088B09A808A909E8496014E5E170FCE847
:1029D3002414F582E439F583E0F46003E0F5E1744F
:1029E300016F700A7A019003C1E0F912145C0229A5
:1029F3002074F1121C018A088B098C0A8D0B9083B9
:102A03001778081219A4740F121B71780C1219DDB0
:102A1300908317780C1219A47808790C1217DD909B
:102A2300833750107808790C12197C78081217FD37
:102A33004014800E780C790812197C780C1217FD5B
:102A430050047901800279007F08021CAD74ED12F5
:102A53001C018A088B098C0A8D0B90831778081246
:102A630019A47413121B71780C1219DD9083177853
:102A73000C1219A4780C79081217DD401178087923
:102A83000C12197CAA08AB09AC0AAD0B8022751095
:102A9300007511007512007513017810790C121965
:102AA3007C78107908121943AA10AB11AC12AD133C
:102AB3007F0C021CAD90831778081219DD8A828B74
:102AC3008378081219B77F04021CAD74F5121C0138
:102AD3008C828D8378081219DD8A828B83780812A1
:102AE3001990122B26C3E09CF0A3E09D122B1840F3
:102AF3002290834378081219DD8A828B8378081227
:102B030019698A828B83A3A3A3A3E02420F0A3E003
:102B1300344EF080A0F088828983C3E09420A3E040
:102B2300944E22EA2404F8E43BF98C828D83A3A318
:102B3300A3A3E0FCA3E0FD888289832274F5121C21
:102B430001E9FE90051FE0FAA3E0FBEE29F8E43368
:102B5300F974FE28F582748139F583E02AF508A318
:102B6300E03BF5097808121DA890833F1219FB1268
:102B730026AC7402121B3B8A088B098C0A8D0B74DA
:102B830010780812190BAA08AB097F04021CAD7454
:102B9300F1121C018A0C8B0D8C0E8D0F7411121BFC
:102BA30071121DBF7411121B71E02401F508A3E01B
:102BB3003400F509E4F50AF50B780C790812181CB2
:102BC30090831F78081219DD780C790812181CAA53
:102BD3000CAB0DAC0EAD0F1226AC7402121B3B8B6B
:102BE30009EA450960047A0180027A00EC2AFCE4D0
:102BF3003DFD7413121B71E0F8A3E0F9E8FEE9FF51
:102C0300ECF8EDF97A717B02121A9A88088909E4C3
:102C1300F50AF50B8E828F8378081219ECECF8ED28
:102C2300F97A717B02121A9A8A088B09740578085B
:102C3300121B128E828F83A3A3A3A3E508F0A3E53F
:102C430009F07F08021CADC082C083E9906000F0E8
:102C5300D083D08222C0E0C0D0E8C0E0E9C0E0A2C7
:102C6300AFE433F8D2AFC2C7751A00E8F9E8A2E0BF
:102C730092AFD0E0F9D0E0F8D0D0D0E032C2AF02CA
:102C8300000022C0E074F2121CEDA2AFE433FED2C6
:102C9300AFE58AA2E55024901609E0701E90836385
:102CA300121DBB7A087B009015F8E0F91214EC743E
:102CB30004121B3BE99016097401F09018BEE064FE
:102CC3000170309018BDE0702AE58AA2E650249086
:102CD300160AE0701E908363121DBB7A007B089076
:102CE30015F8E0F91214EC7404121B3BE990160A70
:102CF3007401F0758A00C2EBEEF8EEA2E092AF7FAA
:102D030001021D4CC0E0C0D0E8C0E0E9C0E0EAC069
:102D1300E0C082C0839018BF7400F0AAC1EAC0E08B
:102D23009017BEE0F8790074BF28F582741739F55F
:102D330083D0E0F09017BEE02401F09017BEE0646A
:102D4300FA70035386BF9017BD7402F0C28BD08311
:102D5300D082D0E0FAD0E0F9D0E0F8D0D0D0E032A1
:102D6400FFFFFFFFFFFFFFFFC082C083E9901985CB
:102D7400F0D083D08202013274F6121B95E99003DD
:102D840034F0900394E0F508750900740278081291
:102D94001B12AA08AB0912144490033512372F9062
:102DA4000335123B1C606F900394E075F003A4FAA2
:102DB400ABF012144490035212372F900352123B7B
:102DC4001C700B900335123AED12144A804890039C
:102DD40052124A817AFF7BFF1212A07A0080198A6C
:102DE4000875090074027808121B1212452974FF31
:102DF400122F2FE4F0A3F00A900394E0F8EAC398AA
:102E040040DD790512092E900334E0F912081A7A8C
:102E1400B87B09120BA40245CC74F4121B958A08E2
:102E24008B09EB54806047900334E0F91213AE8AA7
:102E34000A8B0BAE0AAF0BEE4F602A8E828F83E0B3
:102E440064B0701A120940E960148E828F83A3A3C0
:102E5400A3A3E0F9EE2405FAE43FFB120910EEFA0D
:102E6400EFFB12139CAA08E5096480FB80047A0036
:102E74007B0002307F74F2121B9574FB121B25EA4F
:102E8400FEEBFFEE4F60457403121B71EEF0A3EFEF
:102E9400F0851882851983ECF0A3EDF07402121BFF
:102EA40071E9F0AA18AB19120814E9F508707574E1
:102EB40013121B71E0F50AA3E0F50BE50A450B605C
:102EC400638E828F831234B8EE4F700575080280CA
:102ED400537A067B001214448A0C8B0DA80CA90D9E
:102EE400E8497005750813803B88828983E4122FB2
:102EF4002FEEF0A3EF12304BE50AF0A3E50BF090B0
:102F040003381230449003386017E0FCA3E08003D8
:102F1400EAFCEBFD8C828D8312304470F38C828D3D
:102F240083124144A9087405024D01F0A3124A63B7
:102F3400A32274F2121B958908890C750D00740381
:102F4400780C121B12850C0A850D0B900337F09038
:102F54000335123F4F123042602E12144A7900801A
:102F64001D890C750D007402780C121B1290033528
:102F74001243E88882F583A3A3E4F0A3F009900345
:102F840094E0F8E9C39840D9900394E0FA850AF0F4
:102F9400A4CAA8F0850BF0A428FB1214448A0C8B55
:102FA4000DAE0CAF0DEE4F7003023038900394E079
:102FB400FC850AF0A4CCA8F0850BF0A428FD7900C8
:102FC40012138A7C0080318D0C750D007403780C0B
:102FD400121B128A828B8312303D88828983E4F02B
:102FE40012304AA3A3F0A3F00DEDC3950840D8EE28
:102FF400250AFEEF350BFF0C900394E0F8ECC39820
:1030040050288C0C750D007402780C121B1290035E
:103014003512303DE82402500109FAE9FB8A828B1B
:1030240083EEF0A3EFF07D0080BFE508900337F056
:10303400790080027913024D041243ECF922A3A310
:10304400123AF1EA4B22A3124A63A3A3A32274F413
:10305400121B957900EAA2E0501F7508C975098210
:103064007808121DA879107C047D007A877B1912D8
:1030740009287402121B3BE9F980007F04021C67D3
:10308400C082C083900338123B1C601C88828983F1
:10309400A3A3E06A7003A3E06B8882898370E8A32A
:1030A400A3A3A3123AED80047A007B00022D757469
:1030B400F2121B9574FD121B25EAFEEBFF851882A4
:1030C400851983E4F0A3F07402121B717401F012E9
:1030D4003B197014120ADE12144490033B12372F6A
:1030E400123B19700302324512382FEE2404F50AFC
:1030F400E43FF50B850A82F583E024FE603C24FC62
:10310400607424FE607E24FE700302319524FE70F8
:10311400030231A224FE70030231AF24FE700302C5
:1031240031BC24FE70030231C924FC70030231EA6D
:1031340024FE700302320202323E120ADE90033D84
:10314400EAF0A3EB12325112055CE9600302323E4D
:1031540090033D121DBF8E828F83A3A3A3A3A3124A
:103164004A81850882850983123AED1208F87402AF
:10317400121B3B02323EAC18AD19EEFAEFFB1209FA
:103184004602320DAC18AD19EEFAEFFB12094C8071
:1031940078AC18AD19EEFAEFFB120952806BAC183B
:1031A400AD19EEFAEFFB120958805EAC18AD19EEBA
:1031B400FAEFFB12095E8051AC18AD19EEFAEFFB81
:1031C40012096480447402121B7B880C890D780CEC
:1031D400121DA87402121B8BEEFAEFFB12096A741B
:1031E40002121B3B8023AC18AD19EEFAEFFB120957
:1031F40070E9F870167402121B71E4F0803CAC188C
:10320400AD19EEFAEFFB120976E9F8E8602C8E822C
:103214008F83A3E064146022850A82850B83E09087
:10322400033DF0851882851983123AED90033E120E
:10323400372FE8A3123251120556EEFAEFFB1208AB
:10324400CE7402121B71E0F97403024D01F07C3D4F
:103254007D03850882850983123AF12274E8121BE2
:103264009574FA121B257404121B71ECF0A3EDF093
:103274008A128B13EA2405F50EE43513F50FEA24BC
:1032840002F510E43513F511851082F583123AED39
:1032940012064C8A0A8B0B7508007C037D007900AA
:1032A4007A3D7B0312138AE50E2402F516E4350FEA
:1032B400F5177402121B7B880C890D780C121DA85B
:1032C400850E82850F83A3A3A3A3E0F50C750D00DF
:1032D400780C121DA8E50E2405F50CE4350FF50D48
:1032E400780C121DA8851682851783123DF41208E6
:1032F400327406121B3B8A0C8B0DE50C450D7003D2
:103304000234818020851882851983E0888289832C
:10331400F00508851882851983A3E0C0E01234C241
:10332400D0E0F00508E50A24FBFAE50B34FFFBC303
:10333400E5089AE49B40030234817E007F008512F5
:1033440082851383A3A3A3A3E0F5097809121DAC16
:10335400E4F514F5157814121DA875143A751503BF
:103364007814121DA890033B121DBF7409121B711F
:10337400121DBFE50A24F9F9AC0CAD0D8510828548
:103384001183123AED1209A07409121B3BE9600380
:10339400023422850E82850F83A3A3A3A3A3A3A330
:1033A400E0F890033AE0687075E0F5148E1578142F
:1033B400121DA8124A7E850E82850F83A3A3A3A3A0
:1033C400A3A3A3A3123AED1213847402121B3BE9C4
:1033D400604C90033E123B1C703BE4F514781412CD
:1033E4001DA87CFF7DFF7907851082851183123A21
:1033F400ED12090A7402121B3B123B227017850E50
:1034040082850F83124C1B7404121B711244DC124C
:103414003E250234B5850C82850D831234B8A81874
:10342400A919881489157814121DA87404121B7123
:10343400121DBF85168285178312372512083E7424
:1034440004121B3B8A0C8B0DEE4F70030232FE12EA
:1034540034C2EE1234CD123DDBEF1234CDF8A3E0CA
:103464003400F9E50C450D60030233098882898331
:1034740074FFF005081234C274FFF00508E5086013
:103484001A1313543F123735120568E96009900383
:103494003E123AED1213F679008016850E82850FDE
:1034A40083124C1B7404121B711244DC12414479C4
:1034B4000A023DAEA3A3A3A3E0FEA3E0FF22A80853
:1034C40090033EE028123DDB22F005080890033EFD
:1034D400E0282274E8121B9574FA121B2574021258
:1034E4001B7112372F7404121B71ECF0A3EDF074EE
:1034F40002121B71E02405123DC4E0F50CA3E0F5B3
:103504000D7402121B71E02402F510A3E03400F5DF
:1035140011851082F583123AED12064C7508007578
:103524000900EA24FCFEEB34FFFF8008050CE50CDF
:103534007002050DA808C3EE98EF940050030236FC
:10354400E1A818A919880E890F780E121DA88514F0
:1035540082851583A3A3A3A3124A85121DA8E5148B
:103564002405F50EE43515F50F780E121DA8851403
:10357400828515831237231208327406121B3B8A84
:103584000E8B0FEA450F70030236E1EA2404F516A8
:10359400E4350FF517851682F583E0F50CA3E0F505
:1035A4000D851882851983124A818A828B83A3A38D
:1035B400A3E0F9851082851183123AED120820E9FF
:1035C400F50960030236E17402121B71123DEBF53A
:1035D400097809121DACE4F512F5137812121DA82E
:1035E40075123A7513037812121DA890033B121D2D
:1035F400BF7407121B71121DBFEEF9AC0EAD0F851F
:103604001082851183123AED1209A07409121B3B32
:10361400E9F50960030236E1E508703FE4F50EF5CB
:103624000F780E121DA87CFF7DFF79098510828515
:103634001183123AED12090A7402121B3B123E1155
:10364400700D7404121B711237187911023715901A
:10365400033AE0240290033EF0801490033EE0FA23
:1036640090033AE0790024025001096A497072A873
:103674000890033AE0FAE82AFAE43400FBEE9AEF01
:103684009B405A851682851783E0C0E090033F1261
:1036940034C7D0E0F00508851682851783A3E0C0FF
:1036A400E00890033F1234C7D0E0F0050890033AD5
:1036B400124A85121DA8124A7EA808123DB8121398
:1036C400727402121B3B90033AE02508F50874FF5C
:1036D400650C700474FF650D6003023530E5086005
:1036E4001F90033EE0F5F0E5088412373512056EAD
:1036F400E9600990033F123AED1213F67900801144
:10370400E509700375090A7404121B71123718A9AC
:1037140009023DAE123F53E50CF0A3E50DF022A3E0
:10372400A3124D10AA0CAB0D22A3A3EAF0A3EBF055
:103734002290033DF07C3D7D038510828511831228
:103744003AF12274EC121B9574FC121B251242549C
:103754007402121B8B123AE71208388A0C8B0DEA9A
:10376400450D700302381F12382FA818A9198810A4
:1037740089117810121DA87CFF7DFF790B850882C2
:10378400850983123AED12090A7402121B3B12399D
:1037940025700C850A82850B83123E2202382C8EFA
:1037A400828F83A3A3A3A3E0F5127812121DACE4C5
:1037B400F512F5137812121DA875123D75130378CE
:1037C40012121DA87810121DA87409121B71121D63
:1037D400BF7409121B71E0F9AC0CAD0D850882852C
:1037E4000983123AED1209A07409121B3BE9FE7019
:1037F400157C3D7D03850882850983123AED120507
:1038040074E97009802074166E70027E0090033E85
:10381400123AED1213F6EE7004800B7E01850A82D3
:10382400850B83124141EEF9024156EE2402F5085C
:10383400E43FF5092274EC121B9574FC121B25EA73
:10384400FEEBFF8C0E8D0FEE2405F508E43FF50921
:103854007402121B8B850882850983123AED1208C3
:10386400388A0C8B0DEA450D7003023915EE2402DB
:10387400F50AE43FF50BA818A919881089117810E6
:10388400121DA87CFF7DFF790D123AE712090A7414
:1038940002121B3B123925700B850882850983129D
:1038A4003E22807A8E828F83A3A3A3A3E0F51278AD
:1038B40012121DAC850882850983A3A3121DBF754E
:1038C400123D7513037812121DA87810121DA874E6
:1038D40009121B71121DBF7409121B71E0F9123A0F
:1038E400E31209A07409121B3BE9FE700F7C3D7DB5
:1038F40003123AE712057AE97009802074166E7093
:10390400027E0090033E123AED1213F6EE7004802C
:103914000B7E01850882850983124141EEF902413B
:1039240056123B2CF510A3E0F511EA45112274E878
:10393400121B9574FE121B258A168B178C148D1579
:10394400EA2405F50CE43517F50DEA2402F50EE436
:103954003517F50F850E82F583123AED12064C8A5F
:10396400088B09750B007C037D0079007A3D7B038D
:1039740012138A750A00E50814F5100424FFF508EB
:10398400E50934FFF509805490033DE0FA90033AC9
:10399400E0F8EA28F8E43400F9E50898E5099950D4
:1039A4000D90033DE0F8E510C39890033AF0E0F57C
:1039B400127513007812121DA8124A7E90033EE07D
:1039C4002AFAA3E03400FB1213727402121B3B9018
:1039D400033AE0F890033DE028F0050A850C82855F
:1039E4000D83A3A31243F84003023AC890033DE0B9
:1039F400C39508E495094003023AC8AE0AEE2EFEC8
:103A0400E433FF123B07AC18AD19124A99E439FBB1
:103A14001208388A128B13AC12AD13EC4D701B755F
:103A24000B01123AF712414590033E1230446003F1
:103A34001213F6A90B7402023DB085168285178312
:103A4400A3A3A3A3E0F50B780B121DACE4F512F5C8
:103A5400137812121DA875123A7513037812121DE9
:103A6400A890033B121DBF7407121B71121DBFA93E
:103A740010850E82850F83123AED1209A074091283
:103A84001B3BE9F50B709B90033E123B1C60030249
:103A9400398CE4F512F5137812121DA87CFF7DFF12
:103AA400790F850E82850F83123AED12090A74028A
:103AB400121B3B123B22600302398C123AF7123E6E
:103AC40026023A397C3D7D03850E82850F83123AA6
:103AD400ED120580E96003023A2C7900023A39AC10
:103AE4000CAD0D850A82850B83123AF122E0FAA30C
:103AF400E0FB22123B07E0FAA3E0F9EA8514828591
:103B0400158322850C82850D83E02EF8A3E03FF90E
:103B1400888289832290033B124C1FE84922123B7E
:103B24002CF8A3E0F9E8492290033EEAF0A3EBF075
:103B340090033EE02274E8121B9574FA121B25745C
:103B440004121B7112372F8C168D177404121B71FB
:103B5400E02405F50EA3E03400F50F7404121B7184
:103B6400E02402123DC4123AED12064C8A0A8B0B71
:103B74007F007E00A818A919880889097808121DF1
:103B8400A8850E82850F83A3A3A3A3E0F5088E095D
:103B94007808121DA8E50E2405F508E4350FF5098B
:103BA4007808121DA8850E82850F83A3A3123DF405
:103BB4001208327406121B3B8A0C8B0D8029123DAD
:103BC400E5F00F123DE5F00F90033A124130121D5B
:103BD400A8124A7EEFF8123DB81213727402121B37
:103BE4003B90033AE02FFFE50C450D7003023C7453
:103BF400851882851983124266A3A3A3E0F985146C
:103C040082851583123AED120820E9FEE50C24049E
:103C1400F510E4350DF511EE70507404121B711299
:103C24003DEBF5087808121DACE4F508F5097808B1
:103C3400121DA875083A7509037808121DA8900387
:103C44003B121DBF7407121B71121DBFE50A24FA33
:103C5400F9AC0CAD0D851482851583123AED120969
:103C6400A07409121B3BE9FE6039123E0112414463
:103C7400EF7003023D9B90033EE0F5F0EF84900368
:103C84003DF07C3D7D03851482851583123AED1247
:103C94000586E9600990033F123AED1213F67900A4
:103CA400023DAE8F08EF703BE4F512F51378121263
:103CB4001DA87CFF7DFF7911851482851583123A36
:103CC400ED12090A7402121B3B123E117009123ED6
:103CD40001123E25023DAE90033AE0240490033ED7
:103CE400F0803590033AE0F890033EE0FAE82404CB
:103CF400FCE43400FDEC6A4D6003023C7AE50A24DE
:103D0400FAFAE50B34FFFBE50828F8E43400F9EA95
:103D140098EB995003023C7A851082851183E0C0A8
:103D2400E090033FE02FF8A3E034008882F583D0CD
:103D3400E0F00F851082851183A3E0C0E0123DD22C
:103D4400D0E0F00F7402121B7B88088909780812EE
:103D54001DA87402121B71121DBF850E82850F836C
:103D640012372312083E7404121B3B8A0C8B0DEA93
:103D7400450D7003023BC27402121B71E0C0E012D5
:103D84003DD2D0E0F00F7402121B71A3E0C0E01228
:103D94003DD2D0E0023BCAEE70027E0A850E8285D7
:103DA4000F83123E07124144EEF97406121B3B7F47
:103DB40010021C6790033FE028FAA3E03400FB22C2
:103DC400F514A3E03400F515851482F58322123D21
:103DD400D62290033FE02FFAA3E034008A82F583D1
:103DE40022123DD674FF22123F53A3A3A3A3E022C1
:103DF400124D10850E82850F83123AF122851082AE
:103E0400851183124C1F8516828517832290033FE8
:103E1400EAF0A3EBF090033F124C1FE84922124151
:103E24004AE8F0A3E9F079112274EA121B9574FEB2
:103E3400121B258A088B098C128D13EA2405FEE4D3
:103E44003509FFAC18AD198E828F83123AED120832
:103E5400388A0C8B0DEE2406F50EE43FF50FEA4587
:103E64000D7003023F25E5082402F50AE43509F53F
:103E74000B8A828B83A3A3A3E0A2E5502885188232
:103E8400851983123AED1209948A108B11EA4511AF
:103E940060207912123AE3851082851183121B93F4
:103EA400E9F50C707F850E82850F83E060097952F5
:103EB4008011750C0E806D850882850983A3A3A3E8
:103EC400A3E0F9E4F508F5097808121DA88E828F9D
:103ED40083A3A3E0F5087808121DA88E828F83A31C
:103EE400A3A3121DBF8E828F83124A81123AE71256
:103EF40009A67406121B3BE9F50C7011850E828528
:103F04000F83E0702D123AE712058C802574166534
:103F14000C7011750C007418121B71123F4FE48061
:103F240010750C01124C17851282851383E8F0A3D7
:103F3400E9F0850E82850F83E0600479008002A990
:103F44000C7402121B3B7F0E021C67123F5322E0CB
:103F5400F8A3E0F58388822274EC121B9574F7129F
:103F64001B258A0A8B0B8C108D11EA2405FEE4357F
:103F74000BFF750C00AC18AD198E828F83123AEDCD
:103F84001208388A088B09EA4509700302411BE5C7
:103F94000A2402F50A5002050B8A828B83A3A3A389
:103FA400E0A2E5502F851882851983123AED120993
:103FB400948A0C8B0DEA450D604F7912AC08AD095B
:103FC400123AE7850C82850D83121B93E9F50C6088
:103FD4000302411E850A82850B83E0F508A3E0F500
:103FE40009AA08FB120988EA4B70197AFF7BFF12B1
:103FF4000988EA4B70030241118A828B83E508F039
:10400400A3E509F07508008008750C0E02411E0531
:1040140008900337E0F8E508C3984003024111858E
:10402400080E750F007403780E121B128A828B839C
:10403400A3A3E0250EF8A3E0350F1244E570D08E5B
:10404400828F8312413912372F8E828F83A3A3125A
:10405400413912372DEE2404F508E43FF5098508AB
:1040640082F583E088828983A3A3A3A3F0A3E4F069
:10407400EE2405F50EE43FF50F850E82F58312411B
:1040840039A3A3A3A312372D751207751300781251
:10409400121DA8EEFCEFFD7404121B83121372743C
:1040A40002121B3BE4F5127812121DA885088285C2
:1040B4000983E0FC7D007917123AE712090A7402B9
:1040C400121B3B7407121B7112372F7407121B71DA
:1040D400E0FA4B603D850882850983124130121D48
:1040E400A8850E82850F83124A81121372740212FC
:1040F4001B3B7402121B8B123AE7120592E96026ED
:104104007407121B71123AED1213F68019750C091B
:104114008008750C118003750C01124C17851082F0
:10412400851183124144A90C74098028E0F50875AF
:104134000900780822123AF1888289832212414ABE
:10414400E8F0A3E9F022E0F8A3E0F9850E82850FF8
:1041540083227404121B3B7F0C021C6774EC121B39
:1041640095124254751000EE2402F50CE43FF50D4F
:10417400850C82F583123AED1209888A088B09EAC4
:1041840045097003024238850A82850B83E0640185
:10419400600302422DAC08AD09AA0AAB0B12097CDC
:1041A400E9606E8508828509831234BAEE2406F527
:1041B4000AE43FF50B8E828F83A3A3121DBF8E8268
:1041C4008F83A3A3A3A3121DBF850A82850B831229
:1041D4001DBF79188E828F83124266123AED12093E
:1041E400A67406121B3BE9F8741668700B850A82E4
:1041F400850B83E4F0A38014E860128E828F83120F
:104204003AED850E82850F83EAF0A3EBF0881080E7
:1042140018780E121DA8AC08AD09EEFAEFFB1209CE
:10422400827402121B3BE9F510AA08AB0912098E2D
:10423400E510700E850C82850D83123AED120598F7
:104244008009741665107003751000A91002415B93
:10425400EAFEEBFF8C0E8D0FEE2405F50AE43FF524
:104264000B22124D10850C82850D832274EA121BD9
:10427400957508007509007E007F00750A00EC241E
:1042840002F510E43DF5118035EC65087003ED6529
:1042940009600302432588828983A3A3E06A70032B
:1042A400A3E06B707C88828983A3A3A3A3124C1B15
:1042B400EE28FEEF39FFEA28FAEB39FB050A124330
:1042C400F5503A850A0C750D007403780C121B1214
:1042D4008510828511831243E81244E5601FE508C6
:1042E400450970A58C088D09888289831234B888A1
:1042F400828983A3A3E02EFAA3E03F80BEE50AC32C
:10430400940250030243E3750800750900EE4F6000
:1043140010EEFAEFFB1213F08A0E8B0FEA450F70C2
:104324000579000243E5750B000243B8850B0C7553
:104334000D007403780C121B12851082851183E022
:10434400250CF50CA3E0350DF50DE50C2406F5144C
:10435400E4350DF515851482F5831244EA6042E5CF
:104364000C2404F512E4350DF513851282F583123D
:104374001DBFE50E2508FAE50F3509FB121372740B
:1043840002121B3B851282851383E02508F508A3DE
:10439400E03509F509851482851583123AED121367
:1043A400F6E50B600D7C087D007900AA0CAB0D12BC
:1043B400138A050BE50BC3950A500302433085109D
:1043C40082851183124C1B88828983A3A3A3A3A390
:1043D400A3E50EF0A3E50F12304BEEF0A3EFF07956
:1043E40001023F4A1243EC22E0250CF8A3E0350D0C
:1043F40022900337E0F8E50AC3982274F0121B9563
:104404008A0E8B0F8C0A8D0B750D00750C00805075
:104414007916EE2406F508E43FF5098E828F83A30E
:10442400A3121DBF8E828F83A3A3A3A3121DBF85D6
:104434000882850983121DBF850E82850F83A3A37D
:10444400123AED1209A67406121B3BE9F50D741617
:10445400650D706C850882850983E4F0A3F0050C72
:10446400900337E0F8E50CC3985066AA0C8A0875E7
:10447400090074037808121B12850A82850B83A332
:10448400A3124534E8FEE9FF8E828F831244EA606A
:1044940040EA2401F508E43400F509900337E065A7
:1044A400087002E509601488828983A3A3A3A3A3E7
:1044B400A3A3A3123B1C60030244147918024416FC
:1044C400E9609B124C177410121B711244DC1241E8
:1044D40044A90D7F08021C67E0FAA3E0F5838A82F1
:1044E40022F988828983124D10EC4D2274F6121B36
:1044F400957C0080010C900394E0F8ECC398501E66
:104504008C0875090074027808121B12124529E000
:104514006A7003A3E06B70DDE8FAE9FB80047A00BB
:104524007B000245CC90033512453488828983226E
:10453400E02508F8A3E03509F92274F2121B958AE4
:10454400088B09750A0080278E828F83A3A3A3A3F7
:1045540012304260031213F67C087D007900EEFAF3
:10456400EFFB12138A8E828F83E4F0A3F0050A1204
:1045740043F55027850A0C750D007403780C121B43
:1045840012850882850983A3A3E0250CFEA3E035E8
:104594000DFF8E828F83123B1C70AD8508828509C6
:1045A4008374FFF0A3F0024D0474F6121B951209F4
:1045B4003A8A828B83E582458370067A007B008089
:1045C40007A3A3A3A3123AED7F02021C6774F4129B
:1045D4001B9589088C828D83E06402703C124BBA6F
:1045E400FEA3E0F9EEF87402687003742969702977
:1045F400750A02750B00780A121DA87410121B713B
:10460400121DBF7410121B71121DBFA9081212B221
:104614007406121B3BE9F98002790102307F74E8C9
:10462400121B9574FB121B25E9851882851983F0EA
:104634008A168B17ECFEEDFF7510008E828F83A314
:10464400A3A3E0A2E4502D741D121B71123AED12C3
:1046540009948A828B83E58245837003024A5979DF
:104664000AEEFCEFFDAA16AB17121B93E9F51060D6
:1046740003024A5C741F121B71E0F508A3E0F509FC
:104684007421121B71E0F50AA3E0F50B7423121BCD
:1046940071E0F50EA3E0F50F8E828F83E064026073
:1046A400030249FAA3124C1B850882850983A3855A
:1046B4008212858313EE2406F50CE43FF50D8882FF
:1046C4008983124A99F514E439F5157814121E32C7
:1046D400010000280128FC4607000228C1470328DE
:1046E4002F470029F04801291B490229BC48032906
:1046F400F04804299449FA49E50E450F600302493C
:10470400F5850C82850D83124C1BE8FAE9FB8A823D
:104714008B83E0850A82850B83124AA4121DA88A22
:10472400828B83A3E0FCA3E002497EE50E450F6083
:10473400030249F5850A82850B837401F0124A8EBF
:10474400850882850983F07C007D008E828F83A397
:10475400A3A3A3E02401FAA3E03400FB120838EA7F
:104764004B60408A828B83E02402F8850A82850BA1
:1047740083E028F0EA2404F8E43BF988828983E0A2
:10478400851282851383124AB2124AA4121DA88A82
:10479400828B83A3124A81E5082403FAE43509FBDA
:1047A400024983850A82850B83E02404F07C047D1E
:1047B400007900AA12AB1312138A024A5CE50E4573
:1047C4000F60030249F5124A8EFEA3E0FF850A82B8
:1047D400850B837404F0EE850882850983F0EF85E8
:1047E4001282851383F07403121B8BEEFAEFFB1213
:1047F40008388A0C8B0DEA450D700302489F8A82A3
:104804008B83A3A31234B87401121B7B880E890F07
:10481400780E121DA87405121B71121DBF7CFF7D3A
:10482400FF12083E7404121B3B8B0FEA450F7033D2
:10483400850C82850D83124A85121DA8850C8285FC
:104844000D83A3121DBF7C027D007AE17B831206D7
:104854003A7404121B3BE9700A7401121B7174FF51
:10486400F0A3F08E828F83E064027039750C0275B8
:104874000D00780C121DA88E828F83A3124A81E545
:10488400082404FAE43509FB1213727402121B3B68
:10489400850A82850B83E0240280097401121B714E
:1048A400EEF0A3EFF07401121B71124A737401123B
:1048B4001B71124A6A0249EFE50E450F6003024973
:1048C400F5850C82850D83124D09AA16AB171212B9
:1048D400B8850A82850B837402F085088285098372
:1048E400EAF0851282851383EB0249F2E50E450F47
:1048F40060030249F5124A8EF8A3E0F9850A82851D
:104904000B837402F0E8850882850983F0E9851237
:10491400828513830249F2850C82850D83123AED58
:1049240012136CEAFAF8C3950EE4950F405CE8653F
:104934000E450F70047A008021851882851983E062
:10494400FCE50E2CFCE4350FFDC3EC98ED9400500F
:1049540003E08005E50ECAC39AFAEA850A82850B4C
:1049640083F08A0A750B00780A121DA8850C8285CB
:104974000D83E0250EFCA3E0350FFDAA08AB091258
:1049840013727402121B3B024A5C751007024A5CE4
:10499400E50E450F705B850C82850D83124C1B85DB
:1049A4000A82850B837407F088828983124A6B120A
:1049B4004A63E0851282851383F0E82402FAE4391D
:1049C400FB8A828B83124A738A828B83124A6AA37C
:1049D400A312304A124A78F0E82405F850010988F5
:1049E400828983124A78A3124AB2A3A3A3A3F080B4
:1049F4006775100B8062741D121B71123AED120957
:104A04003A8A828B83E5824583604A124C1B880C68
:104A1400890DE8450D603E7425121B71E0F5107890
:104A240010121DAC780E121DA8780A121DA8780861
:104A3400121DA87407121B71E0F9EEFCEFFDAA1613
:104A4400AB17850C82850D83121B937407121B3BD5
:104A5400E9F510800375100EA9107405023DB0F03D
:104A640088828983A322A3E0850882850983221290
:104A74004AB9F022124AB9A3A32290033B124D1063
:104A840022E0F50E750F00780E22850C82850D83C9
:104A9400123F53E022E0FAA3E0F8E4C8F9EA28223E
:104AA400F08A828B83E0F50A750B00780A22124A99
:104AB40063124AB922E0850882850983A3A322747C
:104AC400EE121B9574FE121B258A088B09ECFEED71
:104AD400FF890AAC18AD19EEFAEFFB1208388A0CFC
:104AE4008B0DEA450D7003024BAB85188285198343
:104AF400123AED12093A8A828B83E5824583700368
:104B0400024BA6A3A3124C1B880E890FE8450F7015
:104B140003024BA67414121B71E0F510A3E0F51107
:104B2400E50AF50B780B121DAC7419121B71121DDA
:104B3400BF7810121DA8741B121B71E0F9AC0CADE8
:104B44000DAA08AB09850E82850F83121B93740589
:104B5400121B3BE9F50B705274FE650A604C850C20
:104B640082850D83E064027041124BBAFAA3E0F926
:104B7400EAF87402687003742969702E85108285BE
:104B84001183124A99F50CE439F50D780C121DA81D
:104B9400EEFCEFFDAA08AB091209BE7402121B3B1E
:104BA4008008750B0E8003750B01A90B7402121B90
:104BB4003B7F0A021C67A3124C1F88828983E02270
:104BC40074F6121B9574FE121B25740C121B7112C1
:104BD4004C1BE8851882851983F07401121B71E956
:104BE400F0E4F508F5097808121DA875080278089C
:104BF400121DA87404121B7B880889097808121DE9
:104C0400A879FE1209A67406121B3B7402121B3B00
:104C14000245CC8E828F83124C1F22E0F8A3E0F968
:104C24002274F7121B95EAFEEBFF890890035212D7
:104C34004A811212B8EA5402600BA908EEFAEFFB9B
:104C440012082C800279017F01021C6774F2121B86
:104C54009574FE121B25EAFEEBFF890A7401650AAE
:104C640060147402650A6003024CFF7901120BC2DE
:104C7400E96003024CFFEEFAEFFB120988EA4B608D
:104C84000312098EA818A919880889097808121D21
:104C9400A87508027509007808121DA87508D3754F
:104CA40009837808121DA87CFF7DFF7A017B00121E
:104CB40008327406121B3B8038850882850983A359
:104CC400A3A3A3A3A3124D09EEFAEFFB1212A0E4CF
:104CD400F50CF50D780C121DA87402121B71121D2F
:104CE400BF7CFF7DFFAA08AB0912083E7404121BA7
:104CF4003B8A088B09E508450970BE7402121B3B08
:104D04007F06021C67123F53124D1022E0FCA3E001
:104D1400FD2274F4121B958A088B09ECFEEDFF90BA
:104D24001985E0F4604B7A097B00121396EA4B6014
:104D3400408A828B8374B1F0A3E4124D78F08A82A6
:104D44008B83A3A3E508F0A3E509124D78A3EEF045
:104D5400A3EFF0740C121B71124C1B8A828B83A379
:104D6400A3A3A3A3A3A3124144901985E0F91213AA
:104D7400A202307FF08A828B83A3A3A3A32274EEC2
:104D8400121B9574FA121B258A0A8B0BE9FF8C08F7
:104D94008D097E00850A0C850B0D780C121DEC0024
:104DA40004105E50CA4DED4D0C4E2F4E524E754EB2
:104DB400A64EC94EE04E104FBF4FE24F0550335040
:104DC4005E505E50394F74016F70198508828509F1
:104DD40083E0C39403500D850882850983E0901A0B
:104DE40071F080027E1802508674026F7015850877
:104DF40082850983E0F8A3E0F9901A72E8F0A3E948
:104E0400F080027E1802508674016F701985088242
:104E1400850983E0C39402500D850882850983E0E7
:104E2400900795F080027E1802508674016F701905
:104E3400850882850983E0C39405500D8508828521
:104E44000983E0900796F080027E18025086740170
:104E54006F7019850882850983E0C39402500D851B
:104E64000882850983E0900797F080027E1802503B
:104E74008674106F7027750C10750D00780C121D58
:104E8400A8AC08AD097A987B071213727402121B3E
:104E94003B8A0C8B0D850C82850D8380027E180263
:104EA400508674016F7019850882850983E0C39464
:104EB40002500D850882850983E09007A8F08002DE
:104EC4007E1802508674016F700D850882850983EF
:104ED400E0901A75F080027E1802508674046F7098
:104EE4002690833F780C1219DD8508828509837822
:104EF4000C1217ED5011850882850983121A13903C
:104F040007AA121A1F80027E18025086EF7021121F
:104F140007D2E97013121246E9F50D79501214CE36
:104F2400E9F50C121234800A90083D7401F08002F5
:104F34007E1802508674076F707C750E06750F001C
:104F4400780E121DA8850882850983A3AC82AD83DF
:104F54007402121B831213787402121B3B8A108B87
:104F64001185100E85110F7C007D00AA18AB1985E0
:104F74000882850983E0F91211DAE9F50CE50CC31E
:104F8400940A502E1207D2E97015A90C12124CE99A
:104F9400F50E79501214CEE9F50D1212348019A8C9
:104FA4000C7900743E28F582740839F5837401F095
:104FB40080067E0280027E1802508674016F70198A
:104FC400850882850983E0C39402500D8508828593
:104FD4000983E09007A9F080027E180250867401CC
:104FE4006F7019850882850983E0C3940A500D8582
:104FF4000882850983E0901A74F080027E180250BA
:105004008674016F7025850882850983E0C394073F
:105014004019850882850983E0C39411500D8508E1
:1050240082850983E0901A76F080577E1880537445
:10503400016F702290083CE0F50C85088285098395
:10504400E090083CF0E50C703990083CE064017095
:1050540031121234802C7E188028C3E50A9427E587
:105064000B9400501B74026F7016850882850983A7
:10507400E0FCA3E0FDAA0AAB0B120652E9FE800293
:105084007E02EEF97406121B3B7F0A021C6774EC65
:10509400121B9574DA121B25890D8A128B138C0A44
:1050A4008D0B743A121B71E0F50C9082CFAC18ADE5
:1050B400197406121A38AC18AD19AA12AB13A90D3B
:1050C4001211DAE9FEEEC3940A4003025206EEF925
:1050D400121216E9FF901A71E064027004740180E0
:1050E400027400F5087808121DACAD0CEFFCEEF963
:1050F400AA0AAB0B1212887401121B3B7C147D00AC
:1051040079007412121B8312138A8A0E8B0F850E78
:1051140008850F097412121B8B7A1075F006EEA421
:105124002424F91214C8E9703C7C1079FF7412121B
:105134001B831213EAE9702D7422121B71AC82AD29
:10514400837A0475F006EEA42425F91214C8E9F54F
:10515400087412121B8BEFA2E0E433F9AA0AAB0B1A
:105164001206DCE9F87406121B8B7A0C74702EF9A3
:105174001214C8E970797406121B8312120A750E90
:1051840000E50EC394045067A80E7900E875F00397
:10519400A4C8AAF075F000A42AFA75F003E9A42AB9
:1051A400F97406121B71E58228F508E58339F509BF
:1051B400850882850983E0F8A3E0F9E849602C8535
:1051C4000882850983A3A3E0F510751100781012F5
:1051D4001DA8850882850983E0FCA3E0FDAA0AAB2B
:1051E4000B1209AC7402121B3BE9F8050E8092EF16
:1051F400A2E1500E900794E0F9AA0AAB0B1209B28F
:10520400E9F87404650C700F901A71E06402700779
:10521400AA0AAB0B12128279007426121B3B7F0C74
:10522400021C6774F7121B95EAFEEBFF1207D2E922
:10523400706790083DE06401701B121246E9F5089E
:1052440090083D7400F07C0A7D0079007A3E7B086A
:1052540012138A8039750800E508C3940A502FA8F0
:10526400087900743E28F582740839F583E06401F6
:105274007018A90812124CE9FAA8087900743E289B
:10528400F582740839F5837400F0050880CA7950F2
:105294001214CEE9F5081212347F01021C6774F26D
:1052A400121B95890BEAFEEBFF8C088D09750A0A1F
:1052B400E50B600C146009146044146064025347E5
:1052C400EEFAEFFB121228E9F50AE50AC3940A5034
:1052D40072E5084509606C750C06750D00780C12B2
:1052E4001DA8EEFCEFFDAA08AB091213727402129A
:1052F4001B3B8A0C8B0D850C82850D838045EEFA51
:10530400EFFB121222E9F50AE50AC3940A5034E5C8
:10531400084509602EAA08AB09A90A12121CE980E3
:1053240022EEFAEFFB12122EE9F50AE50AC3940AFB
:105334005011E5084509600BAA08AB09A90A121225
:105344001CE9F8A90A7F06021C6774F2121B958AED
:105354000C8B0DE9FF7E1574FF650C700474FF65FA
:105364000D702A750800E508C3940A5014EFFC7AFE
:10537400027B00A9081211F8E960027E000508808A
:10538400E5EF60627A707B12120BE68059AA0CABCF
:105394000D120BB68A0A8B0B850A08850B09E508E2
:1053A400450960407C007D00E5082405FAE43509E0
:1053B400FB850882850983A3A3A3A3E0F91211DA6C
:1053C400E9F50AE50AC3940A500EEFFC7A027B0061
:1053D400A90A1211F8E97E00EF600BAA08AB0912C2
:1053E400127080027E14EEF97F06021C6774EE12BE
:1053F4001B958A0E8B0F8C0A8D0B7412121B71E095
:10540400F50CA3E0F50D75081574FF650E700474B2
:10541400FF650F701E7E00EEC3940A5061AC0CADA4
:105424000DAA0AAB0BEEF91211FEE9600375080030
:105434000E80E4AA0EAB0F120BB68A108B11AE10BD
:10544400AF11EE4F60357C007D00EE2405FAE43F99
:10545400FB8E828F83A3A3A3A3E0F91211DAE9F5EB
:1054640009E509C3940A5016AC0CAD0DAA0AAB0B9E
:10547400A9091211FEE97508008003750814A9082A
:105484007F0A021C6774F7121B95EAFEEBFF900774
:10549400AEEEF0A3EFF0900794E0FC7D007A267B5B
:1054A40000120652E9F508900794E0F91209167FF4
:1054B40001021C6774F0121B9574EC121B258A0CF4
:1054C4008B0D850C82850D83A3A3E024FA7003025F
:1054D400593124FD70030257A61470030255A81411
:1054E400601024FD700302574E1470030257E50246
:1054F4005944AE0CAF0D9007AEE0F8A3E0F9E849CB
:1055040060669007AEE0F8A3E0F5838882E0F8A334
:10551400E0F9E8496052EE240CF582E43FF583E0BB
:10552400F5087808121DACEE240BF582E43FF583F0
:10553400E0F98E828F83A3A3A3A3A3A3A3A3A3E0D1
:10554400FCA3E0FDEE2403FAE43FFB9007AEE0F891
:10555400A3E0F5838882E0F8A3E0F5838882121B38
:10556400937401121B3B80398E828F83A3A3A3A360
:10557400A3A3A3A3A3121DBF9007AA1219FB12068B
:10558400EE7402121B3BE9601879018E828F83A3AB
:10559400A3A3A3A3A3A3A3A3E0FAA3E0FB1206E897
:1055A400E9025944AE0CAF0D7508008E828F83A3B7
:1055B400E060030256D08E828F83A3A3A3A3A3E04B
:1055C400A2E040030256D0900848E0F8A3E0F9E8CE
:1055D4004960030256D07C0E7D007900AA18AB19ED
:1055E40012138A8A0A8B0BAA0AAB0BEE240CF582DF
:1055F400E43FF583E0F8A3E0F9E8496036750A066C
:10560400750B00780A121DA8EE240CF582E43FF510
:1056140083E02410FCA3E03400FD7402121B831207
:1056240013727402121B3B8A0A8B0B850A82850B48
:1056340083804F8E828F83A3A3A3E0FAA3E0FB129F
:105644000BB68A0E8B0F850E0A850F0BE50A450BE8
:10565400602D750E06750F00780E121DA8E50A243C
:1056640005FCE4350BFD7402121B831213727402E1
:10567400121B3B8A0E8B0F850E82850F83800302DB
:1056840059448E828F83A3A3A3A3A3E0A2E2500470
:10569400D2F08002C2F0A2F0E433F87900740C1264
:1056A4001B71E048F0A3E049F0EEFCEFFDAA18AB53
:1056B40019121210E970127A027B00900794E0F933
:1056C4001213C6E979000259467508159007AEE031
:1056D400F8A3E0F9E849606F9007AEE0F8A3E0F5BD
:1056E400838882A3A3E0F8A3E0F9E84960598E8295
:1056F4008F83A3E0FC79018E828F83A3A3A3E0FAB6
:10570400A3E0FB9007AEE0F8A3E0F5838882A3A3AF
:10571400E0F8A3E0F5838882121B93E5086028ACC7
:105724000879038E828F83A3A3A3E0FAA3E0FB90FE
:1057340007AEE0F8A3E0F5838882A3A3E0F8A3E032
:10574400F5838882121B93025944AE0CAF0D900767
:10575400AEE0F8A3E0F9E84960459007AEE0F8A3AD
:10576400E0F5838882A3A3E0F8A3E0F9E849602F79
:10577400850C82850D83A3E0FC79028E828F83A33E
:10578400A3A3E0FAA3E0FB9007AEE0F8A3E0F5835F
:105794008882A3A3E0F8A3E0F5838882121B930216
:1057A4005944AE0CAF0D7C007D00EE2404FAE43FB6
:1057B400FB8E828F83A3A3A3E0F91211DAE9F50823
:1057C400E508C3940A5017EE240AFCE43FFD7A046A
:1057D40075F006E508A42425F91214C2E9F8025963
:1057E40044AE0CAF0D9007A9E06019901A74E0F96B
:1057F4008E828F83A3A3A3E0FAA3E0FB1206E8E959
:10580400F8025944901A71E0701679058E828F83DC
:10581400A3A3A3E0FAA3E0FB1206E8E9F8025944C3
:105824008E828F83A3A3A3E0FAA3E0FB120BB68AB4
:105834000A8B0B850A08850B09E5084509700302E4
:1058440059448E828F83A3A3A3A3A3A3A3E0A2E0BE
:10585400506D850882850983A3A3A3A3E060608EAD
:10586400828F83A3A3A3A3A3A3A3A3A3E0F50AA363
:10587400E0F50B7409780A121B03E50A5401F8E5F4
:105884000B5400F9E8A2E04036740E121B8BE508B5
:105894002405FAE43509FB850882850983A3A3A3BB
:1058A400A3E0F91211DAE9701679038E828F83A3CB
:1058B400A3A3E0FAA3E0FB1206E8E9F8025944EED8
:1058C4002405FCE43FFD850882850983A3A3A3A3E3
:1058D400E0F98E828F83A3A3A3E0FAA3E0FB121264
:1058E4007C9007AEE0F8A3E0F9E84960539007AE76
:1058F400E0F8A3E0F5838882A3A3E0F8A3E0F9E845
:1059040049603D7C0079008E828F83A3A3A3E0FAD3
:10591400A3E0FB9007AEE0F8A3E0F5838882A3A39D
:10592400E0F8A3E0F5838882121B938013AE0CAFDA
:105934000D8E828F83A3A3A3E0FAA3E0FB1211D4FC
:1059440079017414121B3B7F08021C6774F5121B47
:105954009574F2121B258909EAFEEBFF8C0AAC1838
:10596400AD197A0E75F006E509A42420F91214C8BD
:10597400E9705F7C0679FFAA18AB191213EAE97083
:1059840051740C121B71E0F8A3E0F9E8F508E50A7C
:105994006005EE42088004EEF45208A80879007409
:1059A4000C121B71E0687003A3E0696021A80879F8
:1059B40000740C121B71E8F0A3E9F0AC18AD197A6D
:1059C4000E75F006E509A42420F91214C2E9790140
:1059D40080027900740E121B3B7F03021C6774F073
:1059E400121B9574E6121B25890B8A0C8B0DECFE99
:1059F400EDFF740C121B8B7A0E75F006E50BA424D4
:105A040020F91214C8E96003025B127C0679FF7462
:105A14000C121B831213EAE96003025B12AC18AD8B
:105A2400197A0C7470250BF91214C8E96003025B2F
:105A34000E750A00AA18AB1912120AE50C450D706E
:105A44002E7C0C7900AA18AB191213EAE960030240
:105A54005AF47C0C7D007900AA18AB1912138A8AB7
:105A6400088B09850882850983750A01025AF4ACFA
:105A740018AD19AA0CAB0D1212048A0E8B0F850EE9
:105A840008850F09E50845097030EE4F601BAC1816
:105A9400AD197A007B001212048A0E8B0FA80EA98E
:105AA4000F88088909E849700479008063850882B1
:105AB400850983E50CF0A3E50DF08508828509834B
:105AC400A3A3E0F87900EE687002EF696022EEC0EB
:105AD400E0850882850983A3A3D0E0F0EE4F700D22
:105AE4008508828509837400F0A37400F0750A01A7
:105AF400E50A6016AA18AB1912120AAC18AD197A85
:105B04000C7470250BF91214C2E979018002790032
:105B1400741A121B3B7F08021C6774F6121B958AC9
:105B2400088B097E00EEC394045050EEF87900E827
:105B340075F003A4C8AAF075F000A42AFA75F0035E
