:020000040000FA
:0600000002011A02257541
:03001300022D1F9C
:03002B00022C7034
:030053000225EB98
:03007B00022C9EB6
:100083000223CBE5C754F84401F5C77901220000E8
:100093000080FB120086B90003020104E479217891
:1000A30008B800028004F709D8FCE479297802B87B
:1000B30000028004F709D8FCE490028178437917A1
:1000C3008002F0A3D8FCD9FA781A90014A7A01BACF
:1000D30000028007E493A3F608DAF97AC37B189049
:1000E300014B78D479038015E493A3AD82AE838A60
:1000F300828B83F0A3AA82AB838D828E83D8E9D9C6
:10010300E7758245758399740412012C7582917584
:100113008300740012012C75D00075813F7518811E
:10012300751902759F00020096C09FF59FE473D076
:100133009F22D083D082C09FE493C0E0740193C018
:10014300E0740293F59F2201FF0000B40000280031
:100153002800283075A000A000A000A0000008001F
:1001630008E001F000100010001000100010001053
:100173000050005000500010001000D00700000095
:100183000000000F0001000500307507001000019A
:100193000081FF00000000FFFFFF72079007780750
:1001A300B407FF02020208025000A0000000E803A7
:1001B30002DD83010000B28302D7830100001E1910
:1001C30002D1830100000B0302D7830100001F1932
:1001D30002CF83010000210302D78301000020190D
:1001E30002CB83010000230302D7830100002119FE
:1001F30002C983080000240302D7830100002219E7
:1002030002C7830100002319FF0100FF2002DD83E1
:10021300010000B58302D783010000871902BB8365
:10022300000000000002D3830300005203170038CC
:100233000E380E380E380E380E380E380E380E388B
:100243000E380E380E380E380EF6100811F0100264
:100253000202020202020202010D0000001001026A
:10026300DD83010000AF8302D783010000CA1902B6
:10027300DB830100008C0702D783010000CB190246
:10028300F383010000688202D783010000CC1902C6
:10029300F1830100004C8202D783010000CD1902D3
:1002A300EF83010000DA8102D783010000CE190237
:1002B300ED83010000B68102D783010000CF19024C
:1002C300E983010000C88102D783010000D019022D
:1002D300E783010000EC8102D783010000D11902FA
:1002E300E5830100005A8202D783010000D219027C
:1002F300E383010000D31901E8030577100AFFFF28
:100303000001307503020106000000000000000038
:1003130000000000000000000000000000000000DA
:1003230000000000FFFF0600800CE8030E093030D8
:100333003030303030305942424C4505125000BC09
:1003430002020A000201060302F0FF09FF0069002E
:10035300000000000030303030303030305942423D
:100363004C45000000000000000094150000B21589
:1003730012121252656164446174610044656275CE
:10038300674461746100546F6F6C44617461000869
:100393005772697465446174610002DD8301000072
:1003A300B88302D783010000ED1A02C18301000064
:1003B300AA1502D383030000D11502D583010000DF
:1003C300011B02D783010000EC1A02BF8301000066
:1003D3008A1502D383030000CF1502D583010000E1
:1003E300F71A02D783010000EB1A02BD8301000054
:1003F3006A1502D383030000CD1502D583010000E3
:10040300EE1A02D7830100000A1B02C38303000014
:10041300D31502D5830100000B1B03120135A7D4AA
:1004230001120135BFD401120135EED40112013599
:1004330029D5011201356ED501120135BDD5011241
:10044300013527D60112013559D6011201359BD644
:1004530001120135F3D601120135B9D70112013565
:100463000CD801120135F0D90112013504DA011259
:10047300013519DA0112013505DB011201351EDBE5
:10048300011201350DDC011201358CDC011201353D
:10049300FFDC01120135DADD0112013543DE011201
:1004A3000135BBDE01120135DFDE01120135FEDE4F
:1004B30001120135D2DF011201356AE00112013563
:1004C30020E301120135ACE301120135DDE3011232
:1004D300013521E40112013544E40112013567E4D9
:1004E30001120135E4E4011201359DE501120135E4
:1004F300839803120135329903120135749A03125A
:100503000135B69B03120135689C03120135C79C64
:1005130003120135269D03120135D89F03120135BD
:100523007C8204120135DA82041201350B83041232
:100533000135B08304120135D083041201350184DF
:1005430004120135478404120135CD8404120135A8
:10055300D9EF03120135ECEF031201351DF003123D
:10056300013557F003120135B0F003120135F7F0EE
:10057300031201353FF1031201356EF10312013508
:100583009DF103120135D4F1031201351BF203125D
:10059300013534F20312013589F203120135A2F257
:1005A30003120135F0F2031201352AF30312013568
:1005B3000080031201350381031201353C810312CC
:1005C30001355F8103120135718103120135AF815A
:1005D300031201352B8203120135F3820312013515
:1005E300158303120135AC8303120135FE83031215
:1005F30001352F84031201353C8403120135A6848F
:1006030003120135FD840312013500850312013500
:100613003985031201353C850312013546850312E2
:1006230001359A8503120135DB85031201350E86E8
:10063300031201354B86031201354D870312013531
:10064300F187031201355A88031201359888031282
:10065300013528E40312013550E4031201357DE42A
:1006630003120135B5E40312013513E50312013515
:100673005FE503120135C6E50312013506E60312F1
:10068300013543E60312013571E6031201351BE719
:100693000312013525E70312013532E70312013551
:1006A30065E70312013571E70312013589E7031288
:1006B300013593E7031201352A9704120135389760
:1006C300041201355097041201356797041201355E
:1006D3002EE601120135D8E601120135EBE70112CE
:1006E300013567E80112013585E901120135C1E9D8
:1006F300011201355CEA0112013540EB01120135AB
:100703000CEC011201359AED011201350BEE0112C9
:100713000135C5EE01120135B7EF01120135F7EFCF
:1007230001120135ABF001120135DDF00112013583
:10073300D3F20112013515F30112013533F301121E
:10074300013599F30112013568F4011201352CF5D5
:10075300011201354BF7011201351BA703120135B5
:1007630005A803120135B0A80312013501A903122C
:100773000135B1A90312013522AA0312013507ABD2
:10078300031201353BAB0312013534AC03120135BF
:1007930071AC031201354DAD031201358CAD03125B
:1007A3000135A8AD03120135218904120135A5894C
:1007B30004120135D08904120135EA8A0412013585
:1007C30021E80312013537E80312013555E8031216
:1007D300013566E90312013570E9031201359BEA1D
:1007E3000312013592EB03120135FFEB03120135BE
:1007F30047BA031201357DBB03120135B4BB0312A3
:1008030001350BBC0312013520BE03120135F1AFD4
:10081300011201357DB001120135E1B1011201353B
:10082300EDB10112013528B20112013597B201125F
:100833000135A0B301120135A9B40112013570B518
:1008430001120135CDB601120135EBB601120135A6
:1008530008B701120135B5B70112013532B80112DB
:1008630001355AB80112013524BB0112013529BBE8
:100873000112013542BD0112013590BD011201354E
:1008830000BE011201353EBE011201351ABF01122D
:100893000135DABF0112013526C00112013529C025
:1008A300011201356DC001120135B5C001120135C8
:1008B300F4C00112013516C1011201354AC10112FA
:1008C3000135ADC101120135E7BF03120135F5BF93
:1008D3000312013548C00312013567C00312013505
:1008E300ACC003120135F0C1031201358BC20312F0
:1008F3000135CFC203120135F9C20312013568C3B2
:1009030003120135AEC30312013525C403120135A9
:10091300D6C403120135842D00120135942D001223
:100923000135352E00120135912E001201354E2F5F
:10093300001201356A30001201359C300012013576
:10094300CB3000120135783200120135EF3400123A
:1009530001355F37001201355138001201354A392C
:1009630000120135513B00120135453E001201359D
:10097300743F00120135784100120135884200129C
:10098300013517440012013508450012013556455B
:1009930000120135C54500120135E9450012013544
:1009A3003A4600120135DB4A00120135DC4B0012D6
:1009B30001353D4C00120135684C001201352E4DB6
:1009C3000012013517E00312013521E0031201354E
:1009D30066E0031201357AE0031201350AE10312DE
:1009E300013543E1031201357EE103120135A7E12D
:1009F30003120135FBE10312013510E20312013545
:100A030032E20312013547E2031201355BE20312BE
:100A1300013570E203120135AAE203120135D6E271
:100A2300031201355DE30312013568E30312013557
:100A3300ABE303120135D5E30312013500E40312DE
:100A4300013531930412013574D20212013557D3A3
:100A530002120135D2D3021201350DD4021201352F
:100A63005ED502120135ECD5021201357ED8021291
:100A7300013530D9021201353CDA02120135AFDB00
:100A83000212013508DC0212013585D70312013544
:100A9300C8D7031201354CD80312013523DB0312E7
:100AA3000135008004120135B28004120135AE8194
:100AB30004120135ED810412013547820412013518
:100AC300728204120135198B041201357C8B0412D6
:100AD3000135198C041201354E8C041201357E8CBC
:100AE30004120135B98C04120135D98C0412013575
:100AF300E6C90312013572CA0312013531CB031261
:100B0300013549CC0312013563CE03120135E0BB35
:100B13000212013505BC02120135D2BC02120135A5
:100B2300A6BD0212013513BE0212013553BE0212D5
:100B33000135EFBE0212013523C002120135FEC09A
:100B4300021201355DC102120135E9C102120135FC
:100B530057C202120135E3C20212013529C3021240
:100B630001359BC3021201352DC402120135CEC4D7
:100B730002120135EEC40212013536C502120135E7
:100B83007FC5021201359BC502120135C1C5021290
:100B930001353BC60212013549C602120135D8C6DA
:100BA3000212013541C7021201359ACE03120135F3
:100BB3001FCF0312013561CF0312013545D0031254
:100BC3000135B2D003120135F6D0031201353AD103
:100BD3000312013567D1031201358FD10312013599
:100BE300C7D10312013505D2031201352CD20312EA
:100BF3000135A6D203120135F0D20312013500806C
:100C0300021201359F8102120135D7830212013589
:100C13002B840212013556840212013532850212E9
:100C23000135628502120135918502120135A485D1
:100C330002120135E58502120135128602120135D1
:100C43006086021201359C8602120135E18602128A
:100C530001352E8702120135A88702120135E98971
:100C630002120135D38B021201350F8C02120135AA
:100C73009E8D02120135E38D02120135568E02124A
:100C83000135AB8E02120135B08E021201353C8F55
:100C930002120135688F02120135968F0212013557
:100CA300B59002120135C690021201358AF0021284
:100CB300013503F102120135BDF602120135C8F701
:100CC3000212013571F902120135FFF902120135E1
:100CD300606B00120135E16B001201350E6C0012DE
:100CE3000135576C00120135586D00120135B16D95
:100CF300001201352D6F00120135AF6F001201355F
:100D0300CA6F001201353B7000120135F8700012F2
:100D13000135BB71001201354972001201350073B0
:100D230000120135137300120135AC730012013543
:100D33004374001201356A7400120135D374001232
:100D430001351D75001201356B75001201351076E2
:100D530000120135AE76001201353B7700120135E2
:100D6300AC7700120135F377001201354B7800128E
:100D730001357D78001201353779001201353E7A4D
:100D830000120135877A00120135A47A0012013569
:100D9300C37A00120135F67B00120135AD7C0012D7
:100DA3000135D27C00120135E77C00120135577DF5
:100DB30000120135987D00120135BC7E0012013509
:100DC3003D7F00120135B1DC02120135FCDC021259
:100DD300013508DD02120135DCDD02120135F3DDD8
:100DE3000212013530DE0212013561DE02120135D5
:100DF30092DE02120135CADE0212013520DF021231
:100E0300013536DF0212013572DF0212013585DF4B
:100E130002120135ACDF02120135E0DF02120135A7
:100E230006E10212013550E2021201354CE30212CF
:100E3300013569E402120135ECFF01120135E99035
:100E43000212013524910212013576940212013502
:100E5300D29502120135919602120135F8990212C8
:100E63000135E29A021201352E9B02120135489B8D
:100E730002120135859B02120135909B0212013546
:100E8300CF9B02120135D89B02120135829C0212BC
:100E93000135599D02120135AD9D021201350A9E9D
:100EA300021201357C9E0212013585C20112013501
:100EB300E4C501120135EAC5011201351BCD01124A
:100EC300013522D10112013592F30312013528F4C1
:100ED300031201353EF40312013597F40312013571
:100EE300DBF40312013515F503120135ADF50312D9
:100EF30001351CF60312013525F60312013531F6CF
:100F0300031201354BF60312013575F60312013551
:100F13008AF603120135ECF60312013513F70312B7
:100F23000135D5DB03120135E2DB03120135FCDBAE
:100F3300031201352FDC031201356DDC0312013579
:100F4300D2DC03120135E7DC03120135F2DC0312B4
:100F53000135FFDC0312013516DD0312013524DDF3
:100F6300031201352FDD031201353BDD0312013579
:100F73004ADD0312013555DD0312013578DD031215
:100F830001351CDE031201352CDE0312013546DE6A
:100F93000312013563DE031201357EDE03120135D0
:100FA300A3DE03120135AEDE03120135C3DE0312E5
:100FB3000135D7DE0312013538DF031201353EDF79
:100FC3000312013544DF031201354ADF03120135F1
:100FD30062DF0312013595DF031201355DAE0212A4
:100FE3000135F4AE021201358CAF021201357CB02B
:100FF30002120135B3B002120135C6B00212013537
:1010030034B102120135CFB202120135F6B2021227
:10101300013598B302120135CDB302120135DEB3A7
:101023000212013557B40212013578B402120135A8
:1010330090B402120135E8B502120135F1B702127C
:10104300013541BA0212013544BB0212013593BB8B
:1010530002120135CB9F02120135C8A002120135DD
:10106300B3A102120135BDA102120135DFA10212A3
:101073000135EBA1021201353DA3021201356CA328
:10108300021201359CA402120135DEA402120135BD
:101093000AA602120135E0A60212013532A7021296
:1010A300013591A702120135C8A70212013503A821
:1010B300021201359EAB02120135B7AB02120135A4
:1010C30039AC0212013547AC021201359CAC021255
:1010D3000135AAAC0212013517AD0212013589ADF3
:1010E30002120135CFAD0212013564C70212013578
:1010F30086C70212013570C90212013515CD0212DD
:10110300013558CE0212013532CF02120135A18EBC
:1011130004120135C68E04120135378F04120135CE
:10112300BE8803120135C78803120135D088031224
:101133000135018A03120135208C03120135568CC7
:1011430003120135908C03120135C68C031201354D
:10115300008D03120135348D03120135608D0312A6
:101163000135A98D03120135E38D031201352B8E51
:1011730003120135818E03120135B68E0312013538
:10118300118F031201354B8F031201359C8F03120C
:101193000135D28F031201350C90031201353A90B9
:1011A300031201355D9003120135F79704120135DF
:1011B3002398041201357E9804120135889804128D
:1011C3000135989804120135E8C4031201350FC59F
:1011D300031201354AC503120135737F001201352D
:1011E3009A4D00120135AA50001201353F520012E8
:1011F3000135BA5200120135665300120135095404
:1012030000120135A15400120135D05400120135EA
:10121300685900120135FA5900120135365B001284
:101223000135A05B00120135545C001201350A5FE1
:1012330000120135445F00120135AE5F0012013523
:101243000B6000120135686000120135C5600012A1
:101253000135B06100120135F661001201354162BA
:1012630000120135646200120135AB6300120135CF
:10127300BF63001201352E65001201356D65001242
:101283000135AD6500120135006600120135216696
:10129300001201355F66001201359D6800120135A9
:1012A300DE6800120135796900120135EB6900121D
:1012B30001352C6B0012013529FA02120135CFFAE0
:1012C3000212013514FC021201359DFC0212013594
:1012D3008AFD02120135C9FD0212013533FE0212E5
:1012E3000135A1FE021201355295041201356395B1
:1012F300041201353E960412013546FA03120135F4
:1013030011FD03120135CAFF02120135E0FF02127B
:101313000135E5FF021201352E9A04120135459479
:1013230004120135559404120135699404120135F0
:101333004C950412013541F703120135E9F7031205
:1013430001352BFA03120135579004120135A6908B
:1013530004120135D890041201356A910412013543
:10136300F87F00120135EC8404120135B8860412AB
:101373000135248704120135A59904120135BA9960
:1013830004120135EB90031201350091031201356C
:101393005C9103120135C791031201350F920312B9
:1013A3000135819203120135AA9203120135B892D5
:1013B300031201351A9303120135589303120135B1
:1013C3007393031201350E9403120135B79403127C
:1013D30001353A9503120135739503120135FE95D4
:1013E30003120135559603120135B39603120135E5
:1013F300C59603120135EB9603120135F4960312D9
:1014030001354F98031201352787041201358E8762
:10141300041201354B8804120135C98804120135C1
:1014230009EC031201353CEC031201356EED031296
:101433000135B2ED031201358EEE03120135E6914B
:1014430004120135C49204120135209304120135AC
:101453001FFD0312013564FD03120135AAFD0312BA
:10146300013573FF031201354E9604120135699657
:1014730004120135799604120135DE960412013502
:10148300A29804120135A2E6021201357EE7021288
:101493000135C5E70212013502E80212013570E891
:1014A30002120135CAE8021201353AE90212013586
:1014B3000AEA02120135F9EA0212013570EB02124F
:1014C30001350CED0212013599ED021201350CEED6
:1014D3000212013588EE021201359FEE0212013528
:1014E300C4EF021201351EF00212013509AE0312D8
:1014F300013529AE031201352FAF031201357BAF3E
:10150300031201359BAF03120135EEAF0312013510
:101513005BB003120135A1B00312013505B103120B
:101523000135B1B303120135EB9B0112013518A14B
:10153300011201351BA40112013544A40112013526
:101543006DA4011201351FA50112013508A701126F
:10155300013553A8011201356CA801120135A3AD61
:1015630001120135DCAD0112013520AE0112013546
:1015730031AF0112013558F701120135CEF70112CF
:1015830001352BFA01120135A7FC01120135C5FC07
:1015930001120135E7FC011201350DFE011201357F
:1015A30035FE01120135C6FE01120135A7FF0112F6
:1015B3000135B8FF0112013516A0031201352DA123
:1015C300031201354AA1031201351BA3031201358E
:1015D30029A403120135B9A50312013532B403124C
:1015E300013562B40312013592B40312013537B5E4
:1015F3000312013570B50312013597B50312013596
:10160300A5B503120135B3B503120135C1B50312F4
:101613000135CFB5031201354FB60312013567B655
:1016230003120135E3B60312013563B70312013523
:1016330088B703120135E5B70312013539B8031230
:101643000135A0B803120135C4B803120135FEB940
:10165300031201350BBA031201352FBA03120135F8
:10166300FB830112013537840112013565840112B0
:1016730001350185011201353E850112013552857F
:10168300011201352E8601120135628601120135E0
:101693007A86011201350187011201354B87011248
:1016A30001359D8701120135B98701120135F7878D
:1016B300011201351988011201353B8801120135E8
:1016C300E488011201354389011201354A89011267
:1016D3000135CA8A01120135378B01120135498B55
:1016E300011201357B8B01120135828B0112013509
:1016F300AD8B01120135D88C01120135238D0112F6
:1017030001356B8D01120135968D01120135D08D96
:1017130001120135F68D01120135048E01120135D6
:101723002A8E01120135B58E01120135C1900112C5
:1017330001351991011201354B9101120135EA91DD
:1017430001120135B992011201351A9301120135C3
:10175300BB93011201352695011201359C950112A7
:101763000135FD9501120135829601120135D3969B
:101773000112013515970112013540970112013508
:101783006F97011201352598011201353D98011219
:101793000135349901120135B59B01120135E78CEE
:1017A300041201353D8D04120135A08D041201355B
:1017B300B68D04120135D48D04120135248E041222
:1017C3000135B7FF03120135E4990412013530D313
:1017D3000312013528D703120135109A04E066700D
:1017E3001008A3E066700A08A3E066700408A3E08B
:1017F3006622C3E7960809E7960809E7960809E70A
:101803009622C3E09608A3E09608A3E09608A3E017
:101813009622C008C3E096F50808A3E0964208089C
:10182300A3E096420808A3E09645087001D3D008C8
:1018330022080808EAC0E0EBC0E086F0E7A4FA1843
:101843000986F0E7A42AFA180986F0E7A42AFA1809
:101853000986F0E7A42AFA1986F0E7A4FBE5F02A43
:10186300FA190886F0E7A42BFBE5F03AFA19088683
:10187300F0E7A42BFBE5F03AFA18180986F0E7A481
:10188300C5F02BFBE43AFA1908E7C5F0C6A426F61F
:10189300E5F03BFBE43AFA1886F0E7A4F6E5F00836
:1018A30026F6E43B08F6E43A08F6D0E0FBD0E0FA8B
:1018B30022E4CFC0E0E4CEC0E0E4CDC0E0E4CCC09D
:1018C300E075F020E626F608E633F608E633F60878
:1018D300E633F6181818EC33FCED33FDEE33FEEF68
:1018E30033FFC3EC9709ED9709EE9709EF971919A1
:1018F30019400FFFEC97FC09ED97FD09EE97FE19D0
:101903001906D5F0BFECF709EDF709EEF709EFF784
:10191300191919D0E0FCD0E0FDD0E0FED0E0FF22A1
:101923006016080808C6C313C618C613C618C6131C
:10193300C618C613C6D5E0EA227009080808226053
:1019430016181818C6C333C608C633C608C633C626
:1019530008C633C6D5E0EA22E627F60809E637F6D5
:101963000809E637F60809E637F622E026F608A363
:10197300E036F608A3E036F608A3E036F622E026C2
:10198300F008A3E036F008A3E036F008A3E036F051
:1019930022C3E697F60809E697F60809E697F608DC
:1019A30009E697F622C3E096F008A3E096F008A3B1
:1019B300E096F008A3E096F022E056F608A3E0567E
:1019C300F608A3E056F608A3E056F622E056F00820
:1019D300A3E056F008A3E056F008A3E056F022E097
:1019E30046F008A3E046F008A3E046F008A3E0466B
:1019F300F022E0F608A3E0F608A3E0F608A3E0F679
:101A030022E6F008A3E6F008A3E6F008A3E6F02236
:101A1300E0FAA3E0FBA3E0FCA3E0FD22EAF0A3EBE2
:101A2300F0A3ECF0A3EDF022E0F8A3E0F9A3E0FAD1
:101A3300A3E0FB22E8F0A3E9F0A3EAF0A3EBF02292
:101A4300CAC0E0E6F0A308DAFAD0E0FA22CAC0E09E
:101A5300E0A3C582CCC582C583CDC583F0A3C5826F
:101A6300CCC582C583CDC583DAE6D0E0CA22C3E400
:101A730098F8E499F9121AB28026C3E49AFAE49B1F
:101A8300FBE920E7E9121AB2E498F8E499F922C3D2
:101A9300E498F8E499F9121AB2E498F8E499F9C3CE
:101AA300E49AFAE49BFB22EB20E7CFE920E7E0B9D5
:101AB3000010BB0008E88AF084F8AAF022E4FBC80F
:101AC300FA22EB70227B10C833C8C933C9335007DD
:101AD300C39AC3DBF280069A50012ADBEAC833F4C7
:101AE300C8C933F4C9FA2275F008E4C833C8C93346
:101AF300C933C99AC99B5004C92AC93BD5F0ECFB29
:101B0300C833F4C8E4C9FA22600D08C6A2E713C6B5
:101B130018C613C6D5E0F322600C08C6C313C61853
:101B2300C613C6D5E0F422700422600D18C6C33371
:101B3300C608C633C6D5E0F41822251810AF08F539
:101B430018400C15198008F51840021519D2AF2258
:101B530000C0D0251810AF08F518500C05198008DF
:101B6300F51850020519D2AFD0D0222518F58210EE
:101B7300AF08F518400C15198008F518400215191F
:101B8300D2AF851983222518F582E43519F583220E
:101B93002518F8E43519F9222518FAE43519FB223A
:101BA3002518FCE43519FD22E4732518C582C0E02D
:101BB300E51934FFC583C0E0E518C3958224F81006
:101BC300AF08858319858218800885831985821853
:101BD300D2AFCEF0A3E520F0A37808E608F0A3DEA9
:101BE300FAEFF0A3E58124FAF8E608F0A3E608F09B
:101BF300A3E608F0A30808E608F0A3E608F0A31597
:101C0300811581D0E0FED0E0F8158115811581E8BA
:101C1300C0E0EEC0E0222518C582C0E0E51934FF1C
:101C2300C583C0E0E518C3958224F910AF08858306
:101C3300198582188008858319858218D2AFCEF062
:101C4300A3E520F0A37808E608F0A3DEFAEFF0A3FB
:101C5300E58124FBF8E608F0A3E608F0A30808E60C
:101C630008F0A3E608F0A315811581D0E0FED0E0CB
:101C7300F815811581E8C0E0EEC0E022851983855F
:101C83001882E0A3FEE0A3F5207808E0A3F608DFBE
:101C9300FAE0A3FFE0A3C0E0E0A3C0E0E0A3C0E05C
:101CA300E0A3C0E0E0A3C0E010AF088582188583FD
:101CB300198008858218858319D2AFD083D0820218
:101CC3000132851983851882E0A3FEE0A3F520780D
:101CD30008E0A3F608DFFAE0A3FFE0A3C0E0E0A377
:101CE300C0E0E0A3C0E0E0A3C0E010AF0885821825
:101CF3008583198008858218858319D2AFD083D054
:101D03008222C0D02518C582C0E0E51934FFC583FF
:101D1300C0E0E518C3958224F310AF0885831985C5
:101D230082188008858319858218D2AFC8F0A3E989
:101D3300F0A3EAF0A3EBF0A37908E709F0A3D8FA3C
:101D4300ECF0A3EDF0A3EEF0A3EFF0A3D0E0F0A34B
:101D5300D0E0F0A3D0E0F0A3E520F0A3E5F0F0A3FA
:101D630022851983851882E0C0E0A3E0F9A3E0FA95
:101D7300A3E0FBA37808E0F608A3DFFAE0FCA3E006
:101D8300FDA3E0FEA3E0FFA3E0C0E0A3E0C0E0A367
:101D9300E0F5D0A3E0F520A3E0A3F5F010AF0885AC
:101DA30083198582188008858319858218D2AFD05C
:101DB30082D083D0E0F8D0E03274048006740280CD
:101DC300027401C0E0F404121B6ED0E0121A432225
:101DD3007404800474028000CCC0E0EDC0E0E51818
:101DE300C39CCCAD1950011D10AF068C188D198002
:101DF300068C188D19D2AF121A50D0E0FDD0E0FC3A
:101E030022D083D082E9C0E0E493A3C386F0C5F077
:101E130095F0F908E493A386F0C5F095F0700BE410
:101E230093A3C3994005E9048002A3E475F002A4D7
:101E33002582F582E5F03583F583D0E0F9E493A3B9
:101E4300C0E0E493C0E022D083D082ECC0E0EDC0D8
:101E5300E0E493A3FCE493A3FDED4C600D121E9606
:101E6300EC24FFFCED34FFFD80EFE493A3FCE4934B
:101E7300A3FDED4C600D121ED5EC24FFFCED34FFE9
:101E8300FD80EFD0E0FDD0E0FCE493A3C0E0E49359
:101E9300C0E022C0E0C3E49396087401939618400F
:101EA3000FE4936670080874019366187000701944
:101EB300A3A3C3E49396087401939618A3A3400DB8
:101EC300D0E0D0E0D0E0021E86A3A3A3A3A3A3D0B7
:101ED300E022C0E0C0F088F0E49366700808740163
:101EE3009366187000A8F0A3A3700BD0F0D0E0D0D5
:101EF300E0D0E0021E86A3A3D0F0D0E02274F61255
:101F03001C19EAFEEBFF8C088D09EE2434F8E43F3C
:101F1300F9E8FCE9FDEE2435122213FAEE24371218
:101F23002213F88508F0A4C885F00A8509F0A425D2
:101F33000AF9EA28F8E439F97A257B00121AB2EA99
:101F43008C828D83F0FA131313541FF8EE28F8E4F0
:101F53003FF9E8245DF582E439F583E0C0E07407D6
:101F63005AF8D0E0B800028004C313D8FCA2E0EE14
:101F730050082434F582E43F80182436122213F5E6
:101F8300F0EA84A8F0EE28F8E43FF9E82438F58273
:101F9300E439F583E0F97F03021CC574F7121C19B9
:101FA300EAFEEBFFEE2434122213C0E0EE2435F5F3
:101FB30082E43FF583D0E0F08E828F83A3A3A3A3B3
:101FC300A3A3A3C082C0838E828F83A3A3A3A3A34F
:101FD300E0F8A3E0F9D083D082E0C398F508A3E04A
:101FE30099F509EE247F1222136401703EEE2480DA
:101FF300F582E43FF583C082C0838E828F83A3A3DF
:10200300A3A3A3E0240108A3E03400F9D083D08282
:10201300E0687003A3E06970127CFD7D04120D7209
:10202300EE247FF582E43FF583E4F0AC08AD09EEDE
:10203300FAEFFB121F00E9F9122C627F02021CC5A2
:10204300C082C083851882851983E0F8A3E0F9C3B1
:10205300EA9CEB9D5010C3EC98ED99401BC3EA98A2
:10206300EB995014800EC3EA98EB994007C3EC98A0
:10207300ED994004790180027900D083D08222EA6D
:10208300C39CFAEB9DFB2274EF121C199003C2E070
:1020930064086005E06407702A9061C8E0602490DA
:1020A30003F0E0F4601DE0F875F00BA4C8AAF02A71
:1020B300F974F228FE740339FF8E828F83A3A3A3DE
:1020C300E07003022198906060E0C0E0EE2468F5C0
:1020D30082E43FF583D0E0F0750C6D750D0575084E
:1020E30000750900E5D914F50AE5D95403F50E6026
:1020F300127403650E6043E50A600AEE2467122238
:102103001370028075900568E06401601F1222104D
:1021130060047A0480027A00E50AC39AFA95E0FB28
:10212300120C108A088B09EA45097005120FBE804C
:102133006412221070048A0C8B0DE50A6012850C60
:1021430082850D83F50BE5D9F0A3150BE50B70F62E
:10215300122210604474FC250AF50A780C121DC083
:10216300AC0AA90EEEFAEFFB120E327402121B53E5
:10217300E97026AA08AB0912140E793D8E828F836B
:10218300A3A3A3A3E0FA7B00120A6CEEFAEFFB12FF
:102193000D96120E447900806F7403650E605185AD
:1021A3000A107511007810121DC0AC0CAD0DAA08F1
:1021B300AB09120DF67402121B53EE24681222139C
:1021C30064807004747F8001E0F50C780C121DC4E8
:1021D300E50EF50C780C121DC4A90AAC08AD0990E4
:1021E30003F0E0FA7B00120A427402121B538013BD
:1021F3009003C2E06408600BAC0CAD0DEEFAEFFB8C
:10220300120EBC120FCA79017F0A021CC5EE248389
:10221300F582E43FF583E02274F2121C1974FC1278
:102223001B3DEAFEEBFF8909A2AFE433F508C2AF19
:102233000222E5E0601B780C121DC0AC0BA90EEE68
:10224300FAEFFB120E2C7402121B537404250BF5C8
:102253000B7401250BF5D9850ED9E50B6018F50A2A
:10226300850C82850D83E0F5D9A385820C85830DCA
:10227300150AE50A70EA75E195EE2463F8E43FF97F
:102283007A007B00A2AFE433F50BC2AF8882898367
:10229300E0FCA3E0FDEC4D603A88828983E0FAA379
:1022A300E0FB8A828B83E0FCA3E0FD88828983ECD8
:1022B300F0A3EDF08A828B83E4F0A3F08882898314
:1022C300E0FCA3E0FDEC4D700A88828983A3A3E4BC
:1022D300F0A3F0E50BA2E092AF12140E900504E018
:1022E30004F0EE2463122213F8A3E0F9E8496064D2
:1022F300EE24631222132402F8A3E03400F9888247
:102303008983E5822402F50CE43583F50DE0F50BB2
:10231300A3E0F50EEE24621222136401703690617D
:10232300D0E0F812221060047C0480027C007480E8
:10233300C398FA95E0FBE50B2CF8E43400F9E824A4
:1023430002F8500109C3EA98EB99A2D265D0334051
:1023530003022236900504E0604D900505E0F890F5
:102363000504E0C398500C74026509703A900506A1
:10237300E060348E828F83A3A3A3A3E085188285B4
:1023830019831223BA7402121B89E81223BA900527
:1023930003E028F07402121BA3AA18AB19790112E7
:1023A3000A96900504E4F0E508A2E092AF740412E3
:1023B3001B537F07021CC5F0A3E4F0900504E0F86B
:1023C300228521878522C622C0E074EB121D05A257
:1023D300AFE433F508C2AF759B00906182E0A2E0E1
:1023E3005030E591A2E0502A7591FE740165217089
:1023F3002112255E120F0A12254C121DD3122A0C2C
:102403007404121B53E9640170057901120F52120F
:10241300208A906182E0A2E5505DE591A2E55057E4
:102423007591DF9003C2E064076005E06408702FD4
:1024330012255E74016521703E120F0A12254C129B
:102443001DD3122A0C7404121B53E964017005791D
:1024530001120F527901EEFAEFFB12221B8018E0F2
:10246300640D70139003E4E004F064287002E4F058
:102473007A00E0F9120FD0906182E0A2E6400302F5
:102483002521E591A2E640030225217591BF900322
:10249300C2E064057008120EF2120EFE8003120EE3
:1024A300F8752100120F5EE99003C3F07900120F53
:1024B30052120CE27A017B009003C1E0F91213DEA1
:1024C300907803E06442705690056CE014F0704E0F
:1024D300C2AF1224D800782AD0E0F618D0E0F6E58F
:1024E3009F5407F87005750DFF8003750D7FC4C0F9
:1024F300E07829E6F50A08E6550DF50B740B780A22
:10250300121B1BD0E0250AF8906270E0A2E740F8A6
:10251300E8C333906272F0906270E0D2E0F09061B1
:1025230081E0A2E35009E5E9A2E3500375E9F7A3CB
:10253300E0A2E75009E591A2E7500375917FE50812
:10254300A2E092AF7F08021D648E828F83E0F8A31E
:10255300E0C82416F582E438F583229003F0E0F80E
:1025630075F00BA4C8AAF02AF974F228FE74033993
:10257300FF22C0E0C0D0C082C083906183E0A2E0AC
:102583005009E5BFA2E0500375BFFEE0A2E1500988
:10259300E5BFA2E1500375BFFDE0A2E25009E5BF2C
:1025A300A2E2500375BFFBE0A2E35009E5BFA2E33B
:1025B300500375BFF7E0A2E45009E5BFA2E450035E
:1025C30075BFEFE0A2E55009E5BFA2E5500375BF73
:1025D300DFE0A2E65009E5BFA2E6500375BFBFD016
:1025E30083D082D0D0D0E032C0E074F2121D05E572
:1025F300A7A2E6500FE5A1A2E6500953A7BF75A114
:10260300BF12263FE5A7A2E5500CE5A1A2E55006BF
:1026130053A7DF75A1DFE5A7A2E15009E5A1A2E178
:10262300500375A1FDE5A7A2E2500CE5A1A2E2507B
:102633000653A7FB75A1FB7F01021D6474F7121CEF
:10264300197521019003C2E064067015120E688AA1
:10265300828B83A3A3A3A3A3A3E0FAA3E0FB120E9D
:10266300E0A2AFE433FED2AF9003C8E06401701878
:102673007A207B009003C1E0F91215107A207B00C9
:102683009003C1E0F91213E4906182E0D2E6F09086
:102693000569E0602185C62280169003C7E06401C6
:1026A3007008E5C654F84405F5C653BEFC1223C4AE
:1026B3007401652160E4EEA2E092AF7F02021CC5C3
:1026C300008E238F24858228858327851882851988
:1026D30083E0CEA3E0CF852882852783EBC9EAC8B0
:1026E300EDCBECCA75F010C3E833C8E933C9EA335C
:1026F300CAEB33CBC3EA9EF526EB9FF525B3500413
:10270300AB25AA26EC33CCED33CDD5F0DAAE23AF2F
:10271300242274E9121C1974FA121B3DEAFEEBFF22
:102723008C0A8D0B120F16EAF8EBF9ECFAEDFB8E1F
:10273300828F83121A379003C2E024F7C3940550A3
:102743000675140102287C120E688A088B09EA4573
:10275300097003022879EEFCEFFDAA18AB19120FDA
:1027630010850882850983A3A3780C1219F5908339
:1027730017780C1219BC85188285198378101219E1
:10278300F590831778101219BC780C79101217F58D
:10279300501F780C7910121994908337780C121803
:1027A300154047850C14850D15850E16850F17806A
:1027B30045908337851014851115851216851317D7
:1027C3007814790C1219947814121815501C751476
:1027D3000075150075160075170178147910121914
:1027E300947814790C12195B800C7514017515001B
:1027F3007516007517007409781412193C90836BD1
:10280300780C1219F57814790C1218B4850882859E
:102813000983A3A3A3A3A3A312289A121AB2880C11
:10282300890DE4F50EF50F7814790C12195B740415
:10283300121B8912289A121AB2E8FA8A0CE4F50DCF
:102843007814790C1217F550077814790C1219942F
:102853009003C2E06408600AE064066005E0640572
:1028630070209083677814121815501690833B7864
:102873001412196E800C7514007515007516007509
:102883001700850A82850B837814121A04740612C2
:102893001B537F10021CC5E0F8A3E0F97AD07B0339
:1028A3002274F7121C19120F28900567E064017057
:1028B30010906245E4F0A3F053F4F343FE0C5390FD
:1028C300F3120ECEE5C654B84441F5C6E59E54470F
:1028D300644170F8906185740FF0900565E0F470C1
:1028E30002A3E0604E900566E0600814601B14606C
:1028F3002E8040750801750900900565E07808127F
:102903001B2AE508F45280802A7508017509009096
:102913000565E07808121B2AE508F45290801475C7
:102923000801750900900565E07808121B2AE5087F
:10293300F452A079007F02021CC574F7121C19E936
:10294300FEEAFF120F2874016E700C7A807B0090F0
:1029530003C1E0F91213DE902D7CE493F46008E4E4
:1029630093F9120CD6800953C6B8E59E544770FA02
:10297300120ED4900567E064017003120CF4900505
:1029830065E0F47002A3E0604B900566E060081414
:10299300601A14602C803D75080175090090056567
:1029A300E07808121B2AE508428080287508017523
:1029B3000900900565E07808121B2AE5084290801B
:1029C30013750801750900900565E07808121B2A44
:1029D300E50842A0120E688A088B09A808A909E82D
:1029E300496014E5E170FCE82414F582E439F583C9
:1029F300E0F46003E0F5E174016F700A7A0190037B
:102A0300C1E0F912147402293874F1121C198A08EE
:102A13008B098C0A8D0B90831778081219BC740FDD
:102A2300121B89780C1219F5908317780C1219BCB4
:102A33007808790C1217F590833750107808790CC1
:102A430012199478081218154014800E780C79081E
:102A5300121994780C121815500479018002790028
:102A63007F08021CC574ED121C198A088B098C0A95
:102A73008D0B90831778081219BC7413121B897875
:102A83000C1219F5908317780C1219BC780C79087D
:102A93001217F540117808790C121994AA08AB099A
:102AA300AC0AAD0B8022751000751100751200750C
:102AB30013017810790C1219947810790812195BA4
:102AC300AA10AB11AC12AD137F0C021CC590831777
:102AD30078081219F58A828B8378081219CF7F043C
:102AE300021CC574F5121C198C828D837808121987
:102AF300F58A828B8378081219A8122B3EC3E09CB7
:102B0300F0A3E09D122B30402290834378081219E2
:102B1300F58A828B8378081219818A828B83A3A317
:102B2300A3A3E02420F0A3E0344EF080A0F0888239
:102B33008983C3E09420A3E0944E22EA2404F8E4BA
:102B43003BF98C828D83A3A3A3A3E0FCA3E0FD88C0
:102B53008289832274F5121C19E9FE90051FE0FA9D
:102B6300A3E0FBEE29F8E433F974FE28F5827481BF
:102B730039F583E02AF508A3E03BF5097808121D2F
:102B8300C090833F121A131226C47402121B538A75
:102B9300088B098C0A8D0B74107808121923AA0864
:102BA300AB097F04021CC574F1121C198A0C8B0D2E
:102BB3008C0E8D0F7411121B89121DD77411121BE9
:102BC30089E02401F508A3E03400F509E4F50AF5EA
:102BD3000B780C790812183490831F78081219F5B2
:102BE300780C7908121834AA0CAB0DAC0EAD0F1289
:102BF30026C47402121B538B09EA450960047A0147
:102C030080027A00EC2AFCE43DFD7413121B89E078
:102C1300F8A3E0F9E8FEE9FFECF8EDF97A717B023D
:102C2300121AB288088909E4F50AF50B8E828F839C
:102C33007808121A04ECF8EDF97A717B02121AB2D1
:102C43008A088B0974057808121B2A8E828F83A346
:102C5300A3A3A3E508F0A3E509F07F08021CC5C000
:102C630082C083E9906000F0D083D08222C0E0C0AC
:102C7300D0E8C0E0E9C0E0A2AFE433F8D2AFC2C706
:102C8300751A00E8F9E8A2E092AFD0E0F9D0E0F8D5
:102C9300D0D0D0E032C2AF02000022C0E074F21202
:102CA3001D05A2AFE433FED2AFE58AA2E55024901E
:102CB3001609E0701E908363121DD37A087B00907F
:102CC30015F8E0F91215047404121B53E990160960
:102CD3007401F09018BFE0640170309018BEE0708A
:102CE3002AE58AA2E6502490160AE0701E908363B8
:102CF300121DD37A007B089015F8E0F912150474BD
:102D030004121B53E990160A7401F0758A00C2EB92
:102D1300EEF8EEA2E092AF7F01021D64C0E0C0D0E6
:102D2300E8C0E0E9C0E0EAC0E0C082C0839018C018
:102D33007400F0AAC1EAC0E09017BFE0F87900740C
:102D4300C028F582741739F583D0E0F09017BFE0FF
:102D53002401F09017BFE064FA70035386BF901705
:102D6300BE7402F0C28BD083D082D0E0FAD0E0F9F7
:082D7300D0E0F8D0D0D0E0322E
:102D7C00FFFFFFFFFFFFFFFFC082C083E9901986B2
:102D8C00F0D083D08202013274F6121BADE99003AD
:102D9C0034F0900394E0F508750900740278081279
:102DAC001B2AAA08AB0912145C9003351237479002
:102DBC000335123B34606F900394E075F003A4FA72
:102DCC00ABF012145C900352123747900352123B33
:102DDC0034700B900335123B05121462804890033B
:102DEC0052124A997AFF7BFF1212B87A0080198A24
:102DFC000875090074027808121B2A12454174FFE9
:102E0C00122F47E4F0A3F00A900394E0F8EAC39879
:102E1C0040DD790512092E900334E0F912081A7A74
:102E2C00B87B09120BB00245E474F4121BAD8A088E
:102E3C008B09EB54806047900334E0F91213C68A77
:102E4C000A8B0BAE0AAF0BEE4F602A8E828F83E09B
:102E5C0064B0701A120940E960148E828F83A3A3A8
:102E6C00A3A3E0F9EE2405FAE43FFB120910EEFAF5
:102E7C00EFFB1213B4AA08E5096480FB80047A0006
:102E8C007B0002309774F2121BAD74FB121B3DEAEF
:102E9C00FEEBFFEE4F60457403121B89EEF0A3EFBF
:102EAC00F0851882851983ECF0A3EDF07402121BE7
:102EBC0089E9F0AA18AB19120814E9F508707574B1
:102ECC0013121B89E0F50AA3E0F50BE50A450B602C
:102EDC00638E828F831234D0EE4F7005750802809A
:102EEC00537A067B0012145C8A0C8B0DA80CA90D6E
:102EFC00E8497005750813803B88828983E4122F9A
:102F0C0047EEF0A3EF123063E50AF0A3E50BF09067
:102F1C00033812305C9003386017E0FCA3E08003A8
:102F2C00EAFCEBFD8C828D8312305C70F38C828D0D
:102F3C008312415CA9087405024D19F0A3124A7B57
:102F4C00A32274F2121BAD8908890C750D00740351
:102F5C00780C121B2A850C0A850D0B900337F09008
:102F6C000335123F6712305A602E121462790080BA
:102F7C001D890C750D007402780C121B2A900335F8
:102F8C001244008882F583A3A3E4F0A3F009900314
:102F9C0094E0F8E9C39840D9900394E0FA850AF0DC
:102FAC00A4CAA8F0850BF0A428FB12145C8A0C8B25
:102FBC000DAE0CAF0DEE4F7003023050900394E049
:102FCC00FC850AF0A4CCA8F0850BF0A428FD7900B0
:102FDC001213A27C0080318D0C750D007403780CDB
:102FEC00121B2A8A828B8312305588828983E4F0E3
:102FFC00123062A3A3F0A3F00DEDC3950840D8EEF8
:10300C00250AFEEF350BFF0C900394E0F8ECC39807
:10301C0050288C0C750D007402780C121B2A90032E
:10302C0035123055E82402500109FAE9FB8A828BEB
:10303C0083EEF0A3EFF07D0080BFE508900337F03E
:10304C00790080027913024D1C124404F922A3A3C7
:10305C00123B09EA4B22A3124A7BA3A3A32274F4CA
:10306C00121BAD7900EAA2E0501F7508C9750982E0
:10307C007808121DC079107C047D007A887B1912A7
:10308C0009287402121B53E9F980007F04021C7F8B
:10309C00C082C083900338123B34601C88828983C1
:1030AC00A3A3E06A7003A3E06B8882898370E8A312
:1030BC00A3A3A3123B0580047A007B00022D8D7420
:1030CC00F2121BAD74FD121B3DEAFEEBFF8518825C
:1030DC00851983E4F0A3F07402121B897401F012B9
:1030EC003B317014120AEA12145C90033B123747FE
:1030FC00123B31700302325D123847EE2404F50A9C
:10310C00E43FF50B850A82F583E024FE603C24FC49
:10311C00607424FE607E24FE70030231AD24FE70C8
:10312C00030231BA24FE70030231C724FE7003027D
:10313C0031D424FE70030231E124FC70030232020C
:10314C0024FE700302321A023256120AEA90033D30
:10315C00EAF0A3EB12326912055CE9600302325605
:10316C0090033D121DD78E828F83A3A3A3A3A3121A
:10317C004A99850882850983123B051208F8740266
:10318C00121B53023256AC18AD19EEFAEFFB1209B2
:10319C0046023225AC18AD19EEFAEFFB12094C8041
:1031AC0078AC18AD19EEFAEFFB120952806BAC1823
:1031BC00AD19EEFAEFFB120958805EAC18AD19EEA2
:1031CC00FAEFFB12095E8051AC18AD19EEFAEFFB69
:1031DC0012096480447402121B93880C890D780CBC
:1031EC00121DC07402121BA3EEFAEFFB12096A74D3
:1031FC0002121B538023AC18AD19EEFAEFFB120927
:10320C0070E9F870167402121B89E4F0803CAC185B
:10321C00AD19EEFAEFFB120976E9F8E8602C8E8214
:10322C008F83A3E064146022850A82850B83E0906F
:10323C00033DF0851882851983123B0590033E12DD
:10324C003747E8A3123269120556EEFAEFFB120863
:10325C00CE7402121B89E0F97403024D19F07C3D07
:10326C007D03850882850983123B092274E8121BB1
:10327C00AD74FA121B3D7404121B89ECF0A3EDF033
:10328C008A128B13EA2405F50EE43513F50FEA24A4
:10329C0002F510E43513F511851082F583123B0508
:1032AC0012064C8A0A8B0B7508007C037D00790092
:1032BC007A3D7B031213A2E50E2402F516E4350FBA
:1032CC00F5177402121B93880C890D780C121DC013
:1032DC00850E82850F83A3A3A3A3E0F50C750D00C7
:1032EC00780C121DC0E50E2405F50CE4350FF50D18
:1032FC00780C121DC0851682851783123E0C12089D
:10330C00327406121B538A0C8B0DE50C450D7003A1
:10331C000234998020851882851983E088828983FC
:10332C00F00508851882851983A3E0C0E01234DA11
:10333C00D0E0F00508E50A24FBFAE50B34FFFBC3EB
:10334C00E5089AE49B40030234997E007F008512C5
:10335C0082851383A3A3A3A3E0F5097809121DC4E6
:10336C00E4F514F5157814121DC075143A7515038F
:10337C007814121DC090033B121DD77409121B89BF
:10338C00121DD7E50A24F9F9AC0CAD0D8510828518
:10339C001183123B051209A07409121B53E9600337
:1033AC0002343A850E82850F83A3A3A3A3A3A3A300
:1033BC00E0F890033AE0687075E0F5148E15781417
:1033CC00121DC0124A96850E82850F83A3A3A3A358
:1033DC00A3A3A3A3123B0512139C7402121B53E963
:1033EC00604C90033E123B34703BE4F5147814129D
:1033FC001DC07CFF7DFF7907851082851183123BF0
:10340C000512090A7402121B53123B3A7017850EEF
:10341C0082850F83124C337404121B891244F412EC
:10342C003E3D0234CD850C82850D831234D0A81814
:10343C00A919881489157814121DC07404121B89DB
:10344C00121DD785168285178312373D12083E74DC
:10345C0004121B538A0C8B0DEE4F700302331612A1
:10346C0034DAEE1234E5123DF3EF1234E5F8A3E052
:10347C003400F9E50C450D60030233218882898301
:10348C0074FFF005081234DA74FFF00508E50860E3
:10349C001A1313543F12374D120568E96009900353
:1034AC003E123B0512140E79008016850E82850F94
:1034BC0083124C337404121B891244F412415C794C
:1034CC000A023DC6A3A3A3A3E0FEA3E0FF22A80823
:1034DC0090033EE028123DF322F005080890033ECD
:1034EC00E0282274E8121BAD74FA121B3D74021210
:1034FC001B891237477404121B89ECF0A3EDF0748E
:10350C0002121B89E02405123DDCE0F50CA3E0F56A
:10351C000D7402121B89E02402F510A3E03400F5AF
:10352C0011851082F583123B0512064C7508007547
:10353C000900EA24FCFEEB34FFFF8008050CE50CC7
:10354C007002050DA808C3EE98EF940050030236E4
:10355C00F9A818A919880E890F780E121DC08514A8
:10356C0082851583A3A3A3A3124A9D121DC0E51443
:10357C002405F50EE43515F50F780E121DC08514D3
:10358C008285158312373B1208327406121B538A3C
:10359C000E8B0FEA450F70030236F9EA2404F51678
:1035AC00E4350FF517851682F583E0F50CA3E0F5ED
:1035BC000D851882851983124A998A828B83A3A35D
:1035CC00A3E0F9851082851183123B05120820E9CE
:1035DC00F50960030236F97402121B89123E03F5D9
:1035EC00097809121DC4E4F512F5137812121DC0E6
:1035FC0075123A7513037812121DC090033B121DFD
:10360C00D77407121B89121DD7EEF9AC0EAD0F85BE
:10361C001082851183123B051209A07409121B53E9
:10362C00E9F50960030236F9E508703FE4F50EF59B
:10363C000F780E121DC07CFF7DFF790985108285E5
:10364C001183123B0512090A7402121B53123E29F4
:10365C00700D7404121B89123730791102372D90BA
:10366C00033AE0240290033EF0801490033EE0FA0B
:10367C0090033AE0790024025001096A497072A85B
:10368C000890033AE0FAE82AFAE43400FBEE9AEFE9
:10369C009B405A851682851783E0C0E090033F1249
:1036AC0034DFD0E0F00508851682851783A3E0C0CF
:1036BC00E00890033F1234DFD0E0F0050890033AA5
:1036CC00124A9D121DC0124A96A808123DD0121320
:1036DC008A7402121B5390033AE02508F50874FF14
:1036EC00650C700474FF650D6003023548E50860D5
:1036FC001F90033EE0F5F0E5088412374D12056E7D
:10370C00E9600990033F123B0512140E79008011F9
:10371C00E509700375090A7404121B89123730A964
:10372C0009023DC6123F6BE50CF0A3E50DF022A398
:10373C00A3124D28AA0CAB0D22A3A3EAF0A3EBF025
:10374C002290033DF07C3D7D038510828511831210
:10375C003B092274EC121BAD74FC121B3D12426C23
:10376C007402121BA3123AFF1208388A0C8B0DEA52
:10377C00450D7003023837123847A818A91988105C
:10378C0089117810121DC07CFF7DFF790B85088292
:10379C00850983123B0512090A7402121B53123954
:1037AC003D700C850A82850B83123E3A0238448E9A
:1037BC00828F83A3A3A3A3E0F5127812121DC4E495
:1037CC00F512F5137812121DC075123D751303789E
:1037DC0012121DC07810121DC07409121B89121D03
:1037EC00D77409121B89E0F9AC0CAD0D85088285E4
:1037FC000983123B051209A07409121B53E9FE70D0
:10380C00157C3D7D03850882850983123B051205D5
:10381C0074E97009802074166E70027E0090033E6D
:10382C00123B0512140EEE7004800B7E01850A8289
:10383C00850B83124159EEF902416EEE2402F50814
:10384C00E43FF5092274EC121BAD74FC121B3DEA2B
:10385C00FEEBFF8C0E8D0FEE2405F508E43FF50909
:10386C007402121BA3850882850983123B0512087A
:10387C00388A0C8B0DEA450D700302392DEE2402AB
:10388C00F50AE43FF50BA818A919881089117810CE
:10389C00121DC07CFF7DFF790D123AFF12090A74CC
:1038AC0002121B5312393D700B8508828509831255
:1038BC003E3A807A8E828F83A3A3A3A3E0F512787D
:1038CC0012121DC4850882850983A3A3121DD77506
:1038DC00123D7513037812121DC07810121DC0749E
:1038EC0009121B89121DD77409121B89E0F9123AAF
:1038FC00FB1209A07409121B53E9FE700F7C3D7D6D
:10390C0003123AFF12057AE97009802074166E7062
:10391C00027E0090033E123B0512140EEE700480E2
:10392C000B7E01850882850983124159EEF902410B
:10393C006E123B44F510A3E0F511EA45112274E830
:10394C00121BAD74FE121B3D8A168B178C148D1531
:10395C00EA2405F50CE43517F50DEA2402F50EE41E
:10396C003517F50F850E82F583123B0512064C8A2E
:10397C00088B09750B007C037D0079007A3D7B0375
:10398C001213A2750A00E50814F5100424FFF508BB
:10399C00E50934FFF509805490033DE0FA90033AB1
:1039AC00E0F8EA28F8E43400F9E50898E5099950BC
:1039BC000D90033DE0F8E510C39890033AF0E0F564
:1039CC00127513007812121DC0124A9690033EE035
:1039DC002AFAA3E03400FB12138A7402121B5390D0
:1039EC00033AE0F890033DE028F0050A850C828547
:1039FC000D83A3A31244104003023AE090033DE070
:103A0C00C39508E495094003023AE0AE0AEE2EFE97
:103A1C00E433FF123B1FAC18AD19124AB1E439FB69
:103A2C001208388A128B13AC12AD13EC4D701B7547
:103A3C000B01123B0F12415D90033E12305C600390
:103A4C0012140EA90B7402023DC8851682851783C9
:103A5C00A3A3A3A3E0F50B780B121DC4E4F512F598
:103A6C00137812121DC075123A7513037812121DB9
:103A7C00C090033B121DD77407121B89121DD7A9C6
:103A8C0010850E82850F83123B051209A074091252
:103A9C001B53E9F50B709B90033E123B3460030201
:103AAC0039A4E4F512F5137812121DC07CFF7DFFCA
:103ABC00790F850E82850F83123B0512090A740259
:103ACC00121B53123B3A60030239A4123B0F123EF5
:103ADC003E023A517C3D7D03850E82850F83123B5D
:103AEC0005120580E96003023A447900023A51ACB0
:103AFC000CAD0D850A82850B83123B0922E0FAA3DB
:103B0C00E0FB22123B1FE0FAA3E0F9EA8514828560
:103B1C00158322850C82850D83E02EF8A3E03FF9F6
:103B2C00888289832290033B124C37E84922123B4E
:103B3C0044F8A3E0F9E8492290033EEAF0A3EBF045
:103B4C0090033EE02274E8121BAD74FA121B3D7414
:103B5C0004121B891237478C168D177404121B899B
:103B6C00E02405F50EA3E03400F50F7404121B8954
:103B7C00E02402123DDC123B0512064C8A0A8B0B28
:103B8C007F007E00A818A919880889097808121DD9
:103B9C00C0850E82850F83A3A3A3A3E0F5088E092D
:103BAC007808121DC0E50E2405F508E4350FF5095B
:103BBC007808121DC0850E82850F83A3A3123E0CBC
:103BCC001208327406121B538A0C8B0D8029123D7D
:103BDC00FDF00F123DFDF00F90033A124148121DFB
:103BEC00C0124A96EFF8123DD012138A7402121BBF
:103BFC005390033AE02FFFE50C450D7003023C8C0B
:103C0C0085188285198312427EA3A3A3E0F985143B
:103C1C0082851583123B05120820E9FEE50C24046D
:103C2C00F510E4350DF511EE70507404121B891269
:103C3C003E03F5087808121DC4E4F508F509780868
:103C4C00121DC075083A7509037808121DC090033F
:103C5C003B121DD77407121B89121DD7E50A24FAD3
:103C6C00F9AC0CAD0D851482851583123B05120938
:103C7C00A07409121B53E9FE6039123E1912415C03
:103C8C00EF7003023DB390033EE0F5F0EF84900338
:103C9C003DF07C3D7D03851482851583123B051216
:103CAC000586E9600990033F123B0512140E79005A
:103CBC00023DC68F08EF703BE4F512F51378121233
:103CCC001DC07CFF7DFF7911851482851583123B05
:103CDC000512090A7402121B53123E297009123E76
:103CEC0019123E3D023DC690033AE0240490033E77
:103CFC00F0803590033AE0F890033EE0FAE82404B3
:103D0C00FCE43400FDEC6A4D6003023C92E50A24AD
:103D1C00FAFAE50B34FFFBE50828F8E43400F9EA7D
:103D2C0098EB995003023C92851082851183E0C078
:103D3C00E090033FE02FF8A3E034008882F583D0B5
:103D4C00E0F00F851082851183A3E0C0E0123DEAFC
:103D5C00D0E0F00F7402121B9388088909780812BE
:103D6C001DC07402121B89121DD7850E82850F830C
:103D7C0012373B12083E7404121B538A0C8B0DEA4B
:103D8C00450D7003023BDA7402121B89E0C0E0128D
:103D9C003DEAD0E0F00F7402121B89A3E0C0E012E0
:103DAC003DEAD0E0023BE2EE70027E0A850E82858F
:103DBC000F83123E1F12415CEEF97406121B537FE7
:103DCC0010021C7F90033FE028FAA3E03400FB2292
:103DDC00F514A3E03400F515851482F58322123D09
:103DEC00EE2290033FE02FFAA3E034008A82F583A1
:103DFC0022123DEE74FF22123F6BA3A3A3A3E02279
:103E0C00124D28850E82850F83123B092285108264
:103E1C00851183124C378516828517832290033FB8
:103E2C00EAF0A3EBF090033F124C37E84922124121
:103E3C0062E8F0A3E9F079112274EA121BAD74FE6A
:103E4C00121B3D8A088B098C128D13EA2405FEE4A3
:103E5C003509FFAC18AD198E828F83123B05120801
:103E6C00388A0C8B0DEE2406F50EE43FF50FEA456F
:103E7C000D7003023F3DE5082402F50AE43509F50F
:103E8C000B8A828B83A3A3A3E0A2E550288518821A
:103E9C00851983123B051209948A108B11EA45117E
:103EAC0060207912123AFB851082851183121BABAC
:103EBC00E9F50C707F850E82850F83E060097952DD
:103ECC008011750C0E806D850882850983A3A3A3D0
:103EDC00A3E0F9E4F508F5097808121DC08E828F6D
:103EEC0083A3A3E0F5087808121DC08E828F83A3EC
:103EFC00A3A3121DD78E828F83124A99123AFF12F6
:103F0C0009A67406121B53E9F50C7011850E8285F7
:103F1C000F83E0702D123AFF12058C802574166504
:103F2C000C7011750C007418121B89123F67E48019
:103F3C0010750C01124C2F851282851383E8F0A3A7
:103F4C00E9F0850E82850F83E0600479008002A978
:103F5C000C7402121B537F0E021C7F123F6B22E06B
:103F6C00F8A3E0F58388822274EC121BAD74F7126F
:103F7C001B3D8A0A8B0B8C108D11EA2405FEE4354F
:103F8C000BFF750C00AC18AD198E828F83123B059C
:103F9C001208388A088B09EA45097003024133E597
:103FAC000A2402F50A5002050B8A828B83A3A3A371
:103FBC00E0A2E5502F851882851983123B05120962
:103FCC00948A0C8B0DEA450D604F7912AC08AD0943
:103FDC00123AFF850C82850D83121BABE9F50C6040
:103FEC0003024136850A82850B83E0F508A3E0F5D0
:103FFC0009AA08FB120988EA4B70197AFF7BFF1299
:10400C000988EA4B70030241298A828B83E508F008
:10401C00A3E509F07508008008750C0E0241360501
:10402C0008900337E0F8E508C3984003024129855E
:10403C00080E750F007403780E121B2A8A828B836C
:10404C00A3A3E0250EF8A3E0350F1244FD70D08E2B
:10405C00828F831241511237478E828F83A3A31212
:10406C004151123745EE2404F508E43FF509850863
:10407C0082F583E088828983A3A3A3A3F0A3E4F051
:10408C00EE2405F50EE43FF50F850E82F583124103
:10409C0051A3A3A3A3123745751207751300781209
:1040AC00121DC0EEFCEFFD7404121B9B12138A74DC
:1040BC0002121B53E4F5127812121DC0850882857A
:1040CC000983E0FC7D007917123AFF12090A740289
:1040DC00121B537407121B891237477407121B8962
:1040EC00E0FA4B603D850882850983124148121D18
:1040FC00C0850E82850F83124A9912138A7402129C
:10410C001B537402121BA3123AFF120592E960268C
:10411C007407121B89123B0512140E8019750C09B9
:10412C008008750C118003750C01124C2F851082C0
:10413C0085118312415CA90C74098028E0F508757F
:10414C000900780822123B09888289832212416275
:10415C00E8F0A3E9F022E0F8A3E0F9850E82850FE0
:10416C0083227404121B537F0C021C7F74EC121BF1
:10417C00AD12426C751000EE2402F50CE43FF50D07
:10418C00850C82F583123B051209888A088B09EA93
:10419C0045097003024250850A82850B83E0640155
:1041AC006003024245AC08AD09AA0AAB0B12097CAC
:1041BC00E9606E8508828509831234D2EE2406F5F7
:1041CC000AE43FF50B8E828F83A3A3121DD78E8238
:1041DC008F83A3A3A3A3121DD7850A82850B8312F9
:1041EC001DD779188E828F8312427E123B051209DD
:1041FC00A67406121B53E9F8741668700B850A82B4
:10420C00850B83E4F0A38014E860128E828F8312F6
:10421C003B05850E82850F83EAF0A3EBF0881080B6
:10422C0018780E121DC0AC08AD09EEFAEFFB12099E
:10423C00827402121B53E9F510AA08AB0912098EFD
:10424C00E510700E850C82850D83123B05120598C6
:10425C008009741665107003751000A91002417363
:10426C00EAFEEBFF8C0E8D0FEE2405F50AE43FF50C
:10427C000B22124D28850C82850D832274EA121BA9
:10428C00AD7508007509007E007F00750A00EC24EE
:10429C0002F510E43DF5118035EC65087003ED6511
:1042AC0009600302433D88828983A3A3E06A7003FB
:1042BC00A3E06B707C88828983A3A3A3A3124C33E5
:1042CC00EE28FEEF39FFEA28FAEB39FB050A124417
:1042DC000D503A850A0C750D007403780C121B2ACC
:1042EC008510828511831244001244FD601FE5087D
:1042FC00450970A58C088D09888289831234D08871
:10430C00828983A3A3E02EFAA3E03F80BEE50AC313
:10431C00940250030243FB750800750900EE4F60D0
:10432C0010EEFAEFFB1214088A0E8B0FEA450F7091
:10433C000579000243FD750B000243D0850B0C750B
:10434C000D007403780C121B2A851082851183E0F2
:10435C00250CF50CA3E0350DF50DE50C2406F51434
:10436C00E4350DF515851482F5831245026042E59E
:10437C000C2404F512E4350DF513851282F5831225
:10438C001DD7E50E2508FAE50F3509FB12138A74C3
:10439C0002121B53851282851383E02508F508A3AE
:1043AC00E03509F509851482851583123B05121435
:1043BC000EE50B600D7C087D007900AA0CAB0D128C
:1043CC0013A2050BE50BC3950A5003024348851055
:1043DC0082851183124C3388828983A3A3A3A3A360
:1043EC00A3E50EF0A3E50F123063EEF0A3EFF07926
:1043FC0001023F6212440422E0250CF8A3E0350DC3
:10440C0022900337E0F8E50AC3982274F0121BAD32
:10441C008A0E8B0F8C0A8D0B750D00750C0080505D
:10442C007916EE2406F508E43FF5098E828F83A3F6
:10443C00A3121DD78E828F83A3A3A3A3121DD7858E
:10444C000882850983121DD7850E82850F83A3A34D
:10445C00123B051209A67406121B53E9F50D7416CE
:10446C00650D706C850882850983E4F0A3F0050C5A
:10447C00900337E0F8E50CC3985066AA0C8A0875CF
:10448C00090074037808121B2A850A82850B83A302
:10449C00A312454CE8FEE9FF8E828F831245026021
:1044AC0040EA2401F508E43400F509900337E0658F
:1044BC00087002E509601488828983A3A3A3A3A3CF
:1044CC00A3A3A3123B34600302442C791802442E9C
:1044DC00E9609B124C2F7410121B891244F4124188
:1044EC005CA90D7F08021C7FE0FAA3E0F5838A82A9
:1044FC0022F988828983124D28EC4D2274F6121B06
:10450C00AD7C0080010C900394E0F8ECC398501E35
:10451C008C0875090074027808121B2A124541E0B8
:10452C006A7003A3E06B70DDE8FAE9FB80047A00A3
:10453C007B000245E490033512454C888289832226
:10454C00E02508F8A3E03509F92274F2121BAD8AB4
:10455C00088B09750A0080278E828F83A3A3A3A3DF
:10456C0012305A600312140E7C087D007900EEFAAA
:10457C00EFFB1213A28E828F83E4F0A3F0050A12D4
:10458C00440D5027850A0C750D007403780C121B12
:10459C002A850882850983A3A3E0250CFEA3E035B8
:1045AC000DFF8E828F83123B3470AD850882850996
:1045BC008374FFF0A3F0024D1C74F6121BAD1209AC
:1045CC003A8A828B83E582458370067A007B008071
:1045DC0007A3A3A3A3123B057F02021C7F74F41252
:1045EC001BAD89088C828D83E06402703C124BD227
:1045FC00FEA3E0F9EEF8740268700374296970295F
:10460C00750A02750B00780A121DC07410121B89F2
:10461C00121DD77410121B89121DD7A9081212CAA9
:10462C007406121B53E9F98002790102309774E881
:10463C00121BAD74FB121B3DE9851882851983F0A2
:10464C008A168B17ECFEEDFF7510008E828F83A3FC
:10465C00A3A3E0A2E4502D741D121B89123B05127A
:10466C0009948A828B83E58245837003024A7179AF
:10467C000AEEFCEFFDAA16AB17121BABE9F51060A6
:10468C0003024A74741F121B89E0F508A3E0F509B4
:10469C007421121B89E0F50AA3E0F50B7423121B9D
:1046AC0089E0F50EA3E0F50F8E828F83E064026043
:1046BC0003024A12A3124C33850882850983A38511
:1046CC008212858313EE2406F50CE43FF50D8882E7
:1046DC008983124AB1F514E439F5157814121E4A7F
:1046EC00010000280128144707000228D947032895
:1046FC00474700290849012933490229D44803298D
:10470C0008490429AC49124AE50E450F6003024AD8
:10471C000D850C82850D83124C33E8FAE9FB8A82F5
:10472C008B83E0850A82850B83124ABC121DC08ADA
:10473C00828B83A3E0FCA3E0024996E50E450F6053
:10474C0003024A0D850A82850B837401F0124AA676
:10475C00850882850983F07C007D008E828F83A37F
:10476C00A3A3A3E02401FAA3E03400FB120838EA67
:10477C004B60408A828B83E02402F8850A82850B89
:10478C0083E028F0EA2404F8E43BF988828983E08A
:10479C00851282851383124ACA124ABC121DC08A22
:1047AC00828B83A3124A99E5082403FAE43509FBAA
:1047BC0002499B850A82850B83E02404F07C047DEE
:1047CC00007900AA12AB131213A2024A74E50E452B
:1047DC000F6003024A0D124AA6FEA3E0FF850A826F
:1047EC00850B837404F0EE850882850983F0EF85D0
:1047FC001282851383F07403121BA3EEFAEFFB12E3
:10480C0008388A0C8B0DEA450D70030248B78A8272
:10481C008B83A3A31234D07401121B93880E890FBF
:10482C00780E121DC07405121B89121DD77CFF7DDA
:10483C00FF12083E7404121B538B0FEA450F7033A2
:10484C00850C82850D83124A9D121DC0850C8285B4
:10485C000D83A3121DD77C027D007AE17B831206A7
:10486C003A7404121B53E9700A7401121B8974FF09
:10487C00F0A3F08E828F83E064027039750C0275A0
:10488C000D00780C121DC08E828F83A3124A99E5FD
:10489C00082404FAE43509FB12138A7402121B5320
:1048AC00850A82850B83E0240280097401121B891E
:1048BC00EEF0A3EFF07401121B89124A8B740112F3
:1048CC001B89124A82024A07E50E450F6003024A11
:1048DC000D850C82850D83124D21AA16AB17121271
:1048EC00D0850A82850B837402F085088285098342
:1048FC00EAF0851282851383EB024A0AE50E450F16
:10490C006003024A0D124AA6F8A3E0F9850A8285D3
:10491C000B837402F0E8850882850983F0E985121F
:10492C0082851383024A0A850C82850D83123B050E
:10493C00121384EAFAF8C3950EE4950F405CE8650F
:10494C000E450F70047A008021851882851983E04A
:10495C00FCE50E2CFCE4350FFDC3EC98ED940050F7
:10496C0003E08005E50ECAC39AFAEA850A82850B34
:10497C0083F08A0A750B00780A121DC0850C82859B
:10498C000D83E0250EFCA3E0350FFDAA08AB091240
:10499C00138A7402121B53024A74751007024A746C
:1049AC00E50E450F705B850C82850D83124C3385AB
:1049BC000A82850B837407F088828983124A8312DA
:1049CC004A7BE0851282851383F0E82402FAE439ED
:1049DC00FB8A828B83124A8B8A828B83124A82A334
:1049EC00A3123062124A90F0E82405F850010988AD
:1049FC00828983124A90A3124ACAA3A3A3A3F0806C
:104A0C006775100B8062741D121B89123B0512090D
:104A1C003A8A828B83E5824583604A124C33880C38
:104A2C00890DE8450D603E7425121B89E0F5107860
:104A3C0010121DC4780E121DC0780A121DC0780801
:104A4C00121DC07407121B89E0F9EEFCEFFDAA16CB
:104A5C00AB17850C82850D83121BAB7407121B538D
:104A6C00E9F510800375100EA9107405023DC8F00D
:104A7C0088828983A322A3E0850882850983221278
:104A8C004AD1F022124AD1A3A32290033B124D2803
:104A9C0022E0F50E750F00780E22850C82850D83B1
:104AAC00123F6BE022E0FAA3E0F8E4C8F9EA28220E
:104ABC00F08A828B83E0F50A750B00780A22124A81
:104ACC007B124AD122E0850882850983A3A3227434
:104ADC00EE121BAD74FE121B3D8A088B09ECFEED29
:104AEC00FF890AAC18AD19EEFAEFFB1208388A0CE4
:104AFC008B0DEA450D7003024BC385188285198313
:104B0C00123B0512093A8A828B83E5824583700336
:104B1C00024BBEA3A3124C33880E890FE8450F70CD
:104B2C0003024BBE7414121B89E0F510A3E0F511BF
:104B3C00E50AF50B780B121DC47419121B89121D92
:104B4C00D77810121DC0741B121B89E0F9AC0CAD88
:104B5C000DAA08AB09850E82850F83121BAB740559
:104B6C00121B53E9F50B705274FE650A604C850CF0
:104B7C0082850D83E064027041124BD2FAA3E0F9F6
:104B8C00EAF87402687003742969702E85108285A6
:104B9C001183124AB1F50CE439F50D780C121DC0D5
:104BAC00EEFCEFFDAA08AB091209BE7402121B53EE
:104BBC008008750B0E8003750B01A90B7402121B78
:104BCC00537F0A021C7FA3124C3788828983E02210
:104BDC0074F6121BAD74FE121B3D740C121B891261
:104BEC004C33E8851882851983F07401121B89E90E
:104BFC00F0E4F508F5097808121DC075080278086C
:104C0C00121DC07404121B93880889097808121DA0
:104C1C00C079FE1209A67406121B537402121B53A0
:104C2C000245E48E828F83124C3722E0F8A3E0F920
:104C3C002274F7121BADEAFEEBFF890890035212A7
:104C4C004A991212D0EA5402600BA908EEFAEFFB53
:104C5C0012082C800279017F01021C7F74F2121B56
:104C6C00AD74FE121B3DEAFEEBFF890A7401650A66
:104C7C0060147402650A6003024D177901120BCEA1
:104C8C00E96003024D17EEFAEFFB120988EA4B605C
:104C9C000312098EA818A919880889097808121D09
:104CAC00C07508027509007808121DC07508D37507
:104CBC0009837808121DC07CFF7DFF7A017B0012EE
:104CCC0008327406121B538038850882850983A329
:104CDC00A3A3A3A3A3124D21EEFAEFFB1212B8E487
:104CEC00F50CF50D780C121DC07402121B89121DE7
:104CFC00D77CFF7DFFAA08AB0912083E7404121B77
:104D0C00538A088B09E508450970BE7402121B53BF
:104D1C007F06021C7F123F6B124D2822E0FCA3E0A1
:104D2C00FD2274F4121BAD8A088B09ECFEEDFF908A
:104D3C001986E0F4604B7A097B001213AEEA4B60E3
:104D4C00408A828B8374B1F0A3E4124D90F08A8276
:104D5C008B83A3A3E508F0A3E509124D90A3EEF015
:104D6C00A3EFF0740C121B89124C338A828B83A331
:104D7C00A3A3A3A3A3A312415C901986E0F9121379
:104D8C00BA023097F08A828B83A3A3A3A32274EE7A
:104D9C00121BAD74FA121B3D8A0A8B0BE9FF8C08AF
:104DAC008D097E00850A0C850B0D780C121E0400F3
:104DBC0004107650E24D054E244E474E6A4E8D4EF1
:104DCC00BE4EE14EF84E284FD74FFA4F1D504B5068
:104DDC0076507650514F74016F7019850882850991
:104DEC0083E0C39403500D850882850983E0901AF3
:104DFC0072F080027E1802509E74026F7015850846
:104E0C0082850983E0F8A3E0F9901A73E8F0A3E92E
:104E1C00F080027E1802509E74016F701985088212
:104E2C00850983E0C39402500D850882850983E0CF
:104E3C00900795F080027E1802509E74016F7019D5
:104E4C00850882850983E0C39405500D8508828509
:104E5C000983E0900796F080027E1802509E740140
:104E6C006F7019850882850983E0C39402500D8503
:104E7C000882850983E0900797F080027E18025023
:104E8C009E74106F7027750C10750D00780C121D28
:104E9C00C0AC08AD097A987B0712138A7402121BF6
:104EAC00538A0C8B0D850C82850D8380027E180233
:104EBC00509E74016F7019850882850983E0C39434
:104ECC0002500D850882850983E09007A8F08002C6
:104EDC007E1802509E74016F700D850882850983BF
:104EEC00E0901A76F080027E1802509E74046F7067
:104EFC002690833F780C1219F585088285098378F2
:104F0C000C1218055011850882850983121A2B90F2
:104F1C0007AA121A3780027E1802509EEF702112D7
:104F2C0007D2E9701312125EE9F50D79501214E6EE
:104F3C00E9F50C12124C800A90083D7401F08002C5
:104F4C007E1802509E74076F707C750E06750F00EC
:104F5C00780E121DC0850882850983A3AC82AD83AF
:104F6C007402121B9B1213907402121B538A108B27
:104F7C001185100E85110F7C007D00AA18AB1985C8
:104F8C000882850983E0F91211F2E9F50CE50CC3EE
:104F9C00940A502E1207D2E97015A90C121264E96A
:104FAC00F50E79501214E6E9F50D12124C8019A881
:104FBC000C7900743E28F582740839F5837401F07D
:104FCC0080067E0280027E1802509E74016F70195A
:104FDC00850882850983E0C39402500D850882857B
:104FEC000983E09007A9F080027E1802509E74019C
:104FFC006F7019850882850983E0C3940A500D856A
:10500C000882850983E0901A75F080027E180250A0
:10501C009E74016F7025850882850983E0C394070F
:10502C004019850882850983E0C39411500D8508C9
:10503C0082850983E0901A77F080577E188053742C
:10504C00016F702290083CE0F50C8508828509837D
:10505C00E090083CF0E50C703990083CE06401707D
:10506C003112124C802C7E188028C3E50A9427E557
:10507C000B9400501B74026F70168508828509838F
:10508C00E0FCA3E0FDAA0AAB0B120652E9FE80027B
:10509C007E02EEF97406121B537F0A021C7F74EC1D
:1050AC00121BAD74DA121B3D890D8A128B138C0AFC
:1050BC008D0B743A121B89E0F50C9082CFAC18ADB5
:1050CC00197406121A50AC18AD19AA12AB13A90D0B
:1050DC001211F2E9FEEEC3940A400302521EEEF9DD
:1050EC0012122EE9FF901A72E064027004740180AF
:1050FC00027400F5087808121DC4AD0CEFFCEEF933
:10510C00AA0AAB0B1212A07401121B537C147D0063
:10511C0079007412121B9B1213A28A0E8B0F850E30
:10512C0008850F097412121BA37A1075F006EEA4F1
:10513C002424F91214E0E9703C7C1079FF741212EB
:10514C001B9B121402E9702D7422121B89AC82ADC8
:10515C00837A0475F006EEA42425F91214E0E9F51F
:10516C00087412121BA3EFA2E0E433F9AA0AAB0BEA
:10517C001206DCE9F87406121BA37A0C74702EF973
:10518C001214E0E970797406121B9B121222750E30
:10519C0000E50EC394045067A80E7900E875F0037F
:1051AC00A4C8AAF075F000A42AFA75F003E9A42AA1
:1051BC00F97406121B89E58228F508E58339F5098F
:1051CC00850882850983E0F8A3E0F9E849602C851D
:1051DC000882850983A3A3E0F510751100781012DD
:1051EC001DC0850882850983E0FCA3E0FDAA0AABFB
:1051FC000B1209AC7402121B53E9F8050E8092EFE6
:10520C00A2E1500E900794E0F9AA0AAB0B1209B276
:10521C00E9F87404650C700F901A72E06402700760
:10522C00AA0AAB0B12129A79007426121B537F0C2C
:10523C00021C7F74F7121BADEAFEEBFF1207D2E9DA
:10524C00706790083DE06401701B12125EE9F5086E
:10525C0090083D7400F07C0A7D0079007A3E7B0852
:10526C001213A28039750800E508C3940A502FA8C0
:10527C00087900743E28F582740839F583E06401DE
:10528C007018A908121264E9FAA8087900743E286B
:10529C00F582740839F5837400F0050880CA7950DA
:1052AC001214E6E9F50812124C7F01021C7F74F20D
:1052BC00121BAD890BEAFEEBFF8C088D09750A0AEF
:1052CC00E50B600C14600914604414606402535FB5
:1052DC00EEFAEFFB121240E9F50AE50AC3940A5004
:1052EC0072E5084509606C750C06750D00780C129A
:1052FC001DC0EEFCEFFDAA08AB0912138A74021252
:10530C001B538A0C8B0D850C82850D838045EEFA20
:10531C00EFFB12123AE9F50AE50AC3940A5034E598
:10532C00084509602EAA08AB09A90A121234E980B3
:10533C0022EEFAEFFB121246E9F50AE50AC3940ACB
:10534C005011E5084509600BAA08AB09A90A12120D
:10535C0034E9F8A90A7F06021C7F74F2121BAD8A8D
:10536C000C8B0DE9FF7E1574FF650C700474FF65E2
:10537C000D702A750800E508C3940A5014EFFC7AE6
:10538C00027B00A908121210E960027E0005088059
:10539C00E5EF60627A887B12120BF28059AA0CAB93
:1053AC000D120BC28A0A8B0B850A08850B09E508BE
:1053BC00450960407C007D00E5082405FAE43509C8
:1053CC00FB850882850983A3A3A3A3E0F91211F23C
:1053DC00E9F50AE50AC3940A500EEFFC7A027B0049
:1053EC00A90A121210E97E00EF600BAA08AB091291
:1053FC00128880027E14EEF97F06021C7F74EE1276
:10540C001BAD8A0E8B0F8C0A8D0B7412121B89E04C
:10541C00F50CA3E0F50D75081574FF650E7004749A
:10542C00FF650F701E7E00EEC3940A5061AC0CAD8C
:10543C000DAA0AAB0BEEF9121216E96003750800FF
:10544C000E80E4AA0EAB0F120BC28A108B11AE1099
:10545C00AF11EE4F60357C007D00EE2405FAE43F81
:10546C00FB8E828F83A3A3A3A3E0F91211F2E9F5BB
:10547C0009E509C3940A5016AC0CAD0DAA0AAB0B86
:10548C00A909121216E97508008003750814A908F9
:10549C007F0A021C7F74F7121BADEAFEEBFF90072C
:1054AC00AEEEF0A3EFF0900794E0FC7D007A267B43
:1054BC0000120652E9F508900794E0F91209167FDC
:1054CC0001021C7F74F0121BAD74EC121B3D8A0C94
:1054DC008B0D850C82850D83A3A3E024FA70030247
:1054EC00594924FD70030257BE1470030255C014B1
:1054FC00601024FD70030257661470030257FD02FE
:10550C00595CAE0CAF0D9007AEE0F8A3E0F9E8499A
:10551C0060669007AEE0F8A3E0F5838882E0F8A31C
:10552C00E0F9E8496052EE240CF582E43FF583E0A3
:10553C00F5087808121DC4EE240BF582E43FF583C0
:10554C00E0F98E828F83A3A3A3A3A3A3A3A3A3E0B9
:10555C00FCA3E0FDEE2403FAE43FFB9007AEE0F879
:10556C00A3E0F5838882E0F8A3E0F5838882121B20
:10557C00AB7401121B5380398E828F83A3A3A3A318
:10558C00A3A3A3A3A3121DD79007AA121A13120642
:10559C00EE7402121B53E9601879018E828F83A37B
:1055AC00A3A3A3A3A3A3A3A3E0FAA3E0FB1206E87F
:1055BC00E902595CAE0CAF0D7508008E828F83A387
:1055CC00E060030256E88E828F83A3A3A3A3A3E01B
:1055DC00A2E040030256E8900848E0F8A3E0F9E89E
:1055EC004960030256E87C0E7D007900AA18AB19BD
:1055FC001213A28A0A8B0BAA0AAB0BEE240CF582AF
:10560C00E43FF583E0F8A3E0F9E8496036750A0653
:10561C00750B00780A121DC0EE240CF582E43FF5E0
:10562C0083E02410FCA3E03400FD7402121B9B12D7
:10563C00138A7402121B538A0A8B0B850A82850B00
:10564C0083804F8E828F83A3A3A3E0FAA3E0FB1287
:10565C000BC28A0E8B0F850E0A850F0BE50A450BC4
:10566C00602D750E06750F00780E121DC0E50A240C
:10567C0005FCE4350BFD7402121B9B12138A740299
:10568C00121B538A0E8B0F850E82850F83800302AB
:10569C00595C8E828F83A3A3A3A3A3E0A2E2500440
:1056AC00D2F08002C2F0A2F0E433F87900740C124C
:1056BC001B89E048F0A3E049F0EEFCEFFDAA18AB23
:1056CC0019121228E970127A027B00900794E0F903
:1056DC001213DEE9790002595E7508159007AEE0E9
:1056EC00F8A3E0F9E849606F9007AEE0F8A3E0F5A5
:1056FC00838882A3A3E0F8A3E0F9E84960598E827D
:10570C008F83A3E0FC79018E828F83A3A3A3E0FA9D
:10571C00A3E0FB9007AEE0F8A3E0F5838882A3A397
:10572C00E0F8A3E0F5838882121BABE5086028AC97
:10573C000879038E828F83A3A3A3E0FAA3E0FB90E6
:10574C0007AEE0F8A3E0F5838882A3A3E0F8A3E01A
:10575C00F5838882121BAB02595CAE0CAF0D90071F
:10576C00AEE0F8A3E0F9E84960459007AEE0F8A395
:10577C00E0F5838882A3A3E0F8A3E0F9E849602F61
:10578C00850C82850D83A3E0FC79028E828F83A326
:10579C00A3A3E0FAA3E0FB9007AEE0F8A3E0F58347
:1057AC008882A3A3E0F8A3E0F5838882121BAB02E6
:1057BC00595CAE0CAF0D7C007D00EE2404FAE43F86
:1057CC00FB8E828F83A3A3A3E0F91211F2E9F508F3
:1057DC00E508C3940A5017EE240AFCE43FFD7A0452
:1057EC0075F006E508A42425F91214DAE9F8025933
:1057FC005CAE0CAF0D9007A9E06019901A75E0F93A
:10580C008E828F83A3A3A3E0FAA3E0FB1206E8E940
:10581C00F802595C901A72E0701679058E828F83AB
:10582C00A3A3A3E0FAA3E0FB1206E8E9F802595C93
:10583C008E828F83A3A3A3E0FAA3E0FB120BC28A90
:10584C000A8B0B850A08850B09E5084509700302CC
:10585C00595C8E828F83A3A3A3A3A3A3A3E0A2E08E
:10586C00506D850882850983A3A3A3A3E060608E95
:10587C00828F83A3A3A3A3A3A3A3A3A3E0F50AA34B
:10588C00E0F50B7409780A121B1BE50A5401F8E5C4
:10589C000B5400F9E8A2E04036740E121BA3E50885
:1058AC002405FAE43509FB850882850983A3A3A3A3
:1058BC00A3E0F91211F2E9701679038E828F83A39B
:1058CC00A3A3E0FAA3E0FB1206E8E9F802595CEEA8
:1058DC002405FCE43FFD850882850983A3A3A3A3CB
:1058EC00E0F98E828F83A3A3A3E0FAA3E0FB12124C
:1058FC00949007AEE0F8A3E0F9E84960539007AE46
:10590C00E0F8A3E0F5838882A3A3E0F8A3E0F9E82C
:10591C0049603D7C0079008E828F83A3A3A3E0FABB
:10592C00A3E0FB9007AEE0F8A3E0F5838882A3A385
:10593C00E0F8A3E0F5838882121BAB8013AE0CAFAA
:10594C000D8E828F83A3A3A3E0FAA3E0FB1211ECCC
:10595C0079017414121B537F08021C7F74F5121BFF
:10596C00AD74F2121B3D8909EAFEEBFF8C0AAC18F0
:10597C00AD197A0E75F006E509A42420F91214E08D
:10598C00E9705F7C0679FFAA18AB19121402E97052
:10599C0051740C121B89E0F8A3E0F9E8F508E50A4C
:1059AC006005EE42088004EEF45208A808790074F1
:1059BC000C121B89E0687003A3E0696021A80879C8
:1059CC0000740C121B89E8F0A3E9F0AC18AD197A3D
:1059DC000E75F006E509A42420F91214DAE9790110
:1059EC0080027900740E121B537F03021C7F74F02B
:1059FC00121BAD74E6121B3D890B8A0C8B0DECFE51
:105A0C00EDFF740C121BA37A0E75F006E50BA424A3
:105A1C0020F91214E0E96003025B2A7C0679FF741A
:105A2C000C121B9B121402E96003025B2AAC18AD2A
:105A3C00197A0C7470250BF91214E0E96003025BFF
:105A4C0026750A00AA18AB19121222E50C450D7026
:105A5C002E7C0C7900AA18AB19121402E96003020F
:105A6C005B0C7C0C7D007900AA18AB191213A28A6E
:105A7C00088B09850882850983750A01025B0CACC9
:105A8C0018AD19AA0CAB0D12121C8A0E8B0F850EB9
:105A9C0008850F09E50845097030EE4F601BAC18FE
:105AAC00AD197A007B0012121C8A0E8B0FA80EA95E
:105ABC000F88088909E84970047900806385088299
:105ACC00850983E50CF0A3E50DF085088285098333
:105ADC00A3A3E0F87900EE687002EF696022EEC0D3
:105AEC00E0850882850983A3A3D0E0F0EE4F700D0A
:105AFC008508828509837400F0A37400F0750A018F
:105B0C00E50A6016AA18AB19121222AC18AD197A54
:105B1C000C7470250BF91214DAE979018002790002
:105B2C00741A121B537F08021C7F74F6121BAD8A69
