:020000040000FA
:1000000002020F021003FFFFFFFFFF02100BFFFFB2
:10001000FFFFFF021013FFFFFFFFFF02101BFFFF98
:10002000FFFFFF021023FFFFFFFFFF02102BFFFF68
:10003000FFFFFF021033FFFFFFFFFF02103BFFFF38
:10004000FFFFFF021043FFFFFFFFFF02104BFFFF08
:10005000FFFFFF021053FFFFFFFFFF02105BFFFFD8
:10006000FFFFFF021063FFFFFFFFFF02106BFFFFA8
:10007000FFFFFF021073FFFFFFFFFF02107BFFFF78
:10008000FFFFFF021083FFFFFFFFFF02108B250C15
:10009000C582C0E0E50D34FFC583C0E0E50CC39523
:1000A0008224F810AF0885830D85820C8008858333
:1000B0000D85820CD2AFCEF0A3E520F0A37808E640
:1000C00008F0A3DEFAEFF0A3E58124FAF8E608F0E1
:1000D000A3E608F0A3E608F0A30808E608F0A3E604
:1000E00008F0A315811581D0E0FED0E0F815811548
:1000F000811581E8C0E0EEC0E022850D83850C8289
:10010000E0A3FEE0A3F5207808E0A3F608DFFAE01C
:10011000A3FFE0A3C0E0E0A3C0E0E0A3C0E0E0A351
:10012000C0E0E0A3C0E010AF0885820C85830D809D
:100130000885820C85830DD2AFD083D08202016CFA
:10014000E4900180780279028002F0A3D8FCD9FA09
:100150007582BA758309740012016675827F758392
:10016000027400120166C09FF59FE473D09F22D0F5
:1001700083D082C09FE493C0E0740193C0E0740216
:1001800093F59F22250CF58210AF08F50C400C1555
:100190000D8008F50C4002150DD2AF850D832200AD
:1001A000C0D0250C10AF08F50C500C050D8008F5DB
:1001B0000C5002050DD2AFD0D0226016080808C638
:1001C000C313C618C613C618C613C618C613C6D599
:1001D000E0EA22250C10AF08F50C400C150D800844
:1001E000F50C4002150DD2AF22700422600D18C626
:1001F000C333C608C633C6D5E0F41822E026F0089B
:10020000A3E036F008A3E036F008A3E036F022754C
:10021000D00075813F750C80750D01759F0002013E
:100220004074028000C0E0F404120184D0E01202A5
:100230006022C3E09608A3E09608A3E09608A3E036
:100240009622E0F608A3E0F608A3E0F608A3E0F69D
:1002500022600C08C6C313C618C613C6D5E0F42224
:10026000CAC0E0E6F0A308DAFAD0E0FA22250CF5DD
:1002700082E4350DF58322250CFCE4350DFD2200CA
:10028000000080FB12016F3F0B0012016F3A0A0061
:1002900012016FC00A0012016F260B0012016FD20B
:1002A000020012016FCB030012016F0C0700120154
:1002B0006F91070012016F6F080012016FAF080005
:1002C00012016F58090012016F78090012016F9F27
:1002D000090074F612008E74FC1201D375080475BF
:1002E0000900780812022174021202777A907B00CA
:1002F000790212028A740212019F850C82850D8395
:10030000E0F8A3E0F9900219E8F0A3E9F074021212
:10031000026DE0FAA3E0FB90021BEAF0A3EBF0858C
:100320000C82850D83E0F8A3E0F9E849700302032D
:10033000BF850C82850D83E0F47003A3E0F4607F39
:10034000850C82850D83E06A7003A3E06B605374B3
:10035000FF6A700374FF6B70491202AE74021202DE
:100360006DEAF0A3EBF0794E120284E960F87508AB
:1003700001780812022174021202777A247B041297
:100380000290740212019F75080478081202217409
:10039000021202777A907B00790212028A740212AA
:1003A000019F850C82850D83E0F8A3E0F9740212A9
:1003B000026DE0687003A3E069700479018002793E
:1003C00000740412019F7F020200FA74F412008E7E
:1003D00074FF1201D38024850C82850D83E0F89090
:1003E0000200E068F0850C82850D83E0F99002112F
:1003F000E4F0A3E9F09002107403F07C017D00AA00
:100400000CAB0D79001202C08B09EA45097003029A
:100410000700850C82850D83E0C0E090026BE0F858
:10042000742128F582E43402F583D0E0F090026B69
:10043000E004F0C3944A4002E4F0900210E0602A25
:1004400014603A1460911460511470030204E514AE
:10045000700302052D147003020575147003020564
:10046000C11470030205DF0206F6850C82850D8338
:10047000E06484708690021074010203FA850C8295
:10048000850D83E064F160030203FB900200E064E9
:10049000F1F090021074020203FA850C82850D833C
:1004A000E0F8900200E068F0900212E0FB850C8218
:1004B000850D83E0F8EBF9900211E8F0A3E9F090E4
:1004C0000213E028F0A3E039F0900211C3E094FC9D
:1004D000A3E094009002104004E40203FA7404F0D4
:1004E00090020E80F4850C82850D83E0F890020066
:1004F000E068F0850C82850D83E0C0E090020EE09C
:10050000F8740A28F582E43402F583D0E0F0900212
:100510000EE004F0C3940250030203FB9002107437
:1005200005F090020EE4F090020F0203FA850C82AF
:10053000850D83E0F8900200E068F0850C82850D5F
:1005400083E0C0E090020FE0F8740C28F582E434F8
:1005500002F583D0E0F090020FE004F0C394025063
:10056000030203FB9002107406F090020FE4F09077
:1005700002010203FA850C82850D83E0F8900200E7
:10058000E068F0850C82850D83E0C0E0900201E018
:10059000F8748028F582E43401F583D0E0F090020D
:1005A00001E004F0F8900211E024FCFAA3E034FF2B
:1005B000FBEA684B60030203FB900210740702031E
:1005C000FA900200E0F8850C82850D83E0689002C5
:1005D00010700474088001E4F09002000204D9E471
:1005E000F0850C82850D83E0640A60030203FB90B2
:1005F000026CE004F0C394104015D2F0A29130F0E8
:1006000001B3E433F8A29130F001B39291E4F09099
:100610000217E0F8A3E0F9E84970030206AE900281
:1006200071E02401F8A3E03400F9900217E068704B
:1006300003A3E069707890026D7808120242740298
:1006400078081201BAE5082400FEE5093404FF9099
:100650000211E024FCF508A3E034FFF509E4F50AF3
:10066000F50B90026D78081201FCEEF8EF5401F9D9
:10067000E84970108E088F0974097808120251A990
:1006800008120296900211E024FCF508A3E034FF62
:10069000F5097402780812025178081202217C8050
:1006A0007D01EEFAEFFB120290740212019F90029C
:1006B00017E0F8A3E0F9900271E8F0A3E9F09002E6
:1006C0000AE0F9A3E0900215F0A3E9F090020CE033
:1006D000F9A3E0F8900217F0A3E9F0900215E068A2
:1006E0007003A3E06960051202A88016C2AF75C945
:1006F000AB75C95B80FEC2AF75C9AB75C95B80FEC7
:100700007900740112019F7F040200FA74F712004D
:100710008E90021DE4F0A3F0A3F0A3F0900217E086
:100720002401F8A3E03400F9900273E8F0A3E9F0A3
:100730009002027414F0A374F1F0A3E4F0A3740225
:10074000F0900274E0900206F0900273E0900207CD
:10075000F0A3E4F07803790288828983E0FA9002BA
:1007600008E06AF088828983A3A882A983E86408E4
:100770007003E9640270E1900209740AF07C087D5C
:10078000007A027B0279001202C679007F01020022
:10079000FA74F412008E74FC1201D3750800750906
:1007A000007E007F04800D74246E700374046F70EB
:1007B00003020852750A04750B00780A12022174AC
:1007C00002120277EEF50AEF5401F50B7402780A73
:1007D0001201E9AA0AAB0B8E0A8F0B7409780A1270
:1007E0000251A90A12028A740212019FA80CA90DD3
:1007F000880A890BAC0AAD0B8C828D83E0F9AA08BC
:10080000AB097508088A0A8B0B740F780A1202511B
:10081000E50AF8EA25E0FAEB33FBE9A2E7500474B5
:10082000014AFAE8A2E0500874216AFA74106BFBDE
:10083000E9C333F91508E50870CB8A088B09A3AC26
:1008400082AD83740412026DE5826C7003E5836DE2
:1008500070A60EEE70010FC3EF94A050030207A71D
:10086000E4F91202B4E4F91202B47404020704C0F9
:1008700008C0097C088A088B09740F780812025195
:10088000E508F8EA25E0FAEB33FBE9A2E750047447
:10089000014AFAE8A2E0500874216AFA74106BFB6E
:1008A000E9C333F91CEC70CDD009D00802016C7497
:1008B000F412008E7E0075868075C48053F1FE436D
:1008C000F30C53FF3F85FFFF75C20C75C50875C457
:1008D000027586C01202A8801190021D750801756C
:1008E0000900750A0078081201FC90027EE070137E
:1008F000EE603FE586A2E04039C2AF75C9AB75C96D
:100900005B80FEE586A2E150295386FD90027DE0E2
:10091000F890027FE028FAA3E034008A82F583E0B1
:10092000F5C190027DE004F00890027EE06870025C
:10093000E4F0E586A2E250071202A2E9CE4EFE756F
:1009400008A0750986750A01750B0090021D7808CC
:1009500012023240840208D4C082C083E586A2E23B
:10096000500BE5C18A828B83F07A0180027A007B8A
:1009700000D083D08202016CC082C08390027FEAE3
:10098000F0A3EBF0EC90027EF090027D7401F05346
:1009900086FD8A828B83E0F5C1ECFAEDFB80D253B1
:1009A000F3EF43FD10C28453F4FD43FE02C29153A2
:1009B000F5FE43FF01C2A002016C53BEFBE59DA200
:1009C000E650FAE5C654804449F5C6E59E547F6476
:1009D0004970F853C67FE59EA2E740FA53C680E50A
:1009E0009E547F70FA43BE049062707408F0120245
:1009F000CC7402F5D575D47512029CE96401700DB2
:100A0000021000C2AF75C9AB75C95B80FE794E128A
:100A10000284E960F8900219E0F47003A3E0F46046
:100A20000F900219E0F8A3E0F9E84960031202BA56
:100A3000C2AF75C9AB75C95B80FE74F512008E89B3
:100A40000A740F550AF508750900740B780812012D
:100A5000E9EA2400F8EB3480F9E82400E93509F9E3
:100A600085C709A2AFE433F508C2AFE50AC4540F45
:100A7000FAE5C754F84AF5C7740B12026DE0FEA3FD
:100A8000E0FFEE4F602CEEFAEFFB88828983E08C6A
:100A9000828D83F088828983A3A882A9838C828D2A
:100AA00083A3AC82AD83EA24FF1AEB34FFFBEA4B4D
:100AB00070D88509C7E508A2E092AF7F030200FA6B
:100AC00074F612008EED900275F0ECA3F0A3746240
:100AD000F0A37473F0A3E0541FF0740A12026DE0E7
:100AE000F508A3E0F509E508333354FC90027AF0E9
:100AF00074067808120251E508900279F090027BA2
:100B00007412F0A37442F075D11E75D601EA90629A
:100B100071F0EBA3F0906270E0D2E1F0E0A2E74068
:100B2000FB7F020200FAC082C083E9C33390627285
:100B3000F0906270E0D2E0F0D083D08202016CE9E4
:100B4000F875B60FE5B4A2E750FAE8C395BB5004B8
:100B500079018002790002016CFFFFFFFFFFFFFFB8
:100B6000FFFFFFFFFFFFFFFFFFFFFFFFFFFFFFFF95
:100B7000FFFFFFFFFFFFFFFFFFFFFFFFFFFFFFFF85
:100B8000FFFFFFFFFFFFFFFFFFFFFFFFFFFFFFFF75
:100B9000FFFFFFFFFFFFFFFFFFFFFFFFFFFFFFFF65
:020000040003F7
:040000050000020FE6
:00000001FF
:020000040000FA
:101000000214140221D9FFFFFFFFFFFFFFFFFFFFC4
:10101000FFFFFF0229AAFFFFFFFFFFFFFFFFFFFF08
:10102000FFFFFFFFFFFFFFFFFFFFFF0228D4FFFFCF
:10103000FFFFFFFFFFFFFFFFFFFFFFFFFFFFFFFFC0
:10104000FFFFFFFFFFFFFFFFFFFFFFFFFFFFFFFFB0
:10105000FFFFFF02224FFFFFFFFFFF022980FFFF7C
:10106000FFFFFFFFFFFFFFFFFFFFFFFFFFFFFFFF90
:10107000FFFFFFFFFFFFFFFFFFFFFF022903FFFF4F
:10108000FFFFFF02202F01FFFFFFFFFFFFFFFFFF1A
:10109000C38BFFFFFFFFFFFFFFFFFFFFFFFFFFFF10
:1010A000FFFFFFFFFFFFFFFF98999A9B01FF0000E2
:1010B000B4000028002800283075A000A000A0007F
:1010C000A00000080008E001F0001000100010006F
:1010D00010001000100050005000500010001000D0
:1010E000D0070000000000000F000100050030756F
:1010F00007001000010081FF00000000FFFFFF0A51
:101100002D282D102D4C2DFF02020208025000A0A8
:10111000000000E80302D183010000AE8302CB830C
:101120000100001A1902C5830100000A0302CB83E3
:101130000100001B1902C383010000200302CB83BE
:101140000100001C1902C183010000220302CB83AD
:101150000100001D1902BF83080000230302CB8396
:101160000100001E1902CF830100001F19FF0100BA
:10117000FF2002D183010000B18302CB8301000074
:10118000831902D783000000000002C78303000018
:1011900051031700B833B833B833B833B833B83362
:1011A000B833B833B833B833B833B833B833763626
:1011B00088367036020202020202020202010D00AB
:1011C0000000100102D183010000AB8302CB830138
:1011D0000000C61902ED830100008B0702CB8301DA
:1011E0000000C71902EB83010000688202CB830173
:1011F0000000C81902E9830100004C8202CB830180
:101200000000C91902E783010000C88102CB8301F5
:101210000000CA1902E383010000EC8102CB8301C4
:101220000000CB1902E183010000DA8102CB8301C7
:101230000000CC1902DD83010000B68102CB8301DE
:101240000000CD1902DB830100005A8202CB83012A
:101250000000CE1902D983010000CF1901E803056F
:1012600077100AFFFF00013075030201060000003D
:10127000000000000000000000000000000000006E
:10128000000000000000000000FFFF0600800CE8E6
:10129000030E0930303030303030305942424C4546
:1012A000051250002003020A000201060302F0FFAB
:1012B00009FF0335000000000000303030303030CE
:1012C00030305942424C450000000000000000B49C
:1012D0003A0000CC3A1212125265616444617461A2
:1012E0000044656275674461746100546F6F6C44BB
:1012F0006174610008577269746544617461000229
:10130000D183010000B48302CB83010000E91A02FB
:10131000B983010000A91502C783030000D015029C
:10132000E583010000FD1A02CB83010000E81A02E8
:10133000B783010000891502C783030000CE1502A0
:10134000E583010000F31A02CB83010000E71A02D3
:10135000BD83010000691502C783030000CC15029C
:10136000E583010000EA1A02CB83010000061B029C
:10137000BB83030000D21502E583010000071B03B5
:10138000E5C754F84401F5C779012200000080FB4D
:10139000121380B900030213FEE479217808B80023
:1013A000028004F709D8FCE479297802B8000280A9
:1013B00004F709D8FCE4900280784079178002F0A5
:1013C000A3D8FCD9FA781A9010867A01BA00028064
:1013D00007E493A3F608DAF97ABF7B189010AD788A
:1013E000D479038015E493A3AD82AE838A828B8384
:1013F000F0A3AA82AB838D828E83D8E9D9E7758268
:10140000227583F2740312142675828B758313740C
:101410000012142675D00075813F75188075190269
:10142000759F00021390C09FF59FE473D09F22D058
:1014300083D082C09FE493C0E0740193C0E0740243
:1014400093F59F22E066701008A3E066700A08A377
:10145000E066700408A3E06622C3E7960809E796F1
:101460000809E7960809E79622C3E09608A3E096E4
:1014700008A3E09608A3E09622C008C3E096F5080A
:1014800008A3E096420808A3E096420808A3E09665
:1014900045087001D3D00822080808EAC0E0EBC074
:1014A000E086F0E7A4FA180986F0E7A42AFA1809FA
:1014B00086F0E7A42AFA180986F0E7A42AFA198622
:1014C000F0E7A4FBE5F02AFA190886F0E7A42BFB65
:1014D000E5F03AFA190886F0E7A42BFBE5F03AFAB2
:1014E00018180986F0E7A4C5F02BFBE43AFA1908AE
:1014F000E7C5F0C6A426F6E5F03BFBE43AFA188609
:10150000F0E7A4F6E5F00826F6E43B08F6E43A082E
:10151000F6D0E0FBD0E0FA22E4CFC0E0E4CEC0E0B9
:10152000E4CDC0E0E4CCC0E075F020E626F608E6A5
:1015300033F608E633F608E633F6181818EC33FCF1
:10154000ED33FDEE33FEEF33FFC3EC9709ED970962
:10155000EE9709EF97191919400FFFEC97FC09ED69
:1015600097FD09EE97FE191906D5F0BFECF709EDC6
:10157000F709EEF709EFF7191919D0E0FCD0E0FDF3
:10158000D0E0FED0E0FF226016080808C6C313C6EC
:1015900018C613C618C613C618C613C6D5E0EA2265
:1015A0007009080808226016181818C6C333C60840
:1015B000C633C608C633C608C633C6D5E0EA22E637
:1015C00027F60809E637F60809E637F60809E63788
:1015D000F622E026F608A3E036F608A3E036F60881
:1015E000A3E036F622E026F008A3E036F008A3E0F8
:1015F00036F008A3E036F022C3E697F60809E6972E
:10160000F60809E697F60809E697F622C3E096F091
:1016100008A3E096F008A3E096F008A3E096F02275
:10162000E056F608A3E056F608A3E056F608A3E055
:1016300056F622E056F008A3E056F008A3E056F074
:1016400008A3E056F022E046F008A3E046F008A325
:10165000E046F008A3E046F022E0F608A3E0F60832
:10166000A3E0F608A3E0F622E6F008A3E6F008A35C
:10167000E6F008A3E6F022E0FAA3E0FBA3E0FCA377
:10168000E0FD22EAF0A3EBF0A3ECF0A3EDF022E002
:10169000F8A3E0F9A3E0FAA3E0FB22E8F0A3E9F065
:1016A000A3EAF0A3EBF022CAC0E0E6F0A308DAFA5E
:1016B000D0E0FA22CAC0E0E0A3C582CCC582C583CF
:1016C000CDC583F0A3C582CCC582C583CDC583DAE1
:1016D000E6D0E0CA22C3E498F8E499F9121716801C
:1016E00026C3E49AFAE49BFBE920E7E9121716E423
:1016F00098F8E499F922C3E498F8E499F9121716D6
:10170000E498F8E499F9C3E49AFAE49BFB22EB200D
:10171000E7CFE920E7E0B90010BB0008E88AF084D1
:10172000F8AAF022E4FBC8FA22EB70227B10C8333F
:10173000C8C933C9335007C39AC3DBF280069A5035
:10174000012ADBEAC833F4C8C933F4C9FA2275F0B8
:1017500008E4C833C8C933C933C99AC99B5004C9FE
:101760002AC93BD5F0ECFBC833F4C8E4C9FA2260BF
:101770000D08C6A2E713C618C613C6D5E0F322604B
:101780000C08C6C313C618C613C6D5E0F4227004ED
:1017900022600D18C6C333C608C633C6D5E0F41898
:1017A00022251810AF08F518400C15198008F518F7
:1017B00040021519D2AF2200C0D0251810AF08F58D
:1017C00018500C05198008F51850020519D2AFD031
:1017D000D0222518F58210AF08F518400C15198095
:1017E00008F51840021519D2AF851983222518F57E
:1017F00082E43519F583222518F8E43519F92225F4
:1018000018FAE43519FB222518FCE43519FD22E409
:10181000732518C582C0E0E51934FFC583C0E0E533
:1018200018C3958224F810AF088583198582188023
:1018300008858319858218D2AFCEF0A3E520F0A3E6
:101840007808E608F0A3DEFAEFF0A3E58124FAF8C1
:10185000E608F0A3E608F0A3E608F0A30808E60807
:10186000F0A3E608F0A315811581D0E0FED0E0F8E2
:10187000158115811581E8C0E0EEC0E0222518C56C
:1018800082C0E0E51934FFC583C0E0E518C3958246
:1018900024F910AF0885831985821880088583197B
:1018A000858218D2AFCEF0A3E520F0A37808E60831
:1018B000F0A3DEFAEFF0A3E58124FBF8E608F0A33D
:1018C000E608F0A30808E608F0A3E608F0A31581EF
:1018D0001581D0E0FED0E0F815811581E8C0E0EE7A
:1018E000C0E022851983851882E0A3FEE0A3F520DD
:1018F0007808E0A3F608DFFAE0A3FFE0A3C0E0E089
:10190000A3C0E0E0A3C0E0E0A3C0E0E0A3C0E0101B
:10191000AF08858218858319800885821885831908
:10192000D2AFD083D08202142C851983851882E02F
:10193000A3FEE0A3F5207808E0A3F608DFFAE0A311
:10194000FFE0A3C0E0E0A3C0E0E0A3C0E0E0A3C0EC
:10195000E010AF0885821885831980088582188574
:101960008319D2AFD083D08222C0D02518C582C0BF
:10197000E0E51934FFC583C0E0E518C3958224F380
:1019800010AF0885831985821880088583198582A0
:1019900018D2AFC8F0A3E9F0A3EAF0A3EBF0A37963
:1019A00008E709F0A3D8FAECF0A3EDF0A3EEF0A35A
:1019B000EFF0A3D0E0F0A3D0E0F0A3D0E0F0A3E5F7
:1019C00020F0A3E5F0F0A322851983851882E0C0FA
:1019D000E0A3E0F9A3E0FAA3E0FBA37808E0F608AF
:1019E000A3DFFAE0FCA3E0FDA3E0FEA3E0FFA3E099
:1019F000C0E0A3E0C0E0A3E0F5D0A3E0F520A3E0C1
:101A0000A3F5F010AF0885831985821880088583B7
:101A100019858218D2AFD082D083D0E0F8D0E032DE
:101A200074048006740280027401C0E0F40412178A
:101A3000D2D0E01216A7227404800474028000CC75
:101A4000C0E0EDC0E0E518C39CCCAD1950011D10FD
:101A5000AF068C188D1980068C188D19D2AF12160E
:101A6000B4D0E0FDD0E0FC22D083D082E9C0E0E435
:101A700093A3C386F0C5F095F0F908E493A386F02C
:101A8000C5F095F0700BE493A3C3994005E9048079
:101A900002A3E475F002A42582F582E5F03583F512
:101AA00083D0E0F9E493A3C0E0E493C0E022D083C4
:101AB000D082ECC0E0EDC0E0E493A3FCE493A3FD8E
:101AC000ED4C600D121AFAEC24FFFCED34FFFD80A2
:101AD000EFE493A3FCE493A3FDED4C600D121B39DE
:101AE000EC24FFFCED34FFFD80EFD0E0FDD0E0FC06
:101AF000E493A3C0E0E493C0E022C0E0C3E4939683
:101B0000087401939618400FE493667008087401F6
:101B100093661870007019A3A3C3E4939608740128
:101B2000939618A3A3400DD0E0D0E0D0E0021AEACB
:101B3000A3A3A3A3A3A3D0E022C0E0C0F088F0E455
:101B4000936670080874019366187000A8F0A3A348
:101B5000700BD0F0D0E0D0E0D0E0021AEAA3A3D01E
:101B6000F0D0E02274F612187DEAFEEBFF8C088DAF
:101B700009EE2434F8E43FF9E8FCE9FDEE243512DF
:101B80001E77FAEE2437121E77F88508F0A4C88570
:101B9000F00A8509F0A4250AF9EA28F8E439F97A67
:101BA000257B00121716EA8C828D83F0FA1313132B
:101BB000541FF8EE28F8E43FF9E8245DF582E43993
:101BC000F583E0C0E074075AF8D0E0B80002800462
:101BD000C313D8FCA2E0EE50082434F582E43F8021
:101BE000182436121E77F5F0EA84A8F0EE28F8E4FF
:101BF0003FF9E82438F582E439F583E0F97F030200
:101C0000192974F712187DEAFEEBFFEE2434121E38
:101C100077C0E0EE2435F582E43FF583D0E0F08E26
:101C2000828F83A3A3A3A3A3A3A3C082C0838E8216
:101C30008F83A3A3A3A3A3E0F8A3E0F9D083D0826A
:101C4000E0C398F508A3E099F509EE247F121E770A
:101C50006401703EEE2480F582E43FF583C082C0CB
:101C6000838E828F83A3A3A3A3A3E0240108A3E010
:101C70003400F9D083D082E0687003A3E069701269
:101C80007CFC7D041232F2EE247FF582E43FF58382
:101C9000E4F0AC08AD09EEFAEFFB121B64E9F912AF
:101CA00028C67F02021929C082C08385188285193F
:101CB00083E0F8A3E0F9C3EA9CEB9D5010C3EC98D5
:101CC000ED99401BC3EA98EB995014800EC3EA9833
:101CD000EB994007C3EC98ED9940047901800279B3
:101CE00000D083D08222EAC39CFAEB9DFB2274EFE2
:101CF00012187D9003C1E064086005E06407702A53
:101D00009061C8E060249003EFE0F4601DE0F87596
:101D1000F00BA4C8AAF02AF974F128FE740339FF65
:101D20008E828F83A3A3A3E07003021DFC906060EA
:101D3000E0C0E0EE2468F582E43FF583D0E0F07582
:101D40000C6C750D05750800750900E5D914F50AC8
:101D5000E5D95403F50E60127403650E6043E50A7D
:101D6000600AEE2467121E7770028075900567E0A6
:101D70006401601F121E7460047A0480027A00E518
:101D80000AC39AFA95E0FB12319C8A088B09EA454E
:101D900009700512353E8064121E7470048A0C8B23
:101DA0000DE50A6012850C82850D83F50BE5D9F0EF
:101DB000A3150BE50B70F6121E74604474FC250A23
:101DC000F50A780C121A24AC0AA90EEEFAEFFB12EF
:101DD00033B274021217B7E97026AA08AB09123998
:101DE0005E793D8E828F83A3A3A3A3E0FA7B0012CA
:101DF0002FFEEEFAEFFB1233161233C47900806F18
:101E00007403650E6051850A107511007810121A5E
:101E100024AC0CAD0DAA08AB09123376740212176C
:101E2000B7EE2468121E7764807004747F8001E02E
:101E3000F50C780C121A28E50EF50C780C121A28FD
:101E4000A90AAC08AD099003EFE0FA7B00122FD489
:101E500074021217B780139003C1E06408600BACE2
:101E60000CAD0DEEFAEFFB12343C12354A79017FCE
:101E70000A021929EE2483F582E43FF583E02274F7
:101E8000F212187D74FC1217A1EAFEEBFF8909A279
:101E9000AFE433F508C2AF021F49E0601B780C12B3
:101EA0001A24AC0BA90EEEFAEFFB1233AC7402123B
:101EB00017B77404250BF50B7401250BF5D9850EA6
:101EC000D9E50B6018F50A850C82850D83E0F5D9FC
:101ED000A385820C85830D150AE50A70EA75E195E4
:101EE000EE2463F8E43FF97A007B00A2AFE433F517
:101EF0000BC2AF88828983E0FCA3E0FDEC4D603A21
:101F000088828983E0FAA3E0FB8A828B83E0FCA3CA
:101F1000E0FD88828983ECF0A3EDF08A828B83E474
:101F2000F0A3F088828983E0FCA3E0FDEC4D700A09
:101F300088828983A3A3E4F0A3F0E50BA2E092AF2B
:101F400012395E900503E004F0EE2463121E77F868
:101F5000A3E0F9E8496064EE2463121E772402F8D6
:101F6000A3E03400F988828983E5822402F50CE439
:101F70003583F50DE0F50BA3E0F50EEE2462121E9D
:101F800077640170369061D0E0F8121E7460047CB2
:101F90000480027C007480C398FA95E0FBE50B2C6A
:101FA000F8E43400F9E82402F8500109C3EA98EB98
:101FB00099A2D265D0334003021E9A900503E060D7
:101FC0004D900504E0F8900503E0C398500C7402AE
:101FD0006509703A900505E060348E828F83A3A373
:101FE000A3A3E085188285198312201E740212179C
:101FF000EDE812201E900502E028F0740212180786
:10200000AA18AB197901123028900503E4F0E5080D
:10201000A2E092AF74041217B77F07021929F0A348
:10202000E4F0900503E0F8228521878522C622C0CE
:10203000E074EB121969A2AFE433F508C2AF759BE7
:1020400000906182E0A2E05030E591A2E0502A7554
:1020500091FE7401652170211221C212348A12216D
:10206000B0121A3712267074041217B7E96401709F
:102070000579011234D2121CEE906182E0A2E55083
:102080005DE591A2E550577591DF9003C1E06407CB
:102090006005E06408702F1221C274016521703E52
:1020A00012348A1221B0121A3712267074041217D1
:1020B000B7E96401700579011234D27901EEFAEFC3
:1020C000FB121E7F8018E0640D70139003E3E004A0
:1020D000F064287002E4F07A00E0F9123550906163
:1020E00082E0A2E64003022185E591A2E6400302D8
:1020F00021857591BF9003C1E064057008123472A8
:1021000012347E80031234787521001234DEE99097
:1021100003C2F079001234D21232627A017B00904D
:1021200003C0E0F912392E907803E06442705690B3
:10213000056BE014F0704EC2AF12213C00782AD03B
:10214000E0F618D0E0F6E59F5407F87005750DFF2E
:102150008003750D7FC4C0E07829E6F50A08E655CE
:102160000DF50B740B780A12177FD0E0250AF89052
:102170006270E0A2E740F8E8C333906272F09062C8
:1021800070E0D2E0F0906181E0A2E35009E5E9A2BD
:10219000E3500375E9F7A3E0A2E75009E591A2E750
:1021A000500375917FE508A2E092AF7F080219C83D
:1021B0008E828F83E0F8A3E0C82416F582E438F518
:1021C00083229003EFE0F875F00BA4C8AAF02AF977
:1021D00074F128FE740339FF22C0E0C0D0C082C071
:1021E00083906183E0A2E05009E5BFA2E05003754F
:1021F000BFFEE0A2E15009E5BFA2E1500375BFFDBB
:10220000E0A2E25009E5BFA2E2500375BFFBE0A2E5
:10221000E35009E5BFA2E3500375BFF7E0A2E45025
:1022200009E5BFA2E4500375BFEFE0A2E55009E560
:10223000BFA2E5500375BFDFE0A2E65009E5BFA2EB
:10224000E6500375BFBFD083D082D0D0D0E032C07B
:10225000E074F2121969E5A7A2E6500FE5A1A2E623
:10226000500953A7BF75A1BF1222A3E5A7A2E5504D
:102270000CE5A1A2E5500653A7DF75A1DFE5A7A2F3
:10228000E15009E5A1A2E1500375A1FDE5A7A2E295
:10229000500CE5A1A2E2500653A7FB75A1FB7F01FC
:1022A0000219C874F712187D7521019003C1E0640A
:1022B0000670151233E88A828B83A3A3A3A3A3A37A
:1022C000E0FAA3E0FB123460A2AFE433FED2AF9099
:1022D00003C7E0640170187A207B009003C0E0F926
:1022E000123A4E7A207B009003C0E0F91239349004
:1022F0006182E0D2E6F0900568E0602185C6228028
:10230000169003C6E064017008E5C654F84405F56C
:10231000C653BEFC1220287401652160E4EEA2E0E1
:1023200092AF7F02021929FF8E238F248582288590
:102330008327851882851983E0CEA3E0CF85288284
:10234000852783EBC9EAC8EDCBECCA75F010C3E86A
:1023500033C8E933C9EA33CAEB33CBC3EA9EF52667
:10236000EB9FF525B35004AB25AA26EC33CCED3317
:10237000CDD5F0DAAE23AF242274E912187D74FAB9
:102380001217A1EAFEEBFF8C0A8D0B123496EAF8C5
:10239000EBF9ECFAEDFB8E828F8312169B9003C152
:1023A000E024F7C3940550067514010224E01233AB
:1023B000E88A088B09EA450970030224DDEEFCEF88
:1023C000FDAA18AB19123490850882850983A3A34E
:1023D000780C12165990831F780C121620851882DB
:1023E000851983781012165990831F7810121620C1
:1023F000780C7910121459501F780C79101215F8B6
:1024000090832F780C1214794047850C14850D1594
:10241000850E16850F17804590832F851014851122
:10242000158512168513177814790C1215F878147F
:10243000121479501C751400751500751600751767
:1024400001781479101215F87814790C1215BF80E0
:102450000C75140175150075160075170074097850
:10246000141215A090836B780C1216597814790CFD
:10247000121518850882850983A3A3A3A3A3A31219
:1024800024FE121716880C890DE4F50EF50F78144A
:10249000790C1215BF74041217ED1224FE121716D0
:1024A000E8FA8A0CE4F50D7814790C1214595007E7
:1024B0007814790C1215F89003C1E06408600AE002
:1024C00064066005E06405702090833B7814121464
:1024D00079501690833778141215D2800C75140039
:1024E000751500751600751700850A82850B8378AF
:1024F0001412166874061217B77F10021929E0F833
:10250000A3E0F97AD07B032274F712187D1234A865
:10251000900566E064017010906245E4F0A3F0530A
:10252000F4F343FE0C5390F312344EE5C654B84412
:1025300041F5C6E59E5447644170F8906185740F7B
:10254000F0900564E0F47002A3E0604E900565E051
:10255000600814601B14602E804075080175090026
:10256000900564E0780812178EE508F45280802AFE
:10257000750801750900900564E0780812178EE56A
:1025800008F452908014750801750900900564E004
:10259000780812178EE508F452A079007F0202191C
:1025A0002974F712187DE9FEEAFF1234A874016E4F
:1025B000700C7A807B009003C0E0F912392E903CB9
:1025C000BCE493F46008E493F9123256800953C6D0
:1025D000B8E59E544770FA123454900566E06401E1
:1025E0007003123274900564E0F47002A3E0604B53
:1025F000900565E0600814601A14602C803D750831
:1026000001750900900564E0780812178EE508420C
:10261000808028750801750900900564E07808122B
:10262000178EE50842908013750801750900900522
:1026300064E0780812178EE50842A01233E88A0891
:102640008B09A808A909E8496014E5E170FCE824B1
:1026500014F582E439F583E0F46003E0F5E17401F8
:102660006F700A7A019003C0E0F91239BE02259C0E
:1026700074F112187D8A088B098C0A8D0B90831FC8
:102680007808121620740F1217ED780C1216599054
:10269000831F780C1216207808790C121459908335
:1026A0002F50107808790C1215F878081214794018
:1026B00014800E780C79081215F8780C12147950E1
:1026C000047901800279007F0802192974ED12183B
:1026D0007D8A088B098C0A8D0B90831F780812164F
:1026E0002074131217ED780C12165990831F780C72
:1026F000121620780C790812145940117808790CB8
:102700001215F8AA08AB09AC0AAD0B8022751000AF
:102710007511007512007513017810790C1215F8F7
:10272000781079081215BFAA10AB11AC12AD137F47
:102730000C02192990831F78081216598A828B83FC
:1027400078081216337F0402192974F512187D8C4B
:10275000828D8378081216598A828B837808121624
:102760000C1227A2C3E09CF0A3E09D122794402204
:1027700090834B78081216598A828B837808121539
:10278000E58A828B83A3A3A3A3E02420F0A3E034F3
:102790004EF080A0F088828983C3E09420A3E09467
:1027A0004E22EA2404F8E43BF98C828D83A3A3A390
:1027B000A3E0FCA3E0FD888289832274F512187DD2
:1027C000E9FE90051EE0FAA3E0FBEE29F8E433F9F8
:1027D000741E28F582748239F583E02AF508A3E097
:1027E0003BF5097808121A2490833F1216771223BA
:1027F0002874021217B78A088B098C0A8D0B741083
:102800007808121587AA08AB097F0402192974F108
:1028100012187D8A0C8B0D8C0E8D0F74111217ED12
:10282000121A3B74111217EDE02401F508A3E034ED
:1028300000F509E4F50AF50B780C79081214989064
:10284000831B7808121659780C7908121498AA0C70
:10285000AB0DAC0EAD0F12232874021217B78B0903
:10286000EA450960047A0180027A00EC2AFCE43D22
:10287000FD74131217EDE0F8A3E0F9E8FEE9FFECB0
:10288000F8EDF97A717B0212171688088909E4F5C8
:102890000AF50B8E828F837808121668ECF8EDF932
:1028A0007A717B021217168A088B09740578081250
:1028B000178E8E828F83A3A3A3A3E508F0A3E50957
:1028C000F07F08021929C082C083E9906000F0D02F
:1028D00083D08222C0E0C0D0E8C0E0E9C0E0A9A86F
:1028E000D2AFC2C7751A00E9A2E7E433F8E9A2E75C
:1028F00092AFD0E0F9D0E0F8D0D0D0E032C2AF0251
:10290000000022C0E074F2121969A2AFE433FED2D3
:10291000AFE58AA2E55023901608E0701D9083630E
:10292000121A377A087B009015F7E0F9123A4274D0
:10293000041217B79016087401F09018BBE06401F8
:10294000702F9018BAE07029E58AA2E650239016FD
:1029500009E0701D908363121A377A007B08901586
:10296000F7E0F9123A4274041217B790160974018D
:10297000F0758A00C2EBEEA2E092AF7F010219C8A7
:10298000C0E074F212196975C000901610E0F87476
:102990000128F0E8C394F6400FE4F0123B62E964CA
:1029A000017005901611E4F080D1C0E0C0D0E8C0FD
:1029B000E0E9C0E0C082C0839018BCE4F0E5C1C08B
:1029C000E09017BBE0F874BC28F582E43417F58377
:1029D000D0E0F09017BBE004F0E064FA7003538697
:1029E000BF9017BA7402F0C28BD083D082D0E0F9C6
:1029F000D0E0F8D0D0D0E03212142F8D8E02121415
:102A00002FA98E0212142FE18E0212142F148F029E
:102A100012142F758F0212142FE28F0212142F1B23
:102A2000900212142F8C900212142FBE90021214D6
:102A30002F6B920212142F7B920212142F8C92028F
:102A400012142F1F930212142FE6930212142F3C1C
:102A5000940212142FA0940212142F5495021214EF
:102A60002F71950212142F249A0212142F879A02A2
:102A700012142FB79A0212142FF09A0212142F0A6E
:102A80009B0212142F249B0212142F9E9B021214DD
:102A90002F2ACA0312142F6CCA0312142FDACA0386
:102AA00012142F42CB0312142FC2CB0312142F0A7D
:102AB000CC0312142F2ECC0312142FC3CD031214E7
:102AC0002F58DF0312142FAADF0312142FD4DF03B1
:102AD00012142F78E00312142F98E00312142FD74A
:102AE000E00312142F3BE10312142FF4CD03121450
:102AF0002F07CE0312142F38CE0312142F72CE03D9
:102B000012142FCBCE0312142F12CF0312142F5AEC
:102B1000CF0312142F89CF0312142FB8CF0312142E
:102B20002FEFCF0312142F36D00312142F4FD003E0
:102B300012142FA4D00312142FBDD00312142F0B84
:102B4000D10312142F45D10312142F2FDE021214B9
:102B50002F32DF0212142F6BDF0212142F8EDF02CE
:102B600012142FA0DF0212142FDEDF0212142F5ACC
:102B7000E00212142F22E10212142F44E102121477
:102B80002FDBE10212142F2DE20212142F5EE2025B
:102B900012142F6BE20212142FD5E20212142F2C02
:102BA000E30212142F2FE30212142F68E30212140F
:102BB0002F6BE30212142F75E30212142FC9E302E4
:102BC00012142F0AE40212142F3DE40212142F7A79
:102BD000E40212142F7CE50212142F20E6021214D4
:102BE0002F89E60212142FC7E60212142F49C203DE
:102BF00012142F71C20312142F9EC20312142FD667
:102C0000C20312142F34C30312142F80C3031214EF
:102C10002FE7C30312142F27C40312142F64C40315
:102C200012142F92C40312142F3CC50312142F4602
:102C3000C50312142F53C50312142F86C503121493
:102C40002F92C50312142FAAC50312142FB4C50363
:102C500012142F2FEE0312142F3DEE0312142F55D2
:102C6000EE0312142F6CEE0312142F84CE011214F3
:102C70002F2ECF0112142F41D00112142FBDD001DD
:102C800012142FDBD10112142F17D20112142FB2FC
:102C9000D20112142F96D30112142F62D4011214F0
:102CA0002FF0D50112142F61D60112142F1BD7015A
:102CB00012142F0DD80112142F4DD80112142F0108
:102CC000D90112142F33D90112142F29DB01121448
:102CD0002F6BDB0112142F89DB0112142FEFDB01A4
:102CE00012142FBEDC0112142F82DD0112142FA149
:102CF000DF0112142F00F70212142FEAF702121448
:102D00002F95F80212142FE6F80212142F96F902EA
:102D100012142F07FA0212142FECFA0212142F20A9
:102D2000FB0212142F19FC0212142F56FC0212146B
:102D30002F32FD0212142F71FD0212142F8DFD028D
:102D400012142F60DD0312142FE4DD0312142F0F71
:102D5000DE0312142F29DF0312142F42C6031214AC
:102D60002F58C60312142F76C60312142F87C703D9
:102D700012142F91C70312142FBCC80312142FB3BF
:102D8000C90312142F20CA0312142FF7850312143B
:102D90002F2D870312142F64870312142FBB870370
:102DA00012142FD0890312142F07980112142F9395
:102DB000980112142FF7990112142F039A0112147B
:102DC0002F3E9A0112142FAD9A0112142FB69B01B7
:102DD00012142FBF9C0112142F869D0112142FE391
:102DE0009E0112142F019F0112142F1E9F01121415
:102DF0002FCB9F0112142F48A00112142F70A00195
:102E000012142F3AA30112142F3FA30112142F58AA
:102E1000A50112142FA6A50112142F16A601121433
:102E20002F54A60112142F30A70112142FF0A7015E
:102E300012142F3CA80112142F3FA80112142F8343
:102E4000A80112142FCBA80112142F0AA9011214E1
:102E50002F2CA90112142F60A90112142FC3A9014C
:102E600012142F2A910312142F38910312142F8B4E
:102E7000910312142FAA910312142FEF910312142D
:102E80002F33930312142FCE930312142F12940393
:102E900012142F3C940312142FAB940312142FF12D
:102EA000940312142F68950312142F199603121409
:102EB0002FC03C0012142FD03C0012142F713D0083
:102EC00012142FCD3D0012142F8A3E0012142FA68B
:102ED0003F0012142FD83F0012142F074000121485
:102EE0002FB4410012142F2B440012142F9B4600C4
:102EF00012142F8D470012142F86480012142F8DA4
:102F00004A0012142F814D0012142FB04E001214DB
:102F10002FB4500012142FC4510012142F53530019
:102F200012142F44540012142F92540012142F0123
:102F3000550012142F25550012142F765500121427
:102F40002F175A0012142F185B0012142F795B00F0
:102F500012142FA45B0012142F6A5C0012142F436A
:102F6000BE0312142F4DBE0312142F92BE0312146F
:102F70002FA6BE0312142F36BF0312142F6FBF03E8
:102F800012142FAABF0312142FD3BF0312142F271A
:102F9000C00312142F3CC00312142F5EC00312147E
:102FA0002F73C00312142F87C00312142F9CC00369
:102FB00012142FD6C00312142F02C10312142F892A
:102FC000C10312142FCCC10312142FF6C103121423
:102FD0002F21C20312142F10EB0312142F62C00210
:102FE00012142F45C10212142FC0C10212142FFB5C
:102FF000C10212142F4CC30212142FDAC30212148E
:103000002F6CC60212142F1EC70212142F2AC802D8
:1030100012142F9DC90212142FF6C90212142F6820
:10302000B10312142FABB10312142F2FB2031214D9
:103030002F06B50312142FEEDA0312142FA0DB03B0
:1030400012142F9CDC0312142FDBDC0312142F3517
:10305000DD0312142F16E30312142F79E303121465
:103060002F16E40312142F4BE40312142F7BE403F6
:1030700012142FB6E40312142FD6E40312142F2BCC
:10308000960312142FB7960312142F769703121477
:103090002F8E980312142FA89A0312142FCEA90270
:1030A00012142FF3A90212142FC0AA0212142F9483
:1030B000AB0212142F01AC0212142F41AC021214F5
:1030C0002FDDAC0212142F11AE0212142FECAE023F
:1030D00012142F4BAF0212142FD7AF0212142F4528
:1030E000B00212142FD1B00212142F17B102121411
:1030F0002F89B10212142F1BB20212142FBCB2027C
:1031000012142FDCB20212142F24B30212142F6DEA
:10311000B30212142F89B30212142FAFB302121488
:103120002F29B40212142F37B40212142FC6B4027E
:1031300012142F2FB50212142FDF9A0312142F64CA
:103140009B0312142FA69B0312142F8A9C031214A4
:103150002FF79C0312142F3B9D0312142F7F9D0306
:1031600012142FAC9D0312142FD49D0312142F0C94
:103170009E0312142F4A9E0312142F719E031214E1
:103180002FEB9E0312142F359F0312142FAEDF0175
:1031900012142F4DE10112142F85E30112142FD9BF
:1031A000E30112142F04E40112142FE0E4011214BD
:1031B0002F10E50112142F3FE50112142F52E501E3
:1031C00012142F93E50112142FC0E50112142F0ED3
:1031D000E60112142F4AE60112142F8FE601121491
:1031E0002FDCE60112142F56E70112142F97E90184
:1031F00012142F81EB0112142FBDEB0112142F4C6E
:10320000ED0112142F91ED0112142F04EE0112148E
:103210002F59EE0112142F5EEE0112142FEAEE0167
:1032200012142F09F00112142F1AF00112142F900A
:10323000D40212142F09D50212142FC3DA02121469
:103240002FCEDB0212142F77DD0212142F05DE02BF
:1032500012142FF4830112142F75840112142FA25B
:10326000840112142FEB840112142FEC8501121427
:103270002F45860112142FC1870112142F43880194
:1032800012142F5E880112142FCF880112142F8C74
:10329000890112142F4F8A0112142FDD8A01121492
:1032A0002F948B0112142FA78B0112142F408C0125
:1032B00012142FD78C0112142FFE8C0112142F67B9
:1032C0008D0112142FB18D0112142FFF8D011214D4
:1032D0002FA48E0112142F428F0112142FCF8F01B1
:1032E00012142F40900112142F87900112142FDF17
:1032F000900112142F11910112142FCB910112146D
:103300002FD2920112142F1B930112142F38930104
:1033100012142F57930112142F8A940112142F4163
:10332000950112142F66950112142F7B950112142A
:103330002FEB950112142F2C960112142F50970188
:1033400012142FD1970112142F9FCA0212142FEAC0
:10335000CA0212142FF6CA0212142FCACB02121478
:103360002FE1CB0212142F1ECC0212142F4FCC02CD
:1033700012142F80CC0212142FB8CC0212142F0E6C
:10338000CD0212142F24CD0212142F60CD0212147C
:103390002F73CD0212142F9ACD0212142FCECD020C
:1033A00012142FF4CE0212142F3ED00212142F3A10
:1033B000D10212142F57D20212142FEF7F001214D1
:1033C0002F3DF00112142F78F00112142FCAF301CF
:1033D00012142F26F50112142FE5F50112142F4CAB
:1033E000F90112142F36FA0112142F82FA01121465
:1033F0002F9CFA0112142FD9FA0112142FE4FA01AA
:1034000012142F23FB0112142F2CFB0112142FD6A0
:10341000FB0112142FADFC0112142F01FD01121437
:103420002F5EFD0112142FD0FD0112142F9BAA0153
:1034300012142FFAAD0112142F00AE0112142F3105
:10344000B50112142F38B90112142FADD103121483
:103450002F43D20312142F59D20312142FB2D203C6
:1034600012142FF6D20312142F30D30312142FC8C4
:10347000D30312142F37D40312142F40D403121481
:103480002F4CD40312142F66D40312142F90D4039C
:1034900012142FA5D40312142F07D50312142F2EA4
:1034A000D50312142F01BA0312142F0EBA031214EB
:1034B0002F28BA0312142F5BBA0312142F99BA03E0
:1034C00012142FFEBA0312142F13BB0312142F1E53
:1034D000BB0312142F2BBB0312142F42BB03121475
:1034E0002F50BB0312142F5BBB0312142F67BB03B7
:1034F00012142F76BB0312142F81BB0312142FA4B6
:10350000BB0312142F48BC0312142F58BC0312140F
:103510002F72BC0312142F8FBC0312142FAABC03EA
:1035200012142FCFBC0312142FDABC0312142FEF86
:10353000BC0312142F03BD0312142F64BD03121415
:103540002F6ABD0312142F70BD0312142F76BD0312
:1035500012142F8EBD0312142FC1BD0312142F4B52
:103560009C0212142FE29C0212142F7A9D02121454
:103570002F6A9E0212142FA19E0212142FB49E02D3
:1035800012142F229F0212142FBDA00212142FE436
:10359000A00212142F86A10212142FBBA102121432
:1035A0002FCCA10212142F45A20212142F66A202E0
:1035B00012142F7EA20212142FD6A30212142FDF90
:1035C000A50212142F2FA80212142F32A9021214CE
:1035D0002F81A90212142F00800212142FFD8002E5
:1035E00012142FE8810212142FF2810212142F14E8
:1035F000820212142F20820212142F7283021214DC
:103600002FA1830212142FD1840212142F138502CA
:1036100012142F3F860212142F15870212142F67DF
:10362000870212142FC6870212142FFD870212146C
:103630002F38880212142FD38B0212142FEC8B0216
:1036400012142F6E8C0212142F7C8C0212142FD1A4
:103650008C0212142FDF8C0212142F4C8D021214C4
:103660002FBE8D0212142F048E0212142F52B50297
:1036700012142F74B50212142F5EB70212142F0306
:10368000BB0212142F46BC0212142F20BD021214CA
:103690002FE4E40312142F09E50312142F7AE50333
:1036A00012142FEDE60212142FF6E60212142FFF69
:1036B000E60212142F30E80212142F4FEA021214FD
:1036C0002F85EA0212142FBFEA0212142FF5EA0224
:1036D00012142F2FEB0212142F63EB0212142F8FF0
:1036E000EB0212142FD8EB0212142F12EC02121458
:1036F0002F5AEC0212142FB0EC0212142FE5EC0238
:1037000012142F40ED0212142F7AED0212142FCB57
:10371000ED0212142F01EE0212142F3BEE021214CE
:103720002F69EE0212142F8CEE0212142F71F00387
:1037300012142F9DF00312142FF8F00312142F020D
:10374000F10312142F12F10312142F5CD50312147B
:103750002F83D50312142FADD50312142F80F2033B
:1037600012142FD65C0012142F3E5F0012142FF19A
:10377000600012142F4E610012142F4B62001214BD
:103780002FDB620012142F60630012142F85630078
:1037900012142F7D660012142FF3660012142FE40A
:1037A000670012142F1E680012142F5E6800121496
:1037B0002F046A0012142F596A0012142FA66A00EF
:1037C00012142F146B0012142F3B6B0012142F5580
:1037D0006B0012142F6B6C0012142F7B6C001214F0
:1037E0002F076E0012142F296E0012142F5F6E0027
:1037F00012142F0D700012142F4C700012142F7E13
:10380000710012142F08A40312142F60A4031214C1
:103810002FA8A50312142F17A60312142FC6A60350
:1038200012142FE5A60312142F39A70312142F77B1
:10383000A70312142FFCEE0312142F0DEF03121422
:103840002FB0EF0312142FCAF20312142F09F3033F
:1038500012142FA3F30312142FAFF30312142FB477
:10386000F30312142FDE7F0012142FBBEF03121488
:103870002FCBEF0312142FDAEF0312142F6BF00388
:1038800012142F2CED0312142FB0ED0312142F1667
:10389000EE0312142FCDE90312142F01EA031214C0
:1038A0002F2AEA0312142FA1EA0312142FF87F0023
:1038B00012142F48E10312142FB2E20312142F1333
:1038C000E30312142F1FFF0112142FBFFF01121464
:1038D0002FD1FF0112142F978B0312142FA18B03EA
:1038E00012142FE18B0312142F2A8C0312142F644D
:1038F0008C0312142FBA8C0312142FD98C031214B8
:103900002FE28C0312142F338D0312142F5C8D03BE
:1039100012142F718D0312142FE18D0312142F6FC7
:103920008E0312142FB38E0312142FDB8E03121486
:103930002F5A8F0312142F9D8F0312142FDA8F0327
:1039400012142FEC8F0312142F0B900312142F3428
:10395000900312142FFE900312142F9AE6031214F0
:103960002FEBE60312142F74E70312142FDAE70388
:1039700012142F2AD80312142F54D80312142F4EC6
:10398000D90312142F7DD90312142F03DA03121452
:103990002F24EC0312142F1BED0312142FEEFD0243
:1039A00012142F24FE0212142F5DFE0212142FB6E1
:1039B000FF0212142F1CF10312142F32F103121400
:1039C0002F3CF10312142F92F10312142FC3F103B1
:1039D00012142F1AEF0212142FD7EF0212142F1203
:1039E000F00212142F3AF00212142F9CF00212145B
:1039F0002FE8F00212142F48F10212142FD9F1020D
:103A000012142FD5F20212142F62F40212142FE5B1
:103A1000F40212142F49F50212142F60F502121449
:103A20002F56F60212142FA2F60212142F92A80398
:103A300012142FA7A80312142F57A90312142F979B
:103A4000A90312142FB0A90312142FE3A90312140F
:103A50002F30AA0312142F64AA0312142FA6AA034C
:103A600012142FADAC0312142FA3710012142F5A8D
:103A7000750012142FEC760012142F4377001214E5
:103A80002F62770012142FE0770012142F72790042
:103A900012142F567A0012142F677E0012142F3B37
:103AA0007F0012142F00800312142F518003121470
:103AB0002F00820312142FCB830312142F8384034D
:103AC00012142FA3840312142F14850312142FC46D
:103AD000850312142F759F0312142F21A0031214B3
:103AE0002F3EA00312142F81A10312142F20A20332
:103AF00012142F08A30312142FB8B50312142FC7E2
:103B0000B50312142FF2B50312142F6EB60312145C
:103B10002FA0B60312142FCDB60312142FCFB60365
:103B200012142FD1B60312142FD3B60312142F1967
:103B3000B70312142F2CB70312142F8BB7031214D0
:103B40002FF7B70312142F1CB80312142F6FB803EA
:103B500012142FBFB80312142F16B90312142F31E9
:103B6000B90312142FC0B90312142FCDB9031214C4
:103B70002FEDB90312142FBDBC0112142F30BD015B
:103B800012142F9ABD0112142FCFBD0112142FDE73
:103B9000BD0112142F95BE0112142FC6BE011214BE
:103BA0002FDABE0112142F63BF0112142FA2BF011E
:103BB00012142FECBF0112142F02C00112142F3364
:103BC000C00112142F46C00112142F59C001121443
:103BD0002FD8C00112142FDFC00112142FE4C1012D
:103BE00012142F2AC20112142F3CC20112142F7377
:103BF000C20112142F8EC20112142FAFC20112146F
:103C00002FC3C30112142FE5C30112142F44C401A2
:103C100012142F57C40112142F71C40112142F94BF
:103C2000C40112142F0CC50112142FC5C6011214A1
:103C30002F13C70112142F91C70112142F8FC8011F
:103C400012142FE5C80112142FBFCA0112142FF34A
:103C5000CA0112142F17CB0112142F40CB011214DA
:103C60002FCDCB0112142FDECB0112142FA0CC01CB
:103C700012142F73CE0112142F38E80312142F8858
:103C8000E80312142FEAE80312142FF9E8031214C0
:103C90002F13E90312142F5CE90312142F13F303FB
:103CA00012142F59F30312142F13AD0312142F0BF8
:103CB000B10312142F85F303FFFFFFFFFFFFFFFF88
:103CC000C082C083E9901982F0D083D08202142C84
:103CD00074F6121811E9900333F0900393E0F5089D
:103CE0007509007402780812178EAA08AB091239F8
:103CF000A6900334124683900334124A70606F908A
:103D00000393E075F003A4FAABF01239A6900351C7
:103D1000124683900351124A70700B900334124A7A
:103D2000411239AC80489003511259D57AFF7BFF7C
:103D30001238027A0080198A08750900740278081E
:103D400012178E12547D74FF123E83E4F0A3F00A22
:103D5000900393E0F8EAC39840DD7905122EC690EF
:103D60000333E0F9122DB27A507B2F12313C025509
:103D70002074F41218118A088B09EB548060479064
:103D80000333E0F91239168A0A8B0BAE0AAF0BEE39
:103D90004F602A8E828F83E064B0701A122ED8E9A9
:103DA00060148E828F83A3A3A3A3E0F9EE2405FA07
:103DB000E43FFB122EA8EEFAEFFB123904AA08E545
:103DC000096480FB80047A007B00023FD374F21206
:103DD000181174FB1217A1EAFEEBFFEE4F60457459
:103DE000031217EDEEF0A3EFF0851882851983EC2E
:103DF000F0A3EDF074021217EDE9F0AA18AB191256
:103E00002DACE9F508707574131217EDE0F50AA3EF
:103E1000E0F50BE50A450B60638E828F8312440C3C
:103E2000EE4F700575080280537A067B001239A6A2
:103E30008A0C8B0DA80CA90DE84970057508138034
:103E40003B88828983E4123E83EEF0A3EF123F9F0A
:103E5000E50AF0A3E50BF0900337123F9890033783
:103E60006017E0FCA3E08003EAFCEBFD8C828D830D
:103E7000123F9870F38C828D83125098A9087405B4
:103E8000025C55F0A31259B7A32274F212181189DB
:103E900008890C750D007403780C12178E850C0AB6
:103EA000850D0B900336F0900334124EA3123F960B
:103EB000602E1239AC7900801D890C750D007402DA
:103EC000780C12178E90033412533C8882F583A32A
:103ED000A3E4F0A3F009900393E0F8E9C39840D974
:103EE000900393E0FA850AF0A4CAA8F0850BF0A429
:103EF00028FB1239A68A0C8B0DAE0CAF0DEE4F705D
:103F000003023F8C900393E0FC850AF0A4CCA8F058
:103F1000850BF0A428FD79001238F27C0080318DE9
:103F20000C750D007403780C12178E8A828B831225
:103F30003F9188828983E4F0123F9EA3A3F0A3F00F
:103F40000DEDC3950840D8EE250AFEEF350BFF0CAA
:103F5000900393E0F8ECC39850288C0C750D007416
:103F600002780C12178E900334123F91E82402500D
:103F70000109FAE9FB8A828B83EEF0A3EFF07D0062
:103F800080BFE508900336F0790080027913025C67
:103F900058125340F922A3A3124A45EA4B22A31216
:103FA00059B7A3A3A32274F41218117900EAA2E06E
:103FB000501F7508DB7509827808121A2479107C65
:103FC000047D007A847B19122EC074021217B7E99F
:103FD000F980007F040218E3C082C0839003371287
:103FE0004A70601C88828983A3A3E06A7003A3E0FF
:103FF0006B8882898370E8A3A3A3A3124A4180043B
:104000007A007B00023CC974F212181174FD121779
:10401000A1EAFEEBFF851882851983E4F0A3F07412
:10402000021217ED7401F0124A6D701412307612FC
:1040300039A690033A124683124A6D7003024199E1
:10404000124783EE2404F50AE43FF50B850A82F556
:1040500083E024FE603C24FC607424FE607E24FE29
:1040600070030240E924FE70030240F624FE700350
:1040700002410324FE700302411024FE700302413A
:104080001D24FC700302413E24FE700302415602CF
:10409000419212307690033CEAF0A3EB1241A51254
:1040A0002AF4E9600302419290033C121A3B8E828B
:1040B0008F83A3A3A3A3A31259D58508828509835F
:1040C000124A41122E9074021217B7024192AC1894
:1040D000AD19EEFAEFFB122EDE024161AC18AD19FC
:1040E000EEFAEFFB122EE48078AC18AD19EEFAEF81
:1040F000FB122EEA806BAC18AD19EEFAEFFB122E14
:10410000F0805EAC18AD19EEFAEFFB122EF680517E
:10411000AC18AD19EEFAEFFB122EFC8044740212BB
:1041200017F7880C890D780C121A247402121807DC
:10413000EEFAEFFB122F0274021217B78023AC18AD
:10414000AD19EEFAEFFB122F08E9F870167402129F
:1041500017EDE4F0803CAC18AD19EEFAEFFB122F2E
:104160000EE9F8E8602C8E828F83A3E0641460224D
:10417000850A82850B83E090033CF08518828519BF
:1041800083124A4190033D124683E8A31241A512CF
:104190002AEEEEFAEFFB122E6674021217EDE0F92A
:1041A0007403025C55F07C3C7D038508828509839D
:1041B000124A452274E812181174FA1217A17404F5
:1041C0001217EDECF0A3EDF08A128B13EA2405F53B
:1041D0000EE43513F50FEA2402F510E43513F5115A
:1041E000851082F583124A41122BE48A0A8B0B75E3
:1041F00008007C037D0079007A3C7B031238F2E5ED
:104200000E2402F516E4350FF51774021217F7881D
:104210000C890D780C121A24850E82850F83A3A3B6
:10422000A3A3E0F50C750D00780C121A24E50E24FA
:1042300005F50CE4350FF50D780C121A248516825D
:10424000851783124D48122DCA74061217B78A0CAF
:104250008B0DE50C450D70030243D5802085188237
:10426000851983E088828983F0050885188285197D
:1042700083A3E0C0E0124416D0E0F00508E50A246C
:10428000FBFAE50B34FFFBC3E5089AE49B4003020D
:1042900043D57E007F00851282851383A3A3A3A349
:1042A000E0F5097809121A28E4F514F515781412C6
:1042B0001A247514397515037814121A2490033AC8
:1042C000121A3B74091217ED121A3BE50A24F9F988
:1042D000AC0CAD0D851082851183124A41122F3826
:1042E00074091217B7E96003024376850E82850FC1
:1042F00083A3A3A3A3A3A3A3E0F8900339E068706A
:1043000075E0F5148E157814121A241259D2850E00
:1043100082850F83A3A3A3A3A3A3A3A3124A41123D
:1043200038EC74021217B7E9604C90033D124A70E2
:10433000703BE4F5147814121A247CFF7DFF790792
:10434000851082851183124A41122EA2740212171F
:10435000B7124A767017850E82850F83125B6F74D1
:10436000041217ED125430124D79024409850C8263
:10437000850D8312440CA818A9198814891578147E
:10438000121A2474041217ED121A3B85168285172F
:1043900083124679122DD674041217B78A0C8B0D2E
:1043A000EE4F7003024252124416EE124421124D97
:1043B0002FEF124421F8A3E03400F9E50C450D601D
:1043C0000302425D8882898374FFF0050812441657
:1043D00074FFF00508E508601A1313543F1246896C
:1043E000122B00E9600990033D124A4112395E79AF
:1043F000008016850E82850F83125B6F740412177E
:10440000ED125430125098790A024D02A3A3A3A3CF
:10441000E0FEA3E0FF22A80890033DE028124D2F04
:1044200022F005080890033DE0282274E8121811D4
:1044300074FA1217A174021217ED12468374041253
:1044400017EDECF0A3EDF074021217EDE024051265
:104450004D18E0F50CA3E0F50D74021217EDE02401
:1044600002F510A3E03400F511851082F583124A9D
:1044700041122BE4750800750900EA24FCFEEB34B8
:10448000FFFF8008050CE50C7002050DA808C3EEBF
:1044900098EF94005003024635A818A919880E8990
:1044A0000F780E121A24851482851583A3A3A3A363
:1044B0001259D9121A24E5142405F50EE43515F520
:1044C0000F780E121A2485148285158312467712EE
:1044D0002DCA74061217B78A0E8B0FEA450F7003A8
:1044E000024635EA2404F516E4350FF517851682E1
:1044F000F583E0F50CA3E0F50D851882851983128C
:1045000059D58A828B83A3A3A3E0F98510828511F4
:1045100083124A41122DB8E9F50960030246357449
:10452000021217ED124D3FF5097809121A28E4F529
:1045300012F5137812121A247512397513037812B2
:10454000121A2490033A121A3B74071217ED121A2A
:104550003BEEF9AC0EAD0F851082851183124A41F6
:10456000122F3874091217B7E9F5096003024635AE
:10457000E508703FE4F50EF50F780E121A247CFF63
:104580007DFF7909851082851183124A41122EA27E
:1045900074021217B7124D65700D74041217ED12E4
:1045A000466C7911024669900339E0240290033D7C
:1045B000F0801490033DE0FA900339E07900240282
:1045C0005001096A497072A808900339E0FAE82A94
:1045D000FAE43400FBEE9AEF9B405A851682851769
:1045E00083E0C0E090033E12441BD0E0F005088554
:1045F0001682851783A3E0C0E00890033E12441B97
:10460000D0E0F005089003391259D9121A24125932
:10461000D2A808124D0C1238DA74021217B79003A0
:1046200039E02508F50874FF650C700474FF650D0A
:104630006003024484E508601F90033DE0F5F0E567
:104640000884124689122B06E9600990033E124A3B
:104650004112395E79008011E509700375090A7409
:10466000041217ED12466CA909024D02124EA7E57D
:104670000CF0A3E50DF022A3A3125C64AA0CAB0D11
:1046800022A3A3EAF0A3EBF02290033CF07C3C7D54
:1046900003851082851183124A452274EC12181189
:1046A00074FC1217A11251A87402121807124A3B87
:1046B000122DD08A0C8B0DEA450D70030247731240
:1046C0004783A818A919881089117810121A247C18
:1046D000FF7DFF790B850882850983124A41122EDE
:1046E000A274021217B7124879700C850A82850BE2
:1046F00083124D760247808E828F83A3A3A3A3E00B
:10470000F5127812121A28E4F512F5137812121A1B
:104710002475123C7513037812121A247810121A99
:104720002474091217ED121A3B74091217EDE0F9FF
:10473000AC0CAD0D850882850983124A41122F38D1
:1047400074091217B7E9FE70157C3C7D0385088259
:10475000850983124A41122B0CE9700980207416D6
:104760006E70027E0090033D124A4112395EEE7077
:1047700004800B7E01850A82850B83125095EEF929
:104780000250AAEE2402F508E43FF5092274EC1267
:10479000181174FC1217A1EAFEEBFF8C0E8D0FEEC0
:1047A0002405F508E43FF50974021218078508820C
:1047B000850983124A41122DD08A0C8B0DEA450DD2
:1047C0007003024869EE2402F50AE43FF50BA818CD
:1047D000A919881089117810121A247CFF7DFF799D
:1047E0000D124A3B122EA274021217B712487970AA
:1047F0000B850882850983124D76807A8E828F839D
:10480000A3A3A3A3E0F5127812121A2885088285C3
:104810000983A3A3121A3B75123C75130378121275
:104820001A247810121A2474091217ED121A3B7404
:10483000091217EDE0F9124A37122F3874091217CE
:10484000B7E9FE700F7C3C7D03124A3B122B12E944
:104850007009802074166E70027E0090033D124A2B
:104860004112395EEE7004800B7E01850882850955
:1048700083125095EEF90250AA124A80F510A3E077
:10488000F511EA45112274E812181174FE1217A1ED
:104890008A168B178C148D15EA2405F50CE4351750
:1048A000F50DEA2402F50EE43517F50F850E82F5B5
:1048B00083124A41122BE48A088B09750B007C0392
:1048C0007D0079007A3C7B031238F2750A00E50816
:1048D00014F5100424FFF508E50934FFF5098054A8
:1048E00090033CE0FA900339E0F8EA28F8E4340059
:1048F000F9E50898E50999500D90033CE0F8E510BA
:10490000C398900339F0E0F5127513007812121A6B
:10491000241259D290033DE02AFAA3E03400FB129E
:1049200038DA74021217B7900339E0F890033CE0CC
:1049300028F0050A850C82850D83A3A312534C40F1
:1049400003024A1C90033CE0C39508E49509400328
:10495000024A1CAE0AEE2EFEE433FF124A5BAC188C
:10496000AD191259EDE439FB122DD08A128B13AC1C
:1049700012AD13EC4D701B750B01124A4B1250997E
:1049800090033D123F98600312395EA90B74020236
:104990004D04851682851783A3A3A3A3E0F50B78A6
:1049A0000B121A28E4F512F5137812121A24751254
:1049B000397513037812121A2490033A121A3B74B1
:1049C000071217ED121A3BA910850E82850F83126C
:1049D0004A41122F3874091217B7E9F50B709B90F2
:1049E000033D124A7060030248E0E4F512F51378C3
:1049F00012121A247CFF7DFF790F850E82850F83AA
:104A0000124A41122EA274021217B7124A7660039C
:104A10000248E0124A4B124D7A02498D7C3C7D03DC
:104A2000850E82850F83124A41122B18E96003021A
:104A30004980790002498DAC0CAD0D850A82850B49
:104A400083124A4522E0FAA3E0FB22124A5BE0FA15
:104A5000A3E0F9EA85148285158322850C82850DF1
:104A600083E02EF8A3E03FF9888289832290033AFD
:104A7000125B73E84922124A80F8A3E0F9E8492260
:104A800090033DEAF0A3EBF090033DE02274E812BE
:104A9000181174FA1217A174041217ED1246838CC0
:104AA000168D1774041217EDE02405F50EA3E034FB
:104AB00000F50F74041217EDE02402124D18124A8B
:104AC00041122BE48A0A8B0B7F007E00A818A919DB
:104AD000880889097808121A24850E82850F83A315
:104AE000A3A3A3E0F5088E097808121A24E50E2482
:104AF00005F508E4350FF5097808121A24850E82A9
:104B0000850F83A3A3124D48122DCA74061217B73E
:104B10008A0C8B0D8029124D39F00F124D39F00F90
:104B2000900339125084121A241259D2EFF8124D00
:104B30000C1238DA74021217B7900339E02FFFE530
:104B40000C450D7003024BC88518828519831251DC
:104B5000BAA3A3A3E0F9851482851583124A4112F2
:104B60002DB8E9FEE50C2404F510E4350DF511EE41
:104B7000705074041217ED124D3FF5087808121AA0
:104B800028E4F508F5097808121A2475083975091A
:104B9000037808121A2490033A121A3B740712176A
:104BA000ED121A3BE50A24FAF9AC0CAD0D8514821E
:104BB000851583124A41122F3874091217B7E9FE7E
:104BC0006039124D55125098EF7003024CEF90036C
:104BD0003DE0F5F0EF8490033CF07C3C7D038514D0
:104BE00082851583124A41122B1EE9600990033E0B
:104BF000124A4112395E7900024D028F08EF703B74
:104C0000E4F512F5137812121A247CFF7DFF791156
:104C1000851482851583124A41122EA2740212173E
:104C2000B7124D657009124D55124D79024D029023
:104C30000339E0240490033DF08035900339E0F817
:104C400090033DE0FAE82404FCE43400FDEC6A4DF6
:104C50006003024BCEE50A24FAFAE50B34FFFBE5CC
:104C60000828F8E43400F9EA98EB995003024BCE97
:104C7000851082851183E0C0E090033EE02FF8A309
:104C8000E034008882F583D0E0F00F851082851132
:104C900083A3E0C0E0124D26D0E0F00F740212179B
:104CA000F7880889097808121A2474021217ED127D
:104CB0001A3B850E82850F83124677122DD6740417
:104CC0001217B78A0C8B0DEA450D7003024B167450
:104CD000021217EDE0C0E0124D26D0E0F00F740292
:104CE0001217EDA3E0C0E0124D26D0E0024B1EEEFD
:104CF00070027E0A850E82850F83124D5B125098DA
:104D0000EEF974061217B77F100218E390033EE025
:104D100028FAA3E03400FB22F514A3E03400F515D3
:104D2000851482F58322124D2A2290033EE02FFA49
:104D3000A3E034008A82F58322124D2A74FF2212E6
:104D40004EA7A3A3A3A3E022125C64850E82850F65
:104D500083124A4522851082851183125B73851662
:104D6000828517832290033EEAF0A3EBF090033E86
:104D7000125B73E8492212509EE8F0A3E9F0791122
:104D80002274EA12181174FE1217A18A088B098C7A
:104D9000128D13EA2405FEE43509FFAC18AD198E17
:104DA000828F83124A41122DD08A0C8B0DEE24067D
:104DB000F50EE43FF50FEA450D7003024E79E50864
:104DC0002402F50AE43509F50B8A828B83A3A3A399
:104DD000E0A2E55028851882851983124A41122FD6
:104DE0002C8A108B11EA451160207912124A3785FE
:104DF000108285118312180FE9F50C707F850E82E1
:104E0000850F83E0600979528011750C0E806D85E5
:104E10000882850983A3A3A3A3E0F9E4F508F509B3
:104E20007808121A248E828F83A3A3E0F5087808ED
:104E3000121A248E828F83A3A3A3121A3B8E828F11
:104E4000831259D5124A3B122F3E74061217B7E946
:104E5000F50C7011850E82850F83E0702D124A3B90
:104E6000122B2480257416650C7011750C007418B3
:104E70001217ED124EA3E48010750C01125B6B85C6
:104E80001282851383E8F0A3E9F0850E82850F83F3
:104E9000E0600479008002A90C74021217B77F0E3B
:104EA0000218E3124EA722E0F8A3E0F583888222DD
:104EB00074EC12181174F71217A18A0A8B0B8C105C
:104EC0008D11EA2405FEE4350BFF750C00AC18AD1E
:104ED000198E828F83124A41122DD08A088B09EADB
:104EE0004509700302506FE50A2402F50A500205D5
:104EF0000B8A828B83A3A3A3E0A2E5502F8518829F
:104F0000851983124A41122F2C8A0C8B0DEA450D0C
:104F1000604F7912AC08AD09124A3B850C82850DB1
:104F20008312180FE9F50C6003025072850A82851E
:104F30000B83E0F508A3E0F509AA08FB122F20EA8D
:104F40004B70197AFF7BFF122F20EA4B700302503F
:104F5000658A828B83E508F0A3E509F07508008077
:104F600008750C0E0250720508900336E0F8E5084B
:104F7000C398400302506585080E750F00740378CE
:104F80000E12178E8A828B83A3A3E0250EF8A3E06E
:104F9000350F12543970D08E828F8312508D124685
:104FA000838E828F83A3A312508D124681EE240438
:104FB000F508E43FF509850882F583E08882898356
:104FC000A3A3A3A3F0A3E4F0EE2405F50EE43FF5BC
:104FD0000F850E82F58312508DA3A3A3A3124681E1
:104FE0007512077513007812121A24EEFCEFFD7487
:104FF000041217FF1238DA74021217B7E4F51278A8
:1050000012121A24850882850983E0FC7D00791735
:10501000124A3B122EA274021217B774071217ED30
:1050200012468374071217EDE0FA4B603D85088243
:10503000850983125084121A24850E82850F8312EB
:1050400059D51238DA74021217B7740212180712FF
:105050004A3B122B2AE9602674071217ED124A41C7
:1050600012395E8019750C098008750C1180037562
:105070000C01125B6B851082851183125098A90C6C
:1050800074098028E0F508750900780822124A455D
:10509000888289832212509EE8F0A3E9F022E0F88A
:1050A000A3E0F9850E82850F832274041217B77F5F
:1050B0000C0218E374EC1218111251A8751000EECE
:1050C0002402F50CE43FF50D850C82F583124A416C
:1050D000122F208A088B09EA4509700302518C853A
:1050E0000A82850B83E064016003025181AC08AD44
:1050F00009AA0AAB0B122F14E9606E850882850994
:105100008312440EEE2406F50AE43FF50B8E828FDF
:1051100083A3A3121A3B8E828F83A3A3A3A3121A85
:105120003B850A82850B83121A3B79188E828F8306
:105130001251BA124A41122F3E74061217B7E9F8FB
:10514000741668700B850A82850B83E4F0A38014C3
:10515000E860128E828F83124A41850E82850F830A
:10516000EAF0A3EBF088108018780E121A24AC082D
:10517000AD09EEFAEFFB122F1A74021217B7E9F518
:1051800010AA08AB09122F26E510700E850C828537
:105190000D83124A41122B3080097416651070037A
:1051A000751000A9100250AFEAFEEBFF8C0E8D0FB8
:1051B000EE2405F50AE43FF50B22125C64850C82AF
:1051C000850D832274EA1218117508007509007E96
:1051D000007F00750A00EC2402F510E43DF5118013
:1051E00035EC65087003ED65096003025279888229
:1051F0008983A3A3E06A7003A3E06B707C88828933
:1052000083A3A3A3A3125B6FEE28FEEF39FFEA2866
:10521000FAEB39FB050A125349503A850A0C750D11
:10522000007403780C12178E851082851183125337
:105230003C125439601FE508450970A58C088D099A
:105240008882898312440C88828983A3A3E02EFA82
:10525000A3E03F80BEE50AC39402500302533775B2
:105260000800750900EE4F6010EEFAEFFB12395896
:105270008A0E8B0FEA450F70057900025339750BC2
:105280000002530C850B0C750D007403780C12177B
:105290008E851082851183E0250CF50CA3E0350D79
:1052A000F50DE50C2406F514E4350DF5158514828D
:1052B000F58312543E6042E50C2404F512E4350DEA
:1052C000F513851282F583121A3BE50E2508FAE5DF
:1052D0000F3509FB1238DA74021217B7851282856E
:1052E0001383E02508F508A3E03509F50985148244
:1052F000851583124A4112395EE50B600D7C087DED
:10530000007900AA0CAB0D1238F2050BE50BC39522
:105310000A5003025284851082851183125B6F88C4
:10532000828983A3A3A3A3A3A3E50EF0A3E50F1291
:105330003F9FEEF0A3EFF07901024E9E1253402200
:10534000E0250CF8A3E0350D22900336E0F8E50ADD
:10535000C3982274F01218118A0E8B0F8C0A8D0BD1
:10536000750D00750C0080507916EE2406F508E4E2
:105370003FF5098E828F83A3A3121A3B8E828F83FF
:10538000A3A3A3A3121A3B850882850983121A3BA3
:10539000850E82850F83A3A3124A41122F3E740605
:1053A0001217B7E9F50D7416650D706C85088285C6
:1053B0000983E4F0A3F0050C900336E0F8E50CC394
:1053C000985066AA0C8A08750900740378081217A9
:1053D0008E850A82850B83A3A3125488E8FEE9FF19
:1053E0008E828F8312543E6040EA2401F508E43433
:1053F00000F509900336E065087002E5096014883D
:10540000828983A3A3A3A3A3A3A3A3124A706003C7
:10541000025368791802536AE9609B125B6B74103F
:105420001217ED125430125098A90D7F080218E39C
:10543000E0FAA3E0F5838A8222F988828983125CEC
:1054400064EC4D2274F61218117C0080010C90035C
:1054500093E0F8ECC398501E8C087509007402782C
:105460000812178E12547DE06A7003A3E06B70DDA2
:10547000E8FAE9FB80047A007B00025520900334AF
:105480001254888882898322E02508F8A3E0350930
:10549000F92274F21218118A088B09750A00802704
:1054A0008E828F83A3A3A3A3123F96600312395E5B
:1054B0007C087D007900EEFAEFFB1238F28E828FC5
:1054C00083E4F0A3F0050A1253495027850A0C75AE
:1054D0000D007403780C12178E850882850983A34A
:1054E000A3E0250CFEA3E0350DFF8E828F83124AC8
:1054F0007070AD85088285098374FFF0A3F0025CAB
:105500005874F6121811122ED28A828B83E58245C6
:105510008370067A007B008007A3A3A3A3124A41ED
:105520007F020218E374F412181189088C828D83AB
:10553000E06402703C125B0EFEA3E0F9EEF8740228
:105540006870037429697029750A02750B00780A5E
:10555000121A2474101217ED121A3B74101217ED60
:10556000121A3BA90812381474061217B7E9F98009
:10557000027901023FD374E812181174FB1217A1CB
:10558000E9851882851983F08A168B17ECFEEDFFEA
:105590007510008E828F83A3A3A3E0A2E4502D7424
:1055A0001D1217ED124A41122F2C8A828B83E5823D
:1055B000458370030259AD790AEEFCEFFDAA16ABE4
:1055C0001712180FE9F51060030259B0741F121773
:1055D000EDE0F508A3E0F50974211217EDE0F50AF6
:1055E000A3E0F50B74231217EDE0F50EA3E0F50F21
:1055F0008E828F83E06402600302594EA3125B6FB8
:10560000850882850983A3858212858313EE24068B
:10561000F50CE43FF50D888289831259EDF514E409
:1056200039F5157814121AAE0100002801285056D9
:1056300007000228155703288356002944580129DA
:105640006F5802291058032944580429E8584E5924
:10565000E50E450F6003025949850C82850D8312C2
:105660005B6FE8FAE9FB8A828B83E0850A82850B0F
:10567000831259F8121A248A828B83A3E0FCA3E0D8
:105680000258D2E50E450F6003025949850A82850A
:105690000B837401F01259E2850882850983F07C3E
:1056A000007D008E828F83A3A3A3A3E02401FAA32D
:1056B000E03400FB122DD0EA4B60408A828B83E0FD
:1056C0002402F8850A82850B83E028F0EA2404F896
:1056D000E43BF988828983E0851282851383125A1C
:1056E000061259F8121A248A828B83A31259D5E51F
:1056F000082403FAE43509FB0258D7850A82850B92
:1057000083E02404F07C047D007900AA12AB13121C
:1057100038F20259B0E50E450F600302594912599B
:10572000E2FEA3E0FF850A82850B837404F0EE8518
:105730000882850983F0EF851282851383F0740354
:10574000121807EEFAEFFB122DD08A0C8B0DEA45EA
:105750000D70030257F38A828B83A3A312440C7447
:10576000011217F7880E890F780E121A2474051289
:1057700017ED121A3B7CFF7DFF122DD67404121711
:10578000B78B0FEA450F7033850C82850D83125954
:10579000D9121A24850C82850D83A3121A3B7C0230
:1057A0007D007ACD7B83122BD274041217B7E97077
:1057B0000A74011217ED74FFF0A3F08E828F83E05C
:1057C00064027039750C02750D00780C121A248E63
:1057D000828F83A31259D5E5082404FAE43509FB26
:1057E0001238DA74021217B7850A82850B83E02417
:1057F00002800974011217EDEEF0A3EFF0740112AC
:1058000017ED1259C774011217ED1259BE02594310
:10581000E50E450F6003025949850C82850D831200
:105820005C5DAA16AB1712381A850A82850B837441
:1058300002F0850882850983EAF085128285138348
:10584000EB025946E50E450F60030259491259E231
:10585000F8A3E0F9850A82850B837402F0E88508D5
:1058600082850983F0E98512828513830259468572
:105870000C82850D83124A411238D4EAFAF8C39596
:105880000EE4950F405CE8650E450F70047A0080C9
:1058900021851882851983E0FCE50E2CFCE4350F88
:1058A000FDC3EC98ED94005003E08005E50ECAC3FB
:1058B0009AFAEA850A82850B83F08A0A750B0078CA
:1058C0000A121A24850C82850D83E0250EFCA3E0C4
:1058D000350FFDAA08AB091238DA74021217B702A5
:1058E00059B07510070259B0E50E450F705B850C75
:1058F00082850D83125B6F850A82850B837407F0A6
:10590000888289831259BF1259B7E08512828513A4
:1059100083F0E82402FAE439FB8A828B831259C7A8
:105920008A828B831259BEA3A3123F9E1259CCF0D8
:10593000E82405F8500109888289831259CCA31202
:105940005A06A3A3A3A3F0806775100B8062741D91
:105950001217ED124A41122ED28A828B83E58245BC
:1059600083604A125B6F880C890DE8450D603E74B8
:10597000251217EDE0F5107810121A28780E121A79
:1059800024780A121A247808121A2474071217EDC0
:10599000E0F9EEFCEFFDAA16AB17850C82850D83AE
:1059A00012180F74071217B7E9F510800375100E5F
:1059B000A9107405024D04F088828983A322A3E014
:1059C00085088285098322125A0DF022125A0DA3EE
:1059D000A32290033A125C6422E0F50E750F007862
:1059E0000E22850C82850D83124EA7E022E0FAA3D9
:1059F000E0F8E4C8F9EA2822F08A828B83E0F50A0D
:105A0000750B00780A221259B7125A0D22E0850848
:105A100082850983A3A32274EE12181174FE121753
:105A2000A18A088B09ECFEEDFF890AAC18AD19EECE
:105A3000FAEFFB122DD08A0C8B0DEA450D70030294
:105A40005AFF851882851983124A41122ED28A8202
:105A50008B83E58245837003025AFAA3A3125B6F1E
:105A6000880E890FE8450F7003025AFA7414121752
:105A7000EDE0F510A3E0F511E50AF50B780B121A2D
:105A80002874191217ED121A3B7810121A24741B7D
:105A90001217EDE0F9AC0CAD0DAA08AB09850E822A
:105AA000850F8312180F74051217B7E9F50B7052A2
:105AB00074FE650A604C850C82850D83E06402707B
:105AC00041125B0EFAA3E0F9EAF8740268700374FD
:105AD0002969702E8510828511831259EDF50CE429
:105AE00039F50D780C121A24EEFCEFFDAA08AB096B
:105AF000122F5674021217B78008750B0E800375AB
:105B00000B01A90B74021217B77F0A0218E3A31244
:105B10005B7388828983E02274F612181174FE1276
:105B200017A1740C1217ED125B6FE88518828519A6
:105B300083F074011217EDE9F0E4F508F50978082F
:105B4000121A247508027808121A2474041217F71E
:105B5000880889097808121A2479FE122F3E7406E3
:105B60001217B774021217B70255208E828F831254
:105B70005B7322E0F8A3E0F92274F7121811EAFE31
:105B8000EBFF89089003511259D512381AEA5402D2
:105B9000600BA908EEFAEFFB122DC4800279017F99
:105BA000010218E374F212181174FE1217A1EAFE32
:105BB000EBFF890A7401650A60147402650A6003C8
:105BC000025C53790112315AE96003025C53EEFA28
:105BD000EFFB122F20EA4B6003122F26A818A919F9
:105BE000880889097808121A24750802750900784E
:105BF00008121A247508C77509837808121A247CBC
:105C0000FF7DFF7A017B00122DCA74061217B78040
:105C100038850882850983A3A3A3A3A3A3125C5D8F
:105C2000EEFAEFFB123802E4F50CF50D780C121ABF
:105C30002474021217ED121A3B7CFF7DFFAA08ABF9
:105C400009122DD674041217B78A088B09E5084586
:105C50000970BE74021217B77F060218E3124EA72E
:105C6000125C6422E0FCA3E0FD2274F41218118A95
:105C7000088B09ECFEEDFF901982E0F4604B7A0985
:105C80007B001238FEEA4B60408A828B8374B1F04D
:105C9000A3E4125CCCF08A828B83A3A3E508F0A373
:105CA000E509125CCCA3EEF0A3EFF0740C1217ED33
:105CB000125B6F8A828B83A3A3A3A3A3A3A3125017
:105CC00098901982E0F912390A023FD3F08A828B48
:105CD00083A3A3A3A32274F012181174FA1217A1BC
:105CE0008909ECFEEDFF7508008A0A8B0B780A1211
:105CF0001A68000410FC5E195D375D515D695D87AF
:105D00005D9F5DC25DDA5DEE5D185E935EA45EBB75
:105D10005ED65EFC5EFC5E2E5E7401650960030269
:105D20005EF78E828F83E0F8C394034003025EF730
:105D3000E8901A6E025ED3740265096003025EF792
:105D40008E828F83125F38901A6FE8F0A3E9025EAB
:105D5000D3740165096003025EF7125F29400302F4
:105D60005EF7E8900794025ED37401650960030250
:105D70005EF78E828F83E0F8C394054003025EF7DE
:105D8000E8900795025ED3740165096003025EF72F
:105D9000125F294003025EF7E8900796025ED37413
:105DA0001065096003025EF7750A10750B00780A2A
:105DB000121A247A977B071238DA74021217B70284
:105DC0005F1D740165096003025EF7125F294003DD
:105DD000025EF7E89007A7025ED3740165096003CD
:105DE000025EF78E828F83E0901A72025ED3740493
:105DF00065096003025EF78E828F83780C12165954
:105E000090833F780C1214795003025EF79007A933
:105E1000780C121668025F1DE96003025EF7122D0E
:105E20006AE970051237C6805590083C8061740796
:105E300065096003025EF7750A06750B00780A12A1
:105E40001A248E828F83A3AC82AD8374021217FF53
:105E50001238E074021217B77C007D00AA18AB1943
:105E60008E828F83E0F9123772E9FEC3940A4003F1
:105E7000025F1A122D6AE9700CEEF91237CC7950D4
:105E8000123A24806D743D2EF582E43408F5837453
:105E900001804074016509705E125F295059E890D5
:105EA00007A8802F74016509704D8E828F83E0F8FA
:105EB000C3940A5042E8901A718018740165097001
:105EC000368E828F83E0F874F928C3940A5028E84C
:105ED000901A73F0804774016509701B90083BE0CD
:105EE000F88E828F83E090083BF0E87030E0640128
:105EF000702B1237BA80267508188021C3EA9427C0
:105F0000EB9400501574026509700F8E828F831216
:105F100069FE122BEAE9F5088003750802A90874E6
