:020000040000FA
:1000000002020F021003FFFFFFFFFF02100BFFFFB2
:10001000FFFFFF021013FFFFFFFFFF02101BFFFF98
:10002000FFFFFF021023FFFFFFFFFF02102BFFFF68
:10003000FFFFFF021033FFFFFFFFFF02103BFFFF38
:10004000FFFFFF021043FFFFFFFFFF02104BFFFF08
:10005000FFFFFF021053FFFFFFFFFF02105BFFFFD8
:10006000FFFFFF021063FFFFFFFFFF02106BFFFFA8
:10007000FFFFFF021073FFFFFFFFFF02107BFFFF78
:10008000FFFFFF021083FFFFFFFFFF02108B250C15
:10009000C582C0E0E50D34FFC583C0E0E50CC39523
:1000A0008224F810AF0885830D85820C8008858333
:1000B0000D85820CD2AFCEF0A3E520F0A37808E640
:1000C00008F0A3DEFAEFF0A3E58124FAF8E608F0E1
:1000D000A3E608F0A3E608F0A30808E608F0A3E604
:1000E00008F0A315811581D0E0FED0E0F815811548
:1000F000811581E8C0E0EEC0E022850D83850C8289
:10010000E0A3FEE0A3F5207808E0A3F608DFFAE01C
:10011000A3FFE0A3C0E0E0A3C0E0E0A3C0E0E0A351
:10012000C0E0E0A3C0E010AF0885820C85830D809D
:100130000885820C85830DD2AFD083D08202016CFA
:10014000E4900180780279028002F0A3D8FCD9FA09
:100150007582BA758309740012016675827F758392
:10016000027400120166C09FF59FE473D09F22D0F5
:1001700083D082C09FE493C0E0740193C0E0740216
:1001800093F59F22250CF58210AF08F50C400C1555
:100190000D8008F50C4002150DD2AF850D832200AD
:1001A000C0D0250C10AF08F50C500C050D8008F5DB
:1001B0000C5002050DD2AFD0D0226016080808C638
:1001C000C313C618C613C618C613C618C613C6D599
:1001D000E0EA22250C10AF08F50C400C150D800844
:1001E000F50C4002150DD2AF22700422600D18C626
:1001F000C333C608C633C6D5E0F41822E026F0089B
:10020000A3E036F008A3E036F008A3E036F022754C
:10021000D00075813F750C80750D01759F0002013E
:100220004074028000C0E0F404120184D0E01202A5
:100230006022C3E09608A3E09608A3E09608A3E036
:100240009622E0F608A3E0F608A3E0F608A3E0F69D
:1002500022600C08C6C313C618C613C6D5E0F42224
:10026000CAC0E0E6F0A308DAFAD0E0FA22250CF5DD
:1002700082E4350DF58322250CFCE4350DFD2200CA
:10028000000080FB12016F3F0B0012016F3A0A0061
:1002900012016FC00A0012016F260B0012016FD20B
:1002A000020012016FCB030012016F0C0700120154
:1002B0006F91070012016F6F080012016FAF080005
:1002C00012016F58090012016F78090012016F9F27
:1002D000090074F612008E74FC1201D375080475BF
:1002E0000900780812022174021202777A907B00CA
:1002F000790212028A740212019F850C82850D8395
:10030000E0F8A3E0F9900219E8F0A3E9F074021212
:10031000026DE0FAA3E0FB90021BEAF0A3EBF0858C
:100320000C82850D83E0F8A3E0F9E849700302032D
:10033000BF850C82850D83E0F47003A3E0F4607F39
:10034000850C82850D83E06A7003A3E06B605374B3
:10035000FF6A700374FF6B70491202AE74021202DE
:100360006DEAF0A3EBF0794E120284E960F87508AB
:1003700001780812022174021202777A247B041297
:100380000290740212019F75080478081202217409
:10039000021202777A907B00790212028A740212AA
:1003A000019F850C82850D83E0F8A3E0F9740212A9
:1003B000026DE0687003A3E069700479018002793E
:1003C00000740412019F7F020200FA74F412008E7E
:1003D00074FF1201D38024850C82850D83E0F89090
:1003E0000200E068F0850C82850D83E0F99002112F
:1003F000E4F0A3E9F09002107403F07C017D00AA00
:100400000CAB0D79001202C08B09EA45097003029A
:100410000700850C82850D83E0C0E090026BE0F858
:10042000742128F582E43402F583D0E0F090026B69
:10043000E004F0C3944A4002E4F0900210E0602A25
:1004400014603A1460911460511470030204E514AE
:10045000700302052D147003020575147003020564
:10046000C11470030205DF0206F6850C82850D8338
:10047000E06484708690021074010203FA850C8295
:10048000850D83E064F160030203FB900200E064E9
:10049000F1F090021074020203FA850C82850D833C
:1004A000E0F8900200E068F0900212E0FB850C8218
:1004B000850D83E0F8EBF9900211E8F0A3E9F090E4
:1004C0000213E028F0A3E039F0900211C3E094FC9D
:1004D000A3E094009002104004E40203FA7404F0D4
:1004E00090020E80F4850C82850D83E0F890020066
:1004F000E068F0850C82850D83E0C0E090020EE09C
:10050000F8740A28F582E43402F583D0E0F0900212
:100510000EE004F0C3940250030203FB9002107437
:1005200005F090020EE4F090020F0203FA850C82AF
:10053000850D83E0F8900200E068F0850C82850D5F
:1005400083E0C0E090020FE0F8740C28F582E434F8
:1005500002F583D0E0F090020FE004F0C394025063
:10056000030203FB9002107406F090020FE4F09077
:1005700002010203FA850C82850D83E0F8900200E7
:10058000E068F0850C82850D83E0C0E0900201E018
:10059000F8748028F582E43401F583D0E0F090020D
:1005A00001E004F0F8900211E024FCFAA3E034FF2B
:1005B000FBEA684B60030203FB900210740702031E
:1005C000FA900200E0F8850C82850D83E0689002C5
:1005D00010700474088001E4F09002000204D9E471
:1005E000F0850C82850D83E0640A60030203FB90B2
:1005F000026CE004F0C394104015D2F0A29130F0E8
:1006000001B3E433F8A29130F001B39291E4F09099
:100610000217E0F8A3E0F9E84970030206AE900281
:1006200071E02401F8A3E03400F9900217E068704B
:1006300003A3E069707890026D7808120242740298
:1006400078081201BAE5082400FEE5093404FF9099
:100650000211E024FCF508A3E034FFF509E4F50AF3
:10066000F50B90026D78081201FCEEF8EF5401F9D9
:10067000E84970108E088F0974097808120251A990
:1006800008120296900211E024FCF508A3E034FF62
:10069000F5097402780812025178081202217C8050
:1006A0007D01EEFAEFFB120290740212019F90029C
:1006B00017E0F8A3E0F9900271E8F0A3E9F09002E6
:1006C0000AE0F9A3E0900215F0A3E9F090020CE033
:1006D000F9A3E0F8900217F0A3E9F0900215E068A2
:1006E0007003A3E06960051202A88016C2AF75C945
:1006F000AB75C95B80FEC2AF75C9AB75C95B80FEC7
:100700007900740112019F7F040200FA74F712004D
:100710008E90021DE4F0A3F0A3F0A3F0900217E086
:100720002401F8A3E03400F9900273E8F0A3E9F0A3
:100730009002027414F0A374F1F0A3E4F0A3740225
:10074000F0900274E0900206F0900273E0900207CD
:10075000F0A3E4F07803790288828983E0FA9002BA
:1007600008E06AF088828983A3A882A983E86408E4
:100770007003E9640270E1900209740AF07C087D5C
:10078000007A027B0279001202C679007F01020022
:10079000FA74F412008E74FC1201D3750800750906
:1007A000007E007F04800D74246E700374046F70EB
:1007B00003020852750A04750B00780A12022174AC
:1007C00002120277EEF50AEF5401F50B7402780A73
:1007D0001201E9AA0AAB0B8E0A8F0B7409780A1270
:1007E0000251A90A12028A740212019FA80CA90DD3
:1007F000880A890BAC0AAD0B8C828D83E0F9AA08BC
:10080000AB097508088A0A8B0B740F780A1202511B
:10081000E50AF8EA25E0FAEB33FBE9A2E7500474B5
:10082000014AFAE8A2E0500874216AFA74106BFBDE
:10083000E9C333F91508E50870CB8A088B09A3AC26
:1008400082AD83740412026DE5826C7003E5836DE2
:1008500070A60EEE70010FC3EF94A050030207A71D
:10086000E4F91202B4E4F91202B47404020704C0F9
:1008700008C0097C088A088B09740F780812025195
:10088000E508F8EA25E0FAEB33FBE9A2E750047447
:10089000014AFAE8A2E0500874216AFA74106BFB6E
:1008A000E9C333F91CEC70CDD009D00802016C7497
:1008B000F412008E7E0075868075C48053F1FE436D
:1008C000F30C53FF3F85FFFF75C20C75C50875C457
:1008D000027586C01202A8801190021D750801756C
:1008E0000900750A0078081201FC90027EE070137E
:1008F000EE603FE586A2E04039C2AF75C9AB75C96D
:100900005B80FEE586A2E150295386FD90027DE0E2
:10091000F890027FE028FAA3E034008A82F583E0B1
:10092000F5C190027DE004F00890027EE06870025C
:10093000E4F0E586A2E250071202A2E9CE4EFE756F
:1009400008A0750986750A01750B0090021D7808CC
:1009500012023240840208D4C082C083E586A2E23B
:10096000500BE5C18A828B83F07A0180027A007B8A
:1009700000D083D08202016CC082C08390027FEAE3
:10098000F0A3EBF0EC90027EF090027D7401F05346
:1009900086FD8A828B83E0F5C1ECFAEDFB80D253B1
:1009A000F3EF43FD10C28453F4FD43FE02C29153A2
:1009B000F5FE43FF01C2A002016C53BEFBE59DA200
:1009C000E650FAE5C654804449F5C6E59E547F6476
:1009D0004970F853C67FE59EA2E740FA53C680E50A
:1009E0009E547F70FA43BE049062707408F0120245
:1009F000CC7402F5D575D47512029CE96401700DB2
:100A0000021000C2AF75C9AB75C95B80FE794E128A
:100A10000284E960F8900219E0F47003A3E0F46046
:100A20000F900219E0F8A3E0F9E84960031202BA56
:100A3000C2AF75C9AB75C95B80FE74F512008E89B3
:100A40000A740F550AF508750900740B780812012D
:100A5000E9EA2400F8EB3480F9E82400E93509F9E3
:100A600085C709A2AFE433F508C2AFE50AC4540F45
:100A7000FAE5C754F84AF5C7740B12026DE0FEA3FD
:100A8000E0FFEE4F602CEEFAEFFB88828983E08C6A
:100A9000828D83F088828983A3A882A9838C828D2A
:100AA00083A3AC82AD83EA24FF1AEB34FFFBEA4B4D
:100AB00070D88509C7E508A2E092AF7F030200FA6B
:100AC00074F612008EED900275F0ECA3F0A3746240
:100AD000F0A37473F0A3E0541FF0740A12026DE0E7
:100AE000F508A3E0F509E508333354FC90027AF0E9
:100AF00074067808120251E508900279F090027BA2
:100B00007412F0A37442F075D11E75D601EA90629A
:100B100071F0EBA3F0906270E0D2E1F0E0A2E74068
:100B2000FB7F020200FAC082C083E9C33390627285
:100B3000F0906270E0D2E0F0D083D08202016CE9E4
:100B4000F875B60FE5B4A2E750FAE8C395BB5004B8
:100B500079018002790002016CFFFFFFFFFFFFFFB8
:100B6000FFFFFFFFFFFFFFFFFFFFFFFFFFFFFFFF95
:100B7000FFFFFFFFFFFFFFFFFFFFFFFFFFFFFFFF85
:100B8000FFFFFFFFFFFFFFFFFFFFFFFFFFFFFFFF75
:100B9000FFFFFFFFFFFFFFFFFFFFFFFFFFFFFFFF65
:020000040003F7
:040000050000020FE6
:00000001FF
:020000040000FA
:101000000214140221D9FFFFFFFFFFFFFFFFFFFFC4
:10101000FFFFFF022980FFFFFFFFFFFFFFFFFFFF32
:10102000FFFFFFFFFFFFFFFFFFFFFF0228D4FFFFCF
:10103000FFFFFFFFFFFFFFFFFFFFFFFFFFFFFFFFC0
:10104000FFFFFFFFFFFFFFFFFFFFFFFFFFFFFFFFB0
:10105000FFFFFF02224FFFFFFFFFFFFFFFFFFFFF2A
:10106000FFFFFFFFFFFFFFFFFFFFFFFFFFFFFFFF90
:10107000FFFFFFFFFFFFFFFFFFFFFF022903FFFF4F
:10108000FFFFFF02202F01FFFFFFFFFFFFFFFFFF1A
:101090004200FFFFFFFFFFFFFFFFFFFFFFFFFFFF1C
:1010A000FFFFFFFFFFFFFFFF98999A9B01FF0000E2
:1010B000B4000028002800283075A000A000A0007F
:1010C000A00000080008E001F0001000100010006F
:1010D00010001000100050005000500010001000D0
:1010E000D0070000000000000F000100050030756F
:1010F00007001000010081FF00000000FFFFFFE07B
:101100002CFE2CE62C222DFF02020208025000A029
:10111000000000E80302D983010000AB8302D383FF
:101120000100001C1902CD830100000A0302D383D1
:101130000100001D1902CB83010000200302D383AC
:101140000100001E1902DD83010000220302D38387
:101150000100001F1902C583080000230302D38386
:10116000010000201902B7830100002119FF0100CE
:10117000FF2002D983010000AE8302D38301000067
:10118000851902C383000000000002CF8303000022
:10119000510317008E338E338E338E338E338E335E
:1011A0008E338E338E338E338E338E338E334C3676
:1011B0005E364636020202020202020202010D00FF
:1011C0000000100102D983010000B18302D3830122
:1011D0000000C81902C9830100008B0702D38301F4
:1011E0000000C91902D783010000688202D383017D
:1011F0000000CA1902ED830100004C8202D3830172
:101200000000CB1902EB83010000C88102D38301E7
:101210000000CC1902E983010000B68102D38301EA
:101220000000CD1902E583010000DA8102D38301B9
:101230000000CE1902E383010000EC8102D3830198
:101240000000CF1902E1830100005A8202D383011A
:101250000000D01902DF83010000D11901E8030565
:1012600077100AFFFF00013075030201060000003D
:10127000000000000000000000000000000000006E
:10128000000000000000000000FFFF0600800CE8E6
:10129000030E0930303030303030305942424C4546
:1012A000051250002003020A000201060302F0FFAB
:1012B00009FF0335000000000000303030303030CE
:1012C00030305942424C4500000000000000008AC6
:1012D0003A0000A23A1212125265616444617461CC
:1012E0000044656275674461746100546F6F6C44BB
:1012F0006174610008577269746544617461000229
:10130000D983010000B48302D383010000EB1A02E9
:10131000BF83010000A91502CF83030000D015028E
:10132000D183010000FF1A02D383010000EA1A02F0
:10133000BD83010000891502CF83030000CE150292
:10134000D183010000F51A02D383010000E91A02DB
:10135000BB83010000691502CF83030000CC150296
:10136000D183010000EC1A02D383010000081B02A4
:10137000C183030000D21502D183010000091B03C1
:10138000E5C754F84401F5C779012200000080FB4D
:10139000121380B900030213FEE479217808B80023
:1013A000028004F709D8FCE479297802B8000280A9
:1013B00004F709D8FCE4900280784279178002F0A3
:1013C000A3D8FCD9FA781A9010867A01BA00028064
:1013D00007E493A3F608DAF97AC17B189010AD7888
:1013E000D479038015E493A3AD82AE838A828B8384
:1013F000F0A3AA82AB838D828E83D8E9D9E7758268
:10140000737583F3740312142675828B75831374BA
:101410000012142675D00075813F75188075190269
:10142000759F00021390C09FF59FE473D09F22D058
:1014300083D082C09FE493C0E0740193C0E0740243
:1014400093F59F22E066701008A3E066700A08A377
:10145000E066700408A3E06622C3E7960809E796F1
:101460000809E7960809E79622C3E09608A3E096E4
:1014700008A3E09608A3E09622C008C3E096F5080A
:1014800008A3E096420808A3E096420808A3E09665
:1014900045087001D3D00822080808EAC0E0EBC074
:1014A000E086F0E7A4FA180986F0E7A42AFA1809FA
:1014B00086F0E7A42AFA180986F0E7A42AFA198622
:1014C000F0E7A4FBE5F02AFA190886F0E7A42BFB65
:1014D000E5F03AFA190886F0E7A42BFBE5F03AFAB2
:1014E00018180986F0E7A4C5F02BFBE43AFA1908AE
:1014F000E7C5F0C6A426F6E5F03BFBE43AFA188609
:10150000F0E7A4F6E5F00826F6E43B08F6E43A082E
:10151000F6D0E0FBD0E0FA22E4CFC0E0E4CEC0E0B9
:10152000E4CDC0E0E4CCC0E075F020E626F608E6A5
:1015300033F608E633F608E633F6181818EC33FCF1
:10154000ED33FDEE33FEEF33FFC3EC9709ED970962
:10155000EE9709EF97191919400FFFEC97FC09ED69
:1015600097FD09EE97FE191906D5F0BFECF709EDC6
:10157000F709EEF709EFF7191919D0E0FCD0E0FDF3
:10158000D0E0FED0E0FF226016080808C6C313C6EC
:1015900018C613C618C613C618C613C6D5E0EA2265
:1015A0007009080808226016181818C6C333C60840
:1015B000C633C608C633C608C633C6D5E0EA22E637
:1015C00027F60809E637F60809E637F60809E63788
:1015D000F622E026F608A3E036F608A3E036F60881
:1015E000A3E036F622E026F008A3E036F008A3E0F8
:1015F00036F008A3E036F022C3E697F60809E6972E
:10160000F60809E697F60809E697F622C3E096F091
:1016100008A3E096F008A3E096F008A3E096F02275
:10162000E056F608A3E056F608A3E056F608A3E055
:1016300056F622E056F008A3E056F008A3E056F074
:1016400008A3E056F022E046F008A3E046F008A325
:10165000E046F008A3E046F022E0F608A3E0F60832
:10166000A3E0F608A3E0F622E6F008A3E6F008A35C
:10167000E6F008A3E6F022E0FAA3E0FBA3E0FCA377
:10168000E0FD22EAF0A3EBF0A3ECF0A3EDF022E002
:10169000F8A3E0F9A3E0FAA3E0FB22E8F0A3E9F065
:1016A000A3EAF0A3EBF022CAC0E0E6F0A308DAFA5E
:1016B000D0E0FA22CAC0E0E0A3C582CCC582C583CF
:1016C000CDC583F0A3C582CCC582C583CDC583DAE1
:1016D000E6D0E0CA22C3E498F8E499F9121716801C
:1016E00026C3E49AFAE49BFBE920E7E9121716E423
:1016F00098F8E499F922C3E498F8E499F9121716D6
:10170000E498F8E499F9C3E49AFAE49BFB22EB200D
:10171000E7CFE920E7E0B90010BB0008E88AF084D1
:10172000F8AAF022E4FBC8FA22EB70227B10C8333F
:10173000C8C933C9335007C39AC3DBF280069A5035
:10174000012ADBEAC833F4C8C933F4C9FA2275F0B8
:1017500008E4C833C8C933C933C99AC99B5004C9FE
:101760002AC93BD5F0ECFBC833F4C8E4C9FA2260BF
:101770000D08C6A2E713C618C613C6D5E0F322604B
:101780000C08C6C313C618C613C6D5E0F4227004ED
:1017900022600D18C6C333C608C633C6D5E0F41898
:1017A00022251810AF08F518400C15198008F518F7
:1017B00040021519D2AF2200C0D0251810AF08F58D
:1017C00018500C05198008F51850020519D2AFD031
:1017D000D0222518F58210AF08F518400C15198095
:1017E00008F51840021519D2AF851983222518F57E
:1017F00082E43519F583222518F8E43519F92225F4
:1018000018FAE43519FB222518FCE43519FD22E409
:10181000732518C582C0E0E51934FFC583C0E0E533
:1018200018C3958224F810AF088583198582188023
:1018300008858319858218D2AFCEF0A3E520F0A3E6
:101840007808E608F0A3DEFAEFF0A3E58124FAF8C1
:10185000E608F0A3E608F0A3E608F0A30808E60807
:10186000F0A3E608F0A315811581D0E0FED0E0F8E2
:10187000158115811581E8C0E0EEC0E0222518C56C
:1018800082C0E0E51934FFC583C0E0E518C3958246
:1018900024F910AF0885831985821880088583197B
:1018A000858218D2AFCEF0A3E520F0A37808E60831
:1018B000F0A3DEFAEFF0A3E58124FBF8E608F0A33D
:1018C000E608F0A30808E608F0A3E608F0A31581EF
:1018D0001581D0E0FED0E0F815811581E8C0E0EE7A
:1018E000C0E022851983851882E0A3FEE0A3F520DD
:1018F0007808E0A3F608DFFAE0A3FFE0A3C0E0E089
:10190000A3C0E0E0A3C0E0E0A3C0E0E0A3C0E0101B
:10191000AF08858218858319800885821885831908
:10192000D2AFD083D08202142C851983851882E02F
:10193000A3FEE0A3F5207808E0A3F608DFFAE0A311
:10194000FFE0A3C0E0E0A3C0E0E0A3C0E0E0A3C0EC
:10195000E010AF0885821885831980088582188574
:101960008319D2AFD083D08222C0D02518C582C0BF
:10197000E0E51934FFC583C0E0E518C3958224F380
:1019800010AF0885831985821880088583198582A0
:1019900018D2AFC8F0A3E9F0A3EAF0A3EBF0A37963
:1019A00008E709F0A3D8FAECF0A3EDF0A3EEF0A35A
:1019B000EFF0A3D0E0F0A3D0E0F0A3D0E0F0A3E5F7
:1019C00020F0A3E5F0F0A322851983851882E0C0FA
:1019D000E0A3E0F9A3E0FAA3E0FBA37808E0F608AF
:1019E000A3DFFAE0FCA3E0FDA3E0FEA3E0FFA3E099
:1019F000C0E0A3E0C0E0A3E0F5D0A3E0F520A3E0C1
:101A0000A3F5F010AF0885831985821880088583B7
:101A100019858218D2AFD082D083D0E0F8D0E032DE
:101A200074048006740280027401C0E0F40412178A
:101A3000D2D0E01216A7227404800474028000CC75
:101A4000C0E0EDC0E0E518C39CCCAD1950011D10FD
:101A5000AF068C188D1980068C188D19D2AF12160E
:101A6000B4D0E0FDD0E0FC22D083D082E9C0E0E435
:101A700093A3C386F0C5F095F0F908E493A386F02C
:101A8000C5F095F0700BE493A3C3994005E9048079
:101A900002A3E475F002A42582F582E5F03583F512
:101AA00083D0E0F9E493A3C0E0E493C0E022D083C4
:101AB000D082ECC0E0EDC0E0E493A3FCE493A3FD8E
:101AC000ED4C600D121AFAEC24FFFCED34FFFD80A2
:101AD000EFE493A3FCE493A3FDED4C600D121B39DE
:101AE000EC24FFFCED34FFFD80EFD0E0FDD0E0FC06
:101AF000E493A3C0E0E493C0E022C0E0C3E4939683
:101B0000087401939618400FE493667008087401F6
:101B100093661870007019A3A3C3E4939608740128
:101B2000939618A3A3400DD0E0D0E0D0E0021AEACB
:101B3000A3A3A3A3A3A3D0E022C0E0C0F088F0E455
:101B4000936670080874019366187000A8F0A3A348
:101B5000700BD0F0D0E0D0E0D0E0021AEAA3A3D01E
:101B6000F0D0E02274F612187DEAFEEBFF8C088DAF
:101B700009EE2434F8E43FF9E8FCE9FDEE243512DF
:101B80001E77FAEE2437121E77F88508F0A4C88570
:101B9000F00A8509F0A4250AF9EA28F8E439F97A67
:101BA000257B00121716EA8C828D83F0FA1313132B
:101BB000541FF8EE28F8E43FF9E8245DF582E43993
:101BC000F583E0C0E074075AF8D0E0B80002800462
:101BD000C313D8FCA2E0EE50082434F582E43F8021
:101BE000182436121E77F5F0EA84A8F0EE28F8E4FF
:101BF0003FF9E82438F582E439F583E0F97F030200
:101C0000192974F712187DEAFEEBFFEE2434121E38
:101C100077C0E0EE2435F582E43FF583D0E0F08E26
:101C2000828F83A3A3A3A3A3A3A3C082C0838E8216
:101C30008F83A3A3A3A3A3E0F8A3E0F9D083D0826A
:101C4000E0C398F508A3E099F509EE247F121E770A
:101C50006401703EEE2480F582E43FF583C082C0CB
:101C6000838E828F83A3A3A3A3A3E0240108A3E010
:101C70003400F9D083D082E0687003A3E069701269
:101C80007CFC7D041232C8EE247FF582E43FF583AC
:101C9000E4F0AC08AD09EEFAEFFB121B64E9F912AF
:101CA00028C67F02021929C082C08385188285193F
:101CB00083E0F8A3E0F9C3EA9CEB9D5010C3EC98D5
:101CC000ED99401BC3EA98EB995014800EC3EA9833
:101CD000EB994007C3EC98ED9940047901800279B3
:101CE00000D083D08222EAC39CFAEB9DFB2274EFE2
:101CF00012187D9003C1E064086005E06407702A53
:101D00009061C8E060249003EFE0F4601DE0F87596
:101D1000F00BA4C8AAF02AF974F128FE740339FF65
:101D20008E828F83A3A3A3E07003021DFC906060EA
:101D3000E0C0E0EE2468F582E43FF583D0E0F07582
:101D40000C6C750D05750800750900E5D914F50AC8
:101D5000E5D95403F50E60127403650E6043E50A7D
:101D6000600AEE2467121E7770028075900567E0A6
:101D70006401601F121E7460047A0480027A00E518
:101D80000AC39AFA95E0FB1231728A088B09EA4578
:101D90000970051235148064121E7470048A0C8B4D
:101DA0000DE50A6012850C82850D83F50BE5D9F0EF
:101DB000A3150BE50B70F6121E74604474FC250A23
:101DC000F50A780C121A24AC0AA90EEEFAEFFB12EF
:101DD000338874021217B7E97026AA08AB091239C2
:101DE00034793D8E828F83A3A3A3A3E0FA7B0012F4
:101DF0002FD4EEFAEFFB1232EC12339A7900806F97
:101E00007403650E6051850A107511007810121A5E
:101E100024AC0CAD0DAA08AB0912334C7402121796
:101E2000B7EE2468121E7764807004747F8001E02E
:101E3000F50C780C121A28E50EF50C780C121A28FD
:101E4000A90AAC08AD099003EFE0FA7B00122FAAB3
:101E500074021217B780139003C1E06408600BACE2
:101E60000CAD0DEEFAEFFB12341212352079017F22
:101E70000A021929EE2483F582E43FF583E02274F7
:101E8000F212187D74FC1217A1EAFEEBFF8909A279
:101E9000AFE433F508C2AF021F49E0601B780C12B3
:101EA0001A24AC0BA90EEEFAEFFB12338274021265
:101EB00017B77404250BF50B7401250BF5D9850EA6
:101EC000D9E50B6018F50A850C82850D83E0F5D9FC
:101ED000A385820C85830D150AE50A70EA75E195E4
:101EE000EE2463F8E43FF97A007B00A2AFE433F517
:101EF0000BC2AF88828983E0FCA3E0FDEC4D603A21
:101F000088828983E0FAA3E0FB8A828B83E0FCA3CA
:101F1000E0FD88828983ECF0A3EDF08A828B83E474
:101F2000F0A3F088828983E0FCA3E0FDEC4D700A09
:101F300088828983A3A3E4F0A3F0E50BA2E092AF2B
:101F4000123934900503E004F0EE2463121E77F892
:101F5000A3E0F9E8496064EE2463121E772402F8D6
:101F6000A3E03400F988828983E5822402F50CE439
:101F70003583F50DE0F50BA3E0F50EEE2462121E9D
:101F800077640170369061D0E0F8121E7460047CB2
:101F90000480027C007480C398FA95E0FBE50B2C6A
:101FA000F8E43400F9E82402F8500109C3EA98EB98
:101FB00099A2D265D0334003021E9A900503E060D7
:101FC0004D900504E0F8900503E0C398500C7402AE
:101FD0006509703A900505E060348E828F83A3A373
:101FE000A3A3E085188285198312201E740212179C
:101FF000EDE812201E900502E028F0740212180786
:10200000AA18AB197901122FFE900503E4F0E50838
:10201000A2E092AF74041217B77F07021929F0A348
:10202000E4F0900503E0F8228521878522C622C0CE
:10203000E074EB121969A2AFE433F508C2AF759BE7
:1020400000906182E0A2E05030E591A2E0502A7554
:1020500091FE7401652170211221C2123460122197
:10206000B0121A3712267074041217B7E96401709F
:102070000579011234A8121CEE906182E0A2E550AD
:102080005DE591A2E550577591DF9003C1E06407CB
:102090006005E06408702F1221C274016521703E52
:1020A0001234601221B0121A3712267074041217FB
:1020B000B7E96401700579011234A87901EEFAEFED
:1020C000FB121E7F8018E0640D70139003E3E004A0
:1020D000F064287002E4F07A00E0F912352690618D
:1020E00082E0A2E64003022185E591A2E6400302D8
:1020F00021857591BF9003C1E064057008123448D2
:10210000123454800312344E7521001234B4E99015
:1021100003C2F079001234A81232387A017B0090A1
:1021200003C0E0F9123904907803E06442705690DD
:10213000056BE014F0704EC2AF12213C00782AD03B
:10214000E0F618D0E0F6E59F5407F87005750DFF2E
:102150008003750D7FC4C0E07829E6F50A08E655CE
:102160000DF50B740B780A12177FD0E0250AF89052
:102170006270E0A2E740F8E8C333906272F09062C8
:1021800070E0D2E0F0906181E0A2E35009E5E9A2BD
:10219000E3500375E9F7A3E0A2E75009E591A2E750
:1021A000500375917FE508A2E092AF7F080219C83D
:1021B0008E828F83E0F8A3E0C82416F582E438F518
:1021C00083229003EFE0F875F00BA4C8AAF02AF977
:1021D00074F128FE740339FF22C0E0C0D0C082C071
:1021E00083906183E0A2E05009E5BFA2E05003754F
:1021F000BFFEE0A2E15009E5BFA2E1500375BFFDBB
:10220000E0A2E25009E5BFA2E2500375BFFBE0A2E5
:10221000E35009E5BFA2E3500375BFF7E0A2E45025
:1022200009E5BFA2E4500375BFEFE0A2E55009E560
:10223000BFA2E5500375BFDFE0A2E65009E5BFA2EB
:10224000E6500375BFBFD083D082D0D0D0E032C07B
:10225000E074F2121969E5A7A2E6500FE5A1A2E623
:10226000500953A7BF75A1BF1222A3E5A7A2E5504D
:102270000CE5A1A2E5500653A7DF75A1DFE5A7A2F3
:10228000E15009E5A1A2E1500375A1FDE5A7A2E295
:10229000500CE5A1A2E2500653A7FB75A1FB7F01FC
:1022A0000219C874F712187D7521019003C1E0640A
:1022B0000670151233BE8A828B83A3A3A3A3A3A3A4
:1022C000E0FAA3E0FB123436A2AFE433FED2AF90C3
:1022D00003C7E0640170187A207B009003C0E0F926
:1022E000123A247A207B009003C0E0F912390A9058
:1022F0006182E0D2E6F0900568E0602185C6228028
:10230000169003C6E064017008E5C654F84405F56C
:10231000C653BEFC1220287401652160E4EEA2E0E1
:1023200092AF7F02021929FF8E238F248582288590
:102330008327851882851983E0CEA3E0CF85288284
:10234000852783EBC9EAC8EDCBECCA75F010C3E86A
:1023500033C8E933C9EA33CAEB33CBC3EA9EF52667
:10236000EB9FF525B35004AB25AA26EC33CCED3317
:10237000CDD5F0DAAE23AF242274E912187D74FAB9
:102380001217A1EAFEEBFF8C0A8D0B12346CEAF8EF
:10239000EBF9ECFAEDFB8E828F8312169B9003C152
:1023A000E024F7C3940550067514010224E01233AB
:1023B000BE8A088B09EA450970030224DDEEFCEFB2
:1023C000FDAA18AB19123466850882850983A3A378
:1023D000780C121659908327780C121620851882D3
:1023E00085198378101216599083277810121620B9
:1023F000780C7910121459501F780C79101215F8B6
:1024000090836F780C1214794047850C14850D1554
:10241000850E16850F17804590836F8510148511E2
:10242000158512168513177814790C1215F878147F
:10243000121479501C751400751500751600751767
:1024400001781479101215F87814790C1215BF80E0
:102450000C75140175150075160075170074097850
:10246000141215A090834B780C1216597814790C1D
:10247000121518850882850983A3A3A3A3A3A31219
:1024800024FE121716880C890DE4F50EF50F78144A
:10249000790C1215BF74041217ED1224FE121716D0
:1024A000E8FA8A0CE4F50D7814790C1214595007E7
:1024B0007814790C1215F89003C1E06408600AE002
:1024C00064066005E06405702090833F7814121460
:1024D00079501690833B78141215D2800C75140035
:1024E000751500751600751700850A82850B8378AF
:1024F0001412166874061217B77F10021929E0F833
:10250000A3E0F97AD07B032274F712187D12347E8F
:10251000900566E064017010906245E4F0A3F0530A
:10252000F4F343FE0C5390F3123424E5C654B8443C
:1025300041F5C6E59E5447644170F8906185740F7B
:10254000F0900564E0F47002A3E0604E900565E051
:10255000600814601B14602E804075080175090026
:10256000900564E0780812178EE508F45280802AFE
:10257000750801750900900564E0780812178EE56A
:1025800008F452908014750801750900900564E004
:10259000780812178EE508F452A079007F0202191C
:1025A0002974F712187DE9FEEAFF12347E74016E79
:1025B000700C7A807B009003C0E0F9123904903CE3
:1025C00098E493F46008E493F912322C800953C61E
:1025D000B8E59E544770FA12342A900566E064010B
:1025E000700312324A900564E0F47002A3E0604B7D
:1025F000900565E0600814601A14602C803D750831
:1026000001750900900564E0780812178EE508420C
:10261000808028750801750900900564E07808122B
:10262000178EE50842908013750801750900900522
:1026300064E0780812178EE50842A01233BE8A08BB
:102640008B09A808A909E8496014E5E170FCE824B1
:1026500014F582E439F583E0F46003E0F5E17401F8
:102660006F700A7A019003C0E0F912399402259C38
:1026700074F112187D8A088B098C0A8D0B908327C0
:102680007808121620740F1217ED780C1216599054
:102690008327780C1216207808790C12145990832D
:1026A0006F50107808790C1215F8780812147940D8
:1026B00014800E780C79081215F8780C12147950E1
:1026C000047901800279007F0802192974ED12183B
:1026D0007D8A088B098C0A8D0B9083277808121647
:1026E0002074131217ED780C121659908327780C6A
:1026F000121620780C790812145940117808790CB8
:102700001215F8AA08AB09AC0AAD0B8022751000AF
:102710007511007512007513017810790C1215F8F7
:10272000781079081215BFAA10AB11AC12AD137F47
:102730000C02192990832778081216598A828B83F4
:1027400078081216337F0402192974F512187D8C4B
:10275000828D8378081216598A828B837808121624
:102760000C1227A2C3E09CF0A3E09D122794402204
:1027700090833778081216598A828B83780812154D
:10278000E58A828B83A3A3A3A3E02420F0A3E034F3
:102790004EF080A0F088828983C3E09420A3E09467
:1027A0004E22EA2404F8E43BF98C828D83A3A3A390
:1027B000A3E0FCA3E0FD888289832274F512187DD2
:1027C000E9FE90051EE0FAA3E0FBEE29F8E433F9F8
:1027D000742E28F582748239F583E02AF508A3E087
:1027E0003BF5097808121A249083431216771223B6
:1027F0002874021217B78A088B098C0A8D0B741083
:102800007808121587AA08AB097F0402192974F108
:1028100012187D8A0C8B0D8C0E8D0F74111217ED12
:10282000121A3B74111217EDE02401F508A3E034ED
:1028300000F509E4F50AF50B780C79081214989064
:1028400082E77808121659780C7908121498AA0CA5
:10285000AB0DAC0EAD0F12232874021217B78B0903
:10286000EA450960047A0180027A00EC2AFCE43D22
:10287000FD74131217EDE0F8A3E0F9E8FEE9FFECB0
:10288000F8EDF97A717B0212171688088909E4F5C8
:102890000AF50B8E828F837808121668ECF8EDF932
:1028A0007A717B021217168A088B09740578081250
:1028B000178E8E828F83A3A3A3A3E508F0A3E50957
:1028C000F07F08021929C082C083E9906000F0D02F
:1028D00083D08222C0E0C0D0E8C0E0E9C0E0A9A86F
:1028E000D2AFC2C7751A00E9A2E7E433F8E9A2E75C
:1028F00092AFD0E0F9D0E0F8D0D0D0E032C2AF0251
:10290000000022C0E074F2121969A2AFE433FED2D3
:10291000AFE58AA2E55023901608E0701D9083670A
:10292000121A377A087B009015F7E0F9123A1874FA
:10293000041217B79016087401F09018BDE06401F6
:10294000702F9018BCE07029E58AA2E650239016FB
:1029500009E0701D908367121A377A007B08901582
:10296000F7E0F9123A1874041217B79016097401B7
:10297000F0758A00C2EBEEA2E092AF7F010219C8A7
:10298000C0E0C0D0E8C0E0E9C0E0C082C0839018D9
:10299000BEE4F0E5C1C0E09017BDE0F874BE28F5D4
:1029A00082E43417F583D0E0F09017BDE004F0E046
:1029B00064FA70035386BF9017BC7402F0C28BD0C8
:1029C00083D082D0E0F9D0E0F8D0D0D0E032121439
:1029D0002F8D8E0212142FA98E0212142FE18E0257
:1029E00012142F148F0212142F758F0212142FE25B
:1029F0008F0212142F1B900212142F8C90021214AB
:102A00002FBE900212142F6C920212142F7C92028D
:102A100012142F8D920212142F20930212142FE7FA
:102A2000930212142F3D940212142FA19402121437
:102A30002F55950212142F72950212142F439A02E9
:102A400012142FA69A0212142FD69A0212142F0FC4
:102A50009B0212142F299B0212142F439B02121463
:102A60002FBD9B0212142F3FCB0312142F81CB03D7
:102A700012142FEFCB0312142F57CC0312142FD79D
:102A8000CC0312142F1FCD0312142F43CD031214A5
:102A90002FD8CE0312142F0DFE0212142F5FFE0248
:102AA00012142F89FE0212142F2DFF0212142F4D23
:102AB000FF0212142F8CFF0212142FF0FF021214C7
:102AC0002F09CF0312142F1CCF0312142F4DCF0345
:102AD00012142F87CF0312142FE0CF0312142F27C5
:102AE000D00312142F6FD00312142F9ED003121490
:102AF0002FCDD00312142F04D10312142F4BD10366
:102B000012142F64D10312142FB9D10312142FD22F
:102B1000D10312142F20D20312142F5AD2031214ED
:102B20002F4EDE0212142F51DF0212142F8ADF0201
:102B300012142FADDF0212142FBFDF0212142FFD6B
:102B4000DF0212142F79E00212142F41E102121455
:102B50002F63E10212142FFAE10212142F4CE20249
:102B600012142F7DE20212142F8AE20212142FF4A3
:102B7000E20212142F4BE30212142F4EE30212143E
:102B80002F87E30212142F8AE30212142F94E30218
:102B900012142FE8E30212142F29E40212142F5CFE
:102BA000E40212142F99E40212142F9BE50212146E
:102BB0002F3FE60212142FA8E60212142FE6E602B7
:102BC00012142F5EC30312142F86C30312142FB3E3
:102BD000C30312142FEBC30312142F49C40312149E
:102BE0002F95C40312142FFCC40312142F3CC503E9
:102BF00012142F79C50312142FA7C50312142F51D5
:102C0000C60312142F5BC60312142F68C6031214D6
:102C10002F9BC60312142FA7C60312142FBFC6037F
:102C200012142FC9C60312142F36F00312142F44A6
:102C3000F00312142F5CF00312142F73F00312141C
:102C40002FA8CE0112142F52CF0112142F65D001DC
:102C500012142FE1D00112142FFFD10112142F3BB7
:102C6000D20112142FD6D20112142FBAD30112148A
:102C70002F86D40112142F14D60112142F85D601D9
:102C800012142F3FD70112142F31D80112142F71B3
:102C9000D80112142F25D90112142F57D90112145B
:102CA0002F4DDB0112142F8FDB0112142FADDB012E
:102CB00012142F13DC0112142FE2DC0112142FA6C0
:102CC000DD0112142FC5DF0112142F1FF702121499
:102CD0002F09F80212142FB4F80212142F05F9026A
:102CE00012142FB5F90212142F26FA0212142F0B08
:102CF000FB0212142F3FFB0212142F38FC02121495
:102D00002F75FC0212142F51FD0212142F90FD0298
:102D100012142FACFD0212142F77E00312142FFBB4
:102D2000E00312142F26E10312142F40E2031214C1
:102D30002F57C70312142F6DC70312142F8BC7030D
:102D400012142F9CC80312142FA6C80312142FD1DB
:102D5000C90312142FC8CA0312142F35CB0312143F
:102D60002F4D860312142F83870312142FBA870363
:102D700012142F11880312142F268A0312142F0BFA
:102D8000980112142F97980112142FFB9901121415
:102D90002F079A0112142F429A0112142FB19A018F
:102DA00012142FBA9B0112142FC39C0112142F8AE4
:102DB0009D0112142FE79E0112142F059F0112147A
:102DC0002F229F0112142FCF9F0112142F4CA0010C
:102DD00012142F74A00112142F3EA30112142F43BA
:102DE000A30112142F5CA50112142FAAA50112141D
:102DF0002F1AA60112142F58A60112142F34A7015E
:102E000012142FF4A70112142F40A80112142F43FB
:102E1000A80112142F87A80112142FCFA801121491
:102E20002F0EA90112142F30A90112142F64A90129
:102E300012142FC7A90112142F88960312142F966B
:102E4000960312142FE9960312142F0897031214F5
:102E50002F4D970312142F91980312142F2C9903BE
:102E600012142F70990312142F9A990312142F0918
:102E70009A0312142F4F9A0312142FC69A03121496
:102E80002F779B0312142F9C3C0012142FAC3C0094
:102E900012142F4D3D0012142FA93D0012142F665D
:102EA0003E0012142F823F0012142FB43F00121460
:102EB0002FE33F0012142F90410012142F074400FB
:102EC00012142F77460012142F69470012142F6234
:102ED000480012142F694A0012142F5D4D0012147D
:102EE0002F8C4E0012142F90500012142FA051005E
:102EF00012142F2F530012142F20540012142F6E6F
:102F0000540012142FDD540012142F015500121416
:102F10002F52550012142FF3590012142FF45A0097
:102F200012142F555B0012142F805B0012142F46D1
:102F30005C0012142F58BF0312142F62BF03121427
:102F40002FA7BF0312142FBBBF0312142F4BC003B4
:102F500012142F84C00312142FBFC00312142FE8C1
:102F6000C00312142F3CC10312142F51C1031214B9
:102F70002F73C10312142F88C10312142F9CC10395
:102F800012142FB1C10312142FEBC10312142F1707
:102F9000C20312142F9EC20312142FE1C203121493
:102FA0002F0BC30312142F36C30312142F37EC0355
:102FB00012142F81C00212142F64C10212142FDFC9
:102FC000C10212142F1AC20212142F6BC302121460
:102FD0002FF9C30212142F8BC60212142F3DC70201
:102FE00012142F49C80212142FBCC90212142F1533
:102FF000CA0212142FC6B60312142F09B7031214F3
:103000002F8DB70312142F64BA0312142F03DC039D
:1030100012142FB5DC0312142FB1DD0312142FF09C
:10302000DD0312142F4ADE0312142F6FE203121471
:103030002FD2E20312142F6FE30312142FA4E30321
:1030400012142FD4E30312142F0FE40312142F2FA2
:10305000E40312142F899B0312142F159C031214DE
:103060002FD49C0312142FEC9D0312142F06A003DF
:1030700012142FEDA90212142F12AA0212142FDF1C
:10308000AA0212142FB3AB0212142F20AC02121496
:103090002F60AC0212142FFCAC0212142F30AE02BF
:1030A00012142F0BAF0212142F6AAF0212142FF654
:1030B000AF0212142F64B00212142FF0B0021214D7
:1030C0002F36B10212142FA8B10212142F3AB202F5
:1030D00012142FDBB20212142FFBB20212142F4370
:1030E000B30212142F8CB30212142FA8B3021214BD
:1030F0002FCEB30212142F48B40212142F56B4026A
:1031000012142FE5B40212142F4EB50212142F3DE3
:10311000A00312142FC2A00312142F04A10312142F
:103120002FE8A10312142F55A20312142F99A20302
:1031300012142FDDA20312142F0AA30312142F322C
:10314000A30312142F6AA30312142FA8A3031214AB
:103150002FCFA30312142F49A40312142F93A403F7
:1031600012142FD2DF0112142F71E10112142FA9B2
:10317000E30112142FFDE30112142F28E4011214AD
:103180002F04E50112142F34E50112142F63E50119
:1031900012142F76E50112142FB7E50112142FE453
:1031A000E50112142F32E60112142F6EE6011214FB
:1031B0002FB3E60112142F00E70112142F7AE70152
:1031C00012142FBBE90112142FA5EB0112142FE1E9
:1031D000EB0112142F70ED0112142FB5ED01121432
:1031E0002F28EE0112142F7DEE0112142F82EE0112
:1031F00012142F0EEF0112142F2DF00112142F3E76
:10320000F00112142FAFD40212142F28D502121479
:103210002FE2DA0212142FEDDB0212142F96DD02D8
:1032200012142F24DE0212142FF8830112142F79A6
:10323000840112142FA6840112142FEF840112149A
:103240002FF0850112142F49860112142FC5870112
:1032500012142F47880112142F62880112142FD3E1
:10326000880112142F90890112142F538A0112140D
:103270002FE18A0112142F988B0112142FAB8B01AE
:1032800012142F448C0112142FDB8C0112142F0204
:103290008D0112142F6B8D0112142FB58D01121494
:1032A0002F038E0112142FA88E0112142F468F01A6
:1032B00012142FD38F0112142F44900112142F8B4C
:1032C000900112142FE3900112142F159101121482
:1032D0002FCF910112142FD6920112142F1F930198
:1032E00012142F3C930112142F5B930112142F8E92
:1032F000940112142F45950112142F6A950112148E
:103300002F7F950112142FEF950112142F30960183
:1033100012142F54970112142FD5970112142FBE97
:10332000CA0212142F09CB0212142F15CB02121449
:103330002FE9CB0212142F00CC0212142F3DCC0225
:1033400012142F6ECC0212142F9FCC0212142FD7FE
:10335000CC0212142F2DCD0212142F43CD021214C1
:103360002F7FCD0212142F92CD0212142FB9CD024D
:1033700012142FEDCD0212142F13CF0212142F5D51
:10338000D00212142F59D10212142F76D202121425
:103390002FF9FF0112142F61F00112142F9CF0017C
:1033A00012142FEEF30112142F4AF50112142F09F3
:1033B000F60112142F70F90112142F5AFA01121487
:1033C0002FA6FA0112142FC0FA0112142FFDFA01D0
:1033D00012142F08FB0112142F47FB0112142F5057
:1033E000FB0112142FFAFB0112142FD1FC0112144D
:1033F0002F25FD0112142F82FD0112142FF4FD015F
:1034000012142F9FAA0112142FFEAD0112142F04C3
:10341000AE0112142F35B50112142F3CB90112144C
:103420002FC2D20312142F58D30312142F6ED303BA
:1034300012142FC7D30312142F0BD40312142F45C9
:10344000D40312142FDDD40312142F4CD5031214FD
:103450002F55D50312142F61D50312142F7BD503DA
:1034600012142FA5D50312142FBAD50312142F1C32
:10347000D60312142F43D60312142F16BB031214B3
:103480002F23BB0312142F3DBB0312142F70BB0359
:1034900012142FAEBB0312142F13BC0312142F28C7
:1034A000BC0312142F33BC0312142F40BC0312149C
:1034B0002F57BC0312142F65BC0312142F70BC03CA
:1034C00012142F7CBC0312142F8BBC0312142F96E2
:1034D000BC0312142FB9BC0312142F5DBD031214C8
:1034E0002F6DBD0312142F87BD0312142FA4BD032B
:1034F00012142FBFBD0312142FE4BD0312142FEFBB
:10350000BD0312142F04BE0312142F18BE0312148D
:103510002F79BE0312142F7FBE0312142F85BE0312
:1035200012142F8BBE0312142FA3BE0312142FD616
:10353000BE0312142F6A9C0212142F019D02121452
:103540002F999D0212142F899E0212142FC09E02E1
:1035500012142FD39E0212142F419F0212142FDC3B
:10356000A00212142F03A10212142FA5A1021214FB
:103570002FDAA10212142FEBA10212142F64A2025F
:1035800012142F85A20212142F9DA20212142FF5DD
:10359000A30212142FFEA50212142F4EA802121419
:1035A0002F51A90212142FA0A90212142F00800279
:1035B00012142FFD800212142FE8810212142FF230
:1035C000810212142F14820212142F20820212146C
:1035D0002F72830212142FA1830212142FD184029E
:1035E00012142F13850212142F3F860212142F1566
:1035F000870212142F67870212142FC68702121433
:103600002FFD870212142F38880212142FD38B0239
:1036100012142FEC8B0212142F6E8C0212142F7CBA
:103620008C0212142FD18C0212142FDF8C02121470
:103630002F4C8D0212142FBE8D0212142F048E02F5
:1036400012142F71B50212142F93B50212142F7D8C
:10365000B70212142F22BB0212142F65BC021214DF
:103660002F3FBD0212142F0BE60312142F30E60376
:1036700012142FA1E60312142F0CE70212142F15B7
:10368000E70212142F1EE70212142F4FE802121441
:103690002F6EEA0212142FA4EA0212142FDEEA029D
:1036A00012142F14EB0212142F4EEB0212142F825D
:1036B000EB0212142FAEEB0212142FF7EB021214CE
:1036C0002F31EC0212142F79EC0212142FCFEC02DE
:1036D00012142F04ED0212142F5FED0212142F9911
:1036E000ED0212142FEAED0212142F20EE02121432
:1036F0002F5AEE0212142F88EE0212142FABEE0294
:1037000012142FC2F10312142FEEF10312142F49D9
:10371000F20312142F53F20312142F63F203121444
:103720002F71D60312142F98D60312142FC2D6036A
:1037300012142FD1F30312142FB25C0012142F1A9B
:103740005F0012142FCD600012142F2A6100121492
:103750002F27620012142FB7620012142F3C63004F
:1037600012142F61630012142F59660012142FCF08
:10377000660012142FC0670012142FFA670012148B
:103780002F3A680012142FE0690012142F356A00D6
:1037900012142F826A0012142FF06A0012142F17CD
:1037A0006B0012142F316B0012142F476C0012148F
:1037B0002F576C0012142FE36D0012142F056E00AA
:1037C00012142F3B6E0012142FE96F0012142F28D1
:1037D000700012142F5A710012142F66A9031214CC
:1037E0002FBEA90312142F06AB0312142F75AB03BF
:1037F00012142F24AC0312142F43AC0312142F976E
:10380000AC0312142FD5AC0312142F03F1031214BE
:103810002F14F10312142FB7F10312142F1BF4030A
:1038200012142F5AF40312142FC8F40312142FD4B5
:10383000F40312142FD9F40312142FE67F0012148C
:103840002F43FF0112142F53FF0112142F62FF01A7
:1038500012142FF3FF0112142F53EE0312142FD75B
:10386000EE0312142F3DEF0312142FF4EA03121487
:103870002F28EB0312142F51EB0312142FC8EB0364
:1038800012142FF87F0012142F3DE40312142FA7F7
:10389000E50312142F08E60312142F56EF03121437
:1038A0002FF6EF0312142F08F00312142FED8B03E1
:1038B00012142FF78B0312142F378C0312142F803E
:1038C0008C0312142FBA8C0312142F108D031214B0
:1038D0002F2F8D0312142F388D0312142F898D036F
:1038E00012142FB28D0312142FC78D0312142F3709
:1038F0008E0312142FC58E0312142F098F03121476
:103900002F318F0312142FB08F0312142FF38F0354
:1039100012142F30900312142F42900312142F61AF
:10392000900312142F8A900312142F54910312142F
:103930002FC1E70312142F12E80312142F9BE80380
:1039400012142F01E90312142F3FD90312142F6907
:10395000D90312142F63DA0312142F92DA0312140C
:103960002F18DB0312142F4BED0312142F42EE031A
:1039700012142F75DE0312142FABDE0312142FE482
:10398000DE0312142F3DE00312142F6DF203121404
:103990002F83F20312142F8DF20312142FE3F2037C
:1039A00012142F14F30312142F39EF0212142FF6EE
:1039B000EF0212142F31F00212142F59F0021214D8
:1039C0002FBBF00212142F07F10212142F67F1021D
:1039D00012142FF8F10212142FF4F20212142F8194
:1039E000F40212142F04F50212142F68F5021214B7
:1039F0002F7FF50212142F75F60212142FC1F60252
:103A000012142FF0AD0312142F05AE0312142FB5AC
:103A1000AE0312142FF5AE0312142F0EAF031214BF
:103A20002F41AF0312142F8EAF0312142FC2AF0316
:103A300012142F04B00312142F0BB20312142F7F91
:103A4000710012142F36750012142FC8760012144C
:103A50002F1F770012142F3E770012142FBC77000F
:103A600012142F4E790012142F327A0012142F43A1
:103A70007E0012142F177F0012142F0080031214DF
:103A80002F51800312142F56820312142F21840306
:103A900012142FD9840312142FF9840312142F6ADD
:103AA000850312142F1A860312142FD3A4031214A1
:103AB0002F7FA50312142F9CA50312142FDFA6033A
:103AC00012142F7EA70312142F66A80312142F803E
:103AD000910312142FA7910312142FD291031214E1
:103AE0002F54920312142F86920312142FB39203B1
:103AF00012142FBC920312142FBE920312142FC063
:103B0000920312142FC2920312142F08930312145B
:103B10002F1B930312142F8A930312142F0A94035A
:103B200012142F2F940312142F82940312142FD2E5
:103B3000940312142F29950312142F4A950312147B
:103B40002F47960312142F54960312142F749603C2
:103B500012142FC1BC0112142F34BD0112142F9E58
:103B6000BD0112142FD3BD0112142FE2BD01121496
:103B70002F99BE0112142FCABE0112142FDEBE01EE
:103B800012142F67BF0112142FA6BF0112142FF0B9
:103B9000BF0112142F06C00112142F37C0011214D6
:103BA0002F4AC00112142F5DC00112142FDCC00176
:103BB00012142FE3C00112142F02C20112142F4855
:103BC000C20112142F5AC20112142F91C2011214F1
:103BD0002FACC20112142FCDC20112142FE1C30168
:103BE00012142F03C40112142F62C40112142F7572
:103BF000C40112142F8FC40112142FB2C401121465
:103C00002F2AC50112142FE3C60112142F31C70148
:103C100012142FAFC70112142FB3C80112142F09A9
:103C2000C90112142FE3CA0112142F17CB01121469
:103C30002F3BCB0112142F64CB0112142FF1CB01B7
:103C400012142F02CC0112142FC4CC0112142F977E
:103C5000CE0112142F5FE90312142FAFE9031214DF
:103C60002F11EA0312142F20EA0312142F3AEA0349
:103C700012142F83EA0312142F64F40312142FBAC0
:103C80007F0012142F71B20312142F69B60312149D
:103C90002FAAF403FFFFFFFFFFFFFFFFC082C083D7
:103CA000E9901984F0D083D08202142C74F6121893
:103CB00011E9900333F0900393E0F508750900745F
:103CC00002780812178EAA08AB0912397C900334C7
:103CD00012465F900334124A4C606F900393E07574
:103CE000F003A4FAABF012397C90035112465F90B6
:103CF0000351124A4C700B900334124A1D12398240
:103D000080489003511259B17AFF7BFF1237D87A5D
:103D10000080198A087509007402780812178E123B
:103D2000545974FF123E5FE4F0A3F00A900393E04D
:103D3000F8EAC39840DD7905122E9C900333E0F930
:103D4000122D887A267B2F1231120254FC74F41241
:103D500018118A088B09EB54806047900333E0F90F
:103D60001238EC8A0A8B0BAE0AAF0BEE4F602A8E2C
:103D7000828F83E064B0701A122EAEE960148E82D6
:103D80008F83A3A3A3A3E0F9EE2405FAE43FFB127B
:103D90002E7EEEFAEFFB1238DAAA08E5096480FB02
:103DA00080047A007B00023FAF74F212181174FB9A
:103DB0001217A1EAFEEBFFEE4F604574031217EDF8
:103DC000EEF0A3EFF0851882851983ECF0A3EDF0F7
:103DD00074021217EDE9F0AA18AB19122D82E9F559
:103DE00008707574131217EDE0F50AA3E0F50BE502
:103DF0000A450B60638E828F831243E8EE4F700595
:103E000075080280537A067B0012397C8A0C8B0D70
:103E1000A80CA90DE8497005750813803B888289B4
:103E200083E4123E5FEEF0A3EF123F7BE50AF0A3BE
:103E3000E50BF0900337123F749003376017E0FCF6
:103E4000A3E08003EAFCEBFD8C828D83123F74704B
:103E5000F38C828D83125074A9087405025C31F0D2
:103E6000A3125993A32274F21218118908890C75B0
:103E70000D007403780C12178E850C0A850D0B90BB
:103E80000336F0900334124E7F123F72602E1239C7
:103E9000827900801D890C750D007402780C121750
:103EA0008E9003341253188882F583A3A3E4F0A301
:103EB000F009900393E0F8E9C39840D9900393E0A8
:103EC000FA850AF0A4CAA8F0850BF0A428FB1239E1
:103ED0007C8A0C8B0DAE0CAF0DEE4F7003023F6869
:103EE000900393E0FC850AF0A4CCA8F0850BF0A425
:103EF00028FD79001238C87C0080318D0C750D00CA
:103F00007403780C12178E8A828B83123F6D88821D
:103F10008983E4F0123F7AA3A3F0A3F00DEDC395DB
:103F20000840D8EE250AFEEF350BFF0C900393E016
:103F3000F8ECC39850288C0C750D007402780C12A4
:103F4000178E900334123F6DE82402500109FAE9FC
:103F5000FB8A828B83EEF0A3EFF07D0080BFE50843
:103F6000900336F0790080027913025C3412531CFE
:103F7000F922A3A3124A21EA4B22A3125993A3A325
:103F8000A32274F41218117900EAA2E0501F7508F8
:103F9000DB7509827808121A2479107C047D007A76
:103FA000867B19122E9674021217B7E9F980007FEA
:103FB000040218E3C082C083900337124A4C601C8D
:103FC00088828983A3A3E06A7003A3E06B88828957
:103FD0008370E8A3A3A3A3124A1D80047A007B0088
:103FE000023CA574F212181174FD1217A1EAFEEB3F
:103FF000FF851882851983E4F0A3F074021217ED8F
:104000007401F0124A49701412304C12397C90033A
:104010003A12465F124A49700302417512475FEE39
:104020002404F50AE43FF50B850A82F583E024FEBB
:10403000603C24FC607424FE607E24FE7003024019
:10404000C524FE70030240D224FE70030240DF2428
:10405000FE70030240EC24FE70030240F924FC7061
:104060000302411A24FE700302413202416E1230F3
:104070004C90033CEAF0A3EB124181122ACAE9609A
:104080000302416E90033C121A3B8E828F83A3A3DE
:10409000A3A3A31259B1850882850983124A1D1270
:1040A0002E6674021217B702416EAC18AD19EEFA03
:1040B000EFFB122EB402413DAC18AD19EEFAEFFB46
:1040C000122EBA8078AC18AD19EEFAEFFB122EC0A2
:1040D000806BAC18AD19EEFAEFFB122EC6805EAC09
:1040E00018AD19EEFAEFFB122ECC8051AC18AD19B9
:1040F000EEFAEFFB122ED2804474021217F7880CEE
:10410000890D780C121A247402121807EEFAEFFBCC
:10411000122ED874021217B78023AC18AD19EEFA1C
:10412000EFFB122EDEE9F8701674021217EDE4F0C0
:10413000803CAC18AD19EEFAEFFB122EE4E9F8E87A
:10414000602C8E828F83A3E064146022850A8285AE
:104150000B83E090033CF0851882851983124A1D79
:1041600090033D12465FE8A3124181122AC4EEFA81
:10417000EFFB122E3C74021217EDE0F97403025C9F
:1041800031F07C3C7D03850882850983124A212217
:1041900074E812181174FA1217A174041217EDECD6
:1041A000F0A3EDF08A128B13EA2405F50EE4351323
:1041B000F50FEA2402F510E43513F511851082F5A8
:1041C00083124A1D122BBA8A0A8B0B7508007C03D6
:1041D0007D0079007A3C7B031238C8E50E2402F595
:1041E00016E4350FF51774021217F7880C890D784D
:1041F0000C121A24850E82850F83A3A3A3A3E0F5D6
:104200000C750D00780C121A24E50E2405F50CE44B
:10421000350FF50D780C121A248516828517831236
:104220004D24122DA074061217B78A0C8B0DE50CC5
:10423000450D70030243B18020851882851983E003
:1042400088828983F00508851882851983A3E0C0D8
:10425000E01243F2D0E0F00508E50A24FBFAE50B92
:1042600034FFFBC3E5089AE49B40030243B17E00A0
:104270007F00851282851383A3A3A3A3E0F50978A9
:1042800009121A28E4F514F5157814121A24751475
:10429000397515037814121A2490033A121A3B74D4
:1042A000091217ED121A3BE50A24F9F9AC0CAD0D11
:1042B000851082851183124A1D122F0E7409121760
:1042C000B7E96003024352850E82850F83A3A3A33F
:1042D000A3A3A3A3E0F8900339E0687075E0F51498
:1042E0008E157814121A241259AE850E82850F830A
:1042F000A3A3A3A3A3A3A3A3124A1D1238C27402AB
:104300001217B7E9604C90033D124A4C703BE4F53C
:10431000147814121A247CFF7DFF7907851082859A
:104320001183124A1D122E7874021217B7124A52C4
:104330007017850E82850F83125B4B74041217ED84
:1043400012540C124D550243E5850C82850D8312E3
:1043500043E8A818A919881489157814121A247426
:10436000041217ED121A3B851682851783124655E3
:10437000122DAC74041217B78A0C8B0DEE4F70031C
:1043800002422E1243F2EE1243FD124D0BEF124386
:10439000FDF8A3E03400F9E50C450D600302423955
:1043A0008882898374FFF005081243F274FFF005D8
:1043B00008E508601A1313543F124665122AD6E91D
:1043C000600990033D124A1D123934790080168528
:1043D0000E82850F83125B4B74041217ED12540C7E
:1043E000125074790A024CDEA3A3A3A3E0FEA3E05B
:1043F000FF22A80890033DE028124D0B22F005088B
:104400000890033DE0282274E812181174FA12177C
:10441000A174021217ED12465F74041217EDECF04E
:10442000A3EDF074021217EDE02405124CF4E0F550
:104430000CA3E0F50D74021217EDE02402F510A3B1
:10444000E03400F511851082F583124A1D122BBA53
:10445000750800750900EA24FCFEEB34FFFF8008B4
:10446000050CE50C7002050DA808C3EE98EF94004A
:104470005003024611A818A919880E890F780E1248
:104480001A24851482851583A3A3A3A31259B512F8
:104490001A24E5142405F50EE43515F50F780E12EF
:1044A0001A24851482851583124653122DA0740692
:1044B0001217B78A0E8B0FEA450F7003024611EAF6
:1044C0002404F516E4350FF517851682F583E0F51B
:1044D0000CA3E0F50D8518828519831259B18A82E3
:1044E0008B83A3A3A3E0F9851082851183124A1D53
:1044F000122D8EE9F509600302461174021217EDC0
:10450000124D1BF5097809121A28E4F512F51378F3
:1045100012121A247512397513037812121A249084
:10452000033A121A3B74071217ED121A3BEEF9AC5C
:104530000EAD0F851082851183124A1D122F0E7445
:10454000091217B7E9F5096003024611E508703F43
:10455000E4F50EF50F780E121A247CFF7DFF790921
:10456000851082851183124A1D122E78740212174B
:10457000B7124D41700D74041217ED1246487911AF
:10458000024645900339E0240290033DF0801490E8
:10459000033DE0FA900339E0790024025001096AF2
:1045A000497072A808900339E0FAE82AFAE4340066
:1045B000FBEE9AEF9B405A851682851783E0C0E098
:1045C00090033E1243F7D0E0F00508851682851768
:1045D00083A3E0C0E00890033E1243F7D0E0F0056B
:1045E000089003391259B5121A241259AEA80812AC
:1045F0004CE81238B074021217B7900339E025085E
:10460000F50874FF650C700474FF650D60030244C7
:1046100060E508601F90033DE0F5F0E50884124670
:1046200065122ADCE9600990033E124A1D123934F2
:1046300079008011E509700375090A74041217EDF9
:10464000124648A909024CDE124E83E50CF0A3E5A0
:104650000DF022A3A3125C40AA0CAB0D22A3A3EA87
:10466000F0A3EBF02290033CF07C3C7D03851082AC
:10467000851183124A212274EC12181174FC12174E
:10468000A11251847402121807124A17122DA68A19
:104690000C8B0DEA450D700302474F12475FA818B7
:1046A000A919881089117810121A247CFF7DFF79CE
:1046B0000B850882850983124A1D122E7874021216
:1046C00017B7124855700C850A82850B83124D521C
:1046D00002475C8E828F83A3A3A3A3E0F512781216
:1046E000121A28E4F512F5137812121A2475123CE6
:1046F0007513037812121A247810121A24740912EE
:1047000017ED121A3B74091217EDE0F9AC0CAD0D60
:10471000850882850983124A1D122F0E740912170B
:10472000B7E9FE70157C3C7D0385088285098312FC
:104730004A1D122AE2E97009802074166E70027E0A
:104740000090033D124A1D123934EE7004800B7E36
:1047500001850A82850B83125071EEF9025086EEB4
:104760002402F508E43FF5092274EC12181174FCD8
:104770001217A1EAFEEBFF8C0E8D0FEE2405F50853
:10478000E43FF5097402121807850882850983122F
:104790004A1D122DA68A0C8B0DEA450D70030248A6
:1047A00045EE2402F50AE43FF50BA818A919881074
:1047B00089117810121A247CFF7DFF790D124A1797
:1047C000122E7874021217B7124855700B850882A2
:1047D000850983124D52807A8E828F83A3A3A3A36F
:1047E000E0F5127812121A28850882850983A3A39E
:1047F000121A3B75123C7513037812121A247810A2
:10480000121A2474091217ED121A3B74091217EDCB
:10481000E0F9124A13122F0E74091217B7E9FE704D
:104820000F7C3C7D03124A17122AE8E970098020A8
:1048300074166E70027E0090033D124A1D123934C8
:10484000EE7004800B7E0185088285098312507109
:10485000EEF9025086124A5CF510A3E0F511EA4524
:10486000112274E812181174FE1217A18A168B1700
:104870008C148D15EA2405F50CE43517F50DEA24A2
:1048800002F50EE43517F50F850E82F583124A1DE9
:10489000122BBA8A088B09750B007C037D00790006
:1048A0007A3C7B031238C8750A00E50814F5100439
:1048B00024FFF508E50934FFF509805490033CE036
:1048C000FA900339E0F8EA28F8E43400F9E50898AA
:1048D000E50999500D90033CE0F8E510C39890036A
:1048E00039F0E0F5127513007812121A241259AE3D
:1048F00090033DE02AFAA3E03400FB1238B07402C2
:104900001217B7900339E0F890033CE028F0050A4D
:10491000850C82850D83A3A312532840030249F816
:1049200090033CE0C39508E4950940030249F8AEC2
:104930000AEE2EFEE433FF124A37AC18AD191259B5
:10494000C9E439FB122DA68A128B13AC12AD13ECFD
:104950004D701B750B01124A2712507590033D12C2
:104960003F746003123934A90B7402024CE08516BF
:1049700082851783A3A3A3A3E0F50B780B121A2853
:10498000E4F512F5137812121A247512397513030F
:104990007812121A2490033A121A3B74071217ED78
:1049A000121A3BA910850E82850F83124A1D122F01
:1049B0000E74091217B7E9F50B709B90033D124A6C
:1049C0004C60030248BCE4F512F5137812121A2465
:1049D0007CFF7DFF790F850E82850F83124A1D12A1
:1049E0002E7874021217B7124A5260030248BC12A2
:1049F0004A27124D560249697C3C7D03850E82850B
:104A00000F83124A1D122AEEE9600302495C790005
:104A1000024969AC0CAD0D850A82850B83124A21CF
:104A200022E0FAA3E0FB22124A37E0FAA3E0F9EA17
:104A300085148285158322850C82850D83E02EF8EE
:104A4000A3E03FF9888289832290033A125B4FE802
:104A50004922124A5CF8A3E0F9E8492290033DEAB2
:104A6000F0A3EBF090033DE02274E812181174FA01
:104A70001217A174041217ED12465F8C168D17746D
:104A8000041217EDE02405F50EA3E03400F50F74D1
:104A9000041217EDE02402124CF4124A1D122BBA34
:104AA0008A0A8B0B7F007E00A818A919880889093B
:104AB0007808121A24850E82850F83A3A3A3A3E08E
:104AC000F5088E097808121A24E50E2405F508E485
:104AD000350FF5097808121A24850E82850F83A3F5
:104AE000A3124D24122DA074061217B78A0C8B0D39
:104AF0008029124D15F00F124D15F00F9003391249
:104B00005060121A241259AEEFF8124CE81238B065
:104B100074021217B7900339E02FFFE50C450D70B2
:104B200003024BA4851882851983125196A3A3A36F
:104B3000E0F9851482851583124A1D122D8EE9FE37
:104B4000E50C2404F510E4350DF511EE70507404F5
:104B50001217ED124D1BF5087808121A28E4F50813
:104B6000F5097808121A24750839750903780812AE
:104B70001A2490033A121A3B74071217ED121A3BCB
:104B8000E50A24FAF9AC0CAD0D8514828515831263
:104B90004A1D122F0E74091217B7E9FE6039124D23
:104BA00031125074EF7003024CCB90033DE0F5F0EE
:104BB000EF8490033CF07C3C7D0385148285158353
:104BC000124A1D122AF4E9600990033E124A1D128E
:104BD00039347900024CDE8F08EF703BE4F512F5B2
:104BE000137812121A247CFF7DFF791185148285B7
:104BF0001583124A1D122E7874021217B7124D41F6
:104C00007009124D31124D55024CDE900339E024EB
:104C10000490033DF08035900339E0F890033DE0C7
:104C2000FAE82404FCE43400FDEC6A4D6003024B16
:104C3000AAE50A24FAFAE50B34FFFBE50828F8E4B4
:104C40003400F9EA98EB995003024BAA851082854B
:104C50001183E0C0E090033EE02FF8A3E034008829
:104C600082F583D0E0F00F851082851183A3E0C028
:104C7000E0124D02D0E0F00F74021217F788088995
:104C8000097808121A2474021217ED121A3B850EC5
:104C900082850F83124653122DAC74041217B78A03
:104CA0000C8B0DEA450D7003024AF274021217EDE7
:104CB000E0C0E0124D02D0E0F00F74021217EDA335
:104CC000E0C0E0124D02D0E0024AFAEE70027E0A25
:104CD000850E82850F83124D37125074EEF97406DB
:104CE0001217B77F100218E390033EE028FAA3E002
:104CF0003400FB22F514A3E03400F515851482F589
:104D00008322124D062290033EE02FFAA3E03400E6
:104D10008A82F58322124D0674FF22124E83A3A3CA
:104D2000A3A3E022125C40850E82850F83124A21E4
:104D300022851082851183125B4F85168285178329
:104D40002290033EEAF0A3EBF090033E125B4FE8A3
:104D5000492212507AE8F0A3E9F079112274EA129C
:104D6000181174FE1217A18A088B098C128D13EA90
:104D70002405FEE43509FFAC18AD198E828F83122D
:104D80004A1D122DA68A0C8B0DEE2406F50EE43F6B
:104D9000F50FEA450D7003024E55E5082402F50AA9
:104DA000E43509F50B8A828B83A3A3A3E0A2E55027
:104DB00028851882851983124A1D122F028A108BAA
:104DC00011EA451160207912124A1385108285116B
:104DD0008312180FE9F50C707F850E82850F83E032
:104DE000600979528011750C0E806D8508828509E5
:104DF00083A3A3A3A3E0F9E4F508F5097808121A40
:104E0000248E828F83A3A3E0F5087808121A248EDB
:104E1000828F83A3A3A3121A3B8E828F831259B170
:104E2000124A17122F1474061217B7E9F50C7011F5
:104E3000850E82850F83E0702D124A17122AFA80A0
:104E4000257416650C7011750C0074181217ED128C
:104E50004E7FE48010750C01125B4785128285132A
:104E600083E8F0A3E9F0850E82850F83E060047982
:104E7000008002A90C74021217B77F0E0218E31209
:104E80004E8322E0F8A3E0F58388822274EC1218A6
:104E90001174F71217A18A0A8B0B8C108D11EA245A
:104EA00005FEE4350BFF750C00AC18AD198E828F32
:104EB00083124A1D122DA68A088B09EA4509700340
:104EC00002504BE50A2402F50A5002050B8A828B38
:104ED00083A3A3A3E0A2E5502F851882851983122E
:104EE0004A1D122F028A0C8B0DEA450D604F791274
:104EF000AC08AD09124A17850C82850D8312180F74
:104F0000E9F50C600302504E850A82850B83E0F5BB
:104F100008A3E0F509AA08FB122EF6EA4B70197AED
:104F2000FF7BFF122EF6EA4B70030250418A828B00
:104F300083E508F0A3E509F07508008008750C0EFC
:104F400002504E0508900336E0F8E508C398400388
:104F500002504185080E750F007403780E12178EEB
:104F60008A828B83A3A3E0250EF8A3E0350F1254A9
:104F70001570D08E828F8312506912465F8E828F99
:104F800083A3A312506912465DEE2404F508E43FA2
:104F9000F509850882F583E088828983A3A3A3A30A
:104FA000F0A3E4F0EE2405F50EE43FF50F850E8244
:104FB000F583125069A3A3A3A312465D751207756A
:104FC00013007812121A24EEFCEFFD74041217FF7E
:104FD0001238B074021217B7E4F5127812121A24BC
:104FE000850882850983E0FC7D007917124A171233
:104FF0002E7874021217B774071217ED12465F74F9
:10500000071217EDE0FA4B603D850882850983128F
:105010005060121A24850E82850F831259B11238FE
:10502000B074021217B77402121807124A17122B23
:1050300000E9602674071217ED124A1D12393480F8
:1050400019750C098008750C118003750C01125B31
:1050500047851082851183125074A90C7409802829
:10506000E0F508750900780822124A2188828983B0
:105070002212507AE8F0A3E9F022E0F8A3E0F985E3
:105080000E82850F832274041217B77F0C0218E377
:1050900074EC121811125184751000EE2402F50CF4
:1050A000E43FF50D850C82F583124A1D122EF68A17
:1050B000088B09EA45097003025168850A82850B4D
:1050C00083E06401600302515DAC08AD09AA0AAB3C
:1050D0000B122EEAE9606E8508828509831243EA85
:1050E000EE2406F50AE43FF50B8E828F83A3A3120C
:1050F0001A3B8E828F83A3A3A3A3121A3B850A8235
:10510000850B83121A3B79188E828F831251961267
:105110004A1D122F1474061217B7E9F87416687036
:105120000B850A82850B83E4F0A38014E860128E5D
:10513000828F83124A1D850E82850F83EAF0A3EBCE
:10514000F088108018780E121A24AC08AD09EEFA17
:10515000EFFB122EF074021217B7E9F510AA08AB94
:1051600009122EFCE510700E850C82850D83124A03
:105170001D122B068009741665107003751000A9A6
:105180001002508BEAFEEBFF8C0E8D0FEE2405F51E
:105190000AE43FF50B22125C40850C82850D8322C8
:1051A00074EA1218117508007509007E007F0075F9
:1051B0000A00EC2402F510E43DF5118035EC650899
:1051C0007003ED6509600302525588828983A3A3A9
:1051D000E06A7003A3E06B707C88828983A3A3A339
:1051E000A3125B4BEE28FEEF39FFEA28FAEB39FBFE
:1051F000050A125325503A850A0C750D0074037880
:105200000C12178E851082851183125318125415B3
:10521000601FE508450970A58C088D09888289837F
:105220001243E888828983A3A3E02EFAA3E03F809B
:10523000BEE50AC3940250030253137508007509B2
:1052400000EE4F6010EEFAEFFB12392E8A0E8B0F34
:10525000EA450F70057900025315750B000252E8FC
:10526000850B0C750D007403780C12178E85108257
:10527000851183E0250CF50CA3E0350DF50DE50C4B
:105280002406F514E4350DF515851482F5831254C2
:105290001A6042E50C2404F512E4350DF51385126D
:1052A00082F583121A3BE50E2508FAE50F3509FB56
:1052B0001238B074021217B7851282851383E02565
:1052C00008F508A3E03509F50985148285158312D0
:1052D0004A1D123934E50B600D7C087D007900AA67
:1052E0000CAB0D1238C8050BE50BC3950A50030231
:1052F0005260851082851183125B4B88828983A35B
:10530000A3A3A3A3A3E50EF0A3E50F123F7BEEF04A
:10531000A3EFF07901024E7A12531C22E0250CF81B
:10532000A3E0350D22900336E0F8E50AC398227415
:10533000F01218118A0E8B0F8C0A8D0B750D0075EB
:105340000C0080507916EE2406F508E43FF5098E2E
:10535000828F83A3A3121A3B8E828F83A3A3A3A35E
:10536000121A3B850882850983121A3B850E8285B5
:105370000F83A3A3124A1D122F1474061217B7E944
:10538000F50D7416650D706C850882850983E4F04F
:10539000A3F0050C900336E0F8E50CC3985066AA1C
:1053A0000C8A087509007403780812178E850A8222
:1053B000850B83A3A3125464E8FEE9FF8E828F83DA
:1053C00012541A6040EA2401F508E43400F509900B
:1053D0000336E065087002E509601488828983A3BA
:1053E000A3A3A3A3A3A3A3124A4C6003025344792B
:1053F00018025346E9609B125B4774101217ED12B6
:10540000540C125074A90D7F080218E3E0FAA3E0CF
:10541000F5838A8222F988828983125C40EC4D22CE
:1054200074F61218117C0080010C900393E0F8ECE4
:10543000C398501E8C087509007402780812178EE4
:10544000125459E06A7003A3E06B70DDE8FAE9FBDF
:1054500080047A007B000254FC9003341254648868
:1054600082898322E02508F8A3E03509F92274F245
:105470001218118A088B09750A0080278E828F8383
:10548000A3A3A3A3123F7260031239347C087D00EA
:105490007900EEFAEFFB1238C88E828F83E4F0A316
:1054A000F0050A1253255027850A0C750D00740368
:1054B000780C12178E850882850983A3A3E0250C3A
:1054C000FEA3E0350DFF8E828F83124A4C70AD85AE
:1054D000088285098374FFF0A3F0025C3474F6122D
:1054E0001811122EA88A828B83E582458370067A72
:1054F000007B008007A3A3A3A3124A1D7F0202180A
:10550000E374F412181189088C828D83E0640270B0
:105510003C125AEAFEA3E0F9EEF8740268700374D4
:1055200029697029750A02750B00780A121A247409
:10553000101217ED121A3B74101217ED121A3BA934
:10554000081237EA74061217B7E9F98002790102E6
:105550003FAF74E812181174FB1217A1E985188285
:10556000851983F08A168B17ECFEEDFF7510008EFF
:10557000828F83A3A3A3E0A2E4502D741D1217ED24
:10558000124A1D122F028A828B83E58245837003A3
:10559000025989790AEEFCEFFDAA16AB1712180F13
:1055A000E9F510600302598C741F1217EDE0F5083D
:1055B000A3E0F50974211217EDE0F50AA3E0F50B5D
:1055C00074231217EDE0F50EA3E0F50F8E828F83A2
:1055D000E06402600302592AA3125B4B85088285AE
:1055E0000983A3858212858313EE2406F50CE43F1C
:1055F000F50D888289831259C9F514E439F51578B7
:1056000014121AAE0100002801282C5607000228A7
:10561000F15603285F560029205801294B580229CA
:10562000EC57032920580429C4582A59E50E450F80
:105630006003025925850C82850D83125B4BE8FAC5
:10564000E9FB8A828B83E0850A82850B831259D419
:10565000121A248A828B83A3E0FCA3E00258AEE5F1
:105660000E450F6003025925850A82850B8374015C
:10567000F01259BE850882850983F07C007D008E7A
:10568000828F83A3A3A3A3E02401FAA3E03400FB49
:10569000122DA6EA4B60408A828B83E02402F885B3
:1056A0000A82850B83E028F0EA2404F8E43BF988B9
:1056B000828983E08512828513831259E21259D4BC
:1056C000121A248A828B83A31259B1E5082403FAA3
:1056D000E43509FB0258B3850A82850B83E0240474
:1056E000F07C047D007900AA12AB131238C802596D
:1056F0008CE50E450F60030259251259BEFEA3E04A
:10570000FF850A82850B837404F0EE850882850983
:1057100083F0EF851282851383F07403121807EE6D
:10572000FAEFFB122DA68A0C8B0DEA450D700302D1
:1057300057CF8A828B83A3A31243E874011217F711
:10574000880E890F780E121A2474051217ED121A9A
:105750003B7CFF7DFF122DAC74041217B78B0FEA50
:10576000450F7033850C82850D831259B5121A24AA
:10577000850C82850D83A3121A3B7C027D007AD5AD
:105780007B83122BA874041217B7E9700A740112F4
:1057900017ED74FFF0A3F08E828F83E064027039FE
:1057A000750C02750D00780C121A248E828F83A35B
:1057B0001259B1E5082404FAE43509FB1238B07433
:1057C000021217B7850A82850B83E02402800974D0
:1057D000011217EDEEF0A3EFF074011217ED12595C
:1057E000A374011217ED12599A02591FE50E450FC5
:1057F0006003025925850C82850D83125C39AA1637
:10580000AB171237F0850A82850B837402F0850886
:1058100082850983EAF0851282851383EB0259227F
:10582000E50E450F60030259251259BEF8A3E0F9B1
:10583000850A82850B837402F0E8850882850983D6
:10584000F0E9851282851383025922850C82850D29
:1058500083124A1D1238AAEAFAF8C3950EE4950F8E
:10586000405CE8650E450F70047A0080218518823F
:10587000851983E0FCE50E2CFCE4350FFDC3EC98A4
:10588000ED94005003E08005E50ECAC39AFAEA855C
:105890000A82850B83F08A0A750B00780A121A2493
:1058A000850C82850D83E0250EFCA3E0350FFDAA53
:1058B00008AB091238B074021217B702598C751070
:1058C0000702598CE50E450F705B850C82850D83B0
:1058D000125B4B850A82850B837407F0888289836B
:1058E00012599B125993E0851282851383F0E824A4
:1058F00002FAE439FB8A828B831259A38A828B8352
:1059000012599AA3A3123F7A1259A8F0E82405F875
:10591000500109888289831259A8A31259E2A3A3CE
:10592000A3A3F0806775100B8062741D1217ED122F
:105930004A1D122EA88A828B83E5824583604A1213
:105940005B4B880C890DE8450D603E74251217ED00
:10595000E0F5107810121A28780E121A24780A121C
:105960001A247808121A2474071217EDE0F9EEFCD5
:10597000EFFDAA16AB17850C82850D8312180F74E4
:10598000071217B7E9F510800375100EA9107405FA
:10599000024CE0F088828983A322A3E085088285F7
:1059A0000983221259E9F0221259E9A3A322900394
:1059B0003A125C4022E0F50E750F00780E22850C3D
:1059C00082850D83124E83E022E0FAA3E0F8E4C85A
:1059D000F9EA2822F08A828B83E0F50A750B0078B9
:1059E0000A221259931259E922E085088285098317
:1059F000A3A32274EE12181174FE1217A18A088B49
:105A000009ECFEEDFF890AAC18AD19EEFAEFFB12B6
:105A10002DA68A0C8B0DEA450D7003025ADB851802
:105A200082851983124A1D122EA88A828B83E582F1
:105A300045837003025AD6A3A3125B4B880E890FCD
:105A4000E8450F7003025AD674141217EDE0F510F2
:105A5000A3E0F511E50AF50B780B121A2874191258
:105A600017ED121A3B7810121A24741B1217EDE06E
:105A7000F9AC0CAD0DAA08AB09850E82850F831217
:105A8000180F74051217B7E9F50B705274FE650A0A
:105A9000604C850C82850D83E064027041125AEAE5
:105AA000FAA3E0F9EAF87402687003742969702EA9
:105AB0008510828511831259C9F50CE439F50D78EA
:105AC0000C121A24EEFCEFFDAA08AB09122F2C745D
:105AD000021217B78008750B0E8003750B01A90B16
:105AE00074021217B77F0A0218E3A3125B4F888271
:105AF0008983E02274F612181174FE1217A1740C37
:105B00001217ED125B4BE8851882851983F074013A
:105B10001217EDE9F0E4F508F5097808121A247572
:105B200008027808121A2474041217F788088909E1
:105B30007808121A2479FE122F1474061217B774FB
:105B4000021217B70254FC8E828F83125B4F22E041
:105B5000F8A3E0F92274F7121811EAFEEBFF8908A6
:105B60009003511259B11237F0EA5402600BA908A0
:105B7000EEFAEFFB122D9A800279017F010218E301
:105B800074F212181174FE1217A1EAFEEBFF890AD3
:105B90007401650A60147402650A6003025C2F795F
:105BA00001123130E96003025C2FEEFAEFFB122E96
:105BB000F6EA4B6003122EFCA818A9198808890977
:105BC0007808121A247508027509007808121A2438
:105BD0007508CF7509837808121A247CFF7DFF7A37
:105BE000017B00122DA074061217B7803885088239
:105BF000850983A3A3A3A3A3A3125C39EEFAEFFB49
:105C00001237D8E4F50CF50D780C121A2474021230
:105C100017ED121A3B7CFF7DFFAA08AB09122DACD1
:105C200074041217B78A088B09E508450970BE7419
:105C3000021217B77F060218E3124E83125C40224D
:105C4000E0FCA3E0FD2274F41218118A088B09EC21
:105C5000FEEDFF901984E0F4604B7A097B00123866
:105C6000D4EA4B60408A828B8374B1F0A3E4125C67
:105C7000A8F08A828B83A3A3E508F0A3E509125C50
:105C8000A8A3EEF0A3EFF0740C1217ED125B4B8A91
:105C9000828B83A3A3A3A3A3A3A3125074901984FC
:105CA000E0F91238E0023FAFF08A828B83A3A3A30E
:105CB000A32274F012181174FA1217A18909ECFECC
:105CC000EDFF7508008A0A8B0B780A121A68000427
:105CD00010D85EF55C135D2D5D455D635D7B5D9E5B
:105CE0005DB65DCA5DF45D6F5E805E975EB25ED844
:105CF0005ED85E0A5E740165096003025ED38E821F
:105D00008F83E0F8C394034003025ED3E8901A70D7
:105D1000025EAF740265096003025ED38E828F83D8
:105D2000125F14901A71E8F0A3E9025EAF74016586
:105D3000096003025ED3125F054003025ED3E89060
:105D40000794025EAF740165096003025ED38E8220
:105D50008F83E0F8C394054003025ED3E890079573
:105D6000025EAF740165096003025ED3125F0540F5
:105D700003025ED3E8900796025EAF741065096077
:105D800003025ED3750A10750B00780A121A247A82
:105D9000977B071238B074021217B7025EF97401CC
:105DA00065096003025ED3125F054003025ED3E81B
:105DB0009007A7025EAF740165096003025ED38E8F
:105DC000828F83E0901A74025EAF740465096003E9
:105DD000025ED38E828F83780C121659908343789B
:105DE0000C1214795003025ED39007A9780C121696
:105DF00068025EF9E96003025ED3122D40E9700586
:105E000012379C805590083C8061740765096003D7
:105E1000025ED3750A06750B00780A121A248E8268
:105E20008F83A3AC82AD8374021217FF1238B6744D
:105E3000021217B77C007D00AA18AB198E828F83DF
:105E4000E0F9123748E9FEC3940A4003025EF612F5
:105E50002D40E9700CEEF91237A279501239FA8010
:105E60006D743D2EF582E43408F58374018040742E
:105E7000016509705E125F055059E89007A8802FF0
:105E800074016509704D8E828F83E0F8C3940A50C7
:105E900042E8901A7380187401650970368E828FFB
:105EA00083E0F874F928C3940A5028E8901A75F032
:105EB000804774016509701B90083BE0F88E828F63
:105EC00083E090083BF0E87030E06401702B1237FB
:105ED0009080267508188021C3EA9427EB9400501F
:105EE0001574026509700F8E828F831269DA122B86
:105EF000C0E9F5088003750802A90874061217B7EF
:105F00007F080218E38E828F83E0F8C3940222A9EF
:105F1000080262B2E0F8A3E0F92274F012181174DA
