:020000040000FA
:1000000002020F021003FFFFFFFFFF02100BFFFFB2
:10001000FFFFFF021013FFFFFFFFFF02101BFFFF98
:10002000FFFFFF021023FFFFFFFFFF02102BFFFF68
:10003000FFFFFF021033FFFFFFFFFF02103BFFFF38
:10004000FFFFFF021043FFFFFFFFFF02104BFFFF08
:10005000FFFFFF021053FFFFFFFFFF02105BFFFFD8
:10006000FFFFFF021063FFFFFFFFFF02106BFFFFA8
:10007000FFFFFF021073FFFFFFFFFF02107BFFFF78
:10008000FFFFFF021083FFFFFFFFFF02108B250C15
:10009000C582C0E0E50D34FFC583C0E0E50CC39523
:1000A0008224F810AF0885830D85820C8008858333
:1000B0000D85820CD2AFCEF0A3E520F0A37808E640
:1000C00008F0A3DEFAEFF0A3E58124FAF8E608F0E1
:1000D000A3E608F0A3E608F0A30808E608F0A3E604
:1000E00008F0A315811581D0E0FED0E0F815811548
:1000F000811581E8C0E0EEC0E022850D83850C8289
:10010000E0A3FEE0A3F5207808E0A3F608DFFAE01C
:10011000A3FFE0A3C0E0E0A3C0E0E0A3C0E0E0A351
:10012000C0E0E0A3C0E010AF0885820C85830D809D
:100130000885820C85830DD2AFD083D08202016CFA
:10014000E4900180780279028002F0A3D8FCD9FA09
:100150007582BA758309740012016675827F758392
:10016000027400120166C09FF59FE473D09F22D0F5
:1001700083D082C09FE493C0E0740193C0E0740216
:1001800093F59F22250CF58210AF08F50C400C1555
:100190000D8008F50C4002150DD2AF850D832200AD
:1001A000C0D0250C10AF08F50C500C050D8008F5DB
:1001B0000C5002050DD2AFD0D0226016080808C638
:1001C000C313C618C613C618C613C618C613C6D599
:1001D000E0EA22250C10AF08F50C400C150D800844
:1001E000F50C4002150DD2AF22700422600D18C626
:1001F000C333C608C633C6D5E0F41822E026F0089B
:10020000A3E036F008A3E036F008A3E036F022754C
:10021000D00075813F750C80750D01759F0002013E
:100220004074028000C0E0F404120184D0E01202A5
:100230006022C3E09608A3E09608A3E09608A3E036
:100240009622E0F608A3E0F608A3E0F608A3E0F69D
:1002500022600C08C6C313C618C613C6D5E0F42224
:10026000CAC0E0E6F0A308DAFAD0E0FA22250CF5DD
:1002700082E4350DF58322250CFCE4350DFD2200CA
:10028000000080FB12016F3F0B0012016F3A0A0061
:1002900012016FC00A0012016F260B0012016FD20B
:1002A000020012016FCB030012016F0C0700120154
:1002B0006F91070012016F6F080012016FAF080005
:1002C00012016F58090012016F78090012016F9F27
:1002D000090074F612008E74FC1201D375080475BF
:1002E0000900780812022174021202777A907B00CA
:1002F000790212028A740212019F850C82850D8395
:10030000E0F8A3E0F9900219E8F0A3E9F074021212
:10031000026DE0FAA3E0FB90021BEAF0A3EBF0858C
:100320000C82850D83E0F8A3E0F9E849700302032D
:10033000BF850C82850D83E0F47003A3E0F4607F39
:10034000850C82850D83E06A7003A3E06B605374B3
:10035000FF6A700374FF6B70491202AE74021202DE
:100360006DEAF0A3EBF0794E120284E960F87508AB
:1003700001780812022174021202777A247B041297
:100380000290740212019F75080478081202217409
:10039000021202777A907B00790212028A740212AA
:1003A000019F850C82850D83E0F8A3E0F9740212A9
:1003B000026DE0687003A3E069700479018002793E
:1003C00000740412019F7F020200FA74F412008E7E
:1003D00074FF1201D38024850C82850D83E0F89090
:1003E0000200E068F0850C82850D83E0F99002112F
:1003F000E4F0A3E9F09002107403F07C017D00AA00
:100400000CAB0D79001202C08B09EA45097003029A
:100410000700850C82850D83E0C0E090026BE0F858
:10042000742128F582E43402F583D0E0F090026B69
:10043000E004F0C3944A4002E4F0900210E0602A25
:1004400014603A1460911460511470030204E514AE
:10045000700302052D147003020575147003020564
:10046000C11470030205DF0206F6850C82850D8338
:10047000E06484708690021074010203FA850C8295
:10048000850D83E064F160030203FB900200E064E9
:10049000F1F090021074020203FA850C82850D833C
:1004A000E0F8900200E068F0900212E0FB850C8218
:1004B000850D83E0F8EBF9900211E8F0A3E9F090E4
:1004C0000213E028F0A3E039F0900211C3E094FC9D
:1004D000A3E094009002104004E40203FA7404F0D4
:1004E00090020E80F4850C82850D83E0F890020066
:1004F000E068F0850C82850D83E0C0E090020EE09C
:10050000F8740A28F582E43402F583D0E0F0900212
:100510000EE004F0C3940250030203FB9002107437
:1005200005F090020EE4F090020F0203FA850C82AF
:10053000850D83E0F8900200E068F0850C82850D5F
:1005400083E0C0E090020FE0F8740C28F582E434F8
:1005500002F583D0E0F090020FE004F0C394025063
:10056000030203FB9002107406F090020FE4F09077
:1005700002010203FA850C82850D83E0F8900200E7
:10058000E068F0850C82850D83E0C0E0900201E018
:10059000F8748028F582E43401F583D0E0F090020D
:1005A00001E004F0F8900211E024FCFAA3E034FF2B
:1005B000FBEA684B60030203FB900210740702031E
:1005C000FA900200E0F8850C82850D83E0689002C5
:1005D00010700474088001E4F09002000204D9E471
:1005E000F0850C82850D83E0640A60030203FB90B2
:1005F000026CE004F0C394104015D2F0A29130F0E8
:1006000001B3E433F8A29130F001B39291E4F09099
:100610000217E0F8A3E0F9E84970030206AE900281
:1006200071E02401F8A3E03400F9900217E068704B
:1006300003A3E069707890026D7808120242740298
:1006400078081201BAE5082400FEE5093404FF9099
:100650000211E024FCF508A3E034FFF509E4F50AF3
:10066000F50B90026D78081201FCEEF8EF5401F9D9
:10067000E84970108E088F0974097808120251A990
:1006800008120296900211E024FCF508A3E034FF62
:10069000F5097402780812025178081202217C8050
:1006A0007D01EEFAEFFB120290740212019F90029C
:1006B00017E0F8A3E0F9900271E8F0A3E9F09002E6
:1006C0000AE0F9A3E0900215F0A3E9F090020CE033
:1006D000F9A3E0F8900217F0A3E9F0900215E068A2
:1006E0007003A3E06960051202A88016C2AF75C945
:1006F000AB75C95B80FEC2AF75C9AB75C95B80FEC7
:100700007900740112019F7F040200FA74F712004D
:100710008E90021DE4F0A3F0A3F0A3F0900217E086
:100720002401F8A3E03400F9900273E8F0A3E9F0A3
:100730009002027414F0A374F1F0A3E4F0A3740225
:10074000F0900274E0900206F0900273E0900207CD
:10075000F0A3E4F07803790288828983E0FA9002BA
:1007600008E06AF088828983A3A882A983E86408E4
:100770007003E9640270E1900209740AF07C087D5C
:10078000007A027B0279001202C679007F01020022
:10079000FA74F412008E74FC1201D3750800750906
:1007A000007E007F04800D74246E700374046F70EB
:1007B00003020852750A04750B00780A12022174AC
:1007C00002120277EEF50AEF5401F50B7402780A73
:1007D0001201E9AA0AAB0B8E0A8F0B7409780A1270
:1007E0000251A90A12028A740212019FA80CA90DD3
:1007F000880A890BAC0AAD0B8C828D83E0F9AA08BC
:10080000AB097508088A0A8B0B740F780A1202511B
:10081000E50AF8EA25E0FAEB33FBE9A2E7500474B5
:10082000014AFAE8A2E0500874216AFA74106BFBDE
:10083000E9C333F91508E50870CB8A088B09A3AC26
:1008400082AD83740412026DE5826C7003E5836DE2
:1008500070A60EEE70010FC3EF94A050030207A71D
:10086000E4F91202B4E4F91202B47404020704C0F9
:1008700008C0097C088A088B09740F780812025195
:10088000E508F8EA25E0FAEB33FBE9A2E750047447
:10089000014AFAE8A2E0500874216AFA74106BFB6E
:1008A000E9C333F91CEC70CDD009D00802016C7497
:1008B000F412008E7E0075868075C48053F1FE436D
:1008C000F30C53FF3F85FFFF75C20C75C50875C457
:1008D000027586C01202A8801190021D750801756C
:1008E0000900750A0078081201FC90027EE070137E
:1008F000EE603FE586A2E04039C2AF75C9AB75C96D
:100900005B80FEE586A2E150295386FD90027DE0E2
:10091000F890027FE028FAA3E034008A82F583E0B1
:10092000F5C190027DE004F00890027EE06870025C
:10093000E4F0E586A2E250071202A2E9CE4EFE756F
:1009400008A0750986750A01750B0090021D7808CC
:1009500012023240840208D4C082C083E586A2E23B
:10096000500BE5C18A828B83F07A0180027A007B8A
:1009700000D083D08202016CC082C08390027FEAE3
:10098000F0A3EBF0EC90027EF090027D7401F05346
:1009900086FD8A828B83E0F5C1ECFAEDFB80D253B1
:1009A000F3EF43FD10C28453F4FD43FE02C29153A2
:1009B000F5FE43FF01C2A002016C53BEFBE59DA200
:1009C000E650FAE5C654804449F5C6E59E547F6476
:1009D0004970F853C67FE59EA2E740FA53C680E50A
:1009E0009E547F70FA43BE049062707408F0120245
:1009F000CC7402F5D575D47512029CE96401700DB2
:100A0000021000C2AF75C9AB75C95B80FE794E128A
:100A10000284E960F8900219E0F47003A3E0F46046
:100A20000F900219E0F8A3E0F9E84960031202BA56
:100A3000C2AF75C9AB75C95B80FE74F512008E89B3
:100A40000A740F550AF508750900740B780812012D
:100A5000E9EA2400F8EB3480F9E82400E93509F9E3
:100A600085C709A2AFE433F508C2AFE50AC4540F45
:100A7000FAE5C754F84AF5C7740B12026DE0FEA3FD
:100A8000E0FFEE4F602CEEFAEFFB88828983E08C6A
:100A9000828D83F088828983A3A882A9838C828D2A
:100AA00083A3AC82AD83EA24FF1AEB34FFFBEA4B4D
:100AB00070D88509C7E508A2E092AF7F030200FA6B
:100AC00074F612008EED900275F0ECA3F0A3746240
:100AD000F0A37473F0A3E0541FF0740A12026DE0E7
:100AE000F508A3E0F509E508333354FC90027AF0E9
:100AF00074067808120251E508900279F090027BA2
:100B00007412F0A37442F075D11E75D601EA90629A
:100B100071F0EBA3F0906270E0D2E1F0E0A2E74068
:100B2000FB7F020200FAC082C083E9C33390627285
:100B3000F0906270E0D2E0F0D083D08202016CE9E4
:100B4000F875B60FE5B4A2E750FAE8C395BB5004B8
:100B500079018002790002016CFFFFFFFFFFFFFFB8
:100B6000FFFFFFFFFFFFFFFFFFFFFFFFFFFFFFFF95
:100B7000FFFFFFFFFFFFFFFFFFFFFFFFFFFFFFFF85
:100B8000FFFFFFFFFFFFFFFFFFFFFFFFFFFFFFFF75
:100B9000FFFFFFFFFFFFFFFFFFFFFFFFFFFFFFFF65
:020000040003F7
:040000050000020FE6
:020000040000FA
:101000000213270220EDFFFFFFFFFFFFFFFFFFFF9F
:10101000FFFFFF022894FFFFFFFFFFFFFFFFFFFF1F
:10102000FFFFFFFFFFFFFFFFFFFFFF0227E8FFFFBC
:10103000FFFFFFFFFFFFFFFFFFFFFFFFFFFFFFFFC0
:10104000FFFFFFFFFFFFFFFFFFFFFFFFFFFFFFFFB0
:10105000FFFFFF022163FFFFFFFFFFFFFFFFFFFF17
:10106000FFFFFFFFFFFFFFFFFFFFFFFFFFFFFFFF90
:10107000FFFFFFFFFFFFFFFFFFFFFF022817FFFF3C
:10108000FFFFFF021F4301FFFFFFFFFFFFFFFFFF07
:101090004417FFFFFFFFFFFFFFFFFFFFFFFFFFFF03
:1010A000FFFFFFFFFFFFFFFF98999A9B01FF0000E2
:1010B000B4000028002800283075A000A000A0007F
:1010C000A00000080008E001F0001000100010006F
:1010D00010001000100050005000500010001000D0
:1010E000D0070000000000000F000100050030756F
:1010F00007001000010081FF00000000FFFFFFE873
:101100002B062CEE2B2A2CFF02020208025000A014
:10111000000000E803025A8301000038830256836E
:10112000010000D618024C830100000A0302568316
:10113000010000D718025E830100002003025683DD
:10114000010000D818024A830100002203025683DE
:10115000010000D9180248830800002303025683C7
:10116000010000DA18024683010000DB18FF0100CD
:10117000FF20025A830100003583025683010000DC
:101180003F19024483000000000002508303000066
:101190005103170096329632963296329632963234
:1011A000963296329632963296329632963254353E
:1011B00066354E3501E8030577100AFFFF00013060
:1011C000750302010600000000000000000000009E
:1011D000000000000000000000000000000000000F
:1011E00000FFFF0600800CE80312094542696B65A9
:1011F00046463031304146364231333305125000D5
:101200002003020A240201060302E7FE10FF010880
:101210007C010AF6B13306240000000000004542BC
:10122000696B6546463031304146364231333300D2
:10123000000000863900009E39124562696B6555D1
:10124000736572524E00084562696B65557365722D
:101250005700025A830100003B83025683010000BD
:10126000071A024083010000691502508303000041
:101270008A15025283010000081A025683010000F9
:10128000141A0242830300009015025283010000E9
:10129000151A03E5C754F84401F5C7790122000087
:1012A0000080FB121293B90003021311E479217834
:1012B00008B800028004F709D8FCE479297802B85C
:1012C00000028004F709D8FCE490028078FC7916CB
:1012D0008002F0A3D8FCD9FA781A9010867A01BA65
:1012E00000028007E493A3F608DAF97A7B7B189072
:1012F00010AD78E779028015E493A3AD82AE838ABE
:10130000828B83F0A3AA82AB838D828E83D8E9D9A6
:10131000E775827F7583EC740312133975829E75AD
:101320008312740012133975D00075813F751880CF
:10133000751902759F000212A3C09FF59FE473D038
:101340009F22D083D082C09FE493C0E0740193C0F9
:10135000E0740293F59F22E066701008A3E06670C7
:101360000A08A3E066700408A3E06622C3E79608B3
:1013700009E7960809E7960809E79622C3E0960868
:10138000A3E09608A3E09608A3E09622C008C3E075
:1013900096F50808A3E096420808A3E096420808DC
:1013A000A3E09645087001D3D00822080808EAC0D7
:1013B000E0EBC0E086F0E7A4FA180986F0E7A42A7B
:1013C000FA180986F0E7A42AFA180986F0E7A42A91
:1013D000FA1986F0E7A4FBE5F02AFA190886F0E787
:1013E000A42BFBE5F03AFA190886F0E7A42BFBE5FD
:1013F000F03AFA18180986F0E7A4C5F02BFBE43A96
:10140000FA1908E7C5F0C6A426F6E5F03BFBE43A76
:10141000FA1886F0E7A4F6E5F00826F6E43B08F6AD
:10142000E43A08F6D0E0FBD0E0FA22E4CFC0E0E4F2
:10143000CEC0E0E4CDC0E0E4CCC0E075F020E6260C
:10144000F608E633F608E633F608E633F618181819
:10145000EC33FCED33FDEE33FEEF33FFC3EC9709C5
:10146000ED9709EE9709EF97191919400FFFEC97BF
:10147000FC09ED97FD09EE97FE191906D5F0BFECB2
:10148000F709EDF709EEF709EFF7191919D0E0FCA4
:10149000D0E0FDD0E0FED0E0FF226016080808C6CC
:1014A000C313C618C613C618C613C618C613C6D5A6
:1014B000E0EA227009080808226016181818C6C346
:1014C00033C608C633C608C633C608C633C6D5E019
:1014D000EA22E627F60809E637F60809E637F608AD
:1014E00009E637F622E026F608A3E036F608A3E080
:1014F00036F608A3E036F622E026F008A3E036F040
:1015000008A3E036F008A3E036F022C3E697F60819
:1015100009E697F60809E697F60809E697F622C362
:10152000E096F008A3E096F008A3E096F008A3E0A8
:1015300096F022E056F608A3E056F608A3E056F629
:1015400008A3E056F622E056F008A3E056F008A300
:10155000E056F008A3E056F022E046F008A3E0468B
:10156000F008A3E046F008A3E046F022E0F608A366
:10157000E0F608A3E0F608A3E0F622E6F008A3E60A
:10158000F008A3E6F008A3E6F022E0FAA3E0FBA34C
:10159000E0FCA3E0FD22EAF0A3EBF0A3ECF0A3ED66
:1015A000F022E0F8A3E0F9A3E0FAA3E0FB22E8F0E0
:1015B000A3E9F0A3EAF0A3EBF022CAC0E0E6F0A3AF
:1015C00008DAFAD0E0FA22CAC0E0E0A3C582CCC5AE
:1015D00082C583CDC583F0A3C582CCC582C583CD2A
:1015E000C583DAE6D0E0CA22C3E498F8E499F91298
:1015F00016298026C3E49AFAE49BFBE920E7E91266
:101600001629E498F8E499F922C3E498F8E499F9E2
:10161000121629E498F8E499F9C3E49AFAE49BFBDA
:1016200022EB20E7CFE920E7E0B90010BB0008E893
:101630008AF084F8AAF022E4FBC8FA22EB70227B3D
:1016400010C833C8C933C9335007C39AC3DBF2800B
:10165000069A50012ADBEAC833F4C8C933F4C9FA40
:101660002275F008E4C833C8C933C933C99AC99B85
:101670005004C92AC93BD5F0ECFBC833F4C8E4C90F
:10168000FA22600D08C6A2E713C618C613C6D5E035
:10169000F322600C08C6C313C618C613C6D5E0F4FF
:1016A00022700422600D18C6C333C608C633C6D5DF
:1016B000E0F41822251810AF08F518400C15198011
:1016C00008F51840021519D2AF2200C0D025181015
:1016D000AF08F518500C05198008F51850020519C7
:1016E000D2AFD0D0222518F58210AF08F518400CE3
:1016F00015198008F51840021519D2AF85198322F3
:101700002518F582E43519F583222518F8E43519F2
:10171000F9222518FAE43519FB222518FCE43519BD
:10172000FD22E4732518C582C0E0E51934FFC583A6
:10173000C0E0E518C3958224F810AF0885831985A9
:1017400082188008858319858218D2AFCEF0A3E570
:1017500020F0A37808E608F0A3DEFAEFF0A3E58115
:1017600024FAF8E608F0A3E608F0A3E608F0A308D8
:1017700008E608F0A3E608F0A315811581D0E0FE85
:10178000D0E0F8158115811581E8C0E0EEC0E022B7
:101790002518C582C0E0E51934FFC583C0E0E5180F
:1017A000C3958224F910AF088583198582188008B3
:1017B000858319858218D2AFCEF0A3E520F0A378F7
:1017C00008E608F0A3DEFAEFF0A3E58124FBF8E6D3
:1017D00008F0A3E608F0A30808E608F0A3E608F07E
:1017E000A315811581D0E0FED0E0F815811581E8C0
:1017F000C0E0EEC0E022851983851882E0A3FEE0F8
:10180000A3F5207808E0A3F608DFFAE0A3FFE0A341
:10181000C0E0E0A3C0E0E0A3C0E0E0A3C0E0E0A33C
:10182000C0E010AF0885821885831980088582186A
:10183000858319D2AFD083D08202133F8519838567
:101840001882E0A3FEE0A3F5207808E0A3F608DF05
:10185000FAE0A3FFE0A3C0E0E0A3C0E0E0A3C0E0A3
:10186000E0A3C0E010AF0885821885831980088541
:101870008218858319D2AFD083D08222C0D0251898
:10188000C582C0E0E51934FFC583C0E0E518C39503
:101890008224F310AF088583198582188008858318
:1018A00019858218D2AFC8F0A3E9F0A3EAF0A3EB40
:1018B000F0A37908E709F0A3D8FAECF0A3EDF0A3C0
:1018C000EEF0A3EFF0A3D0E0F0A3D0E0F0A3D0E0DF
:1018D000F0A3E520F0A3E5F0F0A322851983851895
:1018E00082E0C0E0A3E0F9A3E0FAA3E0FBA378085C
:1018F000E0F608A3DFFAE0FCA3E0FDA3E0FEA3E02E
:10190000FFA3E0C0E0A3E0C0E0A3E0F5D0A3E0F5D2
:1019100020A3E0A3F5F010AF088583198582188015
:1019200008858319858218D2AFD082D083D0E0F8A1
:10193000D0E03274048006740280027401C0E0F4C6
:10194000041216E5D0E01215BA2274048004740261
:101950008000CCC0E0EDC0E0E518C39CCCAD1950D0
:10196000011D10AF068C188D1980068C188D19D2A8
:10197000AF1215C7D0E0FDD0E0FC22D083D082E9C1
:10198000C0E0E493A3C386F0C5F095F0F908E493B2
:10199000A386F0C5F095F0700BE493A3C3994005BE
:1019A000E9048002A3E475F002A42582F582E5F043
:1019B0003583F583D0E0F9E493A3C0E0E493C0E07D
:1019C00022D083D082ECC0E0EDC0E0E493A3FCE43D
:1019D00093A3FDED4C600D121A0DEC24FFFCED34C9
:1019E000FFFD80EFE493A3FCE493A3FDED4C600DB9
:1019F000121A4CEC24FFFCED34FFFD80EFD0E0FD2B
:101A0000D0E0FCE493A3C0E0E493C0E022C0E0C3D4
:101A1000E49396087401939618400FE49366700857
:101A200008740193661870007019A3A3C3E4939619
:101A3000087401939618A3A3400DD0E0D0E0D0E045
:101A40000219FDA3A3A3A3A3A3D0E022C0E0C0F08A
:101A500088F0E4936670080874019366187000A813
:101A6000F0A3A3700BD0F0D0E0D0E0D0E00219FDDD
:101A7000A3A3D0F0D0E022FF74F6121790EAFEEB99
:101A8000FF8C088D09EE2434F8E43FF9E8FCE9FD09
:101A9000EE2435121D8BFAEE2437121D8BF88508C3
:101AA000F0A4C885F00A8509F0A4250AF9EA28F807
:101AB000E439F97A257B00121629EA8C828D83F0AD
:101AC000FA131313541FF8EE28F8E43FF9E8245DE5
:101AD000F582E439F583E0C0E074075AF8D0E0B845
:101AE00000028004C313D8FCA2E0EE50082434F5B1
:101AF00082E43F80182436121D8BF5F0EA84A8F0AA
:101B0000EE28F8E43FF9E82438F582E439F583E07B
:101B1000F97F0302183C74F7121790EAFEEBFFEE10
:101B20002434121D8BC0E0EE2435F582E43FF583AA
:101B3000D0E0F08E828F83A3A3A3A3A3A3A3C0822C
:101B4000C0838E828F83A3A3A3A3A3E0F8A3E0F9AD
:101B5000D083D082E0C398F508A3E099F509EE247C
:101B60007F121D8B6401703EEE2480F582E43FF508
:101B700083C082C0838E828F83A3A3A3A3A3E02408
:101B80000108A3E03400F9D083D082E0687003A399
:101B9000E06970127CFC7D041231D0EE247FF58266
:101BA000E43FF583E4F0AC08AD09EEFAEFFB121A5E
:101BB00078E9F91227DA7F0202183CC082C08385D7
:101BC0001882851983E0F8A3E0F9C3EA9CEB9D50E5
:101BD00010C3EC98ED99401BC3EA98EB9950148020
:101BE0000EC3EA98EB994007C3EC98ED994004794D
:101BF0000180027900D083D08222EAC39CFAEB9D57
:101C0000FB2274EF1217909003C1E064086005E0B6
:101C10006407702A9061C8E060249003EFE0F460EC
:101C20001DE0F875F00BA4C8AAF02AF974F128FE9B
:101C3000740339FF8E828F83A3A3A3E07003021D78
:101C400010906060E0C0E0EE2468F582E43FF58328
:101C5000D0E0F0750C6C750D05750800750900E590
:101C6000D914F50AE5D95403F50E60127403650E14
:101C70006043E50A600AEE2467121D8B70028075CE
:101C8000900567E06401601F121D8860047A04807B
:101C9000027A00E50AC39AFA95E0FB12307A8A08C4
:101CA0008B09EA4509700512341C8064121D887086
:101CB000048A0C8B0DE50A6012850C82850D83F574
:101CC0000BE5D9F0A3150BE50B70F6121D886044E7
:101CD00074FC250AF50A780C121937AC0AA90EEE25
:101CE000FAEFFB12329074021216CAE97026AA08A3
:101CF000AB09123830793D8E828F83A3A3A3A3E072
:101D0000FA7B00122EDCEEFAEFFB1231F41232A253
:101D10007900806F7403650E6051850A107511009B
:101D20007810121937AC0CAD0DAA08AB0912325459
:101D300074021216CAEE2468121D8B64807004743B
:101D40007F8001E0F50C780C12193BE50EF50C785C
:101D50000C12193BA90AAC08AD099003EFE0FA7B1D
:101D600000122EB274021216CA80139003C1E064EE
:101D700008600BAC0CAD0DEEFAEFFB12331A123407
:101D80002879017F0A02183CEE2483F582E43FF5AE
:101D900083E02274F212179074FC1216B4EAFEEB80
:101DA000FF8909A2AFE433F508C2AF021E5DE0600F
:101DB0001B780C121937AC0BA90EEEFAEFFB12329E
:101DC0008A74021216CA7404250BF50B7401250BD4
:101DD000F5D9850ED9E50B6018F50A850C82850DBD
:101DE00083E0F5D9A385820C85830D150AE50A7079
:101DF000EA75E195EE2463F8E43FF97A007B00A2EE
:101E0000AFE433F50BC2AF88828983E0FCA3E0FD29
:101E1000EC4D603A88828983E0FAA3E0FB8A828BEA
:101E200083E0FCA3E0FD88828983ECF0A3EDF08AD7
:101E3000828B83E4F0A3F088828983E0FCA3E0FD39
:101E4000EC4D700A88828983A3A3E4F0A3F0E50B2C
:101E5000A2E092AF123830900503E004F0EE246364
:101E6000121D8BF8A3E0F9E8496064EE2463121DAB
:101E70008B2402F8A3E03400F988828983E5822468
:101E800002F50CE43583F50DE0F50BA3E0F50EEE5D
:101E90002462121D8B640170369061D0E0F8121D2F
:101EA0008860047C0480027C007480C398FA95E00A
:101EB000FBE50B2CF8E43400F9E82402F8500109A2
:101EC000C3EA98EB99A2D265D0334003021DAE90CD
:101ED0000503E0604D900504E0F8900503E0C39829
:101EE000500C74026509703A900505E060348E82EA
:101EF0008F83A3A3A3A3E0851882851983121F32C1
:101F00007402121700E8121F32900502E028F074E4
:101F10000212171AAA18AB197901122F069005039D
:101F2000E4F0E508A2E092AF74041216CA7F07023B
:101F3000183CF0A3E4F0900503E0F82285218785A2
:101F400022C622C0E074EB12187CA2AFE433F5087D
:101F5000C2AF759B00906182E0A2E05030E591A293
:101F6000E0502A7591FE7401652170211220D6126D
:101F700033681220C412194A12258474041216CA36
:101F8000E96401700579011233B0121C029061827C
:101F9000E0A2E5505DE591A2E550577591DF900311
:101FA000C1E064076005E06408702F1220D6740158
:101FB0006521703E1233681220C412194A1225841A
:101FC00074041216CAE96401700579011233B079FC
:101FD00001EEFAEFFB121D938018E0640D70139070
:101FE00003E3E004F064287002E4F07A00E0F91200
:101FF000342E906182E0A2E64003022099E591A28E
:10200000E640030220997591BF9003C1E06405701A
:102010000812335012335C800312335675210012BC
:1020200033BCE99003C2F079001233B01231407A28
:10203000017B009003C0E0F9123800907803E0645F
:1020400042705690056BE014F0704EC2AF122050F3
:1020500000782AD0E0F618D0E0F6E59F5407F87033
:1020600005750DFF8003750D7FC4C0E07829E6F586
:102070000A08E6550DF50B740B780A121692D0E09B
:10208000250AF8906270E0A2E740F8E8C333906256
:1020900072F0906270E0D2E0F0906181E0A2E350D3
:1020A00009E5E9A2E3500375E9F7A3E0A2E75009C7
:1020B000E591A2E7500375917FE508A2E092AF7F1A
:1020C000080218DB8E828F83E0F8A3E0C82416F59F
:1020D00082E438F583229003EFE0F875F00BA4C892
:1020E000AAF02AF974F128FE740339FF22C0E0C077
:1020F000D0C082C083906183E0A2E05009E5BFA216
:10210000E0500375BFFEE0A2E15009E5BFA2E15037
:102110000375BFFDE0A2E25009E5BFA2E2500375DE
:10212000BFFBE0A2E35009E5BFA2E3500375BFF790
:10213000E0A2E45009E5BFA2E4500375BFEFE0A2BE
:10214000E55009E5BFA2E5500375BFDFE0A2E65008
:1021500009E5BFA2E6500375BFBFD083D082D0D0BF
:10216000D0E032C0E074F212187CE5A7A2E6500F6E
:10217000E5A1A2E6500953A7BF75A1BF1221B7E59B
:10218000A7A2E5500CE5A1A2E5500653A7DF75A173
:10219000DFE5A7A2E15009E5A1A2E1500375A1FD89
:1021A000E5A7A2E2500CE5A1A2E2500653A7FB75F9
:1021B000A1FB7F010218DB74F712179075210190C3
:1021C00003C1E0640670151232C68A828B83A3A312
:1021D000A3A3A3A3E0FAA3E0FB12333EA2AFE43330
:1021E000FED2AF9003C7E0640170187A207B0090A4
:1021F00003C0E0F91239207A207B009003C0E0F997
:10220000123806906182E0D2E6F0900568E0602125
:1022100085C62280169003C6E064017008E5C654A6
:10222000F84405F5C653BEFC121F3C7401652160DD
:10223000E4EEA2E092AF7F0202183CFF8E238F24CF
:10224000858228858327851882851983E0CEA3E0BF
:10225000CF852882852783EBC9EAC8EDCBECCA7508
:10226000F010C3E833C8E933C9EA33CAEB33CBC350
:10227000EA9EF526EB9FF525B35004AB25AA26EC84
:1022800033CCED33CDD5F0DAAE23AF242274E9128E
:10229000179074FA1216B4EAFEEBFF8C0A8D0B123B
:1022A0003374EAF8EBF9ECFAEDFB8E828F831215AA
:1022B000AE9003C1E024F7C39405500675140102E3
:1022C00023F41232C68A088B09EA450970030223F7
:1022D000F1EEFCEFFDAA18AB1912336E850882856A
:1022E0000983A3A3780C12156C9082B5780C121593
:1022F00033851882851983781012156C9082B57811
:1023000010121533780C791012136C501F780C7959
:102310001012150B908275780C12138C4047850CA7
:1023200014850D15850E16850F17804590827585CD
:1023300010148511158512168513177814790C124F
:10234000150B781412138C501C751400751500753C
:1023500016007517017814791012150B7814790C82
:102360001214D2800C7514017515007516007517BE
:1023700000740978141214B3908279780C12156CD9
:102380007814790C12142B850882850983A3A3A3E2
:10239000A3A3A3122412121629880C890DE4F50EAA
:1023A000F50F7814790C1214D27404121700122449
:1023B00012121629E8FA8A0CE4F50D7814790C1239
:1023C000136C50077814790C12150B9003C1E0645C
:1023D00008600AE064066005E06405702090827D74
:1023E000781412138C501690828178141214E580A0
:1023F0000C751400751500751600751700850A8296
:10240000850B83781412157B74061216CA7F10028E
:10241000183CE0F8A3E0F97AD07B032274F7121796
:1024200090123386900566E064017010906245E476
:10243000F0A3F053F4F343FE0C5390F312332CE566
:10244000C654B84441F5C6E59E5447644170F890BF
:102450006185740FF0900564E0F47002A3E0604EB3
:10246000900565E0600814601B14602E80407508BC
:1024700001750900900564E078081216A1E508F4DA
:102480005280802A750801750900900564E078087B
:102490001216A1E508F45290801475080175090020
:1024A000900564E078081216A1E508F452A07900BE
:1024B0007F0202183C74F7121790E9FEEAFF12330C
:1024C0008674016E700C7A807B009003C0E0F91274
:1024D0003800903B90E493F46008E493F9123134AF
:1024E000800953C6B8E59E544770FA1233329005FE
:1024F00066E064017003123152900564E0F47002EA
:10250000A3E0604B900565E0600814601A14602C2D
:10251000803D750801750900900564E07808121681
:10252000A1E50842808028750801750900900564BE
:10253000E078081216A1E50842908013750801752D
:102540000900900564E078081216A1E50842A0127F
:1025500032C68A088B09A808A909E8496014E5E190
:1025600070FCE82414F582E439F583E0F46003E0BC
:10257000F5E174016F700A7A019003C0E0F9123836
:10258000900224B074F11217908A088B098C0A8D7E
:102590000B9082B57808121533740F121700780C5F
:1025A00012156C9082B5780C1215337808790C12DC
:1025B000136C90827550107808790C12150B7808FE
:1025C00012138C4014800E780C790812150B780CBD
:1025D00012138C50047901800279007F0802183CA4
:1025E00074ED1217908A088B098C0A8D0B9082B5B6
:1025F00078081215337413121700780C12156C90AA
:1026000082B5780C121533780C790812136C4011CE
:102610007808790C12150BAA08AB09AC0AAD0B802F
:10262000227510007511007512007513017810796C
:102630000C12150B781079081214D2AA10AB11AC39
:1026400012AD137F0C02183C9082B5780812156CFD
:102650008A828B8378081215467F0402183C74F531
:102660001217908C828D83780812156C8A828B8366
:10267000780812151F1226B6C3E09CF0A3E09D1245
:1026800026A840229082F5780812156C8A828B83E6
:1026900078081214F88A828B83A3A3A3A3E02420D2
:1026A000F0A3E0344EF080A0F088828983C3E094E8
:1026B00020A3E0944E22EA2404F8E43BF98C828DB6
:1026C00083A3A3A3A3E0FCA3E0FD888289832274F3
:1026D000F5121790E9FE90051EE0FAA3E0FBEE2943
:1026E000F8E433F974B628F582748139F583E02A69
:1026F000F508A3E03BF509780812193790829D127E
:10270000158A12223C74021216CA8A088B098C0A96
:102710008D0B7410780812149AAA08AB097F040272
:10272000183C74F11217908A0C8B0D8C0E8D0F745F
:102730001112170012194E7411121700E02401F53E
:1027400008A3E03400F509E4F50AF50B780C7908E4
:102750001213AB908325780812156C780C79081247
:1027600013ABAA0CAB0DAC0EAD0F12223C740212CF
:1027700016CA8B09EA450960047A0180027A00ECE6
:102780002AFCE43DFD7413121700E0F8A3E0F9E819
:10279000FEE9FFECF8EDF97A717B02121629880840
:1027A0008909E4F50AF50B8E828F83780812157B70
:1027B000ECF8EDF97A717B021216298A088B0974FC
:1027C0000578081216A18E828F83A3A3A3A3E50820
:1027D000F0A3E509F07F0802183CC082C083E990AD
:1027E0006000F0D083D08222C0E0C0D0E8C0E0E931
:1027F000C0E0A9A8D2AFC2C7751A00E9A2E7E433C6
:10280000F8E9A2E792AFD0E0F9D0E0F8D0D0D0E07C
:1028100032C2AF02000022C0E074F212187CA2AFF4
:10282000E433FED2AFE58AA2E550239015C6E070EE
:102830001D90832912194A7A087B009015B5E0F99A
:1028400012391474041216CA9015C67401F0901847
:1028500077E06401702F901876E07029E58AA2E68F
:1028600050239015C7E0701D90832912194A7A00F1
:102870007B089015B5E0F912391474041216CA9049
:1028800015C77401F0758A00C2EBEEA2E092AF7F2B
:10289000010218DBC0E0C0D0E8C0E0E9C0E0C082BF
:1028A000C083901878E4F0E5C1C0E0901777E0F8B5
:1028B000747828F582E43417F583D0E0F090177728
:1028C000E004F0E064FA70035386BF901776740258
:1028D000F0C28BD083D082D0E0F9D0E0F8D0D0D055
:1028E000E0321213423B8E02121342578E02121331
:1028F000428F8E02121342BB8E021213421C8F02B1
:10290000121342898F02121342C28F0212134233F2
:102910009002121342659002121342129202121395
:1029200042229202121342339202121342C69202C0
:10293000121342929302121342E893021213424C72
:1029400094021213420095021213421D95021213B3
:1029500042DA99021213423D9A021213426D9A0210
:10296000121342A69A02121342209B02121342A192
:10297000C503121342E3C50312134251C6031213D7
:1029800042B9C60312134239C70312134281C70367
:10299000121342A5C7031213423AC903121342028B
:1029A000DB0312134254DB031213427EDB031213C8
:1029B0004222DC0312134242DC0312134281DC0385
:1029C000121342E5DC031213426BC9031213427E59
:1029D000C903121342AFC903121342E9C903121308
:1029E0004242CA0312134289CA03121342D1CA03D4
:1029F00012134200CB031213422FCB031213426671
:102A0000CB03121342ADCB03121342C6CB031213F6
:102A1000421BCC0312134234CC0312134282CC0368
:102A2000121342BCCC03121342B1DD02121342B4A2
:102A3000DE02121342EDDE0212134210DF02121305
:102A40004222DF0212134260DF02121342DCDF0275
:102A5000121342A4E002121342C6E0021213425DB6
:102A6000E102121342AFE102121342E0E10212133B
:102A700042EDE10212134257E202121342AEE202A9
:102A8000121342B1E202121342EAE202121342EDC1
:102A9000E202121342F7E2021213424BE302121354
:102AA000428CE302121342BFE302121342FCE30220
:102AB000121342FEE402121342A2E5021213420B69
:102AC000E60212134249E602121342C0BD0312137A
:102AD00042E8BD0312134215BE031213424DBE035A
:102AE000121342ABBE03121342F7BE031213425E2F
:102AF000BF031213429EBF03121342DBBF03121324
:102B00004209C003121342B3C003121342BDC003F3
:102B1000121342CAC003121342FDC003121342092A
:102B2000C10312134221C1031213422BC10312131A
:102B300042EBE803121342F9E80312134211E903CE
:102B400012134228E903121342E5CD011213428FFA
:102B5000CE01121342A2CF011213421ED001121352
:102B6000423CD10112134278D10112134213D20117
:102B7000121342F7D201121342C3D301121342516E
:102B8000D501121342C2D5011213427CD601121391
:102B9000426ED701121342AED70112134262D8011E
:102BA00012134294D8011213428ADA01121342CC52
:102BB000DA01121342EADA0112134250DB01121356
:102BC000421FDC01121342E3DC0112134202DF0157
:102BD00012134282F6021213426CF70212134217CA
:102BE000F80212134268F80212134218F902121383
:102BF0004289F9021213426EFA02121342A2FA0239
:102C00001213429BFB02121342D8FB02121342B46E
:102C1000FC02121342F3FC021213420FFD021213C4
:102C2000420AD9031213428ED903121342B9D903AF
:102C3000121342D3DA03121342B9C103121342CF63
:102C4000C103121342EDC103121342FEC203121359
:102C50004208C30312134233C4031213422AC503AA
:102C600012134297C503121342018603121342370F
:102C700087031213426E8703121342C58703121390
:102C800042DA890312134275970112134201980127
:102C9000121342659901121342719901121342AC49
:102CA00099011213421B9A01121342249B01121321
:102CB000422D9C01121342F49C01121342519E01B9
:102CC0001213426F9E011213428C9E01121342395D
:102CD0009F01121342B69F01121342DE9F0112138D
:102CE00042A8A201121342ADA201121342C6A401CE
:102CF00012134214A50112134284A501121342C2F9
:102D0000A5011213429EA6011213425EA7011213DF
:102D100042AAA701121342ADA701121342F1A70163
:102D200012134239A80112134278A8011213429AD1
:102D3000A801121342CEA80112134231A9011213A5
:102D400042349103121342429103121342959103AC
:102D5000121342B49103121342F991031213423D2C
:102D60009303121342D893031213421C94031213B9
:102D700042469403121342B59403121342FB940388
:102D800012134272950312134223960312134294B4
:102D90003B00121342A43B00121342453C001213A5
:102DA00042A13C001213425E3D001213427A3E00E3
:102DB000121342AC3E00121342DB3E001213428853
:102DC0004000121342FF42001213426F45001213DB
:102DD000426146001213425A4700121342614900F1
:102DE000121342554C00121342844D0012134288B4
:102DF0004F00121342985000121342275200121330
:102E000042185300121342665300121342D5530066
:102E1000121342F953001213424A5400121342EBA8
:102E20005800121342EC59001213424D5A0012136B
:102E300042785A001213423E5B00121342BAB903A1
:102E4000121342C4B90312134209BA031213421DEA
:102E5000BA03121342ADBA03121342E6BA031213B5
:102E60004221BB031213424ABB031213429EBB030F
:102E7000121342B3BB03121342D5BB03121342EA2F
:102E8000BB03121342FEBB0312134213BC03121303
:102E9000424DBC0312134279BC0312134200BD031E
:102EA00012134243BD031213426DBD031213429825
:102EB000BD03121342ECE403121342E4BF021213E7
:102EC00042C7C00212134242C1021213427DC10224
:102ED000121342CEC2021213425CC302121342EE1C
:102EE000C502121342A0C602121342ACC70212134B
:102EF000421FC90212134278C902121342DFAC0307
:102F000012134222AD03121342A6AD031213427DE7
:102F1000B00312134270FD0212134222FE0212137A
:102F2000421EFF021213425DFF02121342B7FF025C
:102F3000121342F2DC0312134255DD03121342F264
:102F4000DD0312134227DE0312134257DE0312136E
:102F50004292DE03121342B2DE031213423596038D
:102F6000121342C196031213428097031213429820
:102F70009803121342B29A0312134250A902121379
:102F80004275A90212134242AA0212134216AB0260
:102F900012134283AB02121342C3AB021213425FFD
:102FA000AC0212134293AD021213426EAE02121320
:102FB00042CDAE0212134259AF02121342C7AF0202
:102FC00012134253B00212134299B0021213420B71
:102FD000B1021213429DB1021213423EB202121309
:102FE000425EB202121342A6B202121342EFB202C2
:102FF0001213420BB30212134231B302121342AB4B
:10300000B302121342B9B30212134248B4021213AC
:1030100042B1B402121342E99A031213426E9B03A7
:10302000121342B09B03121342949C0312134201E9
:103030009D03121342459D03121342899D031213EF
:1030400042B69D03121342DE9D03121342169E03E5
:10305000121342549E031213427B9E03121342F535
:103060009E031213423F9F031213420FDF011213FC
:1030700042AEE001121342E6E2011213423AE301CA
:1030800012134265E30112134241E401121342712B
:10309000E401121342A0E401121342B3E40112133B
:1030A00042F4E40112134221E5011213426FE501DB
:1030B000121342ABE501121342F0E5011213423D37
:1030C000E601121342B7E601121342F8E8011213A7
:1030D00042E2EA011213421EEB01121342ADEC016F
:1030E000121342F2EC0112134265ED01121342BABF
:1030F000ED01121342BFED011213424BEE01121308
:10310000426AEF011213427BEF0112134212D40202
:103110001213428BD40212134245DA0212134250A8
:10312000DB02121342F9DC0212134287DD02121392
:1031300042628301121342E383011213421084019D
:103140001213425984011213425A8501121342B3D9
:1031500085011213422F8701121342B18701121306
:1031600042CC87011213423D8801121342FA8801B2
:10317000121342BD89011213424B8A0112134202FB
:103180008B01121342158B01121342AE8B011213E5
:1031900042458C011213426C8C01121342D58C01F2
:1031A0001213421F8D011213426D8D011213421230
:1031B0008E01121342B08E011213423D8F01121381
:1031C00042AE8F01121342F58F011213424D90014E
:1031D0001213427F9001121342399101121342409F
:1031E0009201121342899201121342A69201121304
:1031F00042C59201121342F89301121342AF940197
:10320000121342D49401121342E994011213425949
:1032100095011213429A9501121342BE96011213A0
:10322000423F970112134221CA021213426CCA0292
:1032300012134278CA021213424CCB021213426399
:10324000CB02121342A0CB02121342D1CB021213B3
:103250004202CC021213423ACC0212134290CC0228
:10326000121342A6CC02121342E2CC02121342F510
:10327000CC021213421CCD0212134250CD02121383
:103280004276CE02121342C0CF02121342BCD002C9
:10329000121342D9D102121342F57F001213427762
:1032A0007000121342B27000121342047400121321
:1032B000426075001213421F760012134286790095
:1032C000121342707A00121342BC7A00121342D6D3
:1032D0007A00121342137B001213421E7B0012135A
:1032E000425D7B00121342667B00121342107C0089
:1032F000121342E77C001213423B7D0012134298E6
:103300007D001213420A7E0012134209AA01121311
:103310004268AD011213426EAD011213429FB40117
:10332000121342A6B80112134224CD03121342BA5B
:10333000CD03121342D0CD0312134229CE03121330
:10334000426DCE03121342A7CE031213423FCF03A6
:10335000121342AECF03121342B7CF03121342C36C
:10336000CF03121342DDCF0312134207D00312130F
:10337000421CD0031213427ED003121342A5D00385
:1033800012134278B50312134285B5031213429FFC
:10339000B503121342D2B50312134210B60312132F
:1033A0004275B6031213428AB60312134295B6034E
:1033B000121342A2B603121342B9B603121342C744
:1033C000B603121342D2B603121342DEB60312132F
:1033D00042EDB603121342F8B6031213421BB703B1
:1033E000121342BFB703121342CFB703121342E9BD
:1033F000B70312134206B80312134221B803121383
:103400004246B80312134251B80312134266B8037E
:103410001213427AB803121342DBB803121342E1CB
:10342000B803121342E7B803121342EDB8031213A4
:103430004205B90312134238B903121342CD9B025D
:10344000121342649C02121342FC9C02121342ECBF
:103450009D02121342239E02121342369E02121341
:1034600042A49E021213423FA00212134266A0021F
:1034700012134208A1021213423DA1021213424E3E
:10348000A102121342C7A102121342E8A1021213B1
:103490004200A20212134258A30212134261A50273
:1034A000121342B1A702121342B4A802121342032C
:1034B000A9021213429EEF011213429BF001121354
:1034C0004286F10112134290F101121342B2F1014E
:1034D000121342BEF10112134210F3011213423FC4
:1034E000F3011213426FF401121342B1F4011213EB
:1034F00042DDF501121342B3F60112134205F70142
:1035000012134264F7011213429BF701121342D6C1
:10351000F70112134271FB011213428AFB011213CD
:10352000420CFC011213421AFC011213426FFC01FF
:103530001213427DFC01121342EAFC011213425C99
:10354000FD01121342A2FD01121342D4B402121360
:1035500042F6B402121342E0B60212134285BA02D6
:10356000121342C8BB02121342A2BC02121342C081
:10357000DE03121342E5DE0312134256DF03121379
:10358000426FE60212134278E60212134281E6020B
:10359000121342B2E702121342D1E9021213420798
:1035A000EA0212134241EA0212134277EA021213AC
:1035B00042B1EA02121342E5EA0212134211EB028F
:1035C0001213425AEB0212134294EB02121342DC22
:1035D000EB0212134232EC0212134267EC02121396
:1035E00042C2EC02121342FCEC021213424DED02F5
:1035F00012134283ED02121342BDED02121342EB8D
:10360000ED021213420EEE021213422DEB031213BF
:103610004259EB03121342B4EB03121342BEEB0305
:10362000121342CEEB03121342B6ED03121342DD26
:10363000EC03121342AA5B00121342125E00121333
:1036400042C55F001213422260001213421F610044
:10365000121342AF61001213423462001213425936
:103660006200121342516500121342C76500121323
:1036700042B86600121342F266001213423267002B
:10368000121342D868001213422D69001213427AB5
:103690006900121342E869001213420F6A00121304
:1036A00042296A001213423F6B001213424F6B0013
:1036B000121342DB6C00121342FD6C0012134233F2
:1036C0006D00121342E16E00121342206F001213BC
:1036D000425270001213427F9F03121342D79F037E
:1036E0001213421FA1031213428EA1031213423D73
:1036F000A2031213425CA203121342B0A2031213DC
:1037000042EEA203121342B8E903121342C9E903BD
:103710001213426CEA0312134227ED03121342669E
:10372000ED03121342E0ED03121342ECED0312130A
:1037300042F1ED03121342E47F0012134277EA03D1
:1037400012134287EA0312134296EA031213422726
:10375000EB0312134208E7031213428CE703121320
:1037600042F2E703121342A9E303121342DDE3031B
:1037700012134206E4031213427DE403121342F8CB
:103780007F001213422BFE0112134295FF01121308
:1037900042F6FF011213420BE803121342ABE80397
:1037A000121342BDE803121342A18B03121342AB62
:1037B0008B03121342EB8B03121342348C0312134C
:1037C000426E8C03121342C48C03121342E38C0327
:1037D000121342EC8C031213423D8D031213426606
:1037E0008D031213427B8D03121342EB8D031213D0
:1037F00042798E03121342BD8E03121342E58E03EB
:10380000121342648F03121342A78F03121342E470
:103810008F03121342F68F031213421590031213F3
:10382000423E900312134208910312134276E003C2
:10383000121342C7E00312134250E103121342B6BF
:10384000E10312134244D4031213426ED403121341
:103850004268D50312134297D5031213421DD603B3
:1038600012134200E603121342F7E6031213420852
:10387000D7031213423ED70312134277D703121312
:1038800042D0D803121342D8EB03121342EEEB03DB
:10389000121342F8EB031213424EEC031213425977
:1038A0007F001213429CEE0212134259EF021213D0
:1038B0004294EF02121342BCEF021213421EF002B6
:1038C0001213426AF002121342CAF0021213425B50
:1038D000F10212134257F202121342E4F3021213DE
:1038E0004267F402121342CBF402121342E2F402D2
:1038F000121342D8F50212134224F602121342099F
:10390000A4031213421EA403121342CEA4031213E3
:10391000420EA50312134227A5031213425AA50310
:10392000121342A7A503121342DBA5031213421D73
:10393000A60312134224A80312134200800212139A
:1039400042B78302121342498502121342A0850234
:10395000121342BF85021213423D8602121342CF58
:103960008702121342B38802121342C48C0212134C
:1039700042988D02121342008003121342518003B9
:103980001213420A8203121342D583031213428D8B
:103990008403121342AD84031213421E85031213D3
:1039A00042CE8503121342D3D0031213427FD103B8
:1039B0001213429CD10312134234D20312134297C2
:1039C000D20312134240D3031213422FB103121336
:1039D000423EB10312134269B103121342E5B1032F
:1039E00012134217B20312134244B2031213424697
:1039F000B20312134248B2031213424AB203121323
:103A00004290B203121342A3B20312134202B30351
:103A10001213426EB30312134293B303121342E61E
:103A2000B30312134236B4031213428DB4031213BC
:103A300042A8B40312134237B50312134244B5032C
:103A400012134264B5031213422BBC011213429E9F
:103A5000BC0112134208BD011213423DBD011213F5
:103A6000424CBD0112134203BE0112134234BE0187
:103A700012134248BE01121342D1BE01121342106A
:103A8000BF011213425ABF0112134270BF01121339
:103A900042A1BF01121342B4BF01121342C7BF01BA
:103AA00012134246C0011213424DC0011213424884
:103AB000C1011213428EC101121342A0C10112139F
:103AC00042D7C101121342F2C10112134213C201C3
:103AD00012134227C30112134249C301121342A811
:103AE000C301121342BBC301121342D5C301121307
:103AF00042F8C30112134270C40112134229C601D5
:103B000012134277C601121342F5C601121342F393
:103B1000C70112134249C80112134223CA011213EA
:103B20004257CA011213427BCA01121342A4CA01AE
:103B300012134231CB0112134242CB011213420441
:103B4000CC01121342D4CD0112134214E20312131A
:103B50004264E203121342C6E203121342D5E203A7
:103B6000121342EFE20312134238E30312134270BE
:103B7000ED03121342B87F001213428AA8031213F6
:103B80004282AC03121342E2FF02FFFFFFFFFFFF7E
:103B9000FFFFFFFFC082C083E990193EF0D083D0C1
:103BA0008202133F74F6121724E9900333F0900356
:103BB00093E0F508750900740278081216A1AA08A6
:103BC000AB091238789003341245579003341249E8
:103BD00044606F900393E075F003A4FAABF01238E1
:103BE00078900351124557900351124944700B903D
:103BF000033412491512387E80489003511258A997
:103C00007AFF7BFF1236D47A0080198A0875090082
:103C1000740278081216A112535174FF123D57E432
:103C2000F0A3F00A900393E0F8EAC39840DD790529
:103C3000122DA4900333E0F9122C907A2E7B2E12D1
:103C4000301A0253F474F41217248A088B09EB54C7
:103C5000806047900333E0F91237E88A0A8B0BAE95
:103C60000AAF0BEE4F602A8E828F83E064B0701A29
:103C7000122DB6E960148E828F83A3A3A3A3E0F96B
:103C8000EE2405FAE43FFB122D86EEFAEFFB123725
:103C9000D6AA08E5096480FB80047A007B00023E16
:103CA000A774F212172474FB1216B4EAFEEBFFEEAF
:103CB0004F60457403121700EEF0A3EFF0851882F1
:103CC000851983ECF0A3EDF07402121700E9F0AA55
:103CD00018AB19122C8AE9F50870757413121700C5
:103CE000E0F50AA3E0F50BE50A450B60638E828FD1
:103CF000831242E0EE4F700575080280537A067B0E
:103D0000001238788A0C8B0DA80CA90DE8497005B3
:103D1000750813803B88828983E4123D57EEF0A337
:103D2000EF123E73E50AF0A3E50BF0900337123E65
:103D30006C9003376017E0FCA3E08003EAFCEBFD26
:103D40008C828D83123E6C70F38C828D83124F6C4B
:103D5000A9087405025B29F0A312588BA32274F200
:103D60001217248908890C750D007403780C12163B
:103D7000A1850C0A850D0B900336F0900334124D8B
:103D800077123E6A602E12387E7900801D890C758C
:103D90000D007402780C1216A19003341252108890
:103DA00082F583A3A3E4F0A3F009900393E0F8E97C
:103DB000C39840D9900393E0FA850AF0A4CAA8F00A
:103DC000850BF0A428FB1238788A0C8B0DAE0CAF53
:103DD0000DEE4F7003023E60900393E0FC850AF005
:103DE000A4CCA8F0850BF0A428FD79001237C47C80
:103DF0000080318D0C750D007403780C1216A18AA9
:103E0000828B83123E6588828983E4F0123E72A31E
:103E1000A3F0A3F00DEDC3950840D8EE250AFEEF00
:103E2000350BFF0C900393E0F8ECC39850288C0CF2
:103E3000750D007402780C1216A1900334123E65C1
:103E4000E82402500109FAE9FB8A828B83EEF0A391
:103E5000EFF07D0080BFE508900336F07900800226
:103E60007913025B2C125214F922A3A3124919EA06
:103E70004B22A312588BA3A3A32274F41217247904
:103E800000EAA2E0501F75085F75098278081219D0
:103E90003779107C047D007A407B19122D9E7402C4
:103EA0001216CAE9F980007F040217F6C082C083A7
:103EB000900337124944601C88828983A3A3E06A77
:103EC0007003A3E06B8882898370E8A3A3A3A31285
:103ED000491580047A007B00023B9D74F21217247E
:103EE00074FD1216B4EAFEEBFF851882851983E48F
:103EF000F0A3F074021217007401F012494170141B
:103F0000122F5412387890033A12455712494170D3
:103F10000302406D124657EE2404F50AE43FF50B08
:103F2000850A82F583E024FE603C24FC607424FE54
:103F3000607E24FE7003023FBD24FE7003023FCA70
:103F400024FE7003023FD724FE7003023FE424FEE8
:103F50007003023FF124FC700302401224FE700340
:103F600002402A024066122F5490033CEAF0A3EB71
:103F70001240791229D2E9600302406690033C1294
:103F8000194E8E828F83A3A3A3A3A31258A98508D9
:103F900082850983124915122D6E74021216CA0207
:103FA0004066AC18AD19EEFAEFFB122DBC0240359D
:103FB000AC18AD19EEFAEFFB122DC28078AC18AD3B
:103FC00019EEFAEFFB122DC8806BAC18AD19EEFAA2
:103FD000EFFB122DCE805EAC18AD19EEFAEFFB129E
:103FE0002DD48051AC18AD19EEFAEFFB122DDA800A
:103FF00044740212170A880C890D780C1219377450
:104000000212171AEEFAEFFB122DE074021216CA12
:104010008023AC18AD19EEFAEFFB122DE6E9F8702B
:10402000167402121700E4F0803CAC18AD19EEFAD9
:10403000EFFB122DECE9F8E8602C8E828F83A3E071
:1040400064146022850A82850B83E090033CF0852E
:10405000188285198312491590033D124557E8A32C
:104060001240791229CCEEFAEFFB122D44740212A1
:104070001700E0F97403025B29F07C3C7D0385089E
:10408000828509831249192274E812172474FA12DE
:1040900016B47404121700ECF0A3EDF08A128B131F
:1040A000EA2405F50EE43513F50FEA2402F510E4D1
:1040B0003513F511851082F583124915122AC28A2B
:1040C0000A8B0B7508007C037D0079007A3C7B032A
:1040D0001237C4E50E2402F516E4350FF517740205
:1040E00012170A880C890D780C121937850E8285F3
:1040F0000F83A3A3A3A3E0F50C750D00780C121990
:1041000037E50E2405F50CE4350FF50D780C121982
:1041100037851682851783124C1C122CA874061240
:1041200016CA8A0C8B0DE50C450D70030242A9805E
:1041300020851882851983E088828983F0050885A7
:104140001882851983A3E0C0E01242EAD0E0F005AE
:1041500008E50A24FBFAE50B34FFFBC3E5089AE403
:104160009B40030242A97E007F0085128285138353
:10417000A3A3A3A3E0F509780912193BE4F514F50C
:104180001578141219377514397515037814121926
:104190003790033A12194E740912170012194EE59E
:1041A0000A24F9F9AC0CAD0D8510828511831249F2
:1041B00015122E1674091216CAE9600302424A85C6
:1041C0000E82850F83A3A3A3A3A3A3A3E0F8900368
:1041D00039E0687075E0F5148E15781412193712ED
:1041E00058A6850E82850F83A3A3A3A3A3A3A3A38D
:1041F0001249151237BE74021216CAE9604C9003B8
:104200003D124944703BE4F51478141219377CFFD1
:104210007DFF7907851082851183124915122D8043
:1042200074021216CA12494A7017850E82850F83CE
:10423000125A437404121700125304124C4D0242D6
:10424000DD850C82850D831242E0A818A919881417
:1042500089157814121937740412170012194E8533
:10426000168285178312454D122CB474041216CA97
:104270008A0C8B0DEE4F70030241261242EAEE12B9
:1042800042F5124C03EF1242F5F8A3E03400F9E5D1
:104290000C450D60030241318882898374FFF0056B
:1042A000081242EA74FFF00508E508601A13135477
:1042B0003F12455D1229DEE9600990033D12491560
:1042C00012383079008016850E82850F83125A438A
:1042D0007404121700125304124F6C790A024BD661
:1042E000A3A3A3A3E0FEA3E0FF22A80890033DE060
:1042F00028124C0322F005080890033DE0282274A0
:10430000E812172474FA1216B47402121700124538
:10431000577404121700ECF0A3EDF07402121700AA
:10432000E02405124BECE0F50CA3E0F50D7402124D
:104330001700E02402F510A3E03400F51185108287
:10434000F583124915122AC2750800750900EA247E
:10435000FCFEEB34FFFF8008050CE50C7002050D38
:10436000A808C3EE98EF94005003024509A818A9C5
:1043700019880E890F780E121937851482851583D6
:10438000A3A3A3A31258AD121937E5142405F50E03
:10439000E43515F50F780E121937851482851583CB
:1043A00012454B122CA874061216CA8A0E8B0FEAFD
:1043B000450F7003024509EA2404F516E4350FF5AC
:1043C00017851682F583E0F50CA3E0F50D851882BC
:1043D0008519831258A98A828B83A3A3A3E0F98548
:1043E0001082851183124915122C96E9F509600394
:1043F0000245097402121700124C13F509780912CC
:10440000193BE4F512F51378121219377512397544
:104410001303781212193790033A12194E740712C7
:10442000170012194EEEF9AC0EAD0F8510828511F2
:1044300083124915122E1674091216CAE9F509607D
:1044400003024509E508703FE4F50EF50F780E12FA
:1044500019377CFF7DFF7909851082851183124908
:1044600015122D8074021216CA124C39700D740484
:10447000121700124540791102453D900339E0249E
:104480000290033DF0801490033DE0FA900339E080
:10449000790024025001096A497072A80890033912
:1044A000E0FAE82AFAE43400FBEE9AEF9B405A85E2
:1044B0001682851783E0C0E090033E1242EFD0E001
:1044C000F00508851682851783A3E0C0E0089003F5
:1044D0003E1242EFD0E0F005089003391258AD12B9
:1044E00019371258A6A808124BE01237AC74021202
:1044F00016CA900339E02508F50874FF650C7004AE
:1045000074FF650D6003024358E508601F90033D8A
:10451000E0F5F0E5088412455D1229E4E9600990B0
:10452000033E12491512383079008011E5097003F5
:1045300075090A7404121700124540A909024BD6E6
:10454000124D7BE50CF0A3E50DF022A3A3125B381E
:10455000AA0CAB0D22A3A3EAF0A3EBF02290033C3C
:10456000F07C3C7D038510828511831249192274E9
:10457000EC12172474FC1216B412507C7402121739
:104580001A12490F122CAE8A0C8B0DEA450D7003DE
:10459000024647124657A818A919881089117810A1
:1045A0001219377CFF7DFF790B85088285098312FC
:1045B0004915122D8074021216CA12474D700C85CF
:1045C0000A82850B83124C4A0246548E828F83A343
:1045D000A3A3A3E0F512781212193BE4F512F51328
:1045E000781212193775123C7513037812121937A5
:1045F0007810121937740912170012194E74091223
:104600001700E0F9AC0CAD0D8508828509831249CD
:1046100015122E1674091216CAE9FE70157C3C7D1F
:10462000038508828509831249151229EAE9700970
:10463000802074166E70027E0090033D12491512A0
:104640003830EE7004800B7E01850A82850B831260
:104650004F69EEF9024F7EEE2402F508E43FF509BA
:104660002274EC12172474FC1216B4EAFEEBFF8CD1
:104670000E8D0FEE2405F508E43FF50974021217BC
:104680001A850882850983124915122CAE8A0C8B73
:104690000DEA450D700302473DEE2402F50AE43FA2
:1046A000F50BA818A9198810891178101219377CF0
:1046B000FF7DFF790D12490F122D8074021216CA68
:1046C00012474D700B850882850983124C4A807A07
:1046D0008E828F83A3A3A3A3E0F512781212193B55
:1046E000850882850983A3A312194E75123C7513A0
:1046F000037812121937781012193774091217003B
:1047000012194E7409121700E0F912490B122E16F5
:1047100074091216CAE9FE700F7C3C7D0312490F22
:104720001229F0E97009802074166E70027E0090E4
:10473000033D124915123830EE7004800B7E01855E
:104740000882850983124F69EEF9024F7E1249549F
:10475000F510A3E0F511EA45112274E8121724744C
:10476000FE1216B48A168B178C148D15EA2405F5E3
:104770000CE43517F50DEA2402F50EE43517F50FB4
:10478000850E82F583124915122AC28A088B097593
:104790000B007C037D0079007A3C7B031237C475E3
:1047A0000A00E50814F5100424FFF508E50934FFB4
:1047B000F509805490033CE0FA900339E0F8EA28C8
:1047C000F8E43400F9E50898E50999500D90033CA8
:1047D000E0F8E510C398900339F0E0F51275130086
:1047E00078121219371258A690033DE02AFAA3E076
:1047F0003400FB1237AC74021216CA900339E0F889
:1048000090033CE028F0050A850C82850D83A3A364
:1048100012522040030248F090033CE0C39508E4A4
:10482000950940030248F0AE0AEE2EFEE433FF1273
:10483000492FAC18AD191258C1E439FB122CAE8ABD
:10484000128B13AC12AD13EC4D701B750B0112499A
:104850001F124F6D90033D123E6C6003123830A959
:104860000B7402024BD8851682851783A3A3A3A3DA
:10487000E0F50B780B12193BE4F512F513781212E0
:104880001937751239751303781212193790033AD4
:1048900012194E740712170012194EA910850E82B4
:1048A000850F83124915122E1674091216CAE9F5DE
:1048B0000B709B90033D12494460030247B4E4F53A
:1048C00012F51378121219377CFF7DFF790F850ED0
:1048D00082850F83124915122D8074021216CA1296
:1048E000494A60030247B412491F124C4E02486104
:1048F0007C3C7D03850E82850F831249151229F6B3
:10490000E960030248547900024861AC0CAD0D85A2
:104910000A82850B8312491922E0FAA3E0FB2212D6
:10492000492FE0FAA3E0F9EA8514828515832285F0
:104930000C82850D83E02EF8A3E03FF988828983FD
:104940002290033A125A47E84922124954F8A3E048
:10495000F9E8492290033DEAF0A3EBF090033DE033
:104960002274E812172474FA1216B4740412170091
:104970001245578C168D177404121700E02405F5A4
:104980000EA3E03400F50F7404121700E0240212A5
:104990004BEC124915122AC28A0A8B0B7F007E004B
:1049A000A818A919880889097808121937850E826C
:1049B000850F83A3A3A3A3E0F5088E097808121935
:1049C00037E50E2405F508E4350FF50978081219C6
:1049D00037850E82850F83A3A3124C1C122CA8745A
:1049E000061216CA8A0C8B0D8029124C0DF00F127C
:1049F0004C0DF00F900339124F581219371258A668
:104A0000EFF8124BE01237AC74021216CA90033959
:104A1000E02FFFE50C450D7003024A9C8518828546
:104A2000198312508EA3A3A3E0F985148285158300
:104A3000124915122C96E9FEE50C2404F510E43514
:104A40000DF511EE70507404121700124C13F50896
:104A5000780812193BE4F508F5097808121937753A
:104A60000839750903780812193790033A12194E5C
:104A7000740712170012194EE50A24FAF9AC0CADAE
:104A80000D851482851583124915122E167409128C
:104A900016CAE9FE6039124C29124F6CEF700302FE
:104AA0004BC390033DE0F5F0EF8490033CF07C3C79
:104AB0007D038514828515831249151229FCE9604E
:104AC0000990033E1249151238307900024BD68FF7
:104AD00008EF703BE4F512F51378121219377CFFDA
:104AE0007DFF7911851482851583124915122D8059
:104AF00074021216CA124C397009124C29124C4D0C
:104B0000024BD6900339E0240490033DF0803590A9
:104B10000339E0F890033DE0FAE82404FCE43400B3
:104B2000FDEC6A4D6003024AA2E50A24FAFAE50B9D
:104B300034FFFBE50828F8E43400F9EA98EB9950D3
:104B400003024AA2851082851183E0C0E090033EF3
:104B5000E02FF8A3E034008882F583D0E0F00F85E1
:104B60001082851183A3E0C0E0124BFAD0E0F00F71
:104B7000740212170A880889097808121937740212
:104B800012170012194E850E82850F8312454B12A3
:104B90002CB474041216CA8A0C8B0DEA450D7003EE
:104BA0000249EA7402121700E0C0E0124BFAD0E0AA
:104BB000F00F7402121700A3E0C0E0124BFAD0E02D
:104BC0000249F2EE70027E0A850E82850F83124C36
:104BD0002F124F6CEEF974061216CA7F100217F6E8
:104BE00090033EE028FAA3E03400FB22F514A3E092
:104BF0003400F515851482F58322124BFE229003B2
:104C00003EE02FFAA3E034008A82F58322124BFEA5
:104C100074FF22124D7BA3A3A3A3E022125B38856D
:104C20000E82850F83124919228510828511831205
:104C30005A478516828517832290033EEAF0A3EB3C
:104C4000F090033E125A47E84922124F72E8F0A34F
:104C5000E9F079112274EA12172474FE1216B48A4C
:104C6000088B098C128D13EA2405FEE43509FFAC8C
:104C700018AD198E828F83124915122CAE8A0C8BB7
:104C80000DEE2406F50EE43FF50FEA450D70030224
:104C90004D4DE5082402F50AE43509F50B8A828BAF
:104CA00083A3A3A3E0A2E550288518828519831267
:104CB0004915122E0A8A108B11EA451160207912CB
:104CC00012490B851082851183121722E9F50C70A9
:104CD0007F850E82850F83E0600979528011750C03
:104CE0000E806D850882850983A3A3A3A3E0F9E460
:104CF000F508F50978081219378E828F83A3A3E08F
:104D0000F50878081219378E828F83A3A3A312198E
:104D10004E8E828F831258A912490F122E1C7406D0
:104D20001216CAE9F50C7011850E82850F83E070AA
:104D30002D12490F122A0280257416650C70117508
:104D40000C007418121700124D77E48010750C01D6
:104D5000125A3F851282851383E8F0A3E9F0850E8D
:104D600082850F83E0600479008002A90C7402122E
:104D700016CA7F0E0217F6124D7B22E0F8A3E0F56B
:104D80008388822274EC12172474F71216B48A0AEC
:104D90008B0B8C108D11EA2405FEE4350BFF750C8E
:104DA00000AC18AD198E828F83124915122CAE8A71
:104DB000088B09EA45097003024F43E50A2402F50E
:104DC0000A5002050B8A828B83A3A3A3E0A2E550BD
:104DD0002F851882851983124915122E0A8A0C8B89
:104DE0000DEA450D604F7912AC08AD0912490F85E7
:104DF0000C82850D83121722E9F50C6003024F46E1
:104E0000850A82850B83E0F508A3E0F509AA08FB73
:104E1000122DFEEA4B70197AFF7BFF122DFEEA4B32
:104E20007003024F398A828B83E508F0A3E509F00D
:104E30007508008008750C0E024F46050890033671
:104E4000E0F8E508C3984003024F3985080E750F56
:104E5000007403780E1216A18A828B83A3A3E02527
:104E60000EF8A3E0350F12530D70D08E828F83128F
:104E70004F611245578E828F83A3A3124F61124553
:104E800055EE2404F508E43FF509850882F583E032
:104E900088828983A3A3A3A3F0A3E4F0EE2405F5FD
:104EA0000EE43FF50F850E82F583124F61A3A3A395
:104EB000A31245557512077513007812121937EEB3
:104EC000FCEFFD74041217121237AC74021216CAEA
:104ED000E4F5127812121937850882850983E0FCFF
:104EE0007D00791712490F122D8074021216CA74B0
:104EF000071217001245577407121700E0FA4B60AB
:104F00003D850882850983124F58121937850E8214
:104F1000850F831258A91237AC74021216CA740294
:104F200012171A12490F122A08E96026740712177D
:104F3000001249151238308019750C098008750C5B
:104F4000118003750C01125A3F851082851183125E
:104F50004F6CA90C74098028E0F5087509007808E1
:104F6000221249198882898322124F72E8F0A3E93C
:104F7000F022E0F8A3E0F9850E82850F8322740405
:104F80001216CA7F0C0217F674EC12172412507C0A
:104F9000751000EE2402F50CE43FF50D850C82F54A
:104FA00083124915122DFE8A088B09EA4509700300
:104FB000025060850A82850B83E064016003025021
:104FC00055AC08AD09AA0AAB0B122DF2E9606E854B
:104FD00008828509831242E2EE2406F50AE43FF5D1
:104FE0000B8E828F83A3A312194E8E828F83A3A36D
:104FF000A3A312194E850A82850B8312194E7918C4
:105000008E828F8312508E124915122E1C74061236
:1050100016CAE9F8741668700B850A82850B83E45A
:10502000F0A38014E860128E828F83124915850EDA
:1050300082850F83EAF0A3EBF088108018780E12B7
:105040001937AC08AD09EEFAEFFB122DF874021215
:1050500016CAE9F510AA08AB09122E04E510700E65
:10506000850C82850D83124915122A0E800974164B
:1050700065107003751000A910024F83EAFEEBFF64
:105080008C0E8D0FEE2405F50AE43FF50B22125B22
:1050900038850C82850D832274EA12172475080066
:1050A0007509007E007F00750A00EC2402F510E40B
:1050B0003DF5118035EC65087003ED65096003026C
:1050C000514D88828983A3A3E06A7003A3E06B70CB
:1050D0007C88828983A3A3A3A3125A43EE28FEEF00
:1050E00039FFEA28FAEB39FB050A12521D503A85BE
:1050F0000A0C750D007403780C1216A185108285B8
:10510000118312521012530D601FE508450970A556
:105110008C088D09888289831242E088828983A362
:10512000A3E02EFAA3E03F80BEE50AC39402500339
:1051300002520B750800750900EE4F6010EEFAEF91
:10514000FB12382A8A0E8B0FEA450F700579000290
:10515000520D750B000251E0850B0C750D007403A8
:10516000780C1216A1851082851183E0250CF50CB0
:10517000A3E0350DF50DE50C2406F514E4350DF529
:1051800015851482F5831253126042E50C2404F550
:1051900012E4350DF513851282F58312194EE50ED2
:1051A0002508FAE50F3509FB1237AC74021216CA4E
:1051B000851282851383E02508F508A3E03509F5FB
:1051C00009851482851583124915123830E50B6064
:1051D0000D7C087D007900AA0CAB0D1237C4050BBD
:1051E000E50BC3950A50030251588510828511833F
:1051F000125A4388828983A3A3A3A3A3A3E50EF035
:10520000A3E50F123E73EEF0A3EFF07901024D72A9
:1052100012521422E0250CF8A3E0350D229003363B
:10522000E0F8E50AC3982274F01217248A0E8B0F57
:105230008C0A8D0B750D00750C0080507916EE24CC
:1052400006F508E43FF5098E828F83A3A312194E59
:105250008E828F83A3A3A3A312194E85088285098A
:105260008312194E850E82850F83A3A3124915124E
:105270002E1C74061216CAE9F50D7416650D706CB5
:10528000850882850983E4F0A3F0050C900336E0DD
:10529000F8E50CC3985066AA0C8A087509007403D7
:1052A00078081216A1850A82850B83A3A312535C8A
:1052B000E8FEE9FF8E828F831253126040EA2401D8
:1052C000F508E43400F509900336E065087002E55E
:1052D00009601488828983A3A3A3A3A3A3A3A31211
:1052E0004944600302523C791802523EE9609B1225
:1052F0005A3F7410121700125304124F6CA90D7FFD
:10530000080217F6E0FAA3E0F5838A8222F9888280
:105310008983125B38EC4D2274F61217247C0080CE
:10532000010C900393E0F8ECC398501E8C087509AB
:1053300000740278081216A1125351E06A7003A398
:10534000E06B70DDE8FAE9FB80047A007B00025331
:10535000F490033412535C8882898322E02508F894
:10536000A3E03509F92274F21217248A088B097513
:105370000A0080278E828F83A3A3A3A3123E6A60B4
:10538000031238307C087D007900EEFAEFFB12370B
:10539000C48E828F83E4F0A3F0050A12521D5027B9
:1053A000850A0C750D007403780C1216A18508820D
:1053B000850983A3A3E0250CFEA3E0350DFF8E82B3
:1053C0008F8312494470AD85088285098374FFF08C
:1053D000A3F0025B2C74F6121724122DB08A828B74
:1053E00083E582458370067A007B008007A3A3A330
:1053F000A31249157F020217F674F41217248908C4
:105400008C828D83E06402703C1259E2FEA3E0F9C5
:10541000EEF874026870037429697029750A0275C0
:105420000B00780A121937741012170012194E74F3
:105430001012170012194EA9081236E67406121639
:10544000CAE9F980027901023EA774E812172474B0
:10545000FB1216B4E9851882851983F08A168B171A
:10546000ECFEEDFF7510008E828F83A3A3A3E0A254
:10547000E4502D741D121700124915122E0A8A824B
:105480008B83E58245837003025881790AEEFCEF35
:10549000FDAA16AB17121722E9F510600302588413
:1054A000741F121700E0F508A3E0F5097421121724
:1054B00000E0F50AA3E0F50B7423121700E0F50EE7
:1054C000A3E0F50F8E828F83E0640260030258220E
:1054D000A3125A43850882850983A3858212858396
:1054E00013EE2406F50CE43FF50D888289831258EB
:1054F000C1F514E439F51578141219C1010000281A
:105500000128245507000228E9550328575500298A
:105510001857012943570229E4560329185704292B
:10552000BC572258E50E450F600302581D850C82BA
:10553000850D83125A43E8FAE9FB8A828B83E08562
:105540000A82850B831258CC1219378A828B83A367
:10555000E0FCA3E00257A6E50E450F600302581DCC
:10556000850A82850B837401F01258B685088285FE
:105570000983F07C007D008E828F83A3A3A3A3E028
:105580002401FAA3E03400FB122CAEEA4B60408AFF
:10559000828B83E02402F8850A82850B83E028F061
:1055A000EA2404F8E43BF988828983E08512828545
:1055B00013831258DA1258CC1219378A828B83A3BC
:1055C0001258A9E5082403FAE43509FB0257AB8514
:1055D0000A82850B83E02404F07C047D007900AA14
:1055E00012AB131237C4025884E50E450F60030254
:1055F000581D1258B6FEA3E0FF850A82850B8374FE
:1056000004F0EE850882850983F0EF851282851308
:1056100083F0740312171AEEFAEFFB122CAE8A0C09
:105620008B0DEA450D70030256C78A828B83A3A3B4
:105630001242E0740112170A880E890F780E1219AF
:1056400037740512170012194E7CFF7DFF122CB41F
:1056500074041216CA8B0FEA450F7033850C8285CD
:105660000D831258AD121937850C82850D83A31254
:10567000194E7C027D007A587B83122AB074041282
:1056800016CAE9700A740112170074FFF0A3F08EB5
:10569000828F83E064027039750C02750D00780CFE
:1056A0001219378E828F83A31258A9E5082404FAB1
:1056B000E43509FB1237AC74021216CA850A8285DA
:1056C0000B83E0240280097401121700EEF0A3EFAF
:1056D000F0740112170012589B740112170012582F
:1056E00092025817E50E450F600302581D850C8283
:1056F000850D83125B31AA16AB171236EC850A8230
:10570000850B837402F0850882850983EAF085128F
:1057100082851383EB02581AE50E450F6003025889
:105720001D1258B6F8A3E0F9850A82850B8374022E
:10573000F0E8850882850983F0E985128285138364
:1057400002581A850C82850D831249151237A6EA74
:10575000FAF8C3950EE4950F405CE8650E450F70AE
:10576000047A008021851882851983E0FCE50E2CDF
:10577000FCE4350FFDC3EC98ED94005003E0800588
:10578000E50ECAC39AFAEA850A82850B83F08A0A73
:10579000750B00780A121937850C82850D83E02578
:1057A0000EFCA3E0350FFDAA08AB091237AC74025A
:1057B0001216CA025884751007025884E50E450F68
:1057C000705B850C82850D83125A43850A82850B96
:1057D000837407F08882898312589312588BE0856E
:1057E0001282851383F0E82402FAE439FB8A828B63
:1057F0008312589B8A828B83125892A3A3123E7203
:105800001258A0F0E82405F8500109888289831213
:1058100058A0A31258DAA3A3A3A3F0806775100BB6
:105820008062741D121700124915122DB08A828BE6
:1058300083E5824583604A125A43880C890DE84506
:105840000D603E7425121700E0F510781012193B18
:10585000780E121937780A12193778081219377426
:1058600007121700E0F9EEFCEFFDAA16AB17850C46
:1058700082850D8312172274071216CAE9F510806B
:105880000375100EA9107405024BD8F08882898325
:10589000A322A3E0850882850983221258E1F02221
:1058A0001258E1A3A32290033A125B3822E0F50ECE
:1058B000750F00780E22850C82850D83124D7BE0DA
:1058C00022E0FAA3E0F8E4C8F9EA2822F08A828B01
:1058D00083E0F50A750B00780A2212588B1258E102
:1058E00022E0850882850983A3A32274EE1217247F
:1058F00074FE1216B48A088B09ECFEEDFF890AAC1F
:1059000018AD19EEFAEFFB122CAE8A0C8B0DEA459E
:105910000D70030259D38518828519831249151217
:105920002DB08A828B83E582458370030259CEA312
:10593000A3125A43880E890FE8450F70030259CE0F
:105940007414121700E0F510A3E0F511E50AF50B49
:10595000780B12193B741912170012194E78101295
:105960001937741B121700E0F9AC0CAD0DAA08AB87
:1059700009850E82850F8312172274051216CAE953
:10598000F50B705274FE650A604C850C82850D83A0
:10599000E0640270411259E2FAA3E0F9EAF87402F5
:1059A000687003742969702E8510828511831258DE
:1059B000C1F50CE439F50D780C121937EEFCEFFD4A
:1059C000AA08AB09122E3474021216CA8008750B8D
:1059D0000E8003750B01A90B74021216CA7F0A020E
:1059E00017F6A3125A4788828983E02274F61217A9
:1059F0002474FE1216B4740C121700125A43E88570
:105A00001882851983F07401121700E9F0E4F50893
:105A1000F5097808121937750802780812193774D1
:105A20000412170A88088909780812193779FE12B2
:105A30002E1C74061216CA74021216CA0253F48E71
:105A4000828F83125A4722E0F8A3E0F92274F712FA
:105A50001724EAFEEBFF89089003511258A9123669
:105A6000ECEA5402600BA908EEFAEFFB122CA280BC
:105A70000279017F010217F674F212172474FE12E4
:105A800016B4EAFEEBFF890A7401650A6014740219
:105A9000650A6003025B277901123038E96003026E
:105AA0005B27EEFAEFFB122DFEEA4B6003122E0489
:105AB000A818A919880889097808121937750802E1
:105AC0007509007808121937750850750983780828
:105AD0001219377CFF7DFF7A017B00122CA8740617
:105AE0001216CA8038850882850983A3A3A3A3A3BD
:105AF000A3125B31EEFAEFFB1236D4E4F50CF50D90
:105B0000780C121937740212170012194E7CFF7D9F
:105B1000FFAA08AB09122CB474041216CA8A088BA7
:105B200009E508450970BE74021216CA7F060217FD
:105B3000F6124D7B125B3822E0FCA3E0FD2274F4E8
:105B40001217248A088B09ECFEEDFF90193EE0F451
:105B5000604B7A097B001237D0EA4B60408A828B17
:105B60008374B1F0A3E4125BA0F08A828B83A3A3B9
:105B7000E508F0A3E509125BA0A3EEF0A3EFF07433
:105B80000C121700125A438A828B83A3A3A3A3A3E8
:105B9000A3A3124F6C90193EE0F91237DC023EA726
:105BA000F08A828B83A3A3A3A32274F01217247418
:105BB000FA1216B48909ECFEEDFF7508008A0A8B0B
:105BC0000B780A12197B000410D05DED5B0B5C258D
:105BD0005C3D5C5B5C735C965CAE5CC25CEC5C6781
:105BE0005D785D8F5DAA5DD05DD05D025D740165FD
:105BF000096003025DCB8E828F83E0F8C39403407B
:105C000003025DCBE8901982025DA774026509600A
:105C100003025DCB8E828F83125E0C901983E8F0B5
:105C2000A3E9025DA7740165096003025DCB125D03
:105C3000FD4003025DCBE8900794025DA774016507
:105C4000096003025DCB8E828F83E0F8C394054028
:105C500003025DCBE8900795025DA77401650960BA
:105C600003025DCB125DFD4003025DCBE890079619
:105C7000025DA7741065096003025DCB750A10759B
:105C80000B00780A1219377A977B071237AC740227
:105C90001216CA025DF1740165096003025DCB1240
:105CA0005DFD4003025DCBE89007A7025DA774018C
:105CB00065096003025DCB8E828F83E090198602B6
:105CC0005DA7740465096003025DCB8E828F8378C3
:105CD0000C12156C90829D780C12138C5003025D8F
:105CE000CB9007A9780C12157B025DF1E9600302E5
:105CF0005DCB122C48E97005123698805590083C0F
:105D00008061740765096003025DCB750A06750B37
:105D100000780A1219378E828F83A3AC82AD837408
:105D2000021217121237B274021216CA7C007D00DA
:105D3000AA18AB198E828F83E0F9123644E9FEC3AC
:105D4000940A4003025DEE122C48E9700CEEF91241
:105D5000369E79501238F6806D743D2EF582E4340B
:105D600008F5837401804074016509705E125DFD61
:105D70005059E89007A8802F74016509704D8E82F4
:105D80008F83E0F8C3940A5042E890198580187414
:105D900001650970368E828F83E0F874F928C39408
:105DA0000A5028E8901987F0804774016509701B34
:105DB00090083BE0F88E828F83E090083BF0E8701B
:105DC00030E06401702B12368C8026750818802113
:105DD000C3EA9427EB9400501574026509700F8E86
:105DE000828F831268D2122AC8E9F50880037508E9
:105DF00002A90874061216CA7F080217F68E828F4F
:105E000083E0F8C3940222A9080261AAE0F8A3E0A3
:105E1000F92274F012172474B11216B48C0C8D0D83
:105E200090826B742012171A74061215C774201210
:105E3000171A123644E9F508745F121700E0F50AE4
:105E4000E9C3940A4003025F9075F006E9A4F509DE
:105E5000744112171A7A0E74202509F91238F0E9E4
:105E60007009744D121700E0FF80027F00901982C4
:105E7000E064027005750E018003750E00740865FC
:105E80000A70047422800274212509F50F7C1B7DA1
:105E900000790074261217121237C4EFA2E0E4331F
:105EA000FE742612171A7A1BA90F1238F0E9702512
:105EB0007440121700E024F9C3940A5018780E12A7
:105EC000193B742712171AEEF9AA0CAB0D122B6AA4
:105ED00074011216CA7C147D007900740C1217121A
:105EE0001237C4740C12171A7A1074242509F91287
:105EF00038F0E970307C1079FF740C1217121238E8
:105F000024E97021741C121700AC82AD837A0474EA
:105F1000252509F91238F0740C12171AEEF9AA0C9B
:105F2000AB0D122B52AC18AD197A0C74702508F910
