:020000040000FA
:0600000002011A0225A115
:03001300022D4B70
:03002B00022C9C08
:030053000226176B
:03007B00022CCA8A
:100083000223F7E5C754F84401F5C77901220000BC
:100093000080FB120086B90003020104E479217891
:1000A30008B800028004F709D8FCE479297802B87B
:1000B30000028004F709D8FCE4900281784A79179A
:1000C3008002F0A3D8FCD9FA781A90014A7A01BACF
:1000D30000028007E493A3F608DAF97ACA7B189042
:1000E300014B78D579038015E493A3AD82AE838A5F
:1000F300828B83F0A3AA82AB838D828E83D8E9D9C6
:10010300E77582877583FF740112012C75829175DF
:100113008300740012012C75D00075813F7518811E
:10012300751902759F00020096C09FF59FE473D076
:100133009F22D083D082C09FE493C0E0740193C018
:10014300E0740293F59F2201FF0000B40000280031
:100153002800283075A000A000A000A0000008001F
:1001630008E001F000100010001000100010001053
:100173000050005000500010001000D00700000095
:100183000000000F0001000500307507001000019A
:100193000081FF00000000FFFFFFA307C107A907BD
:1001A300E507FF02020208025000A0000000E80376
:1001B30002E183010000B28302E5830100002519F7
:1001C30002D5830100000C0302E583010000261918
:1001D30002CF83010000220302E5830100002719F7
:1001E30002CB83010000240302E5830100002819E8
:1001F30002BB83080000250302E5830100002919DF
:1002030002C9830100002A19FF0100FF2002E183D4
:10021300010000B58302E5830100008E1902BD834E
:10022300000000000002D7830300005303170051AE
:100233000E510E510E510E510E510E510E510E51C3
:100243000E510E510E510E510E0F112111091102B3
:100253000202020202020202010D0000001001026A
:10026300E183010000AF8302E583010000D119029D
:10027300D1830100008D0702E583010000D219023A
:10028300D383010000688202E583010000D31902D1
:10029300DD830100003E8202E583010000D41902E0
:1002A300F383010000DA8102E583010000D519021E
:1002B300F183010000EC8102E583010000D61902FD
:1002C300EF83010000B68102E583010000D7190224
:1002D300EB83010000C88102E583010000D8190205
:1002E300E9830100004C8202E583010000D9190271
:1002F300E783010000DA1901E8030577100AFFFF1D
:100303000001307503020106000000000000000038
:1003130000000000000000000000000000000000DA
:1003230000000000FFFF0600800CE8030E093030D8
:100333003030303030305942424C4505125000BC09
:1003430002020A000201060302F0FF09FF00910006
:10035300000000000030303030303030305942423D
:100363004C450000000000000000AD150000CB1557
:1003730012121252656164446174610044656275CE
:10038300674461746100546F6F6C44617461000869
:100393005772697465446174610002E1830100006E
:1003A300B88302E583010000F41A02C3830100004D
:1003B300AB1502D783030000D21502D983010000D5
:1003C300081B02E583010000F31A02C18301000048
:1003D3008B1502D783030000D01502D983010000D7
:1003E300FE1A02E583010000F21A02BF8301000036
:1003F3006B1502D783030000CE1502D983010000D9
:10040300F51A02E583010000111B02C583030000F6
:10041300D41502D983010000121B0303120135B95D
:10042300D601120135D1D60112013500D7011201CF
:10043300353BD70112013580D701120135CFD701E2
:1004430012013539D8011201356BD801120135ADCE
:10045300D80112013505D901120135CBD901120199
:10046300351EDA01120135F5DB0112013509DC0114
:100473001201351EDC011201350ADD01120135239B
:10048300DD0112013512DE0112013591DE01120187
:100493003504DF01120135DFDF0112013548E001C8
:1004A300120135C0E001120135EDE0011201350CF6
:1004B300E101120135D3E1011201356BE2011201B1
:1004C3003526E501120135B2E501120135E3E501F7
:1004D30012013527E6011201354AE6011201356D95
:1004E300E601120135EAE601120135A3E701120123
:1004F30035719F0212013520A00212013562A1025B
:10050300120135A4A20212013556A302120135B518
:10051300A30212013534A402120135E6A602120128
:100523003524A702120135CCA8021201357BA9029A
:100533001201352AAA02120135FCAA02120135EF73
:10054300AB02120135ABAC0212013559AD021201F7
:10055300353CEB031201359AEB03120135CBEB0368
:1005630012013515EE0312013535EE03120135661E
:10057300EE03120135ACEE0312013532EF03120123
:1005830035008004120135138004120135448004C0
:100593001201357E8004120135D780041201351E05
:1005A300810412013566810412013595810412011B
:1005B30035C48104120135FB8104120135428204E2
:1005C3001201355B8204120135B08204120135C970
:1005D3008204120135178304120135518304120179
:1005E300359F8903120135A28A03120135DB8A0381
:1005F300120135FE8A03120135108B031201354EA9
:100603008B03120135CA8B03120135928C0312013D
:1006130035B48C031201354B8D031201359D8D03C7
:10062300120135CE8D03120135DB8D0312013545E1
:100633008E031201359C8E031201359F8E03120126
:1006430035D88E03120135DB8E03120135E58E0397
:10065300120135398F031201357A8F03120135AD3B
:100663008F03120135EA8F03120135EC9003120157
:1006730035909103120135F9910312013537920335
:1006830012013557F3031201357FF303120135AC21
:10069300F303120135E4F30312013542F4031201AB
:1006A300358EF403120135F5F40312013535F503E4
:1006B30012013572F503120135A0F5031201354A13
:1006C300F60312013554F60312013561F6031201E4
:1006D3003594F603120135A0F603120135B8F6037B
:1006E300120135C2F6031201359EA204120135AC84
:1006F300A204120135C4A204120135DBA2041201C3
:100703003534E801120135DEE801120135F1E90162
:100713001201356DEA011201358BEB01120135C768
:10072300EB0112013562EC0112013546ED011201B4
:100733003512EE01120135A0EF0112013511F0015E
:10074300120135CBF001120135BDF101120135FD66
:10075300F101120135B1F201120135E3F201120187
:1007630035D9F4011201351BF50112013539F501B3
:100773001201359FF5011201356EF6011201353272
:10078300F70112013551F901120135DDB8031201E8
:1007930035C7B90312013572BA03120135C3BA035F
:1007A30012013573BB03120135E4BB03120135C9D2
:1007B300BC03120135FDBC03120135F6BD03120162
:1007C3003533BE031201350FBF031201354EBF038C
:1007D3001201356ABF0312013585960412013509EA
:1007E30097041201353497041201354E980412010F
:1007F3003550F70312013566F70312013584F70309
:1008030012013595F8031201359FF803120135CA19
:10081300F903120135C1FA031201352EFB0312014C
:10082300356CC503120135A2C603120135D9C603BF
:1008330012013530C70312013545C90312013503CF
:10084300B2011201358FB201120135F3B301120166
:1008530035FFB3011201353AB401120135A9B401D0
:10086300120135B2B501120135BBB6011201358251
:10087300B701120135DFB801120135FDB8011201CC
:10088300351AB901120135C7B90112013544BA014C
:100893001201356CBA0112013536BD011201353B27
:1008A300BD0112013554BF01120135A2BF0112016E
:1008B3003512C00112013550C0011201352CC1019E
:1008C300120135ECC10112013538C2011201353B69
:1008D300C2011201357FC201120135C7C2011201E3
:1008E3003506C30112013528C3011201355CC3016A
:1008F300120135BFC3011201350CCB031201351AA6
:10090300CB031201356DCB031201358CCB031201DE
:1009130035D1CB0312013515CD03120135B0CD030B
:10092300120135F4CD031201351ECE031201358DAC
:10093300CE03120135D3CE031201354ACF03120180
:1009430035FBCF03120135B02D00120135C02D0048
:10095300120135612E00120135BD2E001201357AC8
:100963002F00120135963000120135C830001201F4
:1009730035F73000120135A432001201351B350062
:100983001201358B37001201357D3800120135769F
:1009930039001201357D3B00120135713E00120111
:1009A30035A03F00120135A44100120135B44200C5
:1009B30012013543440012013534450012013582DA
:1009C3004500120135F145001201351546001201AB
:1009D30035664600120135074B00120135084C00FD
:1009E300120135694C00120135944C001201355A3D
:1009F3004D0012013551EF031201355BEF03120174
:100A030035A0EF03120135B4EF0312013544F003AF
:100A13001201357DF003120135B8F003120135E1FF
:100A2300F00312013535F1031201354AF1031201C6
:100A3300356CF10312013581F10312013595F10390
:100A4300120135AAF103120135E4F1031201351045
:100A5300F20312013597F203120135DAF2031201A0
:100A63003504F3031201352FF303120135D4FE02CB
:100A7300120135BEE002120135A1E1021201351C5B
:100A8300E20212013557E202120135A8E302120114
:100A93003536E402120135C8E6021201357AE7025F
:100AA30012013586E802120135F9E90212013552C5
:100AB300EA02120135AAE203120135EDE203120143
:100AC3003571E30312013548E603120135DE8F0465
:100AD3001201359090041201358C9104120135CB2B
:100AE30091041201352592041201357D98041201F7
:100AF30035E098041201357D9904120135B2990449
:100B0300120135E299041201351D9A041201353D93
:100B13009A041201350BD50312013597D50312013F
:100B23003556D6031201356ED70312013588D90322
:100B33001201352ACA021201354FCA021201351CAD
:100B4300CB02120135F0CB021201355DCC0212014A
:100B5300359DCC0212013539CD021201356DCE021D
:100B630012013548CF02120135A7CF0212013533E6
:100B7300D002120135A1D0021201352DD10212018A
:100B83003573D102120135E5D10212013577D20254
:100B930012013518D30212013538D3021201358000
:100BA300D302120135C9D302120135E5D302120172
:100BB300350BD40212013585D40212013593D402C8
:100BC30012013522D5021201358BD502120135BF30
:100BD300D90312013544DA0312013586DA0312010F
:100BE300356ADB03120135D7DB031201351BDC0346
:100BF3001201355FDC031201358CDC03120135B4BD
:100C0300DC03120135ECDC031201352ADD0312018A
:100C13003551DD03120135CBDD0312013515DE033A
:100C23001201350080021201359F8102120135D76E
:100C330083021201352B84021201355684021201FC
:100C43003532850212013562850212013591850222
:100C5300120135A48502120135E585021201351210
:100C630086021201356086021201359C860212014A
:100C730035E186021201352E8702120135A887025B
:100C8300120135E98902120135D38B021201350FA6
:100C93008C021201359E8D02120135E38D02120181
:100CA30035568E02120135AB8E02120135B08E021B
:100CB3001201353C8F021201355B90021201356C33
:100CC300900212013500800312013579800312016D
:100CD300353386031201353E8703120135E7880356
:100CE3001201357589031201358C6B001201350D24
:100CF3006C001201353A6C00120135836C0012014D
:100D030035846D00120135DD6D00120135596F0018
:100D1300120135DB6F00120135F66F0012013567E2
:100D23007000120135247100120135E771001201C0
:100D3300357572001201352C73001201353F7300B3
:100D4300120135D873001201356F74001201359604
:100D53007400120135FF7400120135497500120148
:100D6300359775001201353C7600120135DA7600AD
:100D7300120135677700120135D877001201351F4C
:100D83007800120135777800120135A97800120135
:100D9300356379001201356A7A00120135B37A009E
:100DA300120135D07A00120135EF7A001201352293
:100DB3007C00120135D97C00120135FE7C00120142
:100DC30035137D00120135837D00120135C47D008A
:100DD300120135E87E00120135697F00120135FBEF
:100DE300EA0212013546EB0212013552EB021201FF
:100DF3003526EC021201353DEC021201357AEC0284
:100E0300120135ABEC02120135DCEC021201351490
:100E1300ED021201356AED0212013580ED02120175
:100E230035BCED02120135CFED02120135F6ED02AC
:100E33001201352AEE0212013550EF021201359AE2
:100E4300F00212013596F102120135B3F2021201DA
:100E530035E57F001201358F9002120135CA9002E9
:100E63001201351C940212013578950212013537AF
:100E730096021201359E9902120135889A021201D7
:100E830035D49A02120135EE9A021201352B9B02D8
:100E9300120135369B02120135759B021201357E14
:100EA3009B02120135289C02120135FF9C0212019C
:100EB30035539D02120135B09D02120135229E0267
:100EC30012013597C401120135F6C701120135FC31
:100ED300C7011201352DCF0112013534D30112019F
:100EE30035B983041201354F840412013565840436
:100EF300120135BE84041201350285041201353C0A
:100F03008504120135D48504120135438604120188
:100F1300354C860412013558860412013572860455
:100F23001201359C8604120135B186041201351372
:100F330087041201353A8704120135FAE6031201D8
:100F43003507E70312013521E70312013554E7039F
:100F530012013592E703120135F7E7031201350C4D
:100F6300E80312013517E80312013524E8031201DF
:100F7300353BE80312013549E80312013554E80310
:100F830012013560E8031201356FE8031201357A67
:100F9300E8031201359DE80312013541E90312010B
:100FA3003551E9031201356BE90312013588E90371
:100FB300120135A3E903120135C8E903120135D340
:100FC300E903120135E8E903120135FCE9031201D3
:100FD300355DEA0312013563EA0312013569EA0359
:100FE3001201356FEA0312013587EA03120135BA9C
:100FF300EA03120135A7BC021201353EBD021201FC
:1010030035D6BD02120135C6BE02120135FDBE0240
:1010130012013510BF021201357EBF0212013519CC
:10102300C10212013540C102120135E2C1021201AF
:101033003517C20212013528C202120135A1C202BC
:10104300120135C2C202120135DAC202120135326F
:10105300C4021201353BC6021201358BC8021201CC
:10106300358EC902120135DDC90212013515AE02F2
:1010730012013512AF02120135FDAF02120135071D
:10108300B00212013529B00212013535B002120146
:101093003587B102120135B6B102120135E6B2024B
:1010A30012013528B30212013554B4021201352A54
:1010B300B5021201357CB502120135DBB50212010E
:1010C3003512B6021201354DB602120135E8B902E6
:1010D30012013501BA0212013583BA0212013591A8
:1010E300BA02120135E6BA02120135F4BA0212014C
:1010F3003561BB02120135D3BB0212013519BC02A3
:10110300120135AED502120135D0D502120135BA1E
:10111300D7021201355FDB02120135A2DC02120194
:10112300357CDD02120135059C041201352A9C042D
:101133001201359B9C04120135A59A03120135AEA9
:101143009A03120135B79A03120135E89B03120182
:1011530035079E031201353D9E03120135779E0329
:10116300120135AD9E03120135E79E031201351BB3
:101173009F03120135479F03120135909F0312010C
:1011830035CA9F0312013512A00312013568A0036B
:101193001201359DA003120135F8A0031201353267
:1011A300A10312013583A103120135B9A103120171
:1011B30035F3A10312013521A20312013544A20321
:1011C3001201356BA30412013597A304120135F202
:1011D300A304120135FCA3041201350CA40412016B
:1011E300350DD00312013534D0031201356FD0030E
:1011F300120135B9A404120135C64D00120135D6CA
:1012030050001201356B5200120135E652001201F3
:1012130035925300120135355400120135CD540077
:10122300120135FC54001201359459001201352680
:101233005A00120135625B00120135CC5B001201CA
:1012430035805C00120135365F00120135705F0096
:10125300120135DA5F00120135376000120135944F
:101263006000120135F16000120135DC61001201EA
:10127300352262001201356D620012013590620061
:10128300120135D76300120135EB63001201355AA1
:101293006500120135996500120135D96500120107
:1012A300352C66001201354D66001201358B660040
:1012B300120135C968001201350A6900120135A50A
:1012C3006900120135176A00120135586B001201CB
:1012D30035CBBF0312013571C003120135B6C1030B
:1012E3001201353FC2031201352CC3031201356BC2
:1012F300C303120135D5C30312013543C4031201DD
:1013030035A2A104120135B3A1041201358EA20442
:101313001201356D8A04120135388D041201357DB1
:10132300A50412013593A50412013598A5041201F1
:1013330035F5A50412013595A004120135A5A004C5
:10134300120135B9A0041201359CA10412013568BC
:101353008704120135108804120135528A041201E0
:1013630035BB9D041201350A9E041201353C9E04CF
:10137300120135CE9E04120135F87F00120135505B
:1013830092041201351C940412013588940412014D
:10139300353EA50412013553A504120135D2A2032B
:1013A300120135E7A20312013543A303120135AE3F
:1013B300A303120135F6A30312013568A403120136
:1013C3003591A4031201359FA40312013501A5032E
:1013D3001201353FA5031201355AA503120135F554
:1013E300A5031201359EA60312013521A70312019D
:1013F300355AA703120135E5A7031201353CA803AB
:101403001201359AA803120135ACA803120135D293
:10141300A803120135FAA80312013555AA031201D4
:10142300358B9404120135F29404120135AF9504FF
:101433001201352D960412013538FB031201356B69
:10144300FB031201359DFC03120135E1FC0312017C
:1014530035BDFD031201354A9F0412013528A0044E
:1014630012013584A004120135468D041201358B17
:101473008D04120135D18D041201359A8F041201A6
:101483003508FF0312013523FF0312013533FF0330
:1014930012013598FF0312013516A404120135EC2D
:1014A300F402120135C8F5021201350FF6021201DA
:1014B300354CF602120135BAF60212013514F70261
:1014C30012013584F70212013554F8021201354333
:1014D300F902120135BAF90212013556FB02120163
:1014E30035E3FB0212013556FC02120135D2FC0230
:1014F300120135E9FC021201350EFE0212013568B4
:10150300FE021201355EF9011201357EF901120165
:101513003584FA01120135D0FA01120135F0FA01CE
:1015230012013543FB01120135B0FB01120135F6FF
:10153300FB011201355AFC0112013506FF011201AC
:1015430035FD9D011201352AA3011201352DA60196
:1015530012013556A6011201357FA601120135315C
:10156300A7011201351AA90112013565AA01120159
:10157300357EAA01120135B5AF01120135EEAF0177
:1015830012013532B00112013543B1011201355D4B
:101593009203120135D392031201354495031201CC
:1015A30035A29703120135C09703120135E2970361
:1015B300120135C69803120135EE98031201357FE7
:1015C3009903120135609A03120135719A031201CE
:1015D30035D8B103120135EFB2031201350CB30351
:1015E300120135DDB403120135EBB5031201357B6E
:1015F300B70312013589AA03120135C2AA031201E6
:1016030035F2AA0312013597AB03120135BEAB03C2
:1016130012013512AC0312013520AC031201352E31
:10162300AC031201353CAC031201354AAC03120181
:1016330035CAAC03120135E2AC031201355EAD03CA
:10164300120135E1AD0312013506AE03120135AACD
:10165300AE03120135FEAE0312013565AF0312016D
:101663003589AF0312013550B1031201358EB10331
:101673001201359BB103120135BFB103120135FDD0
:101683008301120135398401120135678401120186
:101693003503850112013540850112013554850159
:1016A3001201353086011201356486011201357C41
:1016B3008601120135948601120135AC86011201AF
:1016C300353387011201357D8701120135CF87013B
:1016D300120135EB87011201352988011201354BBF
:1016E30088011201356D8801120135098901120142
:1016F300356889011201356F8901120135EF8A01BD
:101703001201357A8B01120135A98B01120135FCC7
:101713008B01120135218C01120135698C011201F3
:1017230035B28D01120135FD8D01120135648E0133
:10173300120135B08E01120135EA8E011201351006
:101743008F011201351E8F01120135448F011201E1
:1017530035CF8F01120135539201120135AB92013E
:10176300120135DD92011201357C93011201354BD3
:101773009401120135AC94011201354D950112010A
:1017830035329701120135A89701120135099801E5
:101793001201358E9801120135DF980112013521AE
:1017A30099011201354C99011201357B99011201FE
:1017B30035319A01120135499A01120135469B01CF
:1017C300120135C79D011201354B9A04120135A14F
:1017D3009A04120135049B041201351A9B04120169
:1017E30035389B04120135889B041201359F7F0015
:1017F300120135ABA50412013555DE031201354D37
:10180300E203120135D7A504E066701008A3E06671
:10181300700A08A3E066700408A3E06622C3E79693
:101823000809E7960809E7960809E79622C3E096B0
:1018330008A3E09608A3E09608A3E09622C008C395
:10184300E096F50808A3E096420808A3E09642084C
:1018530008A3E09645087001D3D00822080808EAD7
:10186300C0E0EBC0E086F0E7A4FA180986F0E7A42D
:101873002AFA180986F0E7A42AFA180986F0E7A4D9
:101883002AFA1986F0E7A4FBE5F02AFA190886F08C
:10189300E7A42BFBE5F03AFA190886F0E7A42BFB43
:1018A300E5F03AFA18180986F0E7A4C5F02BFBE433
:1018B3003AFA1908E7C5F0C6A426F6E5F03BFBE4BF
:1018C3003AFA1886F0E7A4F6E5F00826F6E43B08B2
:1018D300F6E43A08F6D0E0FBD0E0FA22E4CFC0E029
:1018E300E4CEC0E0E4CDC0E0E4CCC0E075F020E697
:1018F30026F608E633F608E633F608E633F6181854
:1019030018EC33FCED33FDEE33FEEF33FFC3EC97FE
:1019130009ED9709EE9709EF97191919400FFFEC95
:1019230097FC09ED97FD09EE97FE191906D5F0BF4F
:10193300ECF709EDF709EEF709EFF7191919D0E0FC
:10194300FCD0E0FDD0E0FED0E0FF226016080808DE
:10195300C6C313C618C613C618C613C618C613C6FD
:10196300D5E0EA227009080808226016181818C67C
:10197300C333C608C633C608C633C608C633C6D57E
:10198300E0EA22E627F60809E637F60809E637F61D
:101993000809E637F622E026F608A3E036F608A3A0
:1019A300E036F608A3E036F622E026F008A3E03698
:1019B300F008A3E036F008A3E036F022C3E697F67A
:1019C3000809E697F60809E697F60809E697F62266
:1019D300C3E096F008A3E096F008A3E096F008A30E
:1019E300E096F022E056F608A3E056F608A3E05688
:1019F300F608A3E056F622E056F008A3E056F008F6
:101A0300A3E056F008A3E056F022E046F008A3E076
:101A130046F008A3E046F008A3E046F022E0F6080B
:101A2300A3E0F608A3E0F608A3E0F622E6F008A395
:101A3300E6F008A3E6F008A3E6F022E0FAA3E0FB51
:101A4300A3E0FCA3E0FD22EAF0A3EBF0A3ECF0A3F8
:101A5300EDF022E0F8A3E0F9A3E0FAA3E0FB22E82B
:101A6300F0A3E9F0A3EAF0A3EBF022CAC0E0E6F0AA
:101A7300A308DAFAD0E0FA22CAC0E0E0A3C582CC18
:101A8300C582C583CDC583F0A3C582CCC582C5837A
:101A9300CDC583DAE6D0E0CA22C3E498F8E499F925
:101AA300121ADD8026C3E49AFAE49BFBE920E7E9F6
:101AB300121ADDE498F8E499F922C3E498F8E4995A
:101AC300F9121ADDE498F8E499F9C3E49AFAE49B6D
:101AD300FB22EB20E7CFE920E7E0B90010BB0008C9
:101AE300E88AF084F8AAF022E4FBC8FA22EB702219
:101AF3007B10C833C8C933C9335007C39AC3DBF259
:101B030080069A50012ADBEAC833F4C8C933F4C902
:101B1300FA2275F008E4C833C8C933C933C99AC96E
:101B23009B5004C92AC93BD5F0ECFBC833F4C8E485
:101B3300C9FA22600D08C6A2E713C618C613C6D594
:101B4300E0F322600C08C6C313C618C613C6D5E05B
:101B5300F422700422600D18C6C333C608C633C608
:101B6300D5E0F41822251810AF08F518400C151904
:101B73008008F51840021519D2AF2200C0D02518ED
:101B830010AF08F518500C05198008F51850020518
:101B930019D2AFD0D0222518F58210AF08F518401E
:101BA3000C15198008F51840021519D2AF85198351
:101BB300222518F582E43519F583222518F8E43532
:101BC30019F9222518FAE43519FB222518FCE43506
:101BD30019FD22E4732518C582C0E0E51934FFC559
:101BE30083C0E0E518C3958224F810AF08858319F4
:101BF3008582188008858319858218D2AFCEF0A319
:101C0300E520F0A37808E608F0A3DEFAEFF0A3E5F9
:101C13008124FAF8E608F0A3E608F0A3E608F0A3A7
:101C23000808E608F0A3E608F0A315811581D0E0C3
:101C3300FED0E0F8158115811581E8C0E0EEC0E023
:101C4300222518C582C0E0E51934FFC583C0E0E54D
:101C530018C3958224F910AF0885831985821880EB
:101C630008858319858218D2AFCEF0A3E520F0A3AF
:101C73007808E608F0A3DEFAEFF0A3E58124FBF889
:101C8300E608F0A3E608F0A30808E608F0A3E608D0
:101C9300F0A315811581D0E0FED0E0F81581158100
:101CA300E8C0E0EEC0E022851983851882E0A3FE38
:101CB300E0A3F5207808E0A3F608DFFAE0A3FFE04D
:101CC300A3C0E0E0A3C0E0E0A3C0E0E0A3C0E0E085
:101CD300A3C0E010AF088582188583198008858228
:101CE30018858319D2AFD083D0820201328519833C
:101CF300851882E0A3FEE0A3F5207808E0A3F608A8
:101D0300DFFAE0A3FFE0A3C0E0E0A3C0E0E0A3C0EC
:101D1300E0E0A3C0E010AF0885821885831980082E
:101D2300858218858319D2AFD083D08222C0D02573
:101D330018C582C0E0E51934FFC583C0E0E518C3C8
:101D4300958224F310AF088583198582188008854E
:101D53008319858218D2AFC8F0A3E9F0A3EAF0A3F0
:101D6300EBF0A37908E709F0A3D8FAECF0A3EDF0C0
:101D7300A3EEF0A3EFF0A3D0E0F0A3D0E0F0A3D064
:101D8300E0F0A3E520F0A3E5F0F0A3228519838515
:101D93001882E0C0E0A3E0F9A3E0FAA3E0FBA37894
:101DA30008E0F608A3DFFAE0FCA3E0FDA3E0FEA34E
:101DB300E0FFA3E0C0E0A3E0C0E0A3E0F5D0A3E030
:101DC300F520A3E0A3F5F010AF08858319858218E9
:101DD3008008858319858218D2AFD082D083D0E062
:101DE300F8D0E03274048006740280027401C0E00B
:101DF300F404121B99D0E0121A6E22740480047446
:101E0300028000CCC0E0EDC0E0E518C39CCCAD1966
:101E130050011D10AF068C188D1980068C188D1972
:101E2300D2AF121A7BD0E0FDD0E0FC22D083D08267
:101E3300E9C0E0E493A3C386F0C5F095F0F908E4A4
:101E430093A386F0C5F095F0700BE493A3C3994078
:101E530005E9048002A3E475F002A42582F582E576
:101E6300F03583F583D0E0F9E493A3C0E0E493C0B5
:101E7300E022D083D082ECC0E0EDC0E0E493A3FC89
:101E8300E493A3FDED4C600D121EC1EC24FFFCEDA9
:101E930034FFFD80EFE493A3FCE493A3FDED4C60DA
:101EA3000D121F00EC24FFFCED34FFFD80EFD0E0AA
:101EB300FDD0E0FCE493A3C0E0E493C0E022C0E0E3
:101EC300C3E49396087401939618400FE4936670E5
:101ED3000808740193661870007019A3A3C3E493F0
:101EE30096087401939618A3A3400DD0E0D0E0D0D8
:101EF300E0021EB1A3A3A3A3A3A3D0E022C0E0C02A
:101F0300F088F0E493667008087401936618700013
:101F1300A8F0A3A3700BD0F0D0E0D0E0D0E0021E75
:081F2300B1A3A3D0F0D0E0222D
:101F2C0074F6121C44EAFEEBFF8C088D09EE243487
:101F3C00F8E43FF9E8FCE9FDEE243512223FFAEE15
:101F4C00243712223FF88508F0A4C885F00A8509C9
:101F5C00F0A4250AF9EA28F8E439F97A257B00126D
:101F6C001ADDEA8C828D83F0FA131313541FF8EEEA
:101F7C0028F8E43FF9E8245DF582E439F583E0C004
:101F8C00E074075AF8D0E0B800028004C313D8FC00
:101F9C00A2E0EE50082434F582E43F801824361277
:101FAC00223FF5F0EA84A8F0EE28F8E43FF9E824A3
:101FBC0038F582E439F583E0F97F03021CF074F7FD
:101FCC00121C44EAFEEBFFEE243412223FC0E0EE7A
:101FDC002435F582E43FF583D0E0F08E828F83A325
:101FEC00A3A3A3A3A3A3C082C0838E828F83A3A326
:101FFC00A3A3A3E0F8A3E0F9D083D082E0C398F5C3
:10200C0008A3E099F509EE247F12223F6401703E8B
:10201C00EE2480F582E43FF583C082C0838E828FEC
:10202C0083A3A3A3A3A3E0240108A3E03400F9D065
:10203C0083D082E0687003A3E06970127CFE7D049B
:10204C00120D8BEE247FF582E43FF583E4F0AC08AF
:10205C00AD09EEFAEFFB121F2CE9F9122C8E7F0260
:10206C00021CF0C082C083851882851983E0F8A316
:10207C00E0F9C3EA9CEB9D5010C3EC98ED99401B22
:10208C00C3EA98EB995014800EC3EA98EB99400779
:10209C00C3EC98ED994004790180027900D083D08B
:1020AC008222EAC39CFAEB9DFB2274EF121C449033
:1020BC0003C3E064086005E06407702A9061C8E01F
:1020CC0060249003F1E0F4601DE0F875F00BA4C8F7
:1020DC00AAF02AF974F328FE740339FF8E828F83D9
:1020EC00A3A3A3E070030221C4906060E0C0E0EE03
:1020FC002468F582E43FF583D0E0F0750C6E750D25
:10210C0005750800750900E5D914F50AE5D95403DD
:10211C00F50E60127403650E6043E50A600AEE2446
:10212C006712223F70028075900569E06401601FA0
:10213C0012223C60047A0480027A00E50AC39AFAFF
:10214C0095E0FB120C358A088B09EA4509700512DB
:10215C000FD7806412223C70048A0C8B0DE50A6048
:10216C0012850C82850D83F50BE5D9F0A3150BE5D3
:10217C000B70F612223C604474FC250AF50A780CAC
:10218C00121DEBAC0AA90EEEFAEFFB120E4B740209
:10219C00121B7EE97026AA08AB09121427793D8E12
:1021AC00828F83A3A3A3A3E0FA7B00120A97EEFA13
:1021BC00EFFB120DAF120E5D7900806F7403650E8C
:1021CC006051850A107511007810121DEBAC0CAD26
:1021DC000DAA08AB09120E0F7402121B7EEE2468B6
:1021EC0012223F64807004747F8001E0F50C780C3F
:1021FC00121DEFE50EF50C780C121DEFA90AAC08B8
:10220C00AD099003F1E0FA7B00120A6D7402121B07
:10221C007E80139003C3E06408600BAC0CAD0DEE34
:10222C00FAEFFB120ED5120FE379017F0A021CF0B4
:10223C00EE2483F582E43FF583E02274F2121C4411
:10224C0074FC121B68EAFEEBFF8909A2AFE433F5BC
:10225C0008C2AF022311E0601B780C121DEBAC0B13
:10226C00A90EEEFAEFFB120E457402121B7E7404DB
:10227C00250BF50B7401250BF5D9850ED9E50B60F3
:10228C0018F50A850C82850D83E0F5D9A385820C9F
:10229C0085830D150AE50A70EA75E195EE2463F85D
:1022AC00E43FF97A007B00A2AFE433F50BC2AF88B0
:1022BC00828983E0FCA3E0FDEC4D603A888289833F
:1022CC00E0FAA3E0FB8A828B83E0FCA3E0FD88822A
:1022DC008983ECF0A3EDF08A828B83E4F0A3F08881
:1022EC00828983E0FCA3E0FDEC4D700A888289832F
:1022FC00A3A3E4F0A3F0E50BA2E092AF1214279095
:10230C000505E004F0EE246312223FF8A3E0F9E89F
:10231C00496064EE246312223F2402F8A3E03400E7
:10232C00F988828983E5822402F50CE43583F50D66
:10233C00E0F50BA3E0F50EEE246212223F6401706F
:10234C00369061D0E0F812223C60047C0480027C60
:10235C00007480C398FA95E0FBE50B2CF8E434008C
:10236C00F9E82402F8500109C3EA98EB99A2D26566
:10237C00D0334003022262900505E0604D900506C3
:10238C00E0F8900505E0C398500C74026509703AAA
:10239C00900507E060348E828F83A3A3A3A3E0850E
:1023AC0018828519831223E67402121BB4E81223D7
:1023BC00E6900504E028F07402121BCEAA18AB19A3
:1023CC007901120AC1900505E4F0E508A2E092AF8C
:1023DC007404121B7E7F07021CF0F0A3E4F090053E
:1023EC0005E0F8228521878522C622C0E074EB1215
:1023FC001D30A2AFE433F508C2AF759B009061822B
:10240C00E0A2E05030E591A2E0502A7591FE7401F3
:10241C006521702112258A120F23122578121DFEB8
:10242C00122A387404121B7EE964017005790112BA
:10243C000F6B1220B6906182E0A2E5505DE591A28F
:10244C00E550577591DF9003C3E064076005E064C5
:10245C0008702F12258A74016521703E120F231209
:10246C002578121DFE122A387404121B7EE96401B1
:10247C0070057901120F6B7901EEFAEFFB1222470E
:10248C008018E0640D70139003E5E004F06428708C
:10249C0002E4F07A00E0F9120FE9906182E0A2E622
:1024AC00400302254DE591A2E6400302254D7591AE
:1024BC00BF9003C3E064057008120F0B120F178056
:1024CC0003120F11752100120F77E99003C4F079F4
:1024DC0000120F6B120CFB7A017B009003C2E0F927
:1024EC001213F7907803E06442705690056DE01477
:1024FC00F0704EC2AF12250400782AD0E0F618D046
:10250C00E0F6E59F5407F87005750DFF8003750D17
:10251C007FC4C0E07829E6F50A08E6550DF50B7482
:10252C000B780A121B46D0E0250AF8906270E0A2E4
:10253C00E740F8E8C333906272F0906270E0D2E04A
:10254C00F0906181E0A2E35009E5E9A2E350037544
:10255C00E9F7A3E0A2E75009E591A2E750037591D2
:10256C007FE508A2E092AF7F08021D8F8E828F83D9
:10257C00E0F8A3E0C82416F582E438F58322900332
:10258C00F1E0F875F00BA4C8AAF02AF974F328FE50
:10259C00740339FF22C0E0C0D0C082C08390618335
:1025AC00E0A2E05009E5BFA2E0500375BFFEE0A237
:1025BC00E15009E5BFA2E1500375BFFDE0A2E25076
:1025CC0009E5BFA2E2500375BFFBE0A2E35009E5A9
:1025DC00BFA2E3500375BFF7E0A2E45009E5BFA228
:1025EC00E4500375BFEFE0A2E55009E5BFA2E5504A
:1025FC000375BFDFE0A2E65009E5BFA2E650037504
:10260C00BFBFD083D082D0D0D0E032C0E074F21201
:10261C001D30E5A7A2E6500FE5A1A2E6500953A78D
:10262C00BF75A1BF12266BE5A7A2E5500CE5A1A2D0
:10263C00E5500653A7DF75A1DFE5A7A2E15009E538
:10264C00A1A2E1500375A1FDE5A7A2E2500CE5A102
:10265C00A2E2500653A7FB75A1FB7F01021D8F74EC
:10266C00F7121C447521019003C3E0640670151227
:10267C000E818A828B83A3A3A3A3A3A3E0FAA3E076
:10268C00FB120EF9A2AFE433FED2AF9003C9E064A3
:10269C000170187A207B009003C2E0F91215297A98
:1026AC00207B009003C2E0F91213FD906182E0D20E
:1026BC00E6F090056AE0602185C62280169003C87A
:1026CC00E064017008E5C654F84405F5C653BEFC39
:1026DC001223F07401652160E4EEA2E092AF7F0258
:1026EC00021CF0008E238F24858228858327851871
:1026FC0082851983E0CEA3E0CF852882852783EBE2
:10270C00C9EAC8EDCBECCA75F010C3E833C8E9339D
:10271C00C9EA33CAEB33CBC3EA9EF526EB9FF5250A
:10272C00B35004AB25AA26EC33CCED33CDD5F0DA7F
:10273C00AE23AF242274E9121C4474FA121B68EA0B
:10274C00FEEBFF8C0A8D0B120F2FEAF8EBF9ECFA6B
:10275C00EDFB8E828F83121A629003C3E024F7C3C1
:10276C00940550067514010228A8120E818A088B54
:10277C0009EA450970030228A5EEFCEFFDAA18AB87
:10278C0019120F29850882850983A3A3780C121AC4
:10279C0020908317780C1219E78518828519837895
:1027AC0010121A2090831778101219E7780C7910F0
:1027BC00121820501F780C79101219BF90836B7867
:1027CC000C1218404047850C14850D15850E168586
:1027DC000F17804590836B85101485111585121683
:1027EC008513177814790C1219BF781412184050ED
:1027FC001C75140075150075160075170178147981
:10280C00101219BF7814790C121986800C751401EA
:10281C007515007516007517007409781412196770
:10282C00908367780C121A207814790C1218DF85B3
:10283C000882850983A3A3A3A3A3A31228C6121AF3
:10284C00DD880C890DE4F50EF50F7814790C12194E
:10285C00867404121BB41228C6121ADDE8FA8A0C0C
:10286C00E4F50D7814790C12182050077814790CB3
:10287C001219BF9003C3E06408600AE064066005A7
:10288C00E06405702090833F781412184050169025
:10289C00833B7814121999800C751400751500750A
:1028AC001600751700850A82850B837814121A2F6F
:1028BC007406121B7E7F10021CF0E0F8A3E0F97A7C
:1028CC00D07B032274F7121C44120F41900568E070
:1028DC0064017010906245E4F0A3F053F4F343FEEE
:1028EC000C5390F3120EE7E5C654B84441F5C6E517
:1028FC009E5447644170F8906185740FF0900566A2
:10290C00E0F47002A3E0604E900567E0600814608C
:10291C001B14602E8040750801750900900566E057
:10292C007808121B55E508F45280802A7508017549
:10293C000900900566E07808121B55E508F45290E2
:10294C008014750801750900900566E07808121B63
:10295C0055E508F452A079007F02021CF074F712BE
:10296C001C44E9FEEAFF120F4174016E700C7A8070
:10297C007B009003C2E0F91213F7902DA8E493F4B6
:10298C006008E493F9120CEF800953C6B8E59E5425
:10299C004770FA120EED900568E064017003120D99
:1029AC000D900566E0F47002A3E0604B900567E0C3
:1029BC00600814601A14602C803D750801750900BC
:1029CC00900566E07808121B55E508428080287552
:1029DC000801750900900566E07808121B55E5089A
:1029EC0042908013750801750900900566E078081F
:1029FC00121B55E50842A0120E818A088B09A80803
:102A0C00A909E8496014E5E170FCE82414F582E4B6
:102A1C0039F583E0F46003E0F5E174016F700A7A34
:102A2C00019003C2E0F912148D02296474F1121C96
:102A3C00448A088B098C0A8D0B908317780812191D
:102A4C00E7740F121BB4780C121A20908317780CB1
:102A5C001219E77808790C12182090836B501078B3
:102A6C0008790C1219BF78081218404014800E789F
:102A7C000C79081219BF780C121840500479018097
:102A8C000279007F08021CF074ED121C448A088B3A
:102A9C00098C0A8D0B90831778081219E77413129E
:102AAC001BB4780C121A20908317780C1219E77843
:102ABC000C790812182040117808790C1219BFAA49
:102ACC0008AB09AC0AAD0B802275100075110075AE
:102ADC0012007513017810790C1219BF781079084F
:102AEC00121986AA10AB11AC12AD137F0C021CF09C
:102AFC009083177808121A208A828B83780812190F
:102B0C00FA7F04021CF074F5121C448C828D8378BD
:102B1C0008121A208A828B8378081219D3122B6A16
:102B2C00C3E09CF0A3E09D122B5C4022908337788D
:102B3C0008121A208A828B8378081219AC8A828B2D
:102B4C0083A3A3A3A3E02420F0A3E0344EF080A041
:102B5C00F088828983C3E09420A3E0944E22EA2477
:102B6C0004F8E43BF98C828D83A3A3A3A3E0FCA31C
:102B7C00E0FD888289832274F5121C44E9FE9005DD
:102B8C0020E0FAA3E0FBEE29F8E433F974FE28F513
:102B9C0082748139F583E02AF508A3E03BF50978C6
:102BAC0008121DEB908343121A3E1226F074021287
:102BBC001B7E8A088B098C0A8D0B741078081219ED
:102BCC004EAA08AB097F04021CF074F1121C448A53
:102BDC000C8B0D8C0E8D0F7411121BB4121E027403
:102BEC0011121BB4E02401F508A3E03400F509E44C
:102BFC00F50AF50B780C790812185F9082E77808C3
:102C0C00121A20780C790812185FAA0CAB0DAC0EB6
:102C1C00AD0F1226F07402121B7E8B09EA45096077
:102C2C00047A0180027A00EC2AFCE43DFD74131254
:102C3C001BB4E0F8A3E0F9E8FEE9FFECF8EDF97A53
:102C4C00717B02121ADD88088909E4F50AF50B8EEE
:102C5C00828F837808121A2FECF8EDF97A717B02C7
:102C6C00121ADD8A088B0974057808121B558E829E
:102C7C008F83A3A3A3A3E508F0A3E509F07F0802C3
:102C8C001CF0C082C083E9906000F0D083D0822217
:102C9C00C0E0C0D0E8C0E0E9C0E0A2AFE433F8D2B5
:102CAC00AFC2C7751A00E8F9E8A2E092AFD0E0F91C
:102CBC00D0E0F8D0D0D0E032C2AF02000022C0E0A9
:102CCC0074F2121D30A2AFE433FED2AF9018C6E0FE
:102CDC00640170309018C5E0702AE58AA2E6502491
:102CEC0090160AE0701E908363121DFE7A007B081A
:102CFC009015F9E0F912151D7404121B7EE990165B
:102D0C000A7401F0E58AA2E7502490160BE0701EBD
:102D1C00908363121DFE7A087B009015F9E0F9127E
:102D2C00151D7404121B7EE990160B7401F0758A44
:102D3C0000C2EBEEF8EEA2E092AF7F01021D8FC055
:102D4C00E0C0D0E8C0E0E9C0E0EAC0E0C082C083E7
:102D5C009018C77400F0AAC1EAC0E09017C6E0F85A
:102D6C00790074C728F582741739F583D0E0F09098
:102D7C0017C6E02401F09017C6E064FA700353867E
:102D8C00BF9017C57402F0C28BD083D082D0E0FA0A
:0B2D9C00D0E0F9D0E0F8D0D0D0E03259
:102DA800FFFFFFFFFFFFFFFFC082C083E990198D7F
:102DB800F0D083D08202013274F6121BD8E9900356
:102DC80035F0900395E0F50875090074027808124B
:102DD8001B55AA08AB091214759003361237739065
:102DE8000336123B60606F900395E075F003A4FA18
:102DF800ABF0121475900353123773900353123BC0
:102E080060700B900336123B3112147B804890039C
:102E180053124AC57AFF7BFF1212D17A0080198AB1
:102E28000875090074027808121B5512456D74FF65
:102E3800122F73E4F0A3F00A900395E0F8EAC39820
:102E480040DD790512095F900335E0F912084B7AE5
:102E5800E97B09120BD502461074F4121BD88A08B4
:102E68008B09EB54806047900335E0F91213DF8A31
:102E78000A8B0BAE0AAF0BEE4F602A8E828F83E06F
:102E880064B0701A120971E960148E828F83A3A34B
:102E9800A3A3E0F9EE2405FAE43FFB120941EEFA98
:102EA800EFFB1213CDAA08E5096480FB80047A00C1
:102EB8007B000230C374F2121BD874FB121B68EA41
:102EC800FEEBFFEE4F60457403121BB4EEF0A3EF68
:102ED800F0851882851983ECF0A3EDF07402121BBB
:102EE800B4E9F0AA18AB19120845E9F50870757429
:102EF80013121BB4E0F50AA3E0F50BE50A450B60D5
:102F0800638E828F831234FCEE4F70057508028041
:102F1800537A067B001214758A0C8B0DA80CA90D28
:102F2800E8497005750813803B88828983E4122F6D
:102F380073EEF0A3EF12308FE50AF0A3E50BF090E3
:102F480003391230889003396017E0FCA3E080034E
:102F5800EAFCEBFD8C828D8312308870F38C828DB5
:102F680083124188A9087405024D45F0A3124AA7A7
:102F7800A32274F2121BD88908890C750D007403FA
:102F8800780C121B55850C0A850D0B900338F090B0
:102F98000336123F93123086602E12147B7900801C
:102FA8001D890C750D007402780C121B55900336A0
:102FB80012442C8882F583A3A3E4F0A3F0099003BC
:102FC80095E0F8E9C39840D9900395E0FA850AF0AE
:102FD800A4CAA8F0850BF0A428FB1214758A0C8BE0
:102FE8000DAE0CAF0DEE4F700302307C900395E0F0
:102FF800FC850AF0A4CCA8F0850BF0A428FD790084
:103008001213BB7C0080318D0C750D007403780C95
:10301800121B558A828B8312308188828983E4F05F
:1030280012308EA3A3F0A3F00DEDC3950840D8EE9F
:10303800250AFEEF350BFF0C900395E0F8ECC398DA
:1030480050288C0C750D007402780C121B559003D7
:1030580036123081E82402500109FAE9FB8A828B92
:1030680083EEF0A3EFF07D0080BFE508900338F011
:10307800790080027913024D48124430F922A3A343
:10308800123B35EA4B22A3124AA7A3A3A32274F446
:10309800121BD87900EAA2E0501F7508C975098289
:1030A8007808121DEB79107C047D007A8F7B191249
:1030B80009597402121B7EE9F980007F04021CAAD8
:1030C800C082C083900339123B60601C8882898368
:1030D800A3A3E06A7003A3E06B8882898370E8A3E6
:1030E800A3A3A3123B3180047A007B00022DB9749C
:1030F800F2121BD874FD121B68EAFEEBFF851882DA
:10310800851983E4F0A3F07402121BB47401F01261
:103118003B5D7014120B0F12147590033C12377339
:10312800123B5D7003023289123873EE2404F50AEB
:10313800E43FF50B850A82F583E024FE603C24FC1D
:10314800607424FE607E24FE70030231D924FE7070
:10315800030231E624FE70030231F324FE700302F9
:10316800320024FE700302320D24FC700302322E5A
:1031780024FE7003023246023282120B0F90033E85
:10318800EAF0A3EB12329512058DE9600302328250
:1031980090033E121E028E828F83A3A3A3A3A312C1
:1031A8004AC5850882850983123B311209297402B0
:1031B800121B7E023282AC18AD19EEFAEFFB12092F
:1031C80077023251AC18AD19EEFAEFFB12097D8087
:1031D80078AC18AD19EEFAEFFB120983806BAC18C6
:1031E800AD19EEFAEFFB120989805EAC18AD19EE45
:1031F800FAEFFB12098F8051AC18AD19EEFAEFFB0C
:1032080012099580447402121BBE880C890D780C33
:10321800121DEB7402121BCEEEFAEFFB12099B741F
:1032280002121B7E8023AC18AD19EEFAEFFB1209CF
:10323800A1E9F870167402121BB4E4F0803CAC18D3
:10324800AD19EEFAEFFB1209A7E9F8E8602C8E82B7
:103258008F83A3E064146022850A82850B83E09043
:10326800033EF0851882851983123B3190033F1283
:103278003773E8A3123295120587EEFAEFFB1208AE
:10328800FF7402121BB4E0F97403024D45F07C3E52
:103298007D03850882850983123B352274E8121B59
:1032A800D874FA121B687404121BB4ECF0A3EDF086
:1032B8008A128B13EA2405F50EE43513F50FEA2478
:1032C80002F510E43513F511851082F583123B31B0
:1032D80012067D8A0A8B0B7508007C037D00790035
:1032E8007A3E7B031213BBE50E2402F516E4350F74
:1032F800F5177402121BBE880C890D780C121DEB91
:10330800850E82850F83A3A3A3A3E0F50C750D009A
:10331800780C121DEBE50E2405F50CE4350FF50DC0
:10332800780C121DEB851682851783123E38120819
:10333800637406121B7E8A0C8B0DE50C450D700319
:103348000234C58020851882851983E088828983A4
:10335800F00508851882851983A3E0C0E0123506B8
:10336800D0E0F00508E50A24FBFAE50B34FFFBC3BF
:10337800E5089AE49B40030234C57E007F0085126D
:1033880082851383A3A3A3A3E0F5097809121DEF8F
:10339800E4F514F5157814121DEB75143B75150337
:1033A8007814121DEB90033C121E027409121BB410
:1033B800121E02E50A24F9F9AC0CAD0D85108285C0
:1033C8001183123B311209D17409121B7EE9600383
:1033D800023466850E82850F83A3A3A3A3A3A3A3A8
:1033E800E0F890033BE0687075E0F5148E157814EA
:1033F800121DEB124AC2850E82850F83A3A3A3A3D5
:10340800A3A3A3A3123B311213B57402121B7EE9C6
:10341800604C90033F123B60703BE4F51478141243
:103428001DEB7CFF7DFF7907851082851183123B98
:103438003112093B7402121B7E123B667017850E0F
:1034480082850F83124C5F7404121BB4124520123C
:103458003E690234F9850C82850D831234FCA81864
:10346800A919881489157814121DEB7404121BB459
:10347800121E0285168285178312376912086F7427
:1034880004121B7E8A0C8B0DEE4F7003023342121E
:103498003506EE123511123E1FEF123511F8A3E072
:1034A8003400F9E50C450D600302334D88828983A9
:1034B80074FFF0050812350674FFF00508E508608A
:1034C8001A1313543F123779120599E960099003CA
:1034D8003F123B3112142779008016850E82850F22
:1034E80083124C5F7404121BB41245201241887970
:1034F8000A023DF2A3A3A3A3E0FEA3E0FF22A808CB
:1035080090033FE028123E1F22F005080890033F71
:10351800E0282274E8121BD874FA121B687402128D
:103528001BB41237737404121BB4ECF0A3EDF074DF
:1035380002121BB4E02405123E08E0F50CA3E0F5E6
:103548000D7402121BB4E02402F510A3E03400F558
:1035580011851082F583123B3112067D75080075BE
:103568000900EA24FCFEEB34FFFF8008050CE50C9B
:103578007002050DA808C3EE98EF940050030237B7
:1035880025A818A919880E890F780E121DEB851425
:1035980082851583A3A3A3A3124AC9121DEBE514C0
:1035A8002405F50EE43515F50F780E121DEB85147C
:1035B800828515831237671208637406121B7E8A88
:1035C8000E8B0FEA450F7003023725EA2404F5161F
:1035D800E4350FF517851682F583E0F50CA3E0F5C1
:1035E8000D851882851983124AC58A828B83A3A305
:1035F800A3E0F9851082851183123B31120851E945
:10360800F50960030237257402121BB4123E2FF528
:10361800097809121DEFE4F512F5137812121DEB63
:1036280075123B7513037812121DEB90033C121EA2
:10363800027407121BB4121E02EEF9AC0EAD0F8510
:103648001082851183123B311209D17409121B7E35
:10365800E9F5096003023725E508703FE4F50EF542
:103668000F780E121DEB7CFF7DFF7909851082858E
:103678001183123B3112093B7402121B7E123E5514
:10368800700D7404121BB412375C7911023759900B
:10369800033BE0240290033FF0801490033FE0FADC
:1036A80090033BE0790024025001096A497072A82E
:1036B8000890033BE0FAE82AFAE43400FBEE9AEFBC
:1036C8009B405A851682851783E0C0E0900340121C
:1036D800350BD0E0F00508851682851783A3E0C076
:1036E800E00890034012350BD0E0F0050890033B4A
:1036F800124AC9121DEB124AC2A808123DFC121345
:10370800A37402121B7E90033BE02508F50874FFA2
:10371800650C700474FF650D6003023574E508607C
:103728001F90033FE0F5F0E5088412377912059FF2
:10373800E96009900340123B311214277900801187
:10374800E509700375090A7404121BB412375CA9E1
:1037580009023DF2123F97E50CF0A3E50DF022A314
:10376800A3124D54AA0CAB0D22A3A3EAF0A3EBF0CD
:103778002290033EF07C3E7D0385108285118312E2
:103788003B352274EC121BD874FC121B6812429849
:103798007402121BCE123B2B1208698A0C8B0DEA9D
:1037A800450D7003023863123873A818A9198810D8
:1037B80089117810121DEB7CFF7DFF790B8508823B
:1037C800850983123B3112093B7402121B7E1239A0
:1037D80069700C850A82850B83123E660238708EEA
:1037E800828F83A3A3A3A3E0F5127812121DEFE43E
:1037F800F512F5137812121DEB75123E7513037846
:1038080012121DEB7810121DEB7409121BB4121E54
:10381800027409121BB4E0F9AC0CAD0D8508828561
:103828000983123B311209D17409121B7EE9FE701B
:10383800157C3E7D03850882850983123B3112057C
:10384800A5E97009802074166E70027E0090033F0F
:10385800123B31121427EE7004800B7E01850A8218
:10386800850B83124185EEF902419AEE2402F50890
:10387800E43FF5092274EC121BD874FC121B68EAA9
:10388800FEEBFF8C0E8D0FEE2405F508E43FF509DD
:103898007402121BCE850882850983123B311208F7
:1038A800698A0C8B0DEA450D7003023959EE240222
:1038B800F50AE43FF50BA818A919881089117810A2
:1038C800121DEB7CFF7DFF790D123B2B12093B7417
:1038D80002121B7E123969700B85088285098312D2
:1038E8003E66807A8E828F83A3A3A3A3E0F5127825
:1038F80012121DEF850882850983A3A3121E027583
:10390800123E7513037812121DEB7810121DEB741A
:1039180009121BB4121E027409121BB4E0F9123BFF
:10392800271209D17409121B7EE9FE700F7C3E7DB7
:1039380003123B2B1205ABE97009802074166E70D8
:10394800027E0090033F123B31121427EE70048070
:103958000B7E01850882850983124185EEF90241B3
:103968009A123B70F510A3E0F511EA45112274E8AC
:10397800121BD874FE121B688A168B178C148D15AF
:10398800EA2405F50CE43517F50DEA2402F50EE4F2
:103998003517F50F850E82F583123B3112067D8AA5
:1039A800088B09750B007C037D0079007A3E7B0348
:1039B8001213BB750A00E50814F5100424FFF50876
:1039C800E50934FFF509805490033EE0FA90033B83
:1039D800E0F8EA28F8E43400F9E50898E509995090
:1039E8000D90033EE0F8E510C39890033BF0E0F536
:1039F800127513007812121DEB124AC290033FE0B1
:103A08002AFAA3E03400FB1213A37402121B7E905F
:103A1800033BE0F890033EE028F0050A850C828518
:103A28000D83A3A312443C4003023B0C90033EE0E9
:103A3800C39508E495094003023B0CAE0AEE2EFE3E
:103A4800E433FF123B4BAC18AD19124ADDE439FBE5
:103A58001208698A128B13AC12AD13EC4D701B75EA
:103A68000B01123B3B12418990033F1230886003DF
:103A7800121427A90B7402023DF485168285178358
:103A8800A3A3A3A3E0F50B780B121DEFE4F512F541
:103A9800137812121DEB75123B7513037812121D61
:103AA800EB90033C121E027407121BB4121E02A9EB
:103AB80010850E82850F83123B311209D1740912C9
:103AC8001B7EE9F50B709B90033F123B606003027D
:103AD80039D0E4F512F5137812121DEB7CFF7DFF47
:103AE800790F850E82850F83123B3112093B7402D0
:103AF800121B7E123B6660030239D0123B3B123E1A
:103B08006A023A7D7C3E7D03850E82850F83123BD7
:103B1800311205B1E96003023A707900023A7DACCE
:103B28000CAD0D850A82850B83123B3522E0FAA382
:103B3800E0FB22123B4BE0FAA3E0F9EA8514828508
:103B4800158322850C82850D83E02EF8A3E03FF9CA
:103B5800888289832290033C124C63E84922123BF5
:103B680070F8A3E0F9E8492290033FEAF0A3EBF0EC
:103B780090033FE02274E8121BD874FA121B687491
:103B880004121BB41237738C168D177404121BB4ED
:103B9800E02405F50EA3E03400F50F7404121BB4FD
:103BA800E02402123E08123B3112067D8A0A8B0B72
:103BB8007F007E00A818A919880889097808121DAD
:103BC800EB850E82850F83A3A3A3A3E0F5088E09D6
:103BD8007808121DEBE50E2405F508E4350FF50904
:103BE8007808121DEB850E82850F83A3A3123E3839
:103BF8001208637406121B7E8A0C8B0D8029123EF4
:103C080029F00F123E29F00F90033B124174121D48
:103C1800EB124AC2EFF8123DFC1213A37402121BF6
:103C28007E90033BE02FFFE50C450D7003023CB886
:103C38008518828519831242AAA3A3A3E0F98514E3
:103C480082851583123B31120851E9FEE50C2404E4
:103C5800F510E4350DF511EE70507404121BB41212
:103C68003E2FF5087808121DEFE4F508F5097808E5
:103C7800121DEB75083B7509037808121DEB9003BC
:103C88003C121E027407121BB4121E02E50A24FA23
:103C9800F9AC0CAD0D851482851583123B311209E0
:103CA800D17409121B7EE9FE6039123E4512418823
:103CB800EF7003023DDF90033FE0F5F0EF849003DF
:103CC8003EF07C3E7D03851482851583123B3112BC
:103CD80005B7E96009900340123B311214277900B7
:103CE800023DF28F08EF703BE4F512F513781212DB
:103CF8001DEB7CFF7DFF7911851482851583123BAE
:103D08003112093B7402121B7E123E557009123E95
:103D180045123E69023DF290033BE0240490033FC4
:103D2800F0803590033BE0F890033FE0FAE8240484
:103D3800FCE43400FDEC6A4D6003023CBEE50A2455
:103D4800FAFAE50B34FFFBE50828F8E43400F9EA51
:103D580098EB995003023CBE851082851183E0C020
:103D6800E0900340E02FF8A3E034008882F583D088
:103D7800E0F00F851082851183A3E0C0E0123E16A3
:103D8800D0E0F00F7402121BBE8808890978081267
:103D98001DEB7402121BB4121E02850E82850F835E
:103DA80012376712086F7404121B7E8A0C8B0DEA97
:103DB800450D7003023C067402121BB4E0C0E01209
:103DC8003E16D0E0F00F7402121BB4A3E0C0E0125C
:103DD8003E16D0E0023C0EEE70027E0A850E828509
:103DE8000F83123E4B124188EEF97406121B7E7F38
:103DF80010021CAA900340E028FAA3E03400FB223A
:103E0800F514A3E03400F515851482F58322123EDB
:103E18001A22900340E02FFAA3E034008A82F58347
:103E280022123E1A74FF22123F97A3A3A3A3E022F3
:103E3800124D54850E82850F83123B3522851082E0
:103E4800851183124C63851682851783229003405F
:103E5800EAF0A3EBF0900340124C63E849221241C8
:103E68008EE8F0A3E9F079112274EA121BD874FEE7
:103E7800121B688A088B098C128D13EA2405FEE44C
:103E88003509FFAC18AD198E828F83123B311208A9
:103E9800698A0C8B0DEE2406F50EE43FF50FEA4512
:103EA8000D7003023F69E5082402F50AE43509F5B7
:103EB8000B8A828B83A3A3A3E0A2E55028851882EE
:103EC800851983123B311209C58A108B11EA4511F5
:103ED80060207912123B27851082851183121BD628
:103EE800E9F50C707F850E82850F83E060097952B1
:103EF8008011750C0E806D850882850983A3A3A3A4
:103F0800A3E0F9E4F508F5097808121DEB8E828F15
:103F180083A3A3E0F5087808121DEB8E828F83A394
:103F2800A3A3121E028E828F83124AC5123B2B1244
:103F380009D77406121B7EE9F50C7011850E82856F
:103F48000F83E0702D123B2B1205BD80257416657A
:103F58000C7011750C007418121BB4123F93E48096
:103F680010750C01124C5B851282851383E8F0A34F
:103F7800E9F0850E82850F83E0600479008002A94C
:103F88000C7402121B7E7F0E021CAA123F9722E0BD
:103F9800F8A3E0F58388822274EC121BD874F71218
:103FA8001B688A0A8B0B8C108D11EA2405FEE435F8
:103FB8000BFF750C00AC18AD198E828F83123B3144
:103FC8001208698A088B09EA4509700302415FE50E
:103FD8000A2402F50A5002050B8A828B83A3A3A345
:103FE800E0A2E5502F851882851983123B3112090A
:103FF800C58A0C8B0DEA450D604F7912AC08AD09E6
:10400800123B2B850C82850D83121BD6E9F50C60BB
:1040180003024162850A82850B83E0F508A3E0F577
:1040280009AA08FB1209B9EA4B70197AFF7BFF123B
:1040380009B9EA4B70030241558A828B83E508F07F
:10404800A3E509F07508008008750C0E02416205A9
:1040580008900338E0F8E508C39840030241558505
:10406800080E750F007403780E121B558A828B8315
:10407800A3A3E0250EF8A3E0350F12452970D08ED2
:10408800828F8312417D1237738E828F83A3A3128E
:10409800417D123771EE2404F508E43FF5098508DF
:1040A80082F583E088828983A3A3A3A3F0A3E4F025
:1040B800EE2405F50EE43FF50F850E82F5831241D7
:1040C8007DA3A3A3A3123771751207751300781285
:1040D800121DEBEEFCEFFD7404121BC61213A37441
:1040E80002121B7EE4F5127812121DEB85088285F8
:1040F8000983E0FC7D007917123B2B12093B7402FF
:10410800121B7E7407121BB41237737407121BB488
:10411800E0FA4B603D850882850983124174121DBF
:10412800EB850E82850F83124AC51213A3740212FF
:104138001B7E7402121BCE123B2B1205C3E96026AC
:104148007407121BB4123B311214278019750C091D
:104158008008750C118003750C01124C5B85108268
:10416800851183124188A90C74098028E0F5087527
:104178000900780822123B35888289832212418EF1
:10418800E8F0A3E9F022E0F8A3E0F9850E82850FB4
:1041980083227404121B7E7F0C021CAA74EC121B6F
:1041A800D8124298751000EE2402F50CE43FF50D84
:1041B800850C82F583123B311209B98A088B09EA0A
:1041C8004509700302427C850A82850B83E06401FD
:1041D8006003024271AC08AD09AA0AAB0B1209AD23
:1041E800E9606E8508828509831234FEEE2406F59F
:1041F8000AE43FF50B8E828F83A3A3121E028E82E0
:104208008F83A3A3A3A3121E02850A82850B8312A0
:104218001E0279188E828F831242AA123B3112092C
:10422800D77406121B7EE9F8741668700B850A822B
:10423800850B83E4F0A38014E860128E828F8312CA
:104248003B31850E82850F83EAF0A3EBF08810805E
:1042580018780E121DEBAC08AD09EEFAEFFB120947
:10426800B37402121B7EE9F510AA08AB091209BF44
:10427800E510700E850C82850D83123B311205C93D
:104288008009741665107003751000A91002419F0B
:10429800EAFEEBFF8C0E8D0FEE2405F50AE43FF5E0
:1042A8000B22124D54850C82850D832274EA121B51
:1042B800D87508007509007E007F00750A00EC2497
:1042C80002F510E43DF5118035EC65087003ED65E5
:1042D80009600302436988828983A3A3E06A7003A3
:1042E800A3E06B707C88828983A3A3A3A3124C5F8D
:1042F800EE28FEEF39FFEA28FAEB39FB050A1244EB
:1043080039503A850A0C750D007403780C121B5548
:1043180085108285118312442C124529601FE508F7
:10432800450970A58C088D09888289831234FC8818
:10433800828983A3A3E02EFAA3E03F80BEE50AC3E7
:1043480094025003024427750800750900EE4F6077
:1043580010EEFAEFFB1214218A0E8B0FEA450F704C
:10436800057900024429750B000243FC850B0C7586
:104378000D007403780C121B55851082851183E09B
:10438800250CF50CA3E0350DF50DE50C2406F51408
:10439800E4350DF515851482F58312452E6042E546
:1043A8000C2404F512E4350DF513851282F58312F9
:1043B8001E02E50E2508FAE50F3509FB1213A37452
:1043C80002121B7E851282851383E02508F508A357
:1043D800E03509F509851482851583123B311214DD
:1043E80027E50B600D7C087D007900AA0CAB0D1247
:1043F80013BB050BE50BC3950A50030243748510E4
:1044080082851183124C5F88828983A3A3A3A3A307
:10441800A3E50EF0A3E50F12308FEEF0A3EFF079CD
:1044280001023F8E12443022E0250CF8A3E0350D3E
:1044380022900338E0F8E50AC3982274F0121BD8DA
:104448008A0E8B0F8C0A8D0B750D00750C00805031
:104458007916EE2406F508E43FF5098E828F83A3CA
:10446800A3121E028E828F83A3A3A3A3121E02850A
:104478000882850983121E02850E82850F83A3A3F5
:10448800123B311209D77406121B7EE9F50D74161A
:10449800650D706C850882850983E4F0A3F0050C2E
:1044A800900338E0F8E50CC3985066AA0C8A0875A2
:1044B800090074037808121B55850A82850B83A3AB
:1044C800A3124578E8FEE9FF8E828F8312452E609D
:1044D80040EA2401F508E43400F509900338E06562
:1044E800087002E509601488828983A3A3A3A3A3A3
:1044F800A3A3A3123B606003024458791802445AEC
:10450800E9609B124C5B7410121BB41245201241D7
:1045180088A90D7F08021CAAE0FAA3E0F5838A8225
:1045280022F988828983124D54EC4D2274F6121BAD
:10453800D87C0080010C900395E0F8ECC398501EDD
:104548008C0875090074027808121B5512456DE035
:104558006A7003A3E06B70DDE8FAE9FB80047A0077
:104568007B000246109003361245788882898322A0
:10457800E02508F8A3E03509F92274F2121BD88A5D
:10458800088B09750A0080278E828F83A3A3A3A3B3
:1045980012308660031214277C087D007900EEFA39
:1045A800EFFB1213BB8E828F83E4F0A3F0050A128F
:1045B80044395027850A0C750D007403780C121BBA
:1045C80055850882850983A3A3E0250CFEA3E03561
:1045D8000DFF8E828F83123B6070AD85088285093E
:1045E8008374FFF0A3F0024D4874F6121BD8120929
:1045F8006B8A828B83E582458370067A007B008014
:1046080007A3A3A3A3123B317F02021CAA74F412CE
:104618001BD889088C828D83E06402703C124BFEA3
:10462800FEA3E0F9EEF87402687003742969702932
:10463800750A02750B00780A121DEB7410121BB470
:10464800121E027410121BB4121E02A9081212E3E1
:104658007406121B7EE9F9800279010230C374E8FE
:10466800121BD874FB121B68E9851882851983F020
:104678008A168B17ECFEEDFF7510008E828F83A3D0
:10468800A3A3E0A2E4502D741D121BB4123B3112F7
:1046980009C58A828B83E58245837003024A9D7926
:1046A8000AEEFCEFFDAA16AB17121BD6E9F510604F
:1046B80003024AA0741F121BB4E0F508A3E0F50931
:1046C8007421121BB4E0F50AA3E0F50B7423121B46
:1046D800B4E0F50EA3E0F50F8E828F83E0640260EC
:1046E80003024A3EA3124C5F850882850983A3858D
:1046F8008212858313EE2406F50CE43FF50D8882BB
:104708008983124ADDF514E439F5157814121E75FB
:10471800010000280128404707000228054803280F
:1047280073470029344901295F49022900490329AF
:1047380034490429D8493E4AE50E450F6003024A28
:1047480039850C82850D83124C5FE8FAE9FB8A8271
:104758008B83E0850A82850B83124AE8121DEB8A57
:10476800828B83A3E0FCA3E00249C2E50E450F60FB
:1047780003024A39850A82850B837401F0124AD2F2
:10478800850882850983F07C007D008E828F83A353
:10479800A3A3A3E02401FAA3E03400FB120869EA0A
:1047A8004B60408A828B83E02402F8850A82850B5D
:1047B80083E028F0EA2404F8E43BF988828983E05E
:1047C800851282851383124AF6124AE8121DEB8A73
:1047D800828B83A3124AC5E5082403FAE43509FB52
:1047E8000249C7850A82850B83E02404F07C047D96
:1047F800007900AA12AB131213BB024AA0E50E45BA
:104808000F6003024A39124AD2FEA3E0FF850A82EA
:10481800850B837404F0EE850882850983F0EF85A3
:104828001282851383F07403121BCEEEFAEFFB128B
:1048380008698A0C8B0DEA450D70030248E38A82E9
:104848008B83A3A31234FC7401121BBE880E890F3C
:10485800780E121DEB7405121BB4121E027CFF7D2C
:10486800FF12086F7404121B7E8B0FEA450F70331A
:10487800850C82850D83124AC9121DEB850C828531
:104888000D83A3121E027C027D007ADF7B83120651
:104898006B7404121B7EE9700A7401121BB474FF56
:1048A800F0A3F08E828F83E064027039750C027574
:1048B8000D00780C121DEB8E828F83A3124AC5E57A
:1048C800082404FAE43509FB1213A37402121B7EB0
:1048D800850A82850B83E0240280097401121BB4C7
:1048E800EEF0A3EFF07401121BB4124AB774011270
:1048F8001BB4124AAE024A33E50E450F6003024A62
:1049080039850C82850D83124D4DAA16AB171212EC
:10491800E9850A82850B837402F0850882850983FC
:10492800EAF0851282851383EB024A36E50E450FBD
:104938006003024A39124AD2F8A3E0F9850A82854F
:104948000B837402F0E8850882850983F0E98512F3
:1049580082851383024A36850C82850D83123B318A
:1049680012139DEAFAF8C3950EE4950F405CE865CA
:104978000E450F70047A008021851882851983E01E
:10498800FCE50E2CFCE4350FFDC3EC98ED940050CB
:1049980003E08005E50ECAC39AFAEA850A82850B08
:1049A80083F08A0A750B00780A121DEB850C828544
:1049B8000D83E0250EFCA3E0350FFDAA08AB091214
:1049C80013A37402121B7E024AA0751007024AA0A4
:1049D800E50E450F705B850C82850D83124C5F8553
:1049E8000A82850B837407F088828983124AAF1282
:1049F8004AA7E0851282851383F0E82402FAE43995
:104A0800FB8A828B83124AB78A828B83124AAEA3AF
:104A1800A312308E124ABCF0E82405F85001098828
:104A2800828983124ABCA3124AF6A3A3A3A3F080E7
:104A38006775100B8062741D121BB4123B3112098A
:104A48006B8A828B83E5824583604A124C5F880CAF
:104A5800890DE8450D603E7425121BB4E0F5107809
:104A680010121DEF780E121DEB780A121DEB780854
:104A7800121DEB7407121BB4E0F9EEFCEFFDAA1649
:104A8800AB17850C82850D83121BD67407121B7E0B
:104A9800E9F510800375100EA9107405023DF4F0B5
:104AA80088828983A322A3E085088285098322124C
:104AB8004AFDF022124AFDA3A32290033C124D5452
:104AC80022E0F50E750F00780E22850C82850D8385
:104AD800123F97E022E0FAA3E0F8E4C8F9EA2822B6
:104AE800F08A828B83E0F50A750B00780A22124A55
:104AF800A7124AFD22E0850882850983A3A32274B0
:104B0800EE121BD874FE121B688A088B09ECFEEDA6
:104B1800FF890AAC18AD19EEFAEFFB1208698A0C86
:104B28008B0DEA450D7003024BEF851882851983BA
:104B3800123B3112096B8A828B83E58245837003AD
:104B4800024BEAA3A3124C5F880E890FE8450F7049
:104B580003024BEA7414121BB4E0F510A3E0F5113C
:104B6800E50AF50B780B121DEF7419121BB4121E0F
:104B7800027810121DEB741B121BB4E0F9AC0CADDB
:104B88000DAA08AB09850E82850F83121BD6740502
:104B9800121B7EE9F50B705274FE650A604C850C99
:104BA80082850D83E064027041124BFEFAA3E0F99E
:104BB800EAF87402687003742969702E851082857A
:104BC8001183124ADDF50CE439F50D780C121DEB52
:104BD800EEFCEFFDAA08AB091209EF7402121B7E66
:104BE8008008750B0E8003750B01A90B7402121B4C
:104BF8007E7F0A021CAAA3124C6388828983E02262
:104C080074F6121BD874FE121B68740C121BB412B3
:104C18004C5FE8851882851983F07401121BB4E98A
:104C2800F0E4F508F5097808121DEB750802780814
:104C3800121DEB7404121BBE880889097808121D1E
:104C4800EB79FE1209D77406121B7E7402121B7EC2
:104C58000246108E828F83124C6322E0F8A3E0F99B
:104C68002274F7121BD8EAFEEBFF8908900353124F
:104C78004AC51212E9EA5402600BA908EEFAEFFBE2
:104C880012085D800279017F01021CAA74F2121BCE
:104C9800D874FE121B68EAFEEBFF890A7401650AE4
:104CA80060147402650A6003024D437901120BF324
:104CB800E96003024D43EEFAEFFB1209B9EA4B60D3
:104CC800031209BFA818A919880889097808121DAC
:104CD800EB7508027509007808121DEB7508D77581
:104CE80009837808121DEB7CFF7DFF7A017B001297
:104CF80008637406121B7E8038850882850983A3A1
:104D0800A3A3A3A3A3124D4DEEFAEFFB1212D1E415
:104D1800F50CF50D780C121DEB7402121BB4121E63
:104D2800027CFF7DFFAA08AB0912086F7404121BEE
:104D38007E8A088B09E508450970BE7402121B7E3D
:104D48007F06021CAA123F97124D5422E0FCA3E0F2
:104D5800FD2274F4121BD88A088B09ECFEEDFF9033
:104D6800198DE0F4604B7A097B001213C7EA4B6097
:104D7800408A828B8374B1F0A3E4124DBCF08A821E
:104D88008B83A3A3E508F0A3E509124DBCA3EEF0BD
:104D9800A3EFF0740C121BB4124C5F8A828B83A3AE
:104DA800A3A3A3A3A3A312418890198DE0F912131A
:104DB800D30230C3F08A828B83A3A3A3A32274EE09
:104DC800121BD874FA121B688A0A8B0BE9FF8C082D
:104DD8008D097E00850A0C850B0D780C121E2F009C
:104DE8000410A2500E4E314E504E734E964EB94E90
:104DF800EA4E0D4F244F544F0350265049507750D8
:104E0800A250A2507D4F74016F70198508828509E0
:104E180083E0C39403500D850882850983E0901AC6
:104E280079F080027E180250CA74026F70158508E6
:104E380082850983E0F8A3E0F9901A7AE8F0A3E9FB
:104E4800F080027E180250CA74016F7019850882BA
:104E5800850983E0C39402500D850882850983E0A3
:104E6800900796F080027E180250CA74016F70197C
:104E7800850882850983E0C39405500D85088285DD
:104E88000983E0900797F080027E180250CA7401E7
:104E98006F7019850882850983E0C39402500D85D7
:104EA8000882850983E0900798F080027E180250F6
:104EB800CA74106F7027750C10750D00780C121DD0
:104EC800EBAC08AD097A997B071213A37402121B85
:104ED8007E8A0C8B0D850C82850D8380027E1802DC
:104EE80050CA74016F7019850882850983E0C394DC
:104EF80002500D850882850983E09007A9F0800299
:104F08007E180250CA74016F700D85088285098366
:104F1800E0901A7DF080027E180250CA74046F7007
:104F280026908343780C121A208508828509837895
:104F38000C1218305011850882850983121A569070
:104F480007AB121A6280027E180250CAEF70211253
:104F58000803E97013121277E9F50D79501214FF5E
:104F6800E9F50C121265800A90083E7401F080027F
:104F78007E180250CA74076F707C750E06750F0094
:104F8800780E121DEB850882850983A3AC82AD8358
:104F98007402121BC61213A97402121B7E8A108B8C
:104FA8001185100E85110F7C007D00AA18AB19859C
:104FB8000882850983E0F912120BE9F50CE50CC3A8
:104FC800940A502E120803E97015A90C12127DE9F3
:104FD800F50E79501214FFE9F50D1212658019A823
:104FE8000C7900743F28F582740839F5837401F050
:104FF80080067E0280027E180250CA74016F701902
:10500800850882850983E0C39402500D850882854E
:105018000983E09007AAF080027E180250CA740142
:105028006F7019850882850983E0C3940A500D853D
:105038000882850983E0901A7CF080027E1802506D
:10504800CA74016F7025850882850983E0C39407B7
:105058004019850882850983E0C39411500D85089D
:1050680082850983E0901A7EF080577E18805374F9
:10507800016F702290083DE0F50C85088285098350
:10508800E090083DF0E50C703990083DE06401704F
:1050980031121265802C7E188028C3E50A9427E512
:1050A8000B9400501B74026F701685088285098363
:1050B800E0FCA3E0FDAA0AAB0B120683E9FE80021E
:1050C8007E02EEF97406121B7E7F0A021CAA74EC9B
:1050D800121BD874DA121B68890D8A128B138C0A7A
:1050E8008D0B743A121BB4E0F50C9082CFAC18AD5E
:1050F800197406121A7BAC18AD19AA12AB13A90DB4
:1051080012120BE9FEEEC3940A400302524AEEF96A
:10511800121247E9FF901A79E06402700474018062
:10512800027400F5087808121DEFAD0CEFFCEEF9DB
:10513800AA0AAB0B1212B97401121B7E7C147D00F3
:1051480079007412121BC61213BB8A0E8B0F850EC0
:1051580008850F097412121BCE7A1075F006EEA49A
:105168002424F91214F9E9703C7C1079FF741212A6
:105178001BC612141BE9702D7422121BB4AC82AD2D
:10518800837A0475F006EEA42425F91214F9E9F5DA
:10519800087412121BCEEFA2E0E433F9AA0AAB0B93
:1051A80012070DE9F87406121BCE7A0C74702EF9EA
:1051B8001214F9E970797406121BC612123B750EA7
:1051C80000E50EC394045067A80E7900E875F00353
:1051D800A4C8AAF075F000A42AFA75F003E9A42A75
:1051E800F97406121BB4E58228F508E58339F50938
:1051F800850882850983E0F8A3E0F9E849602C85F1
:105208000882850983A3A3E0F510751100781012B0
:105218001DEB850882850983E0FCA3E0FDAA0AABA3
:105228000B1209DD7402121B7EE9F8050E8092EF5D
:10523800A2E1500E900795E0F9AA0AAB0B1209E318
:10524800E9F87404650C700F901A79E0640270072D
:10525800AA0AAB0B1212B379007426121B7E7F0CBC
:10526800021CAA74F7121BD8EAFEEBFF120803E926
:10527800706790083EE06401701B121277E9F50828
:1052880090083E7400F07C0A7D0079007A3F7B0824
:105298001213BB8039750800E508C3940A502FA87B
:1052A800087900743F28F582740839F583E06401B1
:1052B8007018A90812127DE9FAA8087900743F2825
:1052C800F582740839F5837400F0050880CA7950AE
:1052D8001214FFE9F5081212657F01021CAA74F284
:1052E800121BD8890BEAFEEBFF8C088D09750A0A98
:1052F800E50B600C14600914604414606402538B5D
:10530800EEFAEFFB121259E9F50AE50AC3940A50BE
:1053180072E5084509606C750C06750D00780C126D
:105328001DEBEEFCEFFDAA08AB091213A3740212E1
:105338001B7E8A0C8B0D850C82850D838045EEFAC9
:10534800EFFB121253E9F50AE50AC3940A5034E553
:10535800084509602EAA08AB09A90A12124DE9806E
:1053680022EEFAEFFB12125FE9F50AE50AC3940A86
:105378005011E5084509600BAA08AB09A90A1212E1
:105388004DE9F8A90A7F06021CAA74F2121BD88AF2
:105398000C8B0DE9FF7E1574FF650C700474FF65B6
:1053A8000D702A750800E508C3940A5014EFFC7ABA
:1053B800027B00A908121229E960027E0005088014
:1053C800E5EF60627AA17B12120C178059AA0CAB28
:1053D8000D120BE78A0A8B0B850A08850B09E5086D
:1053E800450960407C007D00E5082405FAE435099C
:1053F800FB850882850983A3A3A3A3E0F912120BF6
:10540800E9F50AE50AC3940A500EEFFC7A027B001C
:10541800A90A121229E97E00EF600BAA08AB09124B
:1054280012A180027E14EEF97F06021CAA74EE1205
:105438001BD88A0E8B0F8C0A8D0B7412121BB4E0CA
:10544800F50CA3E0F50D75081574FF650E7004746E
:10545800FF650F701E7E00EEC3940A5061AC0CAD60
:105468000DAA0AAB0BEEF912122FE96003750800BA
:105478000E80E4AA0EAB0F120BE78A108B11AE1048
:10548800AF11EE4F60357C007D00EE2405FAE43F55
:10549800FB8E828F83A3A3A3A3E0F912120BE9F575
:1054A80009E509C3940A5016AC0CAD0DAA0AAB0B5A
:1054B800A90912122FE97508008003750814A908B4
:1054C8007F0A021CAA74F7121BD8EAFEEBFF9007AA
:1054D800AFEEF0A3EFF0900795E0FC7D007A267B15
:1054E80000120683E9F508900795E0F91209477F4D
:1054F80001021CAA74F0121BD874EC121B688A0CE7
:105508008B0D850C82850D83A3A3E024FA7003021A
:10551800597524FD70030257EA1470030255EC1400
:10552800601024FD70030257921470030258290278
:105538005988AE0CAF0D9007AFE0F8A3E0F9E84941
:1055480060669007AFE0F8A3E0F5838882E0F8A3EF
:10555800E0F9E8496052EE240CF582E43FF583E077
:10556800F5087808121DEFEE240BF582E43FF58369
:10557800E0F98E828F83A3A3A3A3A3A3A3A3A3E08D
:10558800FCA3E0FDEE2403FAE43FFB9007AFE0F84C
:10559800A3E0F5838882E0F8A3E0F5838882121BF4
:1055A800D67401121B7E80398E828F83A3A3A3A396
:1055B800A3A3A3A3A3121E029007AB121A3E1207BD
:1055C8001F7402121B7EE9601879018E828F83A3F3
:1055D800A3A3A3A3A3A3A3A3E0FAA3E0FB12071921
:1055E800E9025988AE0CAF0D7508008E828F83A32F
:1055F800E060030257148E828F83A3A3A3A3A3E0C2
:10560800A2E04003025714900849E0F8A3E0F9E843
:105618004960030257147C0E7D007900AA18AB1963
:105628001213BB8A0A8B0BAA0AAB0BEE240CF58269
:10563800E43FF583E0F8A3E0F9E8496036750A0627
:10564800750B00780A121DEBEE240CF582E43FF589
:1056580083E02410FCA3E03400FD7402121BC61280
:1056680013A37402121B7E8A0A8B0B850A82850B90
:1056780083804F8E828F83A3A3A3E0FAA3E0FB125B
:105688000BE78A0E8B0F850E0A850F0BE50A450B73
:10569800602D750E06750F00780E121DEBE50A24B5
:1056A80005FCE4350BFD7402121BC61213A3740229
:1056B800121B7E8A0E8B0F850E82850F8380030254
:1056C80059888E828F83A3A3A3A3A3E0A2E25004E8
:1056D800D2F08002C2F0A2F0E433F87900740C1220
:1056E8001BB4E048F0A3E049F0EEFCEFFDAA18ABCC
:1056F80019121241E970127A027B00900795E0F9BD
:105708001213F7E9790002598A7508159007AFE076
:10571800F8A3E0F9E849606F9007AFE0F8A3E0F577
:10572800838882A3A3E0F8A3E0F9E84960598E8250
:105738008F83A3E0FC79018E828F83A3A3A3E0FA71
:10574800A3E0FB9007AFE0F8A3E0F5838882A3A36A
:10575800E0F8A3E0F5838882121BD6E5086028AC40
:105768000879038E828F83A3A3A3E0FAA3E0FB90BA
:1057780007AFE0F8A3E0F5838882A3A3E0F8A3E0ED
:10578800F5838882121BD6025988AE0CAF0D90079C
:10579800AFE0F8A3E0F9E84960459007AFE0F8A367
:1057A800E0F5838882A3A3E0F8A3E0F9E849602F35
:1057B800850C82850D83A3E0FC79028E828F83A3FA
:1057C800A3A3E0FAA3E0FB9007AFE0F8A3E0F5831A
:1057D8008882A3A3E0F8A3E0F5838882121BD6028F
:1057E8005988AE0CAF0D7C007D00EE2404FAE43F2E
:1057F800FB8E828F83A3A3A3E0F912120BE9F508AD
:10580800E508C3940A5017EE240AFCE43FFD7A0425
:1058180075F006E508A42425F91214F3E9F80259ED
:1058280088AE0CAF0D9007AAE06019901A7CE0F9D9
:105838008E828F83A3A3A3E0FAA3E0FB120719E9E2
:10584800F8025988901A79E0701679058E828F834C
:10585800A3A3A3E0FAA3E0FB120719E9F802598809
:105868008E828F83A3A3A3E0FAA3E0FB120BE78A3F
:105878000A8B0B850A08850B09E5084509700302A0
:1058880059888E828F83A3A3A3A3A3A3A3E0A2E036
:10589800506D850882850983A3A3A3A3E060608E69
:1058A800828F83A3A3A3A3A3A3A3A3A3E0F50AA31F
:1058B800E0F50B7409780A121B46E50A5401F8E56D
:1058C8000B5400F9E8A2E04036740E121BCEE5082E
:1058D8002405FAE43509FB850882850983A3A3A377
:1058E800A3E0F912120BE9701679038E828F83A355
:1058F800A3A3E0FAA3E0FB120719E9F8025988EE1E
:105908002405FCE43FFD850882850983A3A3A3A39E
:10591800E0F98E828F83A3A3A3E0FAA3E0FB12121F
:10592800AD9007AFE0F8A3E0F9E84960539007AFFE
:10593800E0F8A3E0F5838882A3A3E0F8A3E0F9E800
:1059480049603D7C0079008E828F83A3A3A3E0FA8F
:10595800A3E0FB9007AFE0F8A3E0F5838882A3A358
:10596800E0F8A3E0F5838882121BD68013AE0CAF53
:105978000D8E828F83A3A3A3E0FAA3E0FB12120586
:1059880079017414121B7E7F08021CAA74F5121B7D
:10599800D874F2121B688909EAFEEBFF8C0AAC186E
:1059A800AD197A0E75F006E509A42420F91214F948
:1059B800E9705F7C0679FFAA18AB1912141BE9700D
:1059C80051740C121BB4E0F8A3E0F9E8F508E50AF5
:1059D8006005EE42088004EEF45208A808790074C5
:1059E8000C121BB4E0687003A3E0696021A8087971
:1059F80000740C121BB4E8F0A3E9F0AC18AD197AE6
:105A08000E75F006E509A42420F91214F3E97901CA
:105A180080027900740E121B7E7F03021CAA74F0A8
:105A2800121BD874E6121B68890B8A0C8B0DECFECE
:105A3800EDFF740C121BCE7A0E75F006E50BA4244C
:105A480020F91214F9E96003025B567C0679FF74A9
:105A58000C121BC612141BE96003025B56AC18AD8E
:105A6800197A0C7470250BF91214F9E96003025BBA
:105A780052750A00AA18AB1912123BE50C450D70B5
:105A88002E7C0C7900AA18AB1912141BE9600302CA
:105A98005B387C0C7D007900AA18AB191213BB8AFD
:105AA800088B09850882850983750A01025B38AC71
:105AB80018AD19AA0CAB0D1212358A0E8B0F850E74
:105AC80008850F09E50845097030EE4F601BAC18D2
:105AD800AD197A007B001212358A0E8B0FA80EA919
:105AE8000F88088909E8497004790080638508826D
:105AF800850983E50CF0A3E50DF085088285098307
:105B0800A3A3E0F87900EE687002EF696022EEC0A6
:105B1800E0850882850983A3A3D0E0F0EE4F700DDD
:105B28008508828509837400F0A37400F0750A0162
